:020000040800F2
:1040000050080020654100081D510008215100089A
:1040100025510008295100082D510008000000001A
:104020000000000000000000000000003551000802
:104030003151000800000000395100083D510008CE
:104040004151000845510008495100084D510008F0
:104050005151000855510008595100085D510008A0
:104060006151000865510008695100086D51000850
:104070007151000875510008795100087D51000800
:104080008151000885510008895100088D510008B0
:104090009151000895510008995100089D51000860
:1040A000A1510008A5510008A9510008AD51000810
:1040B000B1510008B55100086D5200087152000856
:1040C00075520008795200087D520008815200089C
:1040D00085520008895200088D520008915200084C
:1040E00095520008995200089D520008A1520008FC
:1040F000A5520008A9520008AD520008B1520008AC
:10410000B5520008B9520008BD520008C15200085B
:10411000C5520008C9520008CD520008D15200080B
:10412000D5520008D9520008DD520008E1520008BB
:104130000120704710B5094C02E003F015FB0C3468
:104140000748844208D26068A16822688142F4D19D
:10415000002103F015FBF2E710BD00BFB87700089F
:10416000D0770008024CA04730B1024CA04703E0D2
:104170003141000835410008034C4FF00000A047D2
:10418000024C034DAE462047BD5900086577000834
:044190009577000817
:1042000003F060B901F0F6BF01F06CB801F04EBAEE
:1042100043E042E001F086BA01F09CBA01F06EBBC7
:1042200048E047E063E062E06BE06AE038E037E0F6
:104230004AE049E075E047E000F0BABE26E025E03C
:104240001EE01DE01FE01EE001F090BA00F086B80D
:1042500000F0A4BA00F0B4BA01F078BD01F0A0BD3E
:1042600001F048BD01F0C4BD13E012E003F02CB82A
:1042700000F03ABF00F022BF02F0A2BA02F0A8BAE2
:104280002E4B1B6818472E4B1B6818472D4B1B687D
:1042900018472D490888088870472B4908807047BF
:1042A0002A49C869012240EA0200C861086A002858
:1042B000FCD1704726498868012240EA02008860E4
:1042C000C8680028FCD17047204B47F2C152DA6120
:1042D0001A6A002AFCD147F2C052DA6140F2C902E0
:1042E0001A625862996247F2C152DA617047184BFC
:1042F00045F290529A605861D96045F291529A60A5
:104300007047134B45F211529A60DA68002AFCD1CB
:1043100045F210529A605861D96045F211529A6084
:1043200070470C4940F220020B4B4A6118884FEA53
:1043300000400A61198808447047000028000008FE
:104340002400000820000008000000600000024077
:10435000000402400010014000000064D44AD54B24
:104360002DE9F04F81B08DF8000008208046102024
:104370008146D1485FF48046B3469DF800600C004A
:10438000CE49450CAA46CE4D272E00F2AC81DFE87F
:1043900016F02800310039003C004100490050006F
:1043A0005F006100790086008000D90020013101A2
:1043B000330136014301450154015701AA01AA0105
:1043C000AA01AA01AA01AA01AA01AA01AA01AA0195
:1043D0006501990199019D01AA019901990199012C
:1043E0009901C3485FF4EB7140F8081BD4F5E17103
:1043F000016078E1BE485FF4EB7140F80C1BD4F526
:10440000E171F5E7BB4804606DE1BB486421B1EBA5
:104410005401EDE7B94801222240016851EA825176
:10442000016060E1002C14BFC3F80080C2F8008076
:1044300059E1012C04D1B24902200860286052E100
:10444000002C40F05081C3F80090C2F800904AE17F
:10445000AC48D8E7AC48AD4924B900220260AC486A
:10446000086040E1012C03D100220260A948F7E76F
:10447000A94A0A60032140F80C1B40F8084B641C51
:104480006108B5E7012C19BF012101600120086016
:1044900029E12022012C14BF02600A6023E10422DA
:1044A000430D082C00F21F81DFE814F00900110011
:1044B000190021002900300037003E0045009049D6
:1044C000C0F800900B600260C0F800800BE18C4CDB
:1044D000C0F8009023600A60C0F8008003E1884CB7
:1044E000C0F8009023600260C1F80080FBE0C0F8D3
:1044F0000090834803600A60C1F80080F3E0C1F8CF
:1045000000902B600260C0F80080ECE0C1F80090E1
:104510002B600A60C0F80080E5E0C1F800902B60D5
:104520000260C1F80080DEE0C1F800902B600A60F4
:10453000C1F80080D7E0C0F800902B600A60C1F895
:104540000080D0E05FF400454026082C00F2CB80CC
:10455000DFE804F0050C12191F252C323900C3F8CE
:1045600000A00660C3F800B01D60BCE0C3F800A066
:104570000660C2F800B0F7E7C3F800A00660C3F811
:1045800000B01560AFE0C3F800A00660C2F800B04C
:10459000F7E7C2F800A00E60C3F800B0E4E7C2F885
:1045A00000A00E60C2F800B01D609CE0C2F800A040
:1045B0000E60C3F800B0E4E7C2F800A00E60C2F8D5
:1045C00000B015608FE0C3F800A00E60C2F800B024
:1045D000D7E7524852490160524880210160524851
:1045E000524901605248012101605248852140F83A
:1045F0002C49FDE6504806E75048046073E05048F7
:1046000004604948016851F4802101604D488421CB
:10461000016047480021EBE64B48F4E63F487FF055
:10462000706201680A400260016851F03061016007
:104630004648812140F83449DAE645480021EFE652
:104640004448012C04D14449C1F800A08421CFE69C
:104650004249C1F800A08521016044E0404C7FF050
:1046600070612068260D01402160206850F0807044
:104670002060C5F800B0012001F010F82048066065
:10468000012001F00BF82E60012001F007F81C4812
:10469000C0F800B0022001F001F820687FF07061DE
:1046A00001402160206850F0006020601BE000BFE6
:1046B000141001401010014010180140141801405E
:1046C000140C01409DF80000E1B20AE09DF80000E2
:1046D000E1B200F063F89DF80000210AC9B2401C65
:1046E000C0B200F05BF8002001B0BDE8F08F00BF61
:1046F0002C0C00403434014038340140083C014067
:10470000100C0140282C0140202C014004100240D4
:1047100002841D0402841D0702841D00000C014058
:1047200038B4BB340008004000080140BB11101130
:10473000007400402C140040500402404804024021
:1047400028080040001400402C08004034080040B5
:1047500010040040002C01401414014010140140CA
:10476000040C01400B490C4B70B440220A60002538
:1047700080240600AE40360654BF1C600C601A60F0
:104780000A606D1CEDB2082DF3D31C601A600C603A
:1047900070BC7047100801401408014030B5C006D5
:1047A0000C0006492025C00E0D60FFF7DBFF4A48CC
:1047B00005602000BDE83040D4E700001010014043
:1047C000454B3F4A70B43F4D01003F4820240C291F
:1047D00073D8DFE801F007140C1C24555A61637389
:1047E00065686B005FF0C8401C60008866E05FF0A1
:1047F000C8401C6000880421014088105EE05FF022
:10480000C8401C60008810210140081156E05FF08C
:10481000C8401C60008808210140C8104EE02B48A9
:1048200063020168050D0B4029490C6825400C689E
:1048300053EAC503450D25400C6853EA5503850D21
:104840002540046853EA4503450C25400C68096877
:1048500053EAD503850C2540C40C0C4053EA55039C
:1048600053EA440103685FF400401840136812687B
:1048700008430821194001434020104008431DE02F
:10488000106804210140880818E012485FF4AF6105
:1048900000684843800A11E01C300FE0D0300DE082
:1048A00000F2EC200AE02868C00B07E0286801212C
:1048B000000A014091F0010000E0002070BC704748
:1048C00008140140080C0140047900080808014060
:1048D000081001404C3C01401410014010B5184C28
:1048E00002F052F85FF4803002F06EF802F08AF8BD
:1048F0002070012817D1102001F056FF022001F08E
:1049000049FF104810490160012002F093F8392056
:1049100002F0ACF80028FAD0022002F091F802F080
:1049200097F80828FBD10948094940F8041B0949B0
:104930000160002002F092F807480849016010BDAC
:104940004A0400200410024002841D00141002409A
:10495000170100007DAE00001C1002402F80802057
:1049600030B581B05FF48041480302F001F85FF494
:10497000C06001F0B3FF14208DF8000001208DF815
:1049800001008DF802008DF80300684601F0AEFFCB
:10499000012413208DF8000020468DF80100002529
:1049A0008DF802508DF80300684601F09FFF1D202E
:1049B0008DF8000020008DF801008DF802508DF870
:1049C0000340684601F092FF01B030BD1848194914
:1049D000194A40F8041B194940F8081B184901609E
:1049E0001848194940F8041B234901601749184821
:1049F0000860184941F8042B174A41F8082B174A58
:104A00000A601749174A41F8042B174A41F8082B46
:104A1000164A0860164941F8042B5FF0BB3241F892
:104A2000082B086013485FF080610160704700BF89
:104A300000080140BB888011001011BBBB3B83887C
:104A4000FFE70000000C014018B8BB3B0C0C014014
:104A5000FFFF00000010014088883833EFFF00009E
:104A600000140140BB84BBB8BB1B13BB833333B3FF
:104A7000001801400400014038338888084809497B
:104A8000094B5FF020420160084909480860094964
:104A90001160094A1360094A1060094801607047B3
:104AA000040000A0020F101002071010040100A063
:104AB00001041010115000000C0000A00C0100A017
:104AC000080000A010B5114C85B00020ADF8000022
:104AD0005FF48271ADF80210ADF804000221ADF868
:104AE00006100121ADF808104902ADF80A10039034
:104AF0000720ADF810006946200001F0D5FF012124
:104B0000200001F0E9FF05B010BD00BF003C0040EF
:104B10001448154940F808195FF4D551016013494C
:104B2000820C0A60016851F0010140F8141B104921
:104B300001601048002140F8041B5FF0C04140F8BC
:104B40000819016851F0010101600B4940F8401B50
:104B5000242140F8041B094940F80819084901605C
:104B6000704700BF100002404C2401400C0002407E
:104B7000C07500000C0402409175000008740040EC
:104B8000B13500000348012140F8081BC10C016049
:104B9000704700BF00740040304930B4304C0020F2
:104BA000086030495FF4BC025FF480130C25086094
:104BB0002D4908602D490A602D4A13602D4B1C6059
:104BC0002D4C20602D4C20602D4C20602D4C2560FC
:104BD0002D4C0B2525602D4C0A2525602C4C80255D
:104BE00025602C4C20602C4C2060086850F001009F
:104BF0000860106850F001001060186850F0010063
:104C00001860086850F00800086008680007FCD4C5
:104C1000106850F00800106010680007FCD4186895
:104C200050F00800186018680007FCD4086850F0BD
:104C30000400086010684007FCD4106850F00400BD
:104C4000106010684007FCD4186850F00400186029
:104C500018684007FCD430BC704700BF043C0140DA
:104C6000000110000428014004240140083C0140D8
:104C700008280140082401402C3C01402C28014018
:104C80002C240140343C01403428014034240140AC
:104C90000C3C01400C2801400C240140354870B404
:104CA000354D092140F8041B232140F8081B12212F
:104CB00040F814193149032240F808297823036089
:104CC0005FF4004041F8380900240C608521296018
:104CD0002B4D472645F8046B2A4E2E602A4E01259F
:104CE00046F80C593160294E3260294A294E42F863
:104CF000086B294E42F81469C60942F80859274D35
:104D00001360274B81221A60264B43F8044B264C34
:104D10001C60264C5FF4967344F8043B2360244BDC
:104D200033241C60234C244B44F818392260234C54
:104D300013222260632445F8204945F808690826B3
:104D400045F8046929601E49C72541F8045B41F80C
:104D5000084B322441F8044B642441F8184941F8C7
:104D6000082941F82C3B086016489121016070BC6D
:104D7000704700BF282C0140002C0140442C01400A
:104D800028040040E70300000C040040280800400D
:104D90002C0800404F460000282300002C1400403F
:104DA00000080040280C0040F3010000340C0040D3
:104DB000200C0040180C00407878000028140040B7
:104DC00028340140003401400F481049104A10B403
:104DD000006809681268A8B10E4B040A98701C712B
:104DE000040C9C71000E18729972080A1873080C52
:104DF0009873080E18749A74100A1875100C987528
:104E0000100E187610BC7047E8F7FF1FECF7FF1F75
:104E1000F0F7FF1F000000200A0F0A2A39BF3032C6
:104E200000F8012B373200F8012B090109090A0E9D
:104E30000A2A39BF303200F8012B373200F8012B33
:104E40000902090A0A0D0A2A39BF303200F8012B7B
:104E5000373200F8012B0903090B0A0C0A2A39BF63
:104E6000303200F8012B373200F8012B89B20A0BDF
:104E70000A2A39BF303200F8012B373200F8012BF3
:104E80000905090D0A0A0A2A39BF303200F8012B38
:104E9000373200F8012BC9B20A090A2A39BF303269
:104EA00000F8012B373200F8012B0907090F0A29F6
:104EB00039BF303100F8011B373100F8011B0021E8
:104EC00001707047F0B50021234E04200024FFF745
:104ED00077FCC143214889B20A00038805259A431B
:104EE000170020D019273770D60548BF0324960530
:104EF00048BF0424560548BF0524150548BF0624AD
:104F0000D30448BF0724930448BF0224530448BF76
:104F10000124130448BF0824130748BF092452067C
:104F200016D50A2414E00288114211D032787AB9D9
:104F30000B4A167866B94E0548BF05240E0548BFD2
:104F400006240B0748BF09240B0448BF082415702A
:104F500001802000F0BD00BF2D0400203C04002093
:104F60002E040020024A118001000320FFF7F6B949
:104F70003A0400200D4940587047000070B5060003
:104F80000D0001F01DFC0948B1B2281800F096F898
:104F900004000548310C281800F090F80500254061
:104FA00001F016FC280070BD06380008043800081F
:104FB0002DE9704D87B000240E003C4980466846BC
:104FC0000A780025B24602704A782146427004A849
:104FD000FFF722FF364823465146834604A801B412
:104FE0005A46404600F0C2FB01B0290004A8FFF772
:104FF00013FF304801990278C9B291421CD0007861
:105000000026019004A9895D18EBC600B4428DF812
:105010000010694602B404D1029B5A465146DBB2E5
:1050200002E000235A46514680B200F09FFB01B0D7
:10503000761CF6B2082EE5D31F48017800292FD040
:1050400006780721091B8B00012199400F229A4005
:1050500035FA03F3022E20D0052E06D0062E09D0F5
:10506000082E0ED0092E12D018E01B070CBFAD1869
:105070006D1A13E01B071B0F0F2B2CBFAD1A6D18F9
:105080000CE0072C2EBF0024641CE4B206E02100D3
:105090000EBF0724641EE4B200E008240021017062
:1050A000082CA2D3280007B0BDE8708DA8840008A2
:1050B000FFFF0000320400202F04002030B5040060
:1050C00015480D0001F0E6FB05281CBF342001F057
:1050D000C9FB2900200001F0A3FB042804BF012024
:1050E00030BD002030BD000010B50400600510D1B7
:1050F000094801F0CFFB05281CBF342001F0B2FBAA
:10510000200001F06BFB042804BF012010BD00202B
:1051100010BD012010BD0000A086010070470000F6
:10512000FEE70000FEE70000FEE70000FEE70000EB
:105130007047000070470000704700007047000093
:105140007047000070470000704700007047000083
:105150007047000070470000704700007047000073
:105160007047000070470000704700007047000063
:105170007047000070470000704700007047000053
:1051800070470000704700007047000002F09AB9B5
:1051900001F030B870470000704700007047000011
:1051A0007047000070470000704700007047000023
:1051B000704700002A4830B52A4D00240460287941
:1051C00018B12879401E287130BD14202871298912
:1051D0002548152931BF2C81298909182981E98998
:1051E000152908D3E9890818E881E889152811D21A
:1051F000002103200CE06879322803D26879401C32
:10520000687107E06C7168890121401C6881042085
:10521000FFF7A4F82878401C287028780C2809D3B8
:105220002C70A87900B90124AC71A88910B1A889A3
:10523000401EA881687810B16878401E6870A87810
:1052400010B1A878401EA870FFF73CFE010006D000
:10525000E87014210320FFF781F83C20E88130BD7D
:10526000100400402C040020ECFF000070470000F8
:105270007047000070470000704700007047000052
:105280007047000070470000704700007047000042
:105290007047000070470000704700007047000032
:1052A0007047000070470000704700007047000022
:1052B0007047000070470000704700007047000012
:1052C0007047000070470000704700007047000002
:1052D00070470000704700007047000070470000F2
:1052E000704700002DE9F041D94DD84F0120AE0C98
:1052F0002E60EC0C2C6000F0D1F93C600A2000F02C
:10530000CDF92C60322000F0C9F900F0A3F9E24891
:10531000BF495FF0C044006888426AD1E92000F0CC
:105320008BF920202080112000F086F9642000F005
:10533000B5F9D12000F080F9002525805E2020807D
:1053400017202080D02000F077F9072020802080CF
:105350000C202080362000F06FF940208046A4F811
:1053600000800C2000F068F9552626803A2000F0D5
:1053700063F92680C12000F05FF910202080208092
:10538000022626802680C02000F056F92580352090
:10539000208025802580012727802680C52000F0D9
:1053A0004BF92780D22000F047F927802220208067
:1053B000C82000F041F9278073202080372020800A
:1053C00025800F202080268004212180A4F80080E1
:1053D0006721218025802680208008202080802051
:1053E00020802580292000F027F92C2000F024F9C6
:1053F000DCE00021002000F013F90021084600F055
:105400000FF90021084600F00BF90021084600F0D2
:1054100007F90A2000F042F90121200D00F000F9FF
:105420000A2000F03BF940215FF4DE6000F0F8F85C
:105430000A2000F033F95FF4C441280D00F0F0F8C1
:105440005B49082000F0ECF8A90D012000F0E8F815
:10545000A90D022000F0E4F83021032000F0E0F86C
:105460000121092000F0DCF800210C2000F0D8F820
:10547000F100902000F0D4F800210F2000F0D0F8C7
:105480001621102000F0CCF84A48804641461120F1
:1054900000F0C6F80021122000F0C2F8012113200C
:1054A00000F0BEF85FF44C71A80D00F0B9F8424965
:1054B000404600F0B5F841485FF4706100F0B0F884
:1054C0005FF4D6415FF4207000F0AAF83C495FF425
:1054D000817000F0A5F8642000F0E0F8E10C880885
:1054E00000F09EF83749384800F09AF837493848B4
:1054F00000F096F83749384800F092F85FF40C5104
:105500005FF4417000F08CF834485FF4B85100F05B
:1055100087F83349334800F083F83349334800F0C3
:105520007FF833495FF4427000F07AF8314932482D
:1055300000F076F800215FF4047000F071F835484F
:10554000EF2100F06DF83448002100F069F82B4994
:10555000324800F065F800215FF4A06000F060F8C8
:105560000021274800F05CF82648052100F058F893
:105570002548012100F054F82448002100F050F89B
:10558000642000F08BF8A90D072000F049F8642092
:1055900000F084F80021680D00F042F85F48002117
:1055A00000F03EF85E483E6020802E60BDE8F0814D
:1055B000080800000101000037020000030100009C
:1055C000B0C100000B5A00000103000006090000F2
:1055D0000203000017100000030300000503000091
:1055E0000963000006030000090C00000703000027
:1055F0000C10000032220000090300008F0100009F
:105600000105000002050000010400000404000080
:10561000279304021102000012020000130200008E
:105620000A4B5FF480521A605FF0C043188008484C
:105630000260198070470000044A5FF480511160D5
:105640005FF0C042108002480160704714140140AE
:105650001014014000B5EF20FFF7EEFF5FF0C040EF
:1056600000880D485FF0C04109885FF0C04209061C
:1056700001601288D2B251EA02415FF0C04201607B
:105680001288D2B251EA02215FF0C0420160128852
:10569000D2B20A43026000BD3401002002490880F2
:1056A00008880028FCD170473404002070B505003C
:1056B0005FF0C0440E00FEF7B3FDB748B74900687D
:1056C000884218D12A20FFF7B7FF00202080F1B2CE
:1056D00021802080EF2020802B20FFF7ADFF280ABB
:1056E0002080E8B22080012020808F2020802C2084
:1056F000FFF7A2FF70BD31005FF40070FFF790FF6D
:1057000006482900FFF78CFFA9495FF48050086024
:1057100003492180A849086070BD00000102000013
:105720000202000030B5094C094D00212080002004
:10573000FFF7BCFF29002000FEF776FDFEF770FDA5
:1057400029002000BDE83040FEF76EBD3E04002079
:1057500080BB0000034A11EBC000034911EB40007D
:10576000805A7047E0FDFFFF307D00082DE9F04FC3
:1057700088461C00060000259146FFF797FF1CB9DC
:105780000020FEF745FD04E0012C04BF4846FEF76B
:105790003FFD6D1C0E2DF2DB0998761CB346007898
:1057A000002844D0002641465846801980B2FFF7B1
:1057B0007DFF09980078202801D021280CD10027EE
:1057C000212801D1042E27D0002578070DD544B912
:1057D0004846FEF71DFD12E0B1B2FFF7BBFF070020
:1057E000F2E7012C0BD10020F3E71CB90020FEF7F3
:1057F0000FFD04E0012C04BF4846FEF709FD3F04FD
:105800007F146D1C0E2DE0DB761C36B2082ECADB31
:1058100009980078212802D10BF2040B01E00BF269
:10582000080B0998401C099000780028BAD1BDE8FF
:10583000F08F00002DE9F04F88B00C000025804665
:1058400081464F46002115E0284B294E0A0013F8E7
:10585000223016F822606846DB08B608760116EB9F
:10586000C323244E491C89B216F82260F6089B19FE
:1058700020F812301029E7D330E021003800FFF77C
:1058800015FF1D497F1CBFB2481982465FF0C0401A
:1058900083469AF8000069464646001131F8100028
:1058A000FF36BE42ABF80000BEBF4F46641CA4B238
:1058B00021003800FFF7FAFE9AF8000069467F1CC5
:1058C0000007000F31F81000BFB2BE42ABF8000075
:1058D000BEBF4F46641CA4B26D1CADB25FF4005154
:1058E0008D42CAD308B0BDE8F08F00BF36D8030898
:1058F00037D8030838D8030876D803082DE9F041D3
:105900000500254888462549006816001F005FF0FD
:10591000C04488421BD12A20FFF78EFE300A208027
:10592000F0B22080380A2080F8B220802B20FFF7C8
:1059300083FE280A2080E8B220804046000A2080AA
:105940004046C0B220802C20FFF776FE21E01448AC
:105950003900FFF765FE13484146FFF761FE31004D
:105960005FF40470FFF75CFE0F482900FFF758FE54
:1059700031005FF40070FFF753FE0C482900FFF779
:105980004FFE0B495FF4805008600A4921800A49A4
:105990000860BDE8F0810000340100202793040274
:1059A00011020000130200001202000001020000B8
:1059B0001414014002020000101401402DE9F041CE
:1059C000684C694D83B0FEF789FFFEF7C9FFFEF70B
:1059D000FDFFFFF763F9FFF751F8FFF773F8FFF7E3
:1059E00097F8FFF7D9F8FFF7CDF85FF4FA711420B4
:1059F000FFF7B8FAFFF776FC0020FFF793FE962139
:105A00004620FFF717FF10B400235FF4FC625A2111
:105A10003020FFF7ABFE2000143001B400235FF408
:105A2000FC625A21C020FFF7A1FEFEF707FC01002F
:105A300002A8FFF7F1F94D4800235A21804602A839
:105A400001B442465FF48C70FFF790FE20002030D6
:105A500001B400235FF4FC6246213020FFF786FE8C
:105A60004348016804B0490554D50168890551D5FA
:105A70000168C9054ED53F4E00203070FFF77AFA15
:105A8000FEF7DEFB01283FD02000483001B40023A0
:105A90005FF4FC6232213020FFF768FE32215FF4B0
:105AA0008C70FFF785FA0700FEF7CAFB01B00128EA
:105AB00005D02000703001B40023424612E00021DE
:105AC0003800FFF75BFA012806D12000983001B4B6
:105AD00000235FF4FC6205E02000C03001B4002325
:105AE0005FF4FC6232213020FFF740FE01B0E83461
:105AF00010B400235FF4FC621E213020FFF736FE55
:105B000001B030780028FCD01B480068686028602D
:105B10001A4819E00168490505D419480068686009
:105B20002860184810E00168890505D41648006807
:105B300068602860154807E00068C00507D414486D
:105B40000068686028601348006800F007FE12488B
:105B50001249016001F0B8FB28688047002003B0BB
:105B6000BDE8F0810083000838010020FF07000035
:105B7000081001402F04002004C0000800C00008E5
:105B8000044001080040010804C0010800C00108E9
:105B9000044002080040020804080140BBBB8B8897
:105BA00070B54F4C4F4D22682B7833B95043686124
:105BB0005143A9610120287001E0012B2FD14A4EE9
:105BC000686870B9696992B2300000F0E9F8402263
:105BD0009821300001F0B6FC206840386860402011
:105BE0000AE0A86840229821301801F0ABFC6868F0
:105BF00040386860A8684030A8604021012001F06A
:105C000061FD3021012001F0D5FC686940306861F8
:105C1000A8694038A8613548816840398160A86921
:105C200030B9334903226860A86068610A7028703F
:105C300070BD00002A4AF0B52A4D0026EB681268B4
:105C40002C78403334B95043E86151432962012034
:105C5000287001E0012C32D1234C2E6109E0286923
:105C60001D4FE9683F5C401C67542861E868401C90
:105C7000E860E8689842F2D3184FE96938880B1851
:105C8000296AEB61081A2862110001F089FD60B9E8
:105C9000EE60991A200000F059F8E8697FF0FF01E2
:105CA000411804F2001000F051F810483A88816859
:105CB000891A81605FF44051022001F08DFC286A4E
:105CC00018B10B480078042805D1EE6001210020AE
:105CD00000F04EFA2E70F0BD9C03002092030020CD
:105CE000680300204001002064010020DC03002044
:105CF00090030020F0B5734E0400491C4F0200F0E1
:105D0000BDF88021300000F0E7FD0A2000F09CF88B
:105D1000380CC0B200F098F8380A4A4FC0B200F010
:105D200093F8002000F090F85FF4807503E014F819
:105D3000010B00F089F82800C5190004F7D1802173
:105D4000300000F0C7FDBDE8F040A7E0F0B55D4EC3
:105D500004005FF480750F0000F090F8802130009F
:105D600000F0BAFD0A2000F06FF8380CC0B200F065
:105D70006BF8380AC0B200F067F8F8B2314F01E0B2
:105D800014F8010B00F060F82800C5190004F7D1E1
:105D90008021300000F09EFDBDE8F0407EE0000074
:105DA000F0B5484E040015000F008021300000F0CF
:105DB00093FD032000F048F8380CC0B200F044F81E
:105DC000380AC0B200F040F8F8B21E4F00F03CF8BC
:105DD00004E0A52000F038F804F8010B2800C519EC
:105DE0000004F6D180213000BDE8F04000F072BD23
:105DF000F0B5344E0400491C4F028021300000F001
:105E00006BFD032000F020F8380CC0B200F01CF845
:105E1000380A0C4FC0B200F017F8002000F014F858
:105E20005FF4807504E0A52000F00EF804F8010B83
:105E30002800C5190004F6D180213000BDE8F040EB
:105E400000F048BDFFFF000030B50B4D04000221FB
:105E5000280000F053FE0028F9D02100280000F0AF
:105E600049FE0121280000F049FE0028F9D0280051
:105E700000F042FEC0B230BD003C004010B5114CF5
:105E80008021200000F028FD0620FFF7DDFF8021A3
:105E90002000BDE8104000F01DBD000010B5094C09
:105EA0008021200000F018FD0520FFF7CDFFA52080
:105EB000FFF7CAFFC007FAD480212000BDE81040D8
:105EC00000F008BD000C014004485FF4805181607F
:105ED000C908416009030160704700BF64030020E6
:105EE000944800B590F82010891E0ED0491E15D098
:105EF000491E01291BD8002100F8201F5FF44051E2
:105F000002205DF804EB01F067BBC17B28290ED1AC
:105F1000816A406A5DF804EB00F034BB0121002087
:105F200000F026F95FF44051022001F055FB00BD5E
:105F300030B5804C0220E57B01F0ECFB608402462A
:105F40007D48D82101F012FB94F8200010B10128FF
:105F500003D00AE0BDE8304014E02A2D06D1A16A42
:105F6000606ABDE8304000F039BB022000F022F941
:105F70002421052000F0FCFA00210220BDE8304079
:105F8000F6E0000030B56B4C00210025608C30B18C
:105F900003E0694B5B5C6354491C8142F9D384493B
:105FA00062681F284A60A2688A6005D0022000F05B
:105FB00001F925601A2126E0E27B282A01D02A2A4D
:105FC0000FD1607CA17C090451EA0060E17C50EAB9
:105FD0000120217D0143A07D6162E17D51EA002025
:105FE000A06220685149884240F09B805048617B04
:105FF0000068884203D3A07B08B111280BD302208C
:1060000000F0D8F82421052000F0B2FA0021012088
:1060100000F0AEF830BD606AA16AAF2A00F281805C
:10602000DFE802F06D7F7F58797F7F7F7C7F7C7F08
:106030007F7F7F7F7F7F5B7F7F7C7F7F7F7F615ED6
:106040007F7C5E7F7F7F7F677F6A7F7F707F737FCC
:106050007F7F7F767F7F7F7F7F7F7F7F7F7F7F7F59
:106060007F7F7F7F7F7F7F7F7F7F7F7F7F7F7F7F40
:106070007F7F7F7F7F7F7F7F7F7C7F7F7F7F647F4E
:106080007F7F7F7F7F7F7F7F7F7F7F7F7F7F7F7F20
:106090007F7F7F7F7F7F7F7F7F7F7F7F7F7F7F7F10
:1060A0007F7F7F7F7F7F7F7F7F7F7F7F7C7F7C7F06
:1060B0007F7F7F7C7F7F7F7F7F7F7F7F7F7F7F7FF3
:1060C0007F7F7C7F7F7F7F7F7F7F7F7F7C7F7C7FE9
:1060D0007F7F7F7C00F042FA30BD00F0E5F930BDF3
:1060E00000F04CFA30BD00F02DFA30BD00F030FA6F
:1060F00030BD00F0EBF930BD00F004FA30BD00F027
:10610000B5FA30BD00F03EFA30BD00F067FA30BDA0
:1061100000F092FA30BD00F0B3FA30BD00F0B2FAF0
:1061200030BD022000F046F820216CE75553424371
:10613000EC030020700300209C03002010B50C002D
:106140002200982101F0FEF92100012001F0BAFAA5
:106150003021012001F02EFA044803210170144877
:106160008168091B81600021017310BD900300202C
:1061700010B502000E480C000B4902730D2201609D
:10618000982101F0DFF90D21012001F09BFA074869
:10619000052180F8201034B1042100F8201F30219F
:1061A000012001F007FA10BD55534253700300203F
:1061B000DC03002000B520B1012808D0022809D056
:1061C00000BD102101205DF804EB01F0F3B95FF48C
:1061D000805105E01021012001F0ECF95FF48051BD
:1061E00002205DF804EB01F0F7B90000FFF778BE7C
:1061F000FFF79EBE0B4830B50B4C0C4D016821805B
:1062000021882A880A40510504D5094901600948B6
:1062100000688047208829880140080448BF01F0B1
:1062200063F830BD445C004040040020440400207A
:10623000FFFB00005800002010B5FEF7C5FD8F4899
:1062400000240068847200F01BF9054805490460C9
:106250005FF404400880044908604948046010BDA8
:10626000445C004044040020405C00403148324916
:1062700030B5324D097800240470804800684172BE
:10628000002001F083F95FF40071204601F086F9E7
:106290002021204601F08EF91821204601F0F2F964
:1062A00095F82C10204601F019FA5821204601F0EB
:1062B000DDF9204601F0B0F9204601F0A1F92146B0
:1062C000012001F06BF99821012001F0CFF9202184
:1062D000012001F06FF92146012001F07DF92146EE
:1062E000022001F05BF9D821022001F0CBF995F8EA
:1062F0002C10022001F0F2F95FF44051022001F06D
:106300006BF92146022001F055F915F82C1F2046A3
:1063100001F0E4F9204601F073F9204600F0B2FFE5
:106320001748012101603A483A4901603A4804702F
:1063300030BD00BF0E0400202B8400085400002054
:106340004E4800B50068807A58B10D4805210160BB
:10635000012001F079F9022001F068F92E480021AE
:10636000017000BD2A482B4900B5006888421CBF57
:106370000220FFF71FFF00BD0148042101607047A4
:10638000F003002070470000704700003B4900B553
:1063900009680A785206520E212A0DD1FE280BD127
:1063A000488848B9888838B9C888012804D107487E
:1063B000020003D1022000BD022000BD8861002040
:1063C000488200F04FF8002000BD00BF656400085F
:1063D0002A4900B509680A785206520E212A15D1B9
:1063E000FF2813D1488888B9888878B9C88868B9DF
:1063F000012001F029F9022001F018F904480549AB
:106400000160054800210170002000BD022000BD90
:1064100070030020555342439003002009B102202D
:10642000704700B102207047014900F0C7BC00BFAF
:10643000A8000020014900F0C1BC00BFB00000204E
:106440000E4900B50968C978062924BF002000BD9F
:10645000034A12EBC1015DF804EB00F0AFBC00BFD2
:10646000B800002028B905480121006801820020F9
:1064700070470148704700BFEC0300202004002053
:106480000848074A01210160002101601160034AA8
:106490005FF4E05111800160002070474404002047
:1064A000445C0040405C00408249087CC00702D543
:1064B0000448052104E0C97C0348252928BF24217C
:1064C000FFF73CBEF4030020E000002000B5FFF71A
:1064D000FBFC8E4801680A480A0E02710A0C4271E0
:1064E0000A0AC1718A49827109680A0C42720A0A51
:1064F0008272C1720C215DF804EBFFF71FBE00BF72
:106500002401002000B5FFF7DFFC804801680C483B
:106510004A1E491EC1707E49130E03700968130C90
:106520004370120A82700A0E02710A0C42710A0A42
:106530008271C17108215DF804EBFFF7FFBD00BF58
:10654000FC03002001480421FFF7F8BD04010020EE
:1065500001480821FFF7F2BD080100200348017837
:10656000132928BF12210448FFF7E8BD8303002048
:10657000014A907011737047100100200121002022
:10658000FFF7F6BD70B52A4E04000D003078F0B963
:106590002A002100282000F08FF8E8B12548007873
:1065A000000607D50220307029002000BDE87040A9
:1065B000FFF7F6BA0220FFF7FDFD24210520FFF7C3
:1065C000D7FF01210120BDE87040FFF7D1BD0228AF
:1065D00004BF2046FFF7E4FA70BD000010B5144C6C
:1065E0002278FAB90A0001002A2000F065F8E8B123
:1065F00010480078000608D4012020705FF4405154
:106600000220BDE8104000F0E7BF0020FFF7D2FDF8
:1066100024210520FFF7ACFF00210120BDE8104038
:10662000FFF7A6BD012A08BFFFF704FB10BD00005D
:10663000900300207C0300201E4800B5816841B90A
:10664000007C400705D4012100205DF804EBFFF732
:106650008FBD0220FFF7AEFD24210520FFF788FF44
:10666000002101205DF804EBFFF782BD00B5FFF7C4
:106670002BFC012100205DF804EBFFF779BD000041
:10668000FFF722BC0B4800B5816809B9002005E07E
:10669000007B000601D5002000E00220FFF78AFD04
:1066A00020210520FFF764FF002101205DF804EBA5
:1066B000FFF75EBD70030020144B00B589181B68FE
:1066C0008B4209D22A2804BF0220FFF773FD002065
:1066D000FFF770FD21210EE00D4B0E491B68096884
:1066E0005A43914210D02A2801D1022000E0002014
:1066F000FFF760FD24210520FFF73AFF002101206C
:10670000FFF736FD002000BD012000BD6C03002016
:10671000680300207803002030BF704720BF704717
:1067200040BF7047BFF36F8F7047BFF34F8F704705
:10673000BFF35F8F704701DF7047EFF3148070473E
:1067400080F31488BFF36F8F7047EFF309807047B1
:1067500080F309887047EFF30880704780F308885A
:10676000704762B6704772B67047EFF3108070479B
:1067700061B6704771B67047EFF31380704780F3CE
:1067800011887047EFF31280704740BA704700BA23
:106790007047000009490A6812F038020A600A6866
:1067A0001043086070470000044910230A689A43A8
:1067B0000A600A6810430860704700000020024029
:1067C00002482549016025490160704704200240C4
:1067D0002348016851F080010160704770B51D4D7C
:1067E0000400280000F056F8042813D11C4E30682D
:1067F00050F00200306008480460306850F04000FB
:106800003060280000F046F8012803D03168034AC0
:106810000A40326070BD00BF14200240FD1F00001E
:1068200070B504000F200D0000F034F804280ED1DC
:106830000B4E306850F00100306025800F2000F0D2
:1068400029F8012803D03168014A0A40326070BD3E
:10685000FE1F0000FF0F000023016745AB89EFCD4D
:10686000102002400A49086070470000084801688B
:10687000C90744BF012070470168490744BF02208F
:1068800070470068C00644BF03207047042070476B
:106890000C20024010B50400FFF7E8FF04E000F010
:1068A0000BF8FFF7E3FF641E012801D1002CF6D19D
:1068B00004B9052010BD000081B000200090FF2029
:1068C00001E00098401E009000980028F9D101B026
:1068D0007047000001617047416170472949024AD1
:1068E00002430A60704700000000FA050100F0B49E
:1068F0000A78C87858B323481B4C9310006814EBEF
:106900008305AC462C684F7810F4E060D0F5E06069
:10691000000A0426351A8E789207D20EFF23934080
:10692000AF403D000F27C74037402F43380190400C
:106930000C4A65469C43034023432B60087801239F
:106940004111C006C00E834042F8213007E00749DC
:1069500050110123D206D20E934041F82030F0BCF2
:10696000704700BF00E100E000E400E080E100E0EB
:10697000034A024B0B4003431360704780FFFF1F25
:1069800008ED00E00CED00E043480D4B016851F0CC
:106990000101016034490A6813400B600268094B29
:1069A0001340036002687FF480231340036008688B
:1069B0007FF4FE0202403B480A60002101607047FC
:1069C0000000FFF8FFFFF6FE33497FF480330A68CA
:1069D00013400B600A687FF4802313400B605FF460
:1069E0008032904203D09200904205D070470868F0
:1069F00050F4803008607047086850F4A0200860A8
:106A00007047000010B581B000240094312000F0E0
:106A10002DF80099491C009118B90098B0F5A06FA5
:106A2000F4D1312000F022F800B10124200001B09F
:106A300010BD000001490860704700BF600042427D
:106A4000094903230A689A4310430860704700000D
:106A50000548006810F00C0070470000014908600C
:106A6000704700BFD800424204100240410901298A
:106A700002D10949096805E0022919BF08490968D6
:106A8000064909680122C006C00E82400A401CBFA8
:106A90000120704700207047001002402010024083
:106AA000241002400810024002880B8812F4415260
:106AB00013434A881A438B881343CA881A430B89A5
:106AC00013434A891A438B891343CA891A430280A4
:106AD000098A0182704700000029018803D051F023
:106AE000400101807047024A0A400280704700BF9F
:106AF000BFFF0000818170478089704700B5008921
:106B000008421CBF012000BD002000BD10B5B14CE3
:106B100020B9012120680182002010BDA64800682C
:106B20000068804720680A3010BD0000A9480A4A62
:106B300000B500681278C1788A420AD3827842B9D7
:106B4000828832B981729C48006840688047002082
:106B500000BD022000BD00BF3101002010B59D4CDA
:106B600020B9012120680182002010BD92480068F0
:106B70008068804720680C3010BD00000F4A10B5B7
:106B8000944C126820689269C178407990472168D6
:106B90008A7A22B118B9087908B9887808B1022030
:106BA00010BD85480068C068804720684179C1727F
:106BB0002068C1780173002010BD0000240400206B
:106BC000844910B5096818B902200882002010BD58
:106BD000204C002020800878420615D1487A810692
:106BE00003D5217851F0020121704006207808D5A4
:106BF00010F0FE0020707048006800698047200097
:106C000010BD50F00100F5E74206520E012A04BF04
:106C1000204610BD4006400E022818D14979207840
:106C20000A07120F50F00100090607D5594951F81B
:106C3000221011F030011029DDD1DBE7554951F860
:106C4000221011F44051B1F5805FD4D1D2E7002079
:106C500010BD00BF420400205E4870B50068017896
:106C60004906490E05D1417A11F0DF014172002039
:106C700070BD022903D1418809B9017909B1022007
:106C800070BD417980220C0094430A0605D5414A23
:106C900052F8242012F0300204E03E4A52F8242038
:106CA00012F440523A4B1B789C42E8D2002AE6D0BC
:106CB000807A0028E3D0374810EB8405080628685E
:106CC0000BD510F03000102822D1200000F0BCFCC1
:106CD0003021200000F06EFC1AE010F44050B0F5B6
:106CE000805F15D12C4E5CB90C480178002000F073
:106CF000F5FC284801680E4096F44051016007E019
:106D0000200000F093FC2868064096F4405028606C
:106D10002948006840698047002070BD800000203D
:106D20002C4810B580230168487902009A43030675
:106D300005D5184B53F8223013F0300304E0154BFF
:106D400053F8223013F44053114C2478A24204D259
:106D50004C8814B90BB1897A09B9022010BD0D49CC
:106D600011EB82010A68000604D50848104090F033
:106D7000100003E00848104090F4805008600E486E
:106D8000006880698047002010BD00BFBF8F0000F1
:106D900030010020005C00408FBF00000D4800B5AE
:106DA0000068417A51F02001417203480068C069CF
:106DB0008047002000BD000028040020054A12681A
:106DC000538A20B98888C01A10820020704708684A
:106DD000C018704720040020F0B5734C256835F8C2
:106DE000100FA9680A0015D0A0B1AE88B04238BF14
:106DF00006463000884707002888801B288068885E
:106E000080196880002000F053FC32000100380037
:106E100000F0ACFB674E2888302738B13348390280
:106E200001800021002000F04DFC37802988AA88CD
:106E30002068914222BF03210172F0BD11B10521EA
:106E40000172F0BD062101725848594900220068BC
:106E500080B241F810203780F0BD000052482DE983
:106E6000F04104248046D8F80000050035F8101FD2
:106E700099B9007A042810D1B1480178012909D1C3
:106E80004A4A4B4B0021126892B243F8121030224A
:106E9000017022E0072410221FE0AE888E4223D327
:106EA000B14238BF0E46A96830008847070000206D
:106EB00000F0F4FB32000100380000F043FB310029
:106EC000002000F0FFFB288830221102801B288060
:106ED0006888801968800548018036480280D8F8A3
:106EE00000000472BDE8F0810224DCE746040020C3
:106EF00070B52D4D08242868017846784A0628D1B7
:106F0000092E02D1FFF712FE34E08188C278052EE7
:106F10000AD1802A44D28278002A41D100293FD167
:106F2000807A002831D03BE0407A032E07D1012A35
:106F300021D101BB80061ED5FFF730FF1AE0012EDC
:106F400019D1012A17D1B1B9800614D5FFF784FEF3
:106F500010E04806400E012804D10B2E0BD1FFF79C
:106F60000DFE07E0022806D1012EEFD0032E02D13C
:106F7000FFF7D6FE40B1BE4930000968496988472D
:106F8000032801D109240BE050B908480849002220
:106F90000068062480B241F81020064830210180A4
:106FA0002868047270BD000020040020505C00407E
:106FB0000460004048040020AD4A2DE9F043AE4D86
:106FC00081B009262868447803789046D8F80020D4
:106FD0005906490EB146062C0ED100296AD1807897
:106FE000012801D1D46954E0022801D1146A50E08B
:106FF00003285FD1546A4CE09269C6884788002C08
:1070000033D1002F56D1022E54D10479002C51D106
:10701000474C11B9818800293BD040795906490E67
:10702000012908D100219047002843D12868807A9F
:1070300000283FD02DE002293CD10107090F10F0B4
:107040007002000605D59E4850F8210010F030006F
:1070500004E09B4850F8210010F44050974B1B78F7
:10706000994227D232BB28B313E0082C02D109BBC6
:10707000304C0EE00A2C1DD101291BD1817AC9B1F7
:10708000C7B90179B1B9012E14D14079904788B9B7
:10709000294C20000ED02868002141828461002004
:1070A000A04700212A68254B108A98420FD182F808
:1070B000089039E02868D8F80010407809698847B6
:1070C00001000328EED1286880F808902CE00229FE
:1070D00000D010B90820107226E0117809061DD5DD
:1070E000D1880091D8F80030009C844202D20098E8
:1070F00010820DE088420BD293F82C10104C88427D
:1071000001D2002003E000F051FB08B901202070FB
:1071100013F82C0F9082FFF7A1FE05E003201072F8
:1071200056485FF44051018001B0BDE8F08300BFD4
:10713000C16B00080D6B00085D6B0008FFFF0000CD
:107140004B0400201C491A4A1A4830B509684A4CB9
:1071500089B252F8111089B210EB41052068017A0A
:10716000092917D02978017020686978AD1CAD1CF9
:10717000417028000088AD1CAD1C00F0E1FA2168C8
:10718000488028000088AD1C00F0DAFA2168888069
:107190006888C8802068012101722068C08810B901
:1071A000FFF7A6FE01E0FFF707FF00F047F830BD4C
:1071B0000860004000600040505C004030B52E4C3C
:1071C0002068017A022901D0042904D1FFF746FE84
:1071D0002068057A13E00825062910D14178052991
:1071E00009D10178490606D1C07800F04BF806486D
:1071F0000068006A80471E480068806880472068F1
:107200000572BDE8304019E02804002030B51A4C62
:107210002068007A032801D0052804D1FFF7DCFD9F
:107220002068057A06E00825072803D11048006881
:10723000C068804720680572BDE830400D4800B541
:107240000178002000F04AFA0B480068017A08290A
:1072500006D10A495FF480520A80094910220A8047
:10726000007A092804BF012000BD002000BD0000F5
:107270002404002080000020200400204604002078
:10728000480400200D4970B40022097851B90BE080
:107290000B4C084ED3B2521C14EB830425682E40CD
:1072A000334323608A42F3D3034950F080000860DF
:1072B00070BC70478F8F00004C5C00403001002094
:1072C000005C0040704700000448054A022101723A
:1072D0000449C0614262016208680047040400205A
:1072E00084000020540000208D482DE9F04F924D7D
:1072F000714E80468B4881461DE015EB8102176870
:10730000BFB23B0408D5136818401060874810EBE3
:107310008100001F0068804738060CD5207815EBE7
:1073200080010A681AEA02020A60854911EB8000AE
:10733000001F00688047D9F80000A8F8000000048A
:1073400040F1B8807A487B4CC9F80000B8F80000DA
:1073500001077A48090F2170824673480029CCD171
:107360005649574C8B46296811F44051ABF8001030
:10737000296811F03001ABF802102968214091F41E
:10738000005129602968314091F020012960B8F846
:107390000010C90621D428681AEA00002860FFF707
:1073A0000DFF28680440BBF80000C10448BF94F4F6
:1073B0008054800402D594F40054A4B22C60286850
:1073C0000640BBF80200C10648BF96F010068006D2
:1073D0006FD596F02006B6B26BE02F68BFB23906C3
:1073E00021D528681AEA00002860FFF7E7FE286820
:1073F0000440BBF80000C10448BF94F480548004EA
:1074000002D594F40054A4B22C6028680640BBF85E
:107410000200C10648BF96F01006800649D596F0D6
:107420002006B6B245E0390520D529680840286015
:10743000FFF788FE28680440BBF80000C10448BF7D
:1074400094F48054800402D594F40054A4B22C60C7
:1074500028680640BBF80200C10648BF96F0100637
:10746000800626D596F02006B6B222E039047FF5D4
:1074700062AF296808402860FFF7C8FE286804400A
:10748000BBF80000C10448BF94F48054800402D5C6
:1074900094F40054A4B22C6028680640BBF80200A3
:1074A000C10648BF96F01006800602D596F0200669
:1074B000B6B22E60BDE8F08FBF8F000046040020FA
:1074C0008FBF000030B5164C164D09E00A68164B08
:1074D00013400B60154911EB8000001F00688047C6
:1074E0002868208000041AD5114812492860208895
:1074F0000007000F0870104911EB80010A6892B272
:107500001304E3D41206EBD50A680C4B13400B604E
:107510000B4911EB8000001F00688047E0E730BD99
:1075200040040020445C00408F0F00003800002021
:10753000FF7F00004C040020005C00400F8F000023
:107540001C000020104B10B4521C13EB41015210D0
:1075500009D044780378801C53EA042321F8023BC5
:10756000891C521EF5D110BC70470000064B521CFE
:1075700013EB4101521005D051F8043B521E20F884
:10758000023BF9D170470000006000405249024AB6
:1075900002400A60704700BFF8FF0000324A044B07
:1075A00012EB80000268134019430160704700BF6E
:1075B0008F8900002C4A12EB8000104A03681A40A1
:1075C000CB0648BF92F01002890602D592F0200245
:1075D00092B2026070470000234A12EB80000D4A0D
:1075E00003681A40CB0448BF92F48052890402D544
:1075F00092F4005292B2026070470000BF8F000008
:10760000194911EB800003490268114091F440517F
:10761000016070478FBF00001349034A11EB8000DF
:1076200001680A40026070478F8E00000E4911EB1E
:1076300080000168490405D501680A4A0A4052F4ED
:107640008041016070470000074911EB800001682C
:10765000490605D50168034A0A4052F0400101601D
:10766000704700008F8F0000005C00401A4A4908F4
:107670004900126892B212EBC0002C4A42F8101076
:1076800070470000144A49084900126892B212EB90
:10769000C000274A42F81010704700000E490968E0
:1076A00089B211EBC000214951F8100080B2704737
:1076B0000949096889B211EBC0001D4951F8100051
:1076C00080B27047044A126892B212EBC0001B4AA3
:1076D00042F8101070470000505C0040154A1268D4
:1076E00092B212EBC000144A12EB40003F2908D3BB
:1076F0004A09C90604BF521E92B2910251F40041D8
:1077000005E04A08C90744BF521C92B291020160C9
:10771000704700000749096889B211EBC0000649AB
:1077200051F810008005800D704700000060004097
:1077300008600040505C00400C6000400460004065
:107740000106090C51EA1020704700007047000044
:1077500010B581B00400009469460120FFF7F6FFE0
:10776000F9E7000000F016B810B50300002A04E0A5
:1077700011F8014B521E03F8014BF9D110BD000066
:10778000C9B20300002A02E003F8011B521EFBD11C
:1077900070470000014CA6462047000051770008C2
:1077A0008C46B0FBF1F10CFB110070478C4690FB4E
:1077B000F1F10CFB110070471903000034010020A7
:1077C000340100203201000000000020D0770008C2
:1077D0001A03530054004D003300320031003000D2
:1077E000000000000000000000000000ED61000843
:1077F000C5720008C5720008C5720008C57200088D
:10780000C5720008C5720008C5720008F161000861
:10781000C5720008C5720008C5720008C57200086C
:10782000C5720008396200086D62000885630008AF
:10783000896300088D630008D16300081D64000897
:107840002964000835640008416400080000000055
:1078500040000000C572000841630008C5720008BE
:10786000C5720008C572000865630008C57200088B
:10787000C572000879630008108400081200000037
:107880002484000820000000448400080400000054
:1078900048840008260000007084000826000000CC
:1078A000000000201A00000098840008100000006A
:1078B00000800202200000004D696E695F44534F52
:1078C000466C617368204469736B2020202020205F
:1078D000200000000300000000060000000000007F
:1078E000700000000000000A00000000000000001E
:1078F000000000000000000800000000020000007E
:02790000030181
:107904009001F000070015000F00C80000100100EE
:1079140001011100000000040000000435306D5620
:10792400000000000000000400000004D007000074
:10793400302E315600000000000000040000000456
:10794400A00F0000302E325600000000FEFF00049D
:10795400FAFF0004401F0000302E355600000000DE
:10796400FFFF0004FAFF0004204E000020315620DF
:107974000000000000000004FAFF0004409C000026
:107984002032562000000000FEFF0004FAFF00042D
:10799400803801002035562000000000FFFF00045D
:1079A400FAFF0004400D030021313056210000008D
:1079B40000000004FAFF0004801A06000000000022
:1079C40000000000000000000000000000000000B3
:1079D4002120315320210000E7035F09B004000493
:1079E40055A0FC013530306D53000000E703AF04AF
:1079F400580200042B50FE003230306D530000005A
:107A0400E703DF01F0000004ABB965003130306DED
:107A140053000000E703EF0078000004D5DC3200D7
:107A24002135306D53210000E70377003C0000044A
:107A34006B6E19002132306D532100006300DF01A9
:107A4400F00000042B2C0A002131306D532100007A
:107A54006300EF00780000041516050020356D530F
:107A640020000000630077003C0000040B8B020040
:107A740020326D53200000000900DF01F0000004F3
:107A84006B04010020316D53200000000900EF0059
:107A94007800000435820000353030755300000052
:107AA400090077003C0000041B41000032303075AF
:107AB400530000000000DF01F00000040B1A000076
:107AC40031303075530000000000EF0078000004EE
:107AD400050D0000213530755321000000007700AA
:107AE4003C0000048306000021323075532100005D
:107AF40000002F00180000049B02000021313075A3
:107B040053210000000017000C0000044D01000088
:107B1400203575532000000000000B00060000040F
:107B2400A70000002032755320000000000004006C
:107B34000300D703430000002031755320000000E8
:107B4400000002000200330321000000302E3575CE
:107B54005300000000000100010066021100000053
:107B6400302E327553000000000000000100EC01CB
:107B740007000000302E31755300000000000000A3
:107B84000100F60003000000203275532B000000B2
:107B9400000009000300D70343000000203175539F
:107BA4002B000000000004000200D70321000000A5
:107BB4002E3575532B000000000002000100330332
:107BC400110000002E3275532B000000000001004C
:107BD4000100D703070000002E3175532B0000006D
:107BE400000000000100EB01030000003C5674009B
:107BF4000000000000003C56740000000000010278
:107C04003C5674000000000002043C56740000005E
:107C1400000003063E5674000000000000013E56BA
:107C240074000000000001033E56740000000000D0
:107C340002053E5674000000000003073A215C214F
:107C44000000000000083A215C2100000000010A45
:107C54003A215C2100000000020C3A215C21000062
:107C64000000030E3A215E210000000000093A21C1
:107C74005E2100000000010B3A215E21000000009B
:107C8400020D3A215E2100000000030F3C544C0019
:107C94000000000000103C544C00000000000112E1
:107CA4003C544C000000000002143C544C00000002
:107CB400000003163E544C000000000000113E5426
:107CC4004C000000000001133E544C000000000072
:107CD40002153E544C000000000003173C544800B9
:107CE4000000000000183C54480000000000011A85
:107CF4003C54480000000000021C3C5448000000B2
:107D04000000031E3E5448000000000000193E54C9
:107D1400480000000000011B3E5448000000000021
:107D2400021D3E54480000000000031F0000000034
:107D340000001C00200040004000400040004000C3
:107D440020001C00000000000000000000000000F3
:107D5400000000E00010000800080008300C600C6F
:107D6400C000800100033006300C00000008000849
:107D7400001000E0000000000000000010201020AF
:107D84001020102010201020F03F00000000000000
:107D9400C00FE01F30301020000000000000000081
:107DA40010203030E01FC00F000000000000C01899
:107DB400800D00070007800DC018000000000001BE
:107DC4000001C007C007000100010000000000001E
:107DD4000000FCFF000000000000000000000001A3
:107DE400000100010001000100010000000000008A
:107DF400000030003000000000000000300060008F
:107E0400C000800100030006000C0000E01FF03FEA
:107E1400902010231024F03FE01F00000000100801
:107E24001018F03FF03F1000100000007010F03008
:107E340090211023102630383018000020103030E4
:107E4400102210221022F03FE01D00000003000762
:107E5400000D1019F03FF03F10010000203E303EAD
:107E6400102210221023F023E0210000E00FF01F65
:107E7400103210221022F003E00100000030003024
:107E8400F020F0210023003E003C0000E01DF03F04
:107E9400102210221022F03FE01D0000001C103EB2
:107EA400102210223022E03FC01F0000000000001A
:107EB4000000600C600C0000000000004000400066
:107EC400400040004000400040004000000000012D
:107ED4008003C006600C30181010000000009000F1
:107EE400900090009000900090000000400240023A
:107EF4004002400240024002400200000000101014
:107F04003018600CC006800300010000C00F201070
:107F140090279024D0275010800F0000F007F00F16
:107F2400001900310019F00FF00700001020F03F95
:107F3400F03F10221022F03FE01D0000C00FE01FB0
:107F44003030102010203030601800001020F03F36
:107F5400F03F10203030E01FC00F00001020F03F31
:107F6400F03F102210273030703800001020F03F0E
:107F7400F03F10220027003000380000C00FE01F3F
:107F8400303010211021E031F0190000F03FF03FB3
:107F9400000200020002F03FF03F00000000000079
:107FA4001020F03FF03F102000000000E000F0003F
:107FB40010001020F03FE03F002000001020F03FB0
:107FC400F03F0003000FF03C703000001020F03F41
:107FD400F03F10201000300030000000F03FF03F70
:107FE400001C000E001CF03FF03F0000F03FF03F8B
:107FF400001C000E0007F03FF03F0000C00FE01F20
:10800400303010203030E01FC00F00001020F03F4F
:10801400F03F10220022003E001C0000E01FF03F51
:10802400102070203020F83FE81F00001020F03F9F
:10803400F03F00220023F03FF01C00006018703C69
:10804400102610221023F039E01800000000003838
:108054001030F03FF03F103000380000E03FF03FB8
:10806400100010001000F03FE03F0000803FC03FD0
:10807400600030006000C03F803F0000C03FF03F20
:108084007000C0017000F03FC03F00003030F03C91
:10809400C00F0003C00FF03C303000000000003C73
:1080A400103EF003F003103E003C00007038F03046
:1080B400902110231026303C70380000100030004E
:1080C400500090011003100CF03F0000000800085D
:1080D400000800080008000800080008000000006C
:1080E40000007CFC80028002000100010002000408
:1080F400000CF01FF03F000C00040002000180009F
:10810400C000E03FF03FC0008000000110201020BC
:10811400102010201020102010201020E000F00566
:1081240010051005E007F003100000001020F03FD8
:10813400E03F10021002F003E0010000E003F0074A
:10814400100410041004300620020000E001F003C3
:1081540010061024F03FF03F10000000E003F00789
:108164001005100510053007200300000000100260
:10817400F01FF03F1022003000180000C803EC0785
:1081840024042404FC03F807000400001020F03F3A
:10819400F03F20020004F007F0030000000000009C
:1081A4001004F037F0371000000000000000180041
:1081B4001C000404FC37F837000400001020F03FD2
:1081C400F03F8021C003700630040000000000006E
:1081D4001020F03FF03F100000000000F007F0070F
:1081E4000006F0030006F007F00700000004F007A3
:1081F400F00300040004F007F0030000E003F007BC
:10820400100410041004F007E00300000404FC0749
:10821400FC0344044004C007800300008003C0073B
:1082240040044404FC07FC03040400001004F007A9
:10823400F003100600040006000300000000200202
:10824400300790059004F00660020000000400046A
:10825400E01FF03F1004300420000000E007F007A6
:1082640010001000E007F007100000000000C00735
:10827400E00730003000E007C0070000E007F00727
:108284003000E0003000F007E00700001004300682
:10829400E003C001E0033006100400008007C407B7
:1082A400440044004400F807F0070000300670065C
:1082B400D0049005100730063004000080078004C5
:1082C400F03C1020D02FD02FD02FD02FD02FD02F54
:1082D400D02FD02FD02FD02FD02FD02FD02FD02FA2
:1082E400D02FD02FD02F1020F03F00008007800423
:1082F400F03C1020102010201020102048617264DF
:10830400776172652056657220322E362020000077
:1083140053657269616C204E6F3A20002020202042
:10832400204453323033204D696E692044534F202A
:108334005359532056657220312E33342020202087
:1083440020202000506C6561736520696E7075741F
:10835400206D6173746572206C6963656E63653A40
:1083640020303030303030303000000020202020E9
:10837400202020204C6963656E636520696E7075EA
:1083840074206572726F722020202020202020200B
:10839400200000002020202020202020204C696381
:1083A400656E63652077726974656E206F6B20203B
:1083B4002020202020202020200000002020202019
:1083C400202020204C6963656E6365207772697490
:1083D400656E206572726F7220202020202020207C
:1083E4002000000020202020202050757368206188
:1083F4006E79206B657920746F206E6578742073B4
:10840400746570202020202020000000120100024A
:108414000000004083042057000201020301000011
:1084240009022000010100C032090400000208060C
:1084340050040705810240000007050202400000C5
:10844400040309042603530054004D00690063002B
:1084540072006F0065006C006500630074007200B8
:108464006F006E0069006300730000002603530070
:1084740054004D003300320020004D0061007300B1
:1084840073002000530074006F00720061006700E5
:108494006500000010035300540020004D006100EB
:0684A400730073003000BC
:040000050800416549
:00000001FF
