:020000040800F2
:10C00000507D002065C1000855E5000859E500088D
:10C010005DE5000861E5000865E500080000000036
:10C020000000000000000000000000006DE50008B6
:10C0300069E500080000000071E5000875E50008EA
:10C0400079E500087DE5000881E5000885E5000840
:10C0500089E500088DE5000891E5000895E50008F0
:10C0600099E500089DE50008A1E50008A5E50008A0
:10C07000A9E50008ADE50008B1E50008B5E5000850
:10C08000B9E50008BDE50008C1E50008C5E5000800
:10C09000C9E50008CDE50008D1E50008D5E50008B0
:10C0A000D9E50008DDE50008E1E50008E5E5000860
:10C0B000E9E50008EDE50008C1E60008C5E600086E
:10C0C000C9E60008CDE60008D1E60008D5E600087C
:10C0D000D9E60008DDE60008E1E60008E5E600082C
:10C0E000E9E60008EDE60008F1E60008F5E60008DC
:10C0F000F9E60008FDE6000801E7000805E700088A
:10C1000009E700080DE7000811E7000815E7000837
:10C1100019E700081DE7000821E7000825E70008E7
:10C1200029E700082DE7000831E7000835E7000897
:10C130000120704710B5094C02E004F0D3F80C342C
:10C140000748844208D26068A16822688142F4D11D
:10C15000002104F0D3F8F2E710BD00BF5C03010832
:10C1600074030108024CA04730B1024CA04703E021
:10C1700031C1000835C10008034C4FF00000A04752
:10C18000024C034DAE46204739E70008E1020108A2
:10C1900045030108F8F734B8F8F734B8F8F734B8BD
:10C1A000F8F734B8F8F734B8F8F734B8F8F734B823
:10C1B000F8F734B8F8F734B8F8F734B8F8F734B813
:10C1C000F8F734B8F8F734B8F8F734B8F8F734B803
:10C1D000F8F734B8F8F734B8F8F734B8F8F734B8F3
:10C1E000F8F734B8F8F734B8F8F734B8F8F734B8E3
:10C1F000F8F734B8F8F734B8F8F734B8F8F734B8D3
:10C20000F8F734B8F8F734B8F8F734B8F8F734B8C2
:10C21000F8F734B82DE9F04FE54CE64DE64F8CB019
:10C22000216809A8016061684160A16881600020FF
:10C230008046E24800214646C24601701420FFF7BE
:10C24000CFFF05F294300690B0F900100A20491C87
:10C2500041430220FFF7C4FF4046FFF7A5FF01F06E
:10C2600005FF202105900846FFF7BAFF0121242091
:10C27000FFF7B6FF4046A5F8500106984546B0F9CD
:10C2800050100520491E41430320FFF7A9FFCC4869
:10C290005FF4FA710180CB4841460170C7480170D4
:10C2A0003868B0F90C110720FFF79AFF39685FF47E
:10C2B0008770095A0820FFF793FF29460920FFF7E6
:10C2C0008FFF19212846FFF78BFF29460B20FFF728
:10C2D00087FF19210120FFF783FFBB480027834612
:10C2E00051463800FFF75CFFB8487F1CBFB281465B
:10C2F000FFF758FF5F45F3D35046143080B28246B3
:10C30000DC28EAD30027EF213800FFF749FF484631
:10C31000FFF748FF7F1CBFB25F45F4D300210846FA
:10C32000FFF73EFF2F464846FFF73CFF7F1CBFB29A
:10C33000EF2FF8D314212C20FFF732FF14274846A3
:10C34000FFF730FF7F1CBFB2C92FF8D3142158204C
:10C35000FFF726FF14274846FFF724FF7F1CBFB2D4
:10C36000C92FF8D314218420FFF71AFF1427484659
:10C37000FFF718FF7F1CBFB2C92FF8D31421C820C4
:10C38000FFF70EFF14274846FFF70CFF7F1CBFB2D4
:10C39000C92FF8D31421F420FFF702FF14274846D1
:10C3A000FFF700FF7F1CBFB2C92FF8D314215FF441
:10C3B0009070FFF7F5FE14274846FFF7F3FE7F1C49
:10C3C000BFB2C92FF8D314215FF4A670FFF7E8FEBF
:10C3D00014274846FFF7E6FE7F1CBFB2C92FF8D3EB
:10C3E00000215FF4C770FFF7DBFE2F464846FFF7DA
:10C3F000D9FE7F1CBFB2EF2FF8D320000C3001B460
:10C4000000230522B921062000F044FD200014304D
:10C4100001B42B460522B921312000F03BFD20005C
:10C420001C3001B42B460522B9215D2000F032FDFD
:10C430002000243001B42B460522B9218D2000F0C4
:10C4400029FD63482B46B921824620002C3001B4D7
:10C450005246CE2000F01EFD2000143001B42B46C1
:10C460005246B921F92000F015FD20001C3001B41E
:10C4700058482B465246B92100F00CFD20002430CC
:10C4800001B42B465246B9215FF4AB7000F002FDB7
:10C4900051482F46834651480068808808B0401CA8
:10C4A000012822DA29E0142100234843039003994C
:10C4B000A6200522401AADF810000846DBF800104F
:10C4C0007F1C081801B4BDF81410062000F0E2FC2F
:10C4D000DBF8001004982B465246081801B4BDF84A
:10C4E0001810CE2000F0D6FC02B03C49BFB2380094
:10C4F00009688988491C8842D5DB3248384A0321BB
:10C500000078002303F024FF1E2100FB01400621D8
:10C5100000F20C2001B40A2000F0BCFC069801B027
:10C52000000439D02E4A343410B40023D8212020FE
:10C5300000F0B0FC0798B0F950100520491E4143A7
:10C540000320FFF74DFE1E485FF4FA71018088005A
:10C5500001F0A2FE03F0F8F801B00CB0BDE8F08FD6
:10C5600018481F4A0321007803F0F2FE1E2100FB49
:10C570000140062100F20C2001B41A4803780A2079
:10C5800000F088FC184A04F2681001B40023D82196
:10C59000202000F07FFC02B0144F388840BB0021FF
:10C5A0000220FFF71DFE01211420FFF719FED4E73A
:10C5B000301201086C250020382C00207F34002028
:10C5C000863400204C7900208F010000FFFF00001E
:10C5D000050100002501000090340020402C0020BF
:10C5E0000504000082340020050600008A34002083
:10C5F000E8480021018003F055FAE74911EB4600B5
:10C60000E649089011EB4600E54905908819E5498F
:10C61000079088190390012D01D0042D21D1059890
:10C620000A210A2200880A234843DF490968890A47
:10C6300048430399000B91F9001001FB0200DB490C
:10C640004018089909885143D94A1268920A5143FF
:10C65000079A090B92F9002002FB0311D34A8918AB
:10C660001BE00598D04900880968D14A01F20021F1
:10C670001268890A48430399000B02F2002291F9DB
:10C680000010920A40180899193809885143079AEE
:10C69000090B92F9002089181939C64A1180C64938
:10C6A00008800320FFF7A0FD18B101210620FFF745
:10C6B00097FDC2480078002800F02882C0495FF446
:10C6C00016703880BF4F096830008988491C88423D
:10C6D00080F2F7801421484306900699A620401A5C
:10C6E000ADF8100028001FD1B348B0F9001068461B
:10C6F00001F0DAFD6846801C01B4B348002305222E
:10C70000062100F0C7FB049890F9001001A801F081
:10C71000CBFD01A8801C01B4BDF8181043460522CA
:10C720002D2000F0B7FB02B0012D1ED1A248B0F9B8
:10C730000010684601F0B8FD6846801C01B4A248AC
:10C7400000230522062100F0A5FB0698018801A818
:10C7500001F0AAFD01A8801C01B4BDF818104346E1
:10C760000522592000F096FB02B0022D30D19248EC
:10C77000DBF80020B0F9001006981018006941435A
:10C78000684601F091FD6846801C01B48E48002384
:10C790000522062100F07EFB9DF8040003210AAA71
:10C7A000434600FB01200522062101B4874800F022
:10C7B00071FB398802A801F077FD02A8801C01B442
:10C7C000BDF81C1043460522862000F063FB03B031
:10C7D000032D1FD17748B0F90010684601F064FDC1
:10C7E0006846801C01B4784800235246062100F0B8
:10C7F00051FB089890F9001001A801F055FD01A81F
:10C80000801C01B4BDF8181043465246F52000F0D4
:10C8100041FB02B0042D1ED16648B0F900106846F5
:10C8200001F042FD6846801C01B46748002352466F
:10C83000062100F02FFB0998018801A801F034FDC2
:10C8400001A8801C01B4BDF818105F484346524649
:10C8500000F020FB02B0052D45D15648DBF8002042
:10C86000B0F900100698101800694143684601F0BD
:10C870001BFD6846801C01B4534800235246062124
:10C8800000F008FB9DF8040003210AAA434600FBC0
:10C8900001205246062101B44C4800F0FBFA4C48F6
:10C8A000018802A801F000FD02A8801C01B4BDF8B7
:10C8B0001C10434652465FF4A77000F0EBFA03B039
:10C8C00011E04448444A03210078002303F040FD6E
:10C8D0001E2100FB0140062100F20C2001B40A20B9
:10C8E00000F0D8FA01B03648344900680978891E4A
:10C8F000082900F2D580DFE801F005D3D373A5D372
:10C90000463F390033480078012810D1002001F05B
:10C9100029FC314A2000603001B44346D821202050
:10C9200000F0B8FA5FF47A7001F0B6FC01B0294863
:10C930000078022817D1294D5FF480720021280069
:10C9400003F0DCFC41462800FFF754FC224A8C34FB
:10C9500010B44346D821202000F09CFA5FF47A708E
:10C9600001F09AFC01B002F0EFFEF6E5052D2EBFB6
:10C9700000256D1CADB293E0300000F09180484678
:10C980003618B6B28CE08088B042C0F08980761C40
:10C99000F7E700BFE02B0020F82B0020E42B00205D
:10C9A000182C00200C2C0020242C00202AF9FFFF3A
:10C9B000282C0020D82B0020CE2B00207F340020F4
:10C9C000402C00203C2C00202101000049010000E7
:10C9D0003E2C00204C790020050400007C32002011
:10C9E000290004D1039991F90020521E0A70012DEB
:10C9F00004D105994B460A88D2180A80022D03D12A
:10CA000039884A4689183980032D04D1079991F94C
:10CA10000020521E0A70042D04D108994B460A8842
:10CA2000D2180A80052D05D1DB4ADB494B46128816
:10CA3000D2180A808088864232D3D849D7480978EC
:10CA4000491E2CE0290004D1039991F90020521CC1
:10CA50000A70012D03D105990A88521C0A80022D03
:10CA600002BF3988491C3980032D04D1079991F9F7
:10CA70000020521C0A70042D03D108990A88521C08
:10CA80000A80052D04D1C44AC3491288521C0A8069
:10CA90008088864204D3C149C0480978491C017086
:10CAA000D8480021012D017001D0042D11D1388802
:10CAB000AF214843C11110EB116001120020FFF7B4
:10CAC0008FFBB548AF2100884843C11110EB1160BE
:10CAD00010E0388819214843C11110EB1160011290
:10CAE0000020FFF77DFBAC48192100884843C111A5
:10CAF00010EB116001120120FFF772FB31000A20D8
:10CB0000FFF76EFB31000C20FFF76AFBBE4801788F
:10CB100000293FF441AD00210170BC483700006896
:10CB20008088401C8742BFF61BAD14204743280075
:10CB300011D1B748415E684601F0B6FB6846801CDB
:10CB400001B4B44805220378A620C11B89B22D2068
:10CB500000F0A0F901B0012D12D1AD48B0F90010DC
:10CB6000684601F0A1FB6846801C01B4A948052273
:10CB70000378A620C11B89B2592000F08BF901B0BF
:10CB8000022D27D1A248B0F90010DBF80000C0192F
:10CB900000694143684601F087FB6846801C01B488
:10CBA0009C4805220378A620C11B89B2862000F08C
:10CBB00071F99DF8040003210AAA00FB0120052257
:10CBC00001B494480378A620C11B89B2AE2000F0BE
:10CBD00061F902B0032D12D18F48B0F900106846F8
:10CBE00001F062FB6846801C01B48A485246037813
:10CBF000A620C11B89B2F52000F04CF901B0042D2C
:10CC000012D18548B0F90010684601F04DFB684626
:10CC1000801C01B47F4852460378A620C11B89B20C
:10CC20007B3000F037F901B0052D27D17A48B0F9F3
:10CC30000010DBF80000C01900694143684601F0AC
:10CC400033FB6846801C01B4724852460378A62024
:10CC5000C11B89B2A83000F01DF99DF80400032122
:10CC60000AAA00FB0120524601B46A480378A620B4
:10CC7000C11B89B2D03000F00DF902B0022D02D0F4
:10CC8000052D40F09680DBF800002100F831C01936
:10CC900003F03EFB08B9002750E0DBF8000021005C
:10CCA000F031C01903F034FB08B9012746E0DBF886
:10CCB00000002100E831C01903F02AFB08B902275F
:10CCC0003CE0DBF800002100E031C01903F020FB5C
:10CCD00008B9032732E0DBF800002100D831C01981
:10CCE00003F016FB08B9042728E0DBF80000210058
:10CCF000D031C01903F00CFB08B905271EE0DBF8A2
:10CD000000002100C831C01903F002FB08B9062752
:10CD100014E0DBF800002100C031C01903F0F8FA7C
:10CD200008B907270AE0DBF800002100B831C01974
:10CD300003F0EEFA002814BF09270827374A04F247
:10CD4000001001B40023D821202000F0A3F8344AB9
:10CD50000C20434607FB0040D82100F2941001B498
:10CD6000582000F097F82D4A04F2081001B4434609
:10CD7000D821A82000F08EF803B0032D10D204F2C1
:10CD8000201001B400230522D8215FF4A47000F024
:10CD900081F801B0FFF700BC3E2C00204C79002048
:10CDA00004F2281001B400235246D8215FF4A47085
:10CDB000EDE71A4A04F2301001B40023D8212020F4
:10CDC00000F068F8154A04F2441001B44346D82133
:10CDD000E82000F05FF802B0032D0BD204F25810E7
:10CDE00001B400235246D821B82000F053F801B016
:10CDF000FFF7D2BB04F2601001B400230522D82152
:10CE0000B820C4E77F34002083340020402C002069
:10CE1000CE2B002082340020D82B002005060000F5
:10CE2000050400002DE9F041984614000B000A3378
:10CE30009BB20A0001000A3189B2FFF7B9F9002557
:10CE400040460B21002700FB0150114931F81060CA
:10CE5000414832003A41D20703D5211230F811007F
:10CE600003E02107090F30F81100FFF79BF97F1C41
:10CE7000BFB20B2FECD36D1CADB20B2DE0D33549F7
:10CE8000EF2300220020FFF793F9BDE8F08100BFF7
:10CE9000CC1401082DE9F04F16002E4A98460B00DD
:10CEA00091460A339BB20A004946FFF781F90025F3
:10CEB00029483107090F10EB410B311210EB4104E7
:10CEC000404610B9BBF8000000E02088FFF76AF97F
:10CED0006D1C0B2DECDB09980078002832D0002661
:10CEE00009980078202801D021280DD10027212879
:10CEF00001D1042E22D000253FB23800A8404005C1
:10CF000040460DD548B90FE01449F2B212EBC0000B
:10CF1000134A12EB4000475AEDE7BBF8000004E06B
:10CF200010B9BBF8000000E02088FFF73BF96D1C4A
:10CF30000B2DE1DB761C36B2082ED1DB0998401CA4
:10CF40000990C8E7EF2300224946FFF731F9BDE811
:10CF5000F08F00008F01000000200020E0FDFFFFA7
:10CF6000241501082DE9F04E92B006000C2E4BD38B
:10CF70005FF49C70864247D230000C388004001465
:10CF8000824630000B38810009B20020D14D0BAA37
:10CF90001218441057463F1900231370EF5D06AB7B
:10CFA0001B180C191F702C5D5C70C724C82F01D38F
:10CFB0001C7003E0022F3CBF01251D705D78C82D59
:10CFC00001D35C7003E0022D3CBF01245C701C782F
:10CFD0005D78AC420ED1012C01D0C72C02D10124C6
:10CFE000147007E0022C24BF641E1C70C72D3CBFC8
:10CFF0006A1C5A705A781C78A2423CBF5C701A7046
:10D00000801CC0B20828C1D3B34CFFF7D9F80D215A
:10D010003000FFF7C5F8B14B9DF81E0004F2E01A8E
:10D0200035008DF805009DF81F009DF8051081461C
:10D03000401A11909DF81C008DF804009DF81D0009
:10D040008DF802009DF80410401A10909DF81A0007
:10D050008DF803009DF81B008DF801009DF803106A
:10D06000401A0F909DF819008DF800009DF81810D7
:10D07000401A0E909DF832008DF807009DF83000A0
:10D080008DF8060096489DF82E7000F2303102911E
:10D0900000F2C81105910100B0310A919DF81810F5
:10D0A000089101001031099100F29020049003F2E0
:10D0B00094100D908B488346F00740F1DC810D9869
:10D0C0002100FFF77FF80C2EC0F0AC818648864225
:10D0D00080F0AB81BBF80000ADF80C009DF82C008F
:10D0E000002835D10998B0F90000002830D00E98FA
:10D0F0000628089817DB9DF80010C2B2914227D38A
:10D10000BDF80C30C1B2401C14EB410101F2E0113A
:10D110000A8813F53E43C0B213430B809DF80010FC
:10D12000814215D3ECE79DF80010C2B291420FD3B3
:10D13000BDF80C30C1B2401C14EB410101F2E0110A
:10D140000A88C0B213430B809DF800108142EFD2D1
:10D15000BBF80200002FADF80E0034D10998B0F9E9
:10D16000500000282FD00F98062817DB9DF80300E9
:10D170009DF80110814226D3BDF80E305B4E14EBB2
:10D18000400101F2E0110A889B19401C13430B80F7
:10D190009DF80110C0B2814215D3EDE79DF8030060
:10D1A0009DF8011081420ED3BDF80E3014EB400102
:10D1B00001F2E0110A88401CC0B213430B809DF8B5
:10D1C00001108142F0D29DF80600BBF8041000283F
:10D1D0002FD10A98B0F9000058B31098062815DB33
:10D1E0009DF804009DF80220824222D3404E14EBA9
:10D1F000400202F2E01213888E19401C1E43168072
:10D200009DF80220C0B2824213D3EFE79DF80400DC
:10D210009DF8022082420CD314EB400202F2E0128D
:10D220001388401CC0B20B4313809DF80220824239
:10D23000F2D2BBF806209DF8070038BB0A98B0F977
:10D24000500018B31198062811DB9DF805008145A0
:10D250001CD314EB400303F2E0131E8812F57E4743
:10D26000401C37431F80C0B281450FD3F1E79DF8C2
:10D27000050081450AD314EB400303F2E0131E8836
:10D28000401CC0B216431E808145F4D20598B0F907
:10D29000780040B9BBF92000BDF80C2014EB400029
:10D2A00000F2E0102EE0012808D1BBF92400BDF8FF
:10D2B0000E2014EB400000F2E01023E0022819D108
:10D2C000BBF9280014EB400000F2E0100288114383
:10D2D00001801AE098740020BC2E0020F41A010886
:10D2E0006C2500200020002037010000F8FD000020
:10D2F000F8BF0000032808D1BBF92C0014EB400054
:10D3000000F2E01001880A4302800599A120B1F9DA
:10D310000010421A12B204F26E310C2A24DBBBF860
:10D320000C3095420FD10598807840070BD401202E
:10D3300014EB400606F2E0163788C01CC0B21F434B
:10D340003780C828F4D3501E854202D0501C854235
:10D3500002D14B80AAF80030954205D14B800B805A
:10D36000AAF80230AAF800300298BBF80830B0F9E9
:10D3700000200B3212B295420ED1807840070BD4B8
:10D38000012014EB400606F2E0163788C01CC0B23C
:10D390001F433780C828F4D3501E854202D0501C4A
:10D3A000854207D1488818434880BAF800001843DE
:10D3B000AAF8000095420FD1488818434880088891
:10D3C00018430880BAF802001843AAF80200BAF815
:10D3D00000001843AAF800000298B0F914200B329C
:10D3E00012B295420ED1807D40070BD4012014EB80
:10D3F000400606F2E0163788C01CC0B21F433780D3
:10D40000C828F4D3501E854202D0501C854202D158
:10D410004B80AAF8003095422AD14B800B80AAF8A5
:10D42000023025E00B2E23D100E021D10498BBF877
:10D430000830B0F9000014EB400010F5EF700188DF
:10D4400019430180418819434180818819438180B3
:10D450000498B0F9140014EB400010F5EF70018847
:10D460001943018041881943418081880B4383809F
:10D47000C92150467DE1C149681C884202D151460C
:10D48000180017E00B2817D02A000A3A10001E21B6
:10D4900002F05EFF18B9514603F2BC400AE01000EA
:10D4A000062102F055FF0028514602D103F2283030
:10D4B00000E00D98FEF786FE04980499B0F9140078
:10D4C000B1F9001014EB400014EB4102BBF8081056
:10D4D0000C2E03D05FF49B739E4205D113880B433F
:10D4E000138003880B430380049B9B785B075EBF1C
:10D4F00013880B431380049A927D52075EBF028803
:10D500000A4302800C2EC0F032819C48864280F093
:10D510002E819DF82C00002830D10998B0F9000028
:10D5200000282BD00E98BBF800A00628089813DB23
:10D530009DF80020C3B29A4220D3C2B21AF53E46EB
:10D5400014EB42021388401CC0B21E4316809DF8A3
:10D550000020824212D3F0E79DF80020C3B29A4225
:10D560000CD3C2B2401C14EB42021388C0B25AEA78
:10D57000030313809DF800208242F2D2002F2DD1A8
:10D580000998B0F9500048B30F98BBF8022006285C
:10D5900013DB9DF803009DF8013083421ED3784FC2
:10D5A00014EB40031E88D719401C37431F809DF899
:10D5B0000130C0B2834211D3F1E79DF803009DF81A
:10D5C000013083420AD314EB40031E88401CC0B2D2
:10D5D00016431E809DF801308342F4D29DF8060068
:10D5E00000282DD10A98B0F9000048B31098BBF874
:10D5F0000420062813DB9DF804009DF802308342C6
:10D600001ED3604F14EB40031E88D719401C3743CC
:10D610001F809DF80230C0B2834211D3F1E79DF81C
:10D6200004009DF8023083420AD314EB40031E88A5
:10D63000401CC0B216431E809DF802308342F4D2D3
:10D640009DF8070028BB0A98B0F9500008B311985C
:10D65000BBF8062006280FDB9DF80500814518D38E
:10D6600014EB40031E8812F57E47401C37431F8091
:10D67000C0B281450DD3F3E79DF80500814508D37D
:10D6800014EB40031E88401CC0B216431E80814527
:10D69000F6D2059AA12014F5C773B2F90020821AB8
:10D6A00012B20C2A21DBBBF80C6095420FD1059811
:10D6B000807840070BD4012014EB4009B9F80070C2
:10D6C000C01CC0B23743A9F80070C828F4D3501E5C
:10D6D000854202D0501C854201D15E802680954251
:10D6E00003D15E801E80668026800298B0F90020FB
:10D6F0000B3212B295420CD18078400709D4012038
:10D7000014EB40063788C01CC0B20F433780C828CE
:10D71000F6D3501E854202D0501C854201D159805B
:10D720002180954202BF5980198061800298B0F92A
:10D7300014200B3212B295420CD1807D400709D4DF
:10D74000012014EB40063788C01CC0B20F4337805D
:10D75000C828F6D3501E854202D0501C854201D104
:10D7600059802180954202BF598019806180C9216A
:10D770002000FEF721FD12B0BDE8F08E3701000059
:10D78000F8FD0000F8BF000030B5104C104DFEF75A
:10D7900017FD05F2E0112000FEF714FDFEF710FD65
:10D7A000290004F29410FEF70DFD0B2403E0FFF7AF
:10D7B000D9FB641CA4B220005FF49C718842F6D3AC
:10D7C000FEF7F8FCBDE83040FEF7FABCF41A010899
:10D7D000BC2E0020CF4A2DE9F04F82B08046CC48C5
:10D7E000ADF80010814619EB810A4046502104280B
:10D7F00000FB012B07D2BBF94C00C62873DABAF93B
:10D800002000C6286FDA00240DE028887F1CBFB2F4
:10D81000FEF7C8FC0199B1F900101831091B8F42BD
:10D82000F3DB641CA4B20B2C5DD2BDF8000019EB35
:10D830004005072C26D22D484146042906D207224E
:10D8400001FB0200BBF94C10065D03E0BAF92010A1
:10D850000019067F093189B22000FEF7A1FC0027DC
:10D8600005E02888FEF79EFC76087F1CBFB2082FD3
:10D8700004D2F007F5D5B9F80A00F3E72888FEF7D7
:10D8800091FCCEE74046042818D2BBF94C1020008A
:10D890004118C91C89B2FEF783FCBBF94C1067180C
:10D8A000FF1CBFB2BBF94C101831091B8F42B8DA0C
:10D8B00028887F1CBFB2FEF775FCF3E7BAF9201089
:10D8C00020004118C91C89B2FEF76AFCBAF9201081
:10D8D000BDF800006718FF1CBFB24946203111EBAC
:10D8E0008000019096E702B0BDE8F08FA81401080F
:10D8F0002DE9F042864CFEF763FC00250C270C2135
:10D90000A8B2FEF74DFC3E4604E06089761CF6B2F4
:10D91000FEF748FCD72EF8D36D1C0B2DEFDB7D4DA9
:10D920002E0036F9100F18B100210020FFF752FF2A
:10D93000B6F9500018B101210120FFF74BFF2E006E
:10D9400036F9B00F18B102210220FFF743FFB6F9F4
:10D95000500018B103210320FFF73CFF05F2C81661
:10D96000B6F9780018B900210720FFF733FFB6F9A0
:10D970007800012802BF01210720FFF72BFFB6F92D
:10D980007800022802BF02210720FFF723FFB6F923
:10D990007800032802BF03210720FFF71BFF0C219B
:10D9A0005FF49C70FEF7FCFB04E060897F1CFFB213
:10D9B000FEF7F8FBD72FF8D354480B2781460C21EC
:10D9C000B8B2FEF7EDFB6089FEF7ECFBD621B8B2EA
:10D9D000FEF7E6FB60897F1C3FB2FEF7E3FB4F4595
:10D9E000EDDB05F29029B9F900100A2000270B3170
:10D9F00089B2FEF7D5FB20897F1CFEF7D3FB052FEC
:10DA0000F9DBB9F914100A2000270B3189B2FEF7AF
:10DA1000C7FB20897F1CFEF7C5FB052FF9DBB9F991
:10DA200000105FF49C7000270B3189B2FEF7B8FB41
:10DA300020897F1CFEF7B6FB052FF9DBB9F914101E
:10DA40005FF49C7000270B3189B2FEF7A9FB208997
:10DA50007F1CFEF7A7FB052FF9DBB6F90010A1200C
:10DA6000461A36B20C2E16DBB71E3FB2B61CBE42AB
:10DA700011DB0C21B8B2FEF793FBA089FEF792FBF5
:10DA8000D621B8B2FEF78CFBA0897F1C3FB2FEF70F
:10DA900089FBBE42EDDA05F23035B5F900600B3690
:10DAA00036B2B71E3FB2B61CBE4211DB0C21B8B273
:10DAB000FEF776FB2089FEF775FBD621B8B2FEF79C
:10DAC0006FFB20897F1C3FB2FEF76CFBBE42EDDA94
:10DAD000B5F914500B352DB2AE1E36B2AD1CB542A1
:10DAE00011DB0C21B0B2FEF75BFB2089FEF75AFB7D
:10DAF000D621B0B2FEF754FB2089761C36B2FEF771
:10DB000051FBB542EDDABDE8F08200BF39010000FB
:10DB1000002000206C2500202DE9F04200214B4C14
:10DB200059200025FEF73CFB6D1C2000FEF73AFB58
:10DB30000C2DF9DB00215A20FEF732FB00252000D6
:10DB4000FEF730FB6D1C0C2DF9DB00215FF49A70A1
:10DB5000FEF726FB00252000FEF724FB6D1C0C2D94
:10DB6000F9DB3B4800210026FEF71AFB2000FEF7F8
:10DB700019FB761C0C2EF9DB36485B258146002606
:10DB80000021A81980B2FEF70BFB002732490120C3
:10DB9000B84031F81610084201D0200000E0002003
:10DBA000FEF700FB7F1C0C2FF0DB761C082EE7DB5A
:10DBB00008352DB24D45E2DB284C294D294E002178
:10DBC000605EC8220027504390FBF5F05B3080B2C6
:10DBD000FEF7E6FA7F1C3000FEF7E4FA092FF9DBC6
:10DBE0000021605EC8220027504390FBF5F06A30A8
:10DBF00080B2FEF7D5FA3000FEF7D4FA7F1C092F69
:10DC0000F9DB00270021605EC822504390FBF5F04D
:10DC1000C0195B3080B2FEF7C3FA3000FEF7C2FADB
:10DC2000B4F90000C8220921504390FBF5F0C01957
:10DC30005B3080B2FEF7B4FA3000FEF7B3FA7F1C17
:10DC4000102FDFDB0020A075BDE8F0821F0500006B
:10DC5000350100003301000098140108342700202A
:10DC6000D40E0000FFFF0000574A2DE9704B84B02E
:10DC70000C0001A90C256D1E535D4B55FBD1C54D04
:10DC80000100684600F0D8FB9DF8000000218DF8E7
:10DC900008009DF801008DF809009DF802008DF83C
:10DCA0000A0020788DF80C0060788DF80D00A078BF
:10DCB000464C8DF80E0000208046C4F82C802020B1
:10DCC0002081C2002800FEF793FA287BE97A5FF4EE
:10DCD0000072C14611EB0020A97B6080687BE08068
:10DCE000E87B11EB0020A97D2080E87D11EB00206E
:10DCF000A97FA080E87F090411EB0060697F10EB29
:10DD00000120297F401821882063E06A4018A188FB
:10DD100010EB41016088414361632800FEF768FA17
:10DD200007E0401CC0B210280FD34846401C80B208
:10DD300081462189894542D2606B5FF4007210EB05
:10DD400049212800FEF754FA002015EB401B9BF8F0
:10DD50000020E52A14BF0022FF22002313EB401607
:10DD6000AE5DB44601AEF65CB44518BFFF225B1C45
:10DD7000DBB20B2BF2D3002AD3D19BF81B009BF80C
:10DD80001A10E38811EB00202189A063A26B606B5D
:10DD9000921E02FB031110EB4120E0639BF81D1063
:10DDA0009BF81C0010EB01209BF81E1010EB0140AB
:10DDB0009BF81F1010EB01602064002000E0FF20A2
:10DDC00004B0BDE8708B00BF442101083020002062
:10DDD000F0B52FA1FFF748FF010028D16D4D6E4F20
:10DDE0000024134E002114EB8103F35C6B54114BA0
:10DDF000491C89B29942F6D3D94AF86B5021660280
:10DE000004FB0121641CA4B24C31098885F82B1154
:10DE100081192800FEF7EAF9F86B301800F20011BA
:10DE200005F20010FEF7E2F9042CDAD30020F0BD71
:10DE3000987400202B01000010B515A1FFF714FF06
:10DE4000010018BF10BD544C5FF49672E16B2000C6
:10DE50004430FEF7CDF9E06B5FF4967200F20021DA
:10DE600004F27010FEF7C4F9E06B5FF4967210F5DF
:10DE7000806104F29C20FEF7BBF9E06B5FF49672C0
:10DE800010F5C06104F2C830FEF7B2F9002010BDF1
:10DE9000444154002DE9F04B81B03CA1FFF7E4FE72
:10DEA000010070D13B485FF4807280463A48814659
:10DEB000D9F83C104046FEF79BF90020834619EB49
:10DEC0004001898918EB800382003632424411F404
:10DED0007844240A03F8364F11F4FC63DB105370C6
:10DEE000C90091700021D170401CC0B21028E6D347
:10DEF000762000900024002559462800FEF750F9AE
:10DF0000FEF77CF907005946681C80B2FEF748F915
:10DF1000FEF774F90600380000F040F80700300002
:10DF200000F03CF80099424610EB0710C9B250547B
:10DF30000098401CC0B20028009010D1D9F83C00D5
:10DF400010EB04214046FEF751F9114AA010830757
:10DF50009B0F0021FE20FEF765FF641CE4B2AD1CA0
:10DF6000ADB25FF4C8718D42C6D35846401C80B232
:10DF70008346F028BFD3D9F83C0010EB042140467B
:10DF8000FEF734F9002001B0BDE8F08B424D50009F
:10DF90000A0500007C320020302000202C498842F5
:10DFA00004BF002070471F390A0002408A4204BFA4
:10DFB0000120704749090A0002408A4204BF032039
:10DFC000704724490A0002408A4204BF0520704776
:10DFD00010F4FC61B1F5FC6F04BF072070471E49C7
:10DFE0000A0002408A4204BF022070471B490A000F
:10DFF00002408A4204BF0420704719490A000240C7
:10E000008A4204BF0620704710F4BC61B1F5BC6FB2
:10E0100004BF0820704713490A0002408A4204BF27
:10E020000920704710490A0002408A4204BF0A20B2
:10E03000704710F47841B1F5784F04BF0B2070475A
:10E04000C006C00E1F2804BF0C2070470D2070476B
:10E05000FFFF00001FF80000E0BD0000F705000012
:10E0600017B80000EF7B00001F05000050B57E4C84
:10E07000002100262000FEF7BFF82088C0B2032848
:10E080001CBF012050BD00205FF4807204E0215CC1
:10E09000401C80B27618F6B29042F8D30EB102203E
:10E0A00050BD724834F8021B090A017000200AE0D2
:10E0B0006F4A12EB40012288401C80B20A7034F88B
:10E0C000022B120A4A700728F2D3254B00200EE0DB
:10E0D0005022401C01FB0231228880B221F8102F0F
:10E0E00062888A82A2880A85E28808348A870100C9
:10E0F0000D29EDD3604B00200AE00C22401C01FBEF
:10E100000231228880B24A7134F8022B120A0A7155
:10E1100001000929F1D3002011E0594A2388401C4D
:10E1200080B25354554A23881B0A5354554A638876
:10E1300022F81130544AA388A41D22F8113001009E
:10E140000A29EAD351482188018051486188018019
:10E150005048A188018034F8061F8180002050BDFE
:10E160006C2500202DE9F0413F4E00245FF48072C1
:10E170000700032080462146300002F0BFF800254A
:10E180000FB1FF20804639480021007818EB0020AD
:10E190003080B01C0AE0364B13EB41025378127802
:10E1A000491C89B212EB032220F8022B0729F2D373
:10E1B000304F00210EE05023491C02FB037289B24C
:10E1C000138A0380938C4380138F4C328380128890
:10E1D000C28008300A000D2AEDD3274F00210AE043
:10E1E0000C23491C02FB037289B21379527912EB9A
:10E1F000032220F8022B0A00092AF1D3002111E0A2
:10E200001E4B1F4F491C9B56BF5689B217EB032369
:10E2100003801C4B33F8123043801B4B33F8122021
:10E220008280801D0A000A2AEAD3184909880180E1
:10E2300017490988418017490A888280898820F80F
:10E24000061F04E0305D641CA4B22D18EDB2FF2C53
:10E25000F8D3E843401C86F8FF0000213000FDF7AA
:10E26000C9FF0020BDE8F0817C320020302500206D
:10E27000402500206C250020502B0020182C002069
:10E280000C2C0020E42B0020F82B00203C2C00203C
:10E290003E2C002020200020024908800888002809
:10E2A000FCD17047843400202DE9F04303000800BE
:10E2B00003249A1C991C88462E2189462B2100256F
:10E2C00060B911703020507082F80290D0701071D7
:10E2D00002F8055F1D70B2EB08009EE0012802DB2A
:10E2E00002F8011B04E02D2102F8011B0100484245
:10E2F000060005210A2E08D30A27B6FBF7F66D1C87
:10E30000042D28BF79430A2EF6D20326B5FBF6F674
:10E310001E70032D28BF40182900092900F27680BD
:10E32000DFE801F06D6257473D33251B11053C497D
:10E33000002590FBF1F402F00BF830341470022445
:10E3400082F80190921C374990FBF1F6303602F8C2
:10E35000016B641E5AD001F0FBFF334990FBF1F6CC
:10E36000303602F8016B641E50D001F0F1FF2F49E6
:10E3700090FBF1F6303602F8016B641E46D001F0D6
:10E38000E7FF15B102F8019B0025294990FBF1F642
:10E39000303602F8016B641E38D001F0D9FF2549F0
:10E3A00090FBF1F6303602F8016B641E2ED001F0BE
:10E3B000CFFF5FF47A7190FBF1F1303102F8011B6D
:10E3C000641E23D05FF47A7101F0C2FF0DB102F830
:10E3D000019B642190FBF1F1303102F8011B641EB6
:10E3E00014D0642101F0B4FF0A2190FBF1F1303127
:10E3F00002F8011B641E09D00A2101F0A9FF303088
:10E4000002F8010B02E0202002F8010BD81D824225
:10E41000F9D300201070B2EB08005870BDE8F0830B
:10E4200000CA9A3B00E1F5058096980040420F0033
:10E43000A08601001027000000B50200080064213A
:10E4400090FBF1F130311170642101F081FFC0B215
:10E450000A2190FBF1F1303151700A2101F078FF6F
:10E4600030309070002002F8030F00BD00B50200AC
:10E470000800642101F06CFFC0B20A2190FBF1F1A9
:10E48000303111700A2101F063FF303050700020EC
:10E4900002F8020F00BD000010B5040004BF002008
:10E4A00010BD8008FFF7F8FF4000401C00FB00F1A2
:10E4B0008C4238BF401E10BDD0B5234E042000242E
:10E4C000FDF792FEC143214889B20A0003889A43AE
:10E4D0000523170020D019273770160748BF0924D5
:10E4E000560648BF0A24D60548BF0324960548BFF0
:10E4F0000424560548BF0524130548BF0624D30449
:10E5000048BF0724930448BF0224530448BF012492
:10E51000120416D5082414E00288114211D0327872
:10E520007AB90B4A167866B94E0548BF05240E0520
:10E5300048BF06240E0748BF09240E0448BF08241C
:10E54000137001802000D0BD7D3400204879002068
:10E550007E34002070470000FEE70000FEE7000068
:10E56000FEE70000FEE70000704700007047000073
:10E5700070470000704700007047000070470000BF
:10E5800070470000704700007047000070470000AF
:10E59000704700007047000070470000704700009F
:10E5A000704700007047000070470000704700008F
:10E5B000704700007047000070470000704700007F
:10E5C00070470000FDF7E6BDFDF7E6BD70470000AF
:10E5D000704700007047000070470000704700005F
:10E5E00070470000704700007047000030B5314CA4
:10E5F00000211320FDF7F4FD207918B12079401E89
:10E60000207130BD14202071206910B12069401E96
:10E610002061218928480025152931BF25812189BC
:10E62000091821816189142903D36189081860813F
:10E6300003E000210320FDF7D3FD6079322803D2E7
:10E640006079401C60710CE0657101210420FDF7C8
:10E65000C7FDA089401CA081E08910B1E089401E5F
:10E66000E0812078401C207020780C2806D325708B
:10E67000A179012001B90125A571E071607810B17F
:10E680006078401E6070A07810B1A078401EA07025
:10E69000FFF712FF01000BD0E0700848B0F900103E
:10E6A0000520491E41430320FDF79AFD3C2060816F
:10E6B00030BD00BF7C340020ECFF0000502900205A
:10E6C000704700007047000070470000704700006E
:10E6D000704700007047000070470000704700005E
:10E6E000704700007047000070470000704700004E
:10E6F000704700007047000070470000704700003E
:10E70000704700007047000070470000704700002D
:10E71000704700007047000070470000704700001D
:10E72000704700007047000070470000704700000D
:10E7300070470000704700002DE9F04F87B05FF48C
:10E7400040415FF0006001F0B5FDFDF759FD0B2081
:10E75000FDF74AFD48B9D648D64A002301B41E2128
:10E760003020FDF73BFD01B0FEE7D348D34A00233C
:10E7700001B432213020FDF731FD0720FDF734FDD3
:10E78000CF49002408600820FDF72EFDCD49086020
:10E790000920FDF729FDCC4908600A20FDF724FD7A
:10E7A000CA49086000F04CFFFFF760FCC8485FF4FE
:10E7B000FA7101808800FFF76FFD00F0C5FFC548C2
:10E7C0008046002088F8000001B00CE0547004205E
:10E7D00010705078022808BF1470002088F80000DC
:10E7E000BD4801210170BD4DBD4F05F2BA20029018
:10E7F000BC48008840B900210220FDF7F1FC01214E
:10E800001420FDF7EDFC4EE001F0F2FB0498401CF3
:10E8100080B20490B4480699028889B291420ED021
:10E82000008800260690B14804990180049400F005
:10E8300057FFF0B200F006FC761C092EF9D300F069
:10E84000B9FB00F057FDA448007850B305F26E39CB
:10E8500000F0CCFF01F036F801F062F801F0CCF8DE
:10E86000FFF746F8B9F926100A20491C4143022057
:10E87000FDF7B6FC3878092818BFFFF74DF9029864
:10E88000017851F0020101700298017D51F00201FE
:10E89000017599F8000050F0020089F800008E48D8
:10E8A00004709348047098F8000000289BD08D48AD
:10E8B000008808B900F048FF8A485FF4167105F235
:10E8C0005019018098F80000012819D1B9F90010F9
:10E8D000401AA9F8000099F8020050F0020089F8E7
:10E8E0000200B9F9500002280AD182480026845556
:10E8F000761CB6F5966FFAD301210620FDF770FC61
:10E9000098F80000022828D13878022825D25FF430
:10E91000FA70FFF7C1FC0420FDF766FC80041CD4EC
:10E920005FF4FA70FFF7B8FC0420FDF75DFC80048B
:10E9300013D45FF4FA70FFF7AFFC0420FDF754FC2A
:10E9400080040AD45FF4FA70FFF7A6FC0420FDF7F8
:10E950004BFC800458BFFDF75DFC98F800000328CD
:10E9600012D10020FFF7FEFB387809280CD062484E
:10E97000624A002301B419465B20FEF78BFA5FF46C
:10E98000FA70FFF789FC01B098F80000042848D11C
:10E990003878092845D15A480023194682465948F3
:10E9A000524601B4E620FEF775FA3878502100FB94
:10E9B0000150B0F9101001B081B9B0F9381029B97F
:10E9C000B0F92400C0B2FFF765FA0EE001290DD1BD
:10E9D000B0F92400C0B2FFF7FBF906E0012905D128
:10E9E000B0F92400C0B2FFF727FA06000EB146487E
:10E9F00000E046480023524601B41946E620FEF7DF
:10EA000049FA01B05FF4FA70FFF746FC38785021FC
:10EA100000FB015001003A31097851F0020180F801
:10EA20003A103B48834698F80000092840F08A8055
:10EA3000397801F2FF0A0D296ED2364850239C46E0
:10EA4000405C142300FB035001FB0C00827C52F05D
:10EA50000202827409B90C2004E05046C0B20428B6
:10EA600008BF03202B49387009180A78032A28BFE9
:10EA70000C7009785022504301FB035109188A7C1D
:10EA8000281852F001028A74010011F8122F52F076
:10EA900002020A700A7D52F002020A7510F83A1F4B
:10EAA00051F002010170017D51F00201017549E050
:10EAB00050210108FF07000078210108FFFF000036
:10EAC00090340020382C0020402C0020943400206A
:10EAD000863400207F340020B82E00206C250020D2
:10EAE000302500208A340020883400205025002062
:10EAF0008334002098740020A02101080504000040
:10EB00000A050000C0210108C8210108D021010820
:10EB1000502B0020402500200C2001FB00B010F8F5
:10EB2000912D52F0020202700D2914BF504615209B
:10EB30003870C0B20C2100FB01B010F8911D51F0EB
:10EB40000101017098F800100D200A2904D13978CC
:10EB50000D292CBF3C70387098F80010082957D147
:10EB6000397801F2010A0A000D293BD2DB48502313
:10EB70009C46805C142300FB035002FB0C00827C4B
:10EB800052F0020282740C2901D1002004E05046A8
:10EB9000C0B2042808BF0520D049387009180A7887
:10EBA000032A28BF0C7009785022504301FB0351FF
:10EBB00009188A7C281852F001028A74010011F8A1
:10EBC000122F52F002020A700A7D52F002020A75F8
:10EBD00010F83A1F51F002010170017D51F002015D
:10EBE000017515E00C2302FB03B212F8913D53F0BE
:10EBF00002031370152914BF87F800A03870387805
:10EC00000C2100FB01B010F8911D51F001010170C1
:10EC10003978502005F2C813484301902818009015
:10EC2000123082460C2001FB00B2AC48983A4018E2
:10EC3000834605F20830059098F80000052840F05A
:10EC40009F800D2980F08B8007290ED1D64800784F
:10EC500002282BD1B3F97800D44F17EB8007385F27
:10EC600012285FDB401E38805CE00B2901D00C29A4
:10EC700007D1BAF9120001282FDB401EAAF81200B2
:10EC80002BE0052912D1CA48007802280ED1185F5E
:10EC90001F2802DB1E38188003E00128A4BF401E95
:10ECA0001880987D50F0020098753BE09BF80000BA
:10ECB0008DF80C00019FBC46142700FB07506746E7
:10ECC000C019B0F91070012F02DB7F1E078204E02B
:10ECD000877AFF0644BF0789078205290BD1B4480C
:10ECE0000078F8B9A9F8000099F8020050F0020085
:10ECF00089F8020016E006290AD1B3F92800032892
:10ED000010D0B3F93C000B280CDB0A20988709E0EF
:10ED1000092907D10298B0F92600012802BF0598F9
:10ED2000012707809AF8000050F002008AF80000DE
:10ED30009AF8140050F002008AF81400009F00981E
:10ED40003A373F7857F0020700F83A7F009F009863
:10ED50003A373F7D3A3057F00207077510E0D07917
:10ED600050F00200D071507850B3401E5070C0B2C5
:10ED7000012804BF042010705078062800D11470B8
:10ED800098F80000072868D10D2959D29BF8000097
:10ED90008DF80C00019FBC46142700FB0750674606
:10EDA000C019877C57F0020787749DF80C00032870
:10EDB00027BF00208BF80000401C8BF8000002E009
:10EDC00006205070DBE7019F9BF80000BC4614272B
:10EDD00000FB07506746C019807A000644BF002038
:10EDE0008BF80000019F9BF80000BC46142700FB35
:10EDF00007506746C019807AC00744BF00208BF8CF
:10EE00000000019F9BF80000BC46142700FB075040
:10EE10006746C019807A800704D509291CBF0020E5
:10EE20008BF80000019F9BF80000BC46142700FBF4
:10EE300007506746C019877C57F0010787740CE0BC
:10EE4000D07950F00200D071107803283CBF401CEC
:10EE500010701078032808BF147098F80000062876
:10EE60007FF4BBAC0D2980F09180514807290078D0
:10EE70000ED14D4A1278022A32D1B3F978004B49AB
:10EE800011EB8000015FD12963DA491C018060E049
:10EE90000B2901D00C2909D1BAF91220BAF90A506C
:10EEA000AA4233DA521CAAF812202FE0052917D102
:10EEB000022815D1B9F970101A5F08001E38824275
:10EEC00002DA1E321A8003E08A42BCBF521C1A804A
:10EED000987D50F0020098753BE000BF402500206F
:10EEE000019A9BF800709446142207FB0255624673
:10EEF000AA18B2F91050B2F90870BD4202DA6D1CBE
:10EF0000158203E0957AED0648BF1482052909D1E0
:10EF1000F8B9A9F8000099F8020050F0020089F849
:10EF2000020016E006290AD1B3F92800032810D000
:10EF3000B3F93C000B280CDB0A20988709E009296B
:10EF400007D10298B0F92600012802BF05980121D7
:10EF500001809AF8000050F002008AF800009AF848
:10EF6000140050F002008AF81400009900983A3119
:10EF7000097851F0020100F83A1F009900983A31DF
:10EF8000097D3A3051F00201017526E4D07950F044
:10EF90000200D07150780628BFF418AC401C5070A5
:10EFA00000067FF416AC12E4472500202020002044
:10EFB00045250020F0B5CE4D1E4E00240027380018
:10EFC0000C2100FB0150C17A89070FD5C472417929
:10EFD0000368052201FB0231002302B4017936F8EF
:10EFE0001120817AC088FDF755FF01B07F1CFFB268
:10EFF000092FE4D3104807780D2F1AD3162F18D2F3
:10F000000E480178A9B1F337FFB204700C20052235
:10F0100007FB00504179036801FB023102B4084943
:10F020000B78017936F81120817AC088FDF732FF1C
:10F0300001B0F0BD1C2301083025002083340020DE
:10F04000823400202DE9F0419A4EA74FA74D0100D0
:10F05000B6F900003B68142200FB0230A44B0C22DE
:10F0600001FB0234944988466179062929D8DFE8F2
:10F0700001F0042A4381A9D1F900904E0620FDF742
:10F08000B3F85FF47A714843010028001030FFF7AD
:10F090000BF92800123001B4A17A20890023320034
:10F0A000FDF7F8FE287C03210023320000FB01500D
:10F0B000303001B4A17A2089283080B2FDF7EAFE11
:10F0C00002B0BDE8F081A98D2800C9B2FFF7CEF9E2
:10F0D00020B4207938F81020A17A20890023FDF788
:10F0E000D9FE40460C3001B4A17A207938F81020BE
:10F0F000208900231030E0E7217941B97049006987
:10F10000B1F90010414328001030FFF7CDF8207905
:10F1100001280ED16B483B681422B0F90010B6F9F3
:10F12000500000FB02300069414328001030FFF717
:10F13000BBF82079022804D1002128001030FFF705
:10F14000B3F82800123001B4A17A207938F81020E1
:10F1500020890023FDF79EFE287C0321002300FB6D
:10F160000150303001B4A17A207938F8102020897C
:10F170002830A2E7217941B953490069B1F900105B
:10F18000414328001030FFF78FF8207901280ED175
:10F190004E483B681422B0F90010B6F9500000FB4D
:10F1A00002300069414328001030FFF77DF82079D4
:10F1B000022804D1002128001030FFF775F82079CB
:10F1C0000328B8E7217941B941490069B1F9001034
:10F1D000414328001030FFF767F8207901280ED14D
:10F1E0003C483B681422B0F90010B6F9500000FB0F
:10F1F00002300069414328001030FFF755F82079AC
:10F20000022804D1002128001030FFF74DF82079A2
:10F21000032890E7217941B92F490069B1F900101D
:10F22000414328001030FFF73FF8207901280ED124
:10F230002A483B681422B0F90010B6F9500000FBD0
:10F2400002300069414328001030FFF72DF8207983
:10F25000022804D1002128001030FFF725F820797A
:10F26000032868E7217941B91D490069B1F9001007
:10F27000414328001030FFF717F8207901280ED1FC
:10F2800018483B681422B0F90010B6F9500000FB92
:10F2900002300069414328001030FFF705F820795B
:10F2A000022804D1002128001030FEF7FDFF20794C
:10F2B000032840E7A4250020D8210108050A000002
:10F2C000D02B0020DA2B0020CE2B0020D82B0020C2
:10F2D000D62B00204A790020D22B0020DC2B0020E6
:10F2E000D42B0020DE2B0020903400202425002089
:10F2F000502B00202DE9F04F002000248046C1460D
:10F30000CB49CC4F14238A4650210AF2902B04FBA0
:10F3100001A109FB03160D001035B17C890740F1EE
:10F3200007810020B074042C01D0072C1FD1B07AC3
:10F33000800609D53068002301B47168E85E31F8B1
:10F340001020B17BB0895FE1B07A000600F15F81E7
:10F35000B6F9100032680A21002300FB012001B435
:10F360007168E85E31F81020B17BB0894CE1B07A69
:10F37000800607D53068002301B4B17B706802882D
:10F38000B08941E1B17ABBF92800890777D5082C0B
:10F3900034D1BBF90010BBF91420CF4B891A1B687C
:10F3A000502200FB02A01422B0F9380000FB02300A
:10F3B0000069414338001030FEF776FF3800123004
:10F3C00001B47168BBF92800434631F81020B17BC5
:10F3D000B089FDF75FFD387C0321434600FB0170D7
:10F3E000303001B47168BBF9280031F81020B17BCE
:10F3F000B089283080B2FDF74DFD02B00A2C2DD126
:10F40000B64B0AF23030B0F91410B0F900001B68A6
:10F410001422091ABAF9B40100FB02300069414311
:10F4200038001030FEF740FF3800123001B4B17BD5
:10F43000706800230288B089FDF72CFD387C032119
:10F44000434600FB01703C3001B4B17B7068028818
:10F45000B089283080B2FDF71DFD02B0092C40F0C4
:10F46000D680B5F914106868C9B2FEF7E5FF686880
:10F47000002301B4A97CA8680288288AC4E0B17A74
:10F4800001292CD120203870B6F910100B2C09D18D
:10F49000092905D13120387030207870B87009E022
:10F4A000491C01E00A29F5D00A204143C9B2781C61
:10F4B000FEF7DCFF80B47068B17B00230288B0895E
:10F4C000FDF7E8FC59A001B4B17B7068434602889F
:10F4D000B089183080B2FDF7DDFC02B097E08029DA
:10F4E0001CD0082C0DD1B6F9101033680A2201FB8C
:10F4F0000231002302B4716831F81020B17BB08969
:10F5000082E0B6F9100032680A21002300FB0120D6
:10F5100001B4B17B70680288B08975E00A2C76D19D
:10F520003068002301B4B17B70680288B0896BE059
:10F53000397BA1426BD13819007F484567D13E48DD
:10F540000178002963D03D4F00210170042C01D0C7
:10F55000072C1CD1B07A800609D5306801B43B78FD
:10F56000685E716831F81020B17BB0894CE0B6F963
:10F57000100032680A2100FB012001B43B78716859
:10F58000B5F9000031F81020B17BB0893CE0B07AC9
:10F59000800607D5306801B43B787068B17B02887B
:10F5A000B08931E0082C0ED1B6F9100032680A217A
:10F5B00000FB012001B43B787168BBF9280031F8E9
:10F5C0001020B17B0AE0B6F9100032680A2100FB76
:10F5D000012001B43B787068B17B0288B089FDF7E7
:10F5E00059FC01B0092C12D1B07A80070FD5B5F9BA
:10F5F00014106868C9B2FEF71FFF686801B43B7851
:10F60000A868A97C0288288AFDF744FC01B0484616
:10F61000401CC0B281460428FFF472AE641CE4B200
:10F620000D2CFFF46CAEBDE8F08F00BF250000008C
:10F630006C25002024250020833400208234002003
:10F64000F0B5234E234D0024306800278088401CED
:10F6500001280EDA13E0204A14217F1C1268BFB281
:10F6600000FB01210A2200FB025010F5826000F02D
:10F6700061FE316838008988491C8842EBDB3068BC
:10F68000818829868188A5F880100021A5F8D010EE
:10F69000A5F82011C088401C01280EDA13E00F4A9B
:10F6A0001421641C1268A4B200FB01210A2200FB91
:10F6B000025010F5956000F03DFE31682000C988C9
:10F6C000491C8842EBDB3068C088A5F8AC01F0BD6E
:10F6D000402C00206C25002090340020382C002085
:10F6E00000B50620FCF780FD124B80B20021984245
:10F6F00028BF0121104B984224BF491C89B20F4BEF
:10F70000984224BF491C89B20D4A904224BF491C2B
:10F7100089B20C480A22036801FB0232002304B4B8
:10F72000426832F81120817B8089FDF7B3FB01B07C
:10F7300000BD00BFB90B0000AD0D00003D0F000083
:10F7400005100000C0260020B0B501215C4C24202B
:10F75000FCF746FD00211420FCF742FD0020FCF7D9
:10F7600023FD1420FEF798FD01210620FCF738FD4B
:10F7700000210022502700231500142005FB074517
:10F7800003FB00505B1C9BB2857C55F00205857421
:10F79000042BF1D3521C92B20D2AECD30F4D002052
:10F7A00002000C23401C02FB035280B2D37A53F0B8
:10F7B0000203D3720928F3D309480078092805D039
:10F7C00004F2E22084F81E130170017505485FF40D
:10F7D00016710180044801210170B0BD502B00203A
:10F7E000302500208A340020B82E00202DE9F04179
:10F7F000AB4C334D314F00202E00103620740021C9
:10F800000520FCF7EDFCB6F91410092005F250189C
:10F81000FCF7E6FCB6F928100A20FCF7E1FC388872
:10F82000B6F93C104843C11110EB116001120020E1
:10F83000FCF7D6FCB6F9000078B9B8F964001128D5
:10F840000BDB786881880A20491CFCF7C9FC012180
:10F850000520FCF7C5FC01202074B6F964100B20CC
:10F86000FCF7BEFCB6F978100C20FCF7B9FC7888E0
:10F87000B5F99C104843C11110EB11600112012031
:10F88000FCF7AEFCB6F9500078B9B8F9640011285D
:10F890000BDB786881880C20491CFCF7A1FC012156
:10F8A0000520FCF79DFC02202074B8F9000018B96F
:10F8B00001210620FCF794FCBDE8F0813C2C0020DF
:10F8C0006C25002070B5134C0121754E2420FCF7E7
:10F8D00087FCB4F964501420ADB24543F06F401971
:10F8E000B0F908100720FCF77BFCF06F4019418944
:10F8F0000820FCF775FC084A0848B4F9641032F88F
:10F9000011100160B4F9000018B901210620FCF7BC
:10F9100067FC70BDBC260020D42501088C34002073
:10F9200070B5314C314D324EB4F9000078B9242114
:10F930000F20FCF755FC300084302860B4F9140027
:10F940000C2100FB016041890D20FCF749FCB4F952
:10F95000000002280FD1B4F914000C2100FB016053
:10F9600041890D20FCF73CFC06F21410286024218C
:10F970000F20FCF735FCB4F9000001280ED1B4F9D2
:10F9800014000C2100FB0160CC3641890D20FCF7EE
:10F9900027FC2E6024210F20FCF722FCB4F9000084
:10F9A00003281FD1B4F91400124D0E2100FB0150A1
:10F9B00001891020FCF714FCB4F914000E2100FB9F
:10F9C000015041891120FCF70BFCB4F914000E2101
:10F9D00000FB01504089401C10EBD07041101220F8
:10F9E000FCF7FEFB70BD00BF5C2700205004024006
:10F9F0005C2D0020442C00202DE9F041274C284E9E
:10FA0000254F04F23030B0F91410B0F9000004F2C0
:10FA1000402504F23808091A2220FCF7E1FBB5F969
:10FA20000000B5F9141011EBC0012020FCF7D8FB41
:10FA3000B5F9000088B9B8F90000B7F9001032181C
:10FA400092F9502016EB4000008D891A890291FB33
:10FA5000F0F0C1B22120FCF7C3FBB5F9000001288A
:10FA600011D1B8F95000B7F90410321892F95C209E
:10FA700016EB4000808F891A890291FBF0F0C1B229
:10FA80002120FCF7ADFBB4F9500118B90121062083
:10FA9000FCF7A6FBBDE8F081202000206C250020AB
:10FAA000BC2B00202DE9F04FE34C86B00020E36F23
:10FAB0008046E084E148142200F2B419B9F900103C
:10FAC00001FB02319622C989C4F86880C4F86C80B1
:10FAD000D1F58061C4F8708051434A12C4F8748033
:10FAE00011EB9251B9F914208912891809B20391C6
:10FAF0000021A181FF21A173E1730100383082460A
:10FB0000CF48EC3104918346207C002840F0CF8020
:10FB1000002505E06D1C2DB2B5F5805F80F2CB812C
:10FB2000C84810EB85060120FCF75EFB58B9A08C95
:10FB3000854208D10499B1F9641021B9401CA08410
:10FB4000FCF742FB30603268A06EBAF91430266FC1
:10FB50002272217A4018A0660800C31AA36703FB2B
:10FB600003632367237B8B4238BF2173A37B9942B6
:10FB700038BFA173BAF96460676F110A6172637A62
:10FB8000E16EC918E16619008E1BA66706FB0676B2
:10FB90006667667B9E4238BF6373E67BB34238BFBD
:10FBA000E373130C01261E40A672520C012313406E
:10FBB000E372039AAA42ADDAE28CCB4B9A42A9D205
:10FBC000039BEE1ABAF9003036B214EB4302128DE1
:10FBD0004243E01890F95000531212EB93529212E4
:10FBE0008018BAF95020207014EB4200808F4843EF
:10FBF000A11891F95C10421210EB9250E26F801242
:10FC000008186070B9F90000142100FB0120019070
:10FC10000FE00228B8BF0120A06700997F1C887000
:10FC200000F064F90099C8702078E784A0706078CB
:10FC3000E070019AE78CB102D289380000FB121102
:10FC40000129FFF667AF711E89020291A17822781F
:10FC5000531A019A9C46D389029A43439A1A6346DF
:10FC600053435A1213EB9252921289181BEB8002E3
:10FC7000217100921170019BE1786278DB89521A40
:10FC80005843029BC01A4243501212EB905080120C
:10FC9000081860710099142248700498A17AB0F98C
:10FCA000000001FB0200C828B3DBC720B4E7002531
:10FCB000644810EB85060120FCF796FA58B9A08C31
:10FCC000854208D10499B1F9641021B9401CA0847F
:10FCD000FCF77AFA30603268A36E2272276F100A3E
:10FCE0006072207A617A46189B19A366E366BAF9B6
:10FCF0001430C61AA66706FB0676CB1AA36703FB69
:10FD00000363266723676367237B834238BF2073BF
:10FD1000237B8B4238BF2173237B6373A37B984281
:10FD200038BFA073A37B994238BFA173A37B012680
:10FD3000E373130C1E40A672520C01231340BAF950
:10FD40002820E3729AB9BAF9003014EB4302128DFD
:10FD5000E31893F95030504346124A4310EB965043
:10FD6000801218182070501212EB905012E0BAF95D
:10FD7000503014EB4302928FE31893F95C305043F8
:10FD800046124A4310EB96508012181820705012F9
:10FD900012EB90508012181860700398A84280F2FD
:10FDA0008480E08C5049884280F07F800399B9F9C3
:10FDB0000000E26F6E1A142136B200FB01200190A0
:10FDC0000BE00228B8BF0120A06700997F1C887053
:10FDD00000F08CF80099C870E7840498A17A142286
:10FDE000B0F9000001FB0200711E89020290E78C4D
:10FDF000059101993800C9894143B1EB862F2FDA6B
:10FE0000A1786278531A019A9C46D389059A434394
:10FE10009A1A63461BEB800053435A1213EB92521B
:10FE200092128918617100900170009841700298D7
:10FE3000C828C6DBC720C7E7BC2B00206C250020E4
:10FE400098740020983400200228B8BF0120A067D1
:10FE500000997F1C887000F049F80099C870E78409
:10FE60000199E78C2278C98938004143B1EB862F8C
:10FE70001ADA6178531A019A9C46D389059A43434A
:10FE80009A1A63461BEB800053435A1213EB9252AB
:10FE900092128918217100900170009841700298A7
:10FEA000C828D1DBC720D2E7A2706D1C2DB2B5F5F2
:10FEB000805FFFF6FDAE0020002616EB800159445E
:10FEC0000A790A7041425A4616EB8101511811F520
:10FED00095610A78761C042E0A71EEDB401C04281A
:10FEE000EADB06B0BDE8F08F2B010000CD493F4BA7
:10FEF0002DE9F00F83B0B1F93C010A0031F99C9F64
:10FF0000B1F96410984698F8003098F8055098F8C0
:10FF100010601032B2F93C404519B5EB0905029565
:10FF200098F80450C3181B1B45192C1B98F80B504C
:10FF300001942D4C891EA246B8F8264014EB0A0BFA
:10FF400098F8014007290094B2F95040B2F9002016
:10FF50003AD8DFE801F004101A1A21282D3426B906
:10FF600000981818B0EB090031E002B10198002C9C
:10FF70002DD002982BE026B90098181A19EB000032
:10FF800025E002B1019814B3F3E798F80A100D4088
:10FF9000142105FB01001AE09BF800109AF82B21B0
:10FFA000891A081813E09BF82C119AF85722F7E7E2
:10FFB0009BF858129AF88323891A081807E09BF8CF
:10FFC00084139AF8AF24EBE7142105FB0100C8283D
:10FFD00001DBC72002E00228B8BF0120C0B203B095
:10FFE000BDE8F00F704700BF74200020BC2B00203C
:10FFF0008C482DE9F04F8C4C804608F24020B0F937
:020000040801F1
:100000000010B0F9140008F25016002710EBC101DF
:10001000864881468648824686488346B6F950001F
:10002000042847D8DFE800F0031D384040002020B6
:10003000FCF7D6F80220FCF7D7F840B1FFF732FD05
:10004000B6F9640039F81000CBF8000032E0DBF8B4
:10005000000000282ED1A08C70498842EED3A784DE
:10006000ECE72020FCF7BCF80220FCF7BDF80028E4
:10007000E4D1DBF80000E8B9002352461754401CD5
:1000800080B25FF496629042F7D3B6F9640039F813
:100090001000CBF800000DE02020FCF7A1F80220B2
:1000A000FCF7A2F830B103E020212020FCF798F8FB
:1000B000FFF7F8FCFDF768FBF05F45463835002890
:1000C00030D10320FCF790F860B301210620FCF743
:1000D00087F8B6F9640039F81000CBF80000B6F9DB
:1000E0005000A784022806D101203080B07850F05B
:1000F0000200B07016E0042814D10020AA8A1AEB7E
:100100008001401C0A70B5F8642080B24A704246F3
:1001100032F8EC3F50328B701288CA705FF49672DE
:100120009042EBD3E95FA26E601890F9500014EB97
:100130004101098D920A5143E26E090B4018B5F94D
:100140001410920A401AB5F950106082601890F9A4
:100150005C0014EB4101898F5143090B4018B5F93C
:100160006410401AA083206F000BFEF795F9E95F39
:10017000621892F9502014EB4101098D414312EBB2
:1001800091206083606F000BFEF786F9B5F950107F
:10019000237BB5F9148014EB4102968F204A611835
:1001A00091F95C10704311EB90201080EA5FB5F973
:1001B0006450B146667B14EB4200008DA21892F9A0
:1001C000502009FB06F643435F1213EB9753771257
:1001D0009B1216EB9756A77BD318B3EB0803E38269
:1001E00078434712B61210EB975080121018E27B3A
:1001F0008E19761B268409FB02F2B0EB08002083DF
:100200005712181A12EB975292128918491B6184DF
:10021000A082701AE083BDE8F08F00BFFF0F0000DE
:100220004A7900206C250020BC2B0020D425010831
:10023000987400208C34002030BF704720BF704776
:1002400040BF7047BFF36F8F7047BFF34F8F70474A
:10025000BFF35F8F704701DF7047EFF31480704783
:1002600080F31488BFF36F8F7047EFF309807047F6
:1002700080F309887047EFF30880704780F308889F
:10028000704762B6704772B67047EFF310807047E0
:1002900061B6704771B67047EFF31380704780F313
:1002A00011887047EFF31280704740BA704700BA68
:1002B00070470000034A024B0B4003431360704732
:1002C00080FFFF1F08ED00E07047000010B581B00F
:1002D0000400009469460120FFF7F6FFF9E70000EB
:1002E00000F030B810B50300002A04E011F8014B0B
:1002F000521E03F8014BF9D110BD0000C9B2030032
:10030000002A02E003F8011B521EFBD170470000D7
:1003100001E0401C491C02780B789A4203D1002A64
:10032000F7D10020704702D25FF0FF307047012004
:1003300070470000020011F8013B02F8013B002B5E
:10034000F9D17047014CA64620470000CD020108B4
:100350008C4690FBF1F10CFB11007047914A0000B4
:10036000BC2E0020BC2E0020B90E00000020002072
:1003700074030108E0FFFF071FF8E007FFFF00001C
:100380001F0500F8E0FFEF7BFFFFE00700F8EF7BC1
:10039000FF071F00AF000600740002004B000600BC
:1003A0002300060000000000000000000000000024
:1003B000FFFFE0FFE0BDFF07F7051FF817B8E007F4
:1003C000E005EF7B1F0500F81F00000000000000A3
:1003D000000000000000000000000000000000001D
:1003E000000000000000000000000000000000000D
:1003F00000000000000000000000000000000000FD
:1004000000000000000000000000000000000000EC
:1008C00000000000000000007556006D5600562024
:1008D000006B56006E53007553006D53005320009B
:1008E000442201081C230108010010002300E40039
:1008F00001000200F4220108D821010801001000C3
:100900002300D800000002007C290020D821010823
:10091000080000003300D80005000200142301087D
:100920001C230108C80020000000000096000200FF
:10093000582201081E230108010010005600E4009F
:1009400001000200F4220108DA2101080100100070
:100950005600D800010002007C290020DA2101089D
:10096000080000006600D8000100020014230108FE
:100970001E230108C80020000000000064000200DF
:100980006C22010820230108010010008900E40006
:1009900001000200EC220108DC2101080000100027
:1009A0008900D80000000200E4220108DC210108CF
:1009B000000000009900D800000002001423010884
:1009C00020230108C7002000000000003C000200B6
:1009D000802201082223010809001000BC00E40065
:1009E00001000200EC220108DE21010800001000D5
:1009F000BC00D80000000200E4220108DE2101084A
:100A000000000000CC00D800000002001423010800
:100A100022230108C700200000000000140002008B
:100A2000EC21010800220108010000000000E400A0
:100A3000000002000422010838220108040000001E
:100A40000000D8000000020004220108382201083A
:100A500004008000000000000000040004220108DF
:100A6000382201080400800000000000000004009B
:100A7000282301086423010804001000EF00E400AB
:100A800000000200142A0020662301081A0000005A
:100A9000EF00D800110002005C2301086423010864
:100AA000D30E20006E010000000002005C2301084C
:100AB00064230108D30E80005000000000000200F3
:100AC0006823010858240108030010001A01E400FB
:100AD00003000200902301085A24010813000000BB
:100AE0001A01D8000D000200242500205824010816
:100AF000640080003201E40032000400242500205C
:100B000058240108000080000000000000000400DC
:100B10005C2401081C230108030010004D01E400BF
:100B200001000200AC2401081C230108070010008A
:100B30007501E40000000200FC240108D82101082E
:100B4000C80020004D01D80000000200FC2401086C
:100B5000D8210108000080006501D80000000400D1
:100B6000082501080C260108C7002000230000000A
:100B7000B4000200102501080C260108C70020005F
:100B80003E00000028000200842501081C23010803
:100B9000010010003A01C5000000020024250020D9
:100BA000D8210108F00002005601C50046000200ED
:100BB0002825010814260108010010008600000005
:100BC000000000002425002014260108FF00020078
:100BD000CE000000000001003C2501081426010899
:100BE00001001000E6000000000000003C250108A4
:100BF000142601080000800000000000000004002E
:100C000018250108102601082C01200038010000D9
:100C10005000020020250108102601082C012000A8
:100C20005301000018010200982501081026010850
:100C3000000080003A01B6000000020024250020D8
:100C4000122601082C0102005601B60050000200D5
:100C5000402B00200C260108000020003A01A700CC
:100C600000000200242500200E26010809000100D2
:100C70005601A70005000200242500200C260108CB
:100C80000000800000000000000004002425002077
:100C90000C26010800008000000000000000040095
:100CA000482B00200C260108000020003A01980083
:100CB00000000200242500200E2601080A00010081
:100CC0005601980005000200242500200C2601088A
:100CD0000000800000000000000004002425002027
:100CE0000C26010800008000000000000000040045
:100CF00000000000000000000000000000000000F4
:100D000000000000000000000000000000000000E3
:100D100000000000000000000000000000000000D3
:100D200000000000000000000000000000000000C3
:100D300000000000000000000000000000000000B3
:100D400000000000000000000000000000000000A3
:100D50000000000000000000000000000000000093
:100D60000000000000000000000000000000000083
:100D70000000000000000000000000000000000073
:100D80000000000000000000000000000000000063
:100D90000000000000000000000000000000000053
:100DA0000000000000000000000000000000000043
:100DB0000000000000000000000000000000000033
:100DC0000000000000000000000000000000000023
:100DD0000000000000000000000000000000000013
:100DE0000000000000000000000000000000000003
:100DF00000000000000000000000000000000000F3
:100E000000000000000000000000000000000000E2
:100E100000000000000000000000000000000000D2
:100E200000000000000000000000000000000000C2
:100E300000000000000000000000000000000000B2
:100E400000000000000000000000000000000000A2
:100E50000000000000000000000000000000000092
:100E60000000000000000000000000000000000082
:100E70000000000000000000000000000000000072
:100E80000000000000000000000000000000000062
:100E90000000000000000000000000000000000052
:100EA0000000000000000000000000000000000042
:100EB00000000000422E4C0000000000566F6C0045
:100EC000000000009C25010804003A015601890237
:100ED0009C25010804013A0156017A029C2501086B
:100EE00000023A0156016B029C25010800033A01F9
:100EF00056015C029C25010800043A0156014D028E
:100F00009C25010801053A0156013E029C25010875
:100F100001063A0156012F029C25010801023A01FF
:100F2000560120029C25010802033A0156011102D4
:100F300000000000000000000000000000000000B1
:100F400000000000000000000000000000000000A1
:100F50000000000000000000000400040004000481
:100F60000004000400040004000400040004000461
:100F70000004000400040004000400040004000451
:100F80000000000000000000000000000000000061
:100F90000000000000000000000000000000000051
:100FA0000000000000000000000000000000000041
:100FB0000001000100000000203130487A200000CC
:100FC000B3003F9C3200203230487A200000B3004A
:100FD0001F4E3200203530487A200000B3003F1FFA
:100FE000320021313030487A2100B3009F0F3200A7
:100FF00021323030487A2100B300CF07320021354A
:101000003030487A2100B3001F03320020314B48B2
:101010007A200000B3008F01320020324B487A2042
:101020000000B300C700320020354B487A20000092
:1010300011001F0332002131304B487A210011008A
:101040008F0132002132304B487A21001100C70055
:1010500032002135304B487A210000009F053200D4
:101060003130304B487A00000000CF02320032307D
:10107000304B487A00000000670132003530304BB9
:10108000487A000000008F00320020314D487A205D
:10109000000000004700320020324D487A20000056
:1010A00000002300320020344D487A200000000068
:1010B0001100320020364D487A20000000000B005D
:1010C000320020384D487A2000000000080032002D
:1010D000203130487A20000013000F27203230489A
:1010E0007A20000013008713203530487A20000052
:1010F0001300CF0721313030487A21001300E70375
:1011000021323030487A21001300F301213530308C
:10111000487A21001300C70020314B487A20000094
:101120001300630020324B487A2000001300310086
:1011300020354B487A200000130013002131304B3A
:10114000487A2100130009002132304B487A2100EF
:1011500013000400000027008E0030010902110373
:1011600041048F05F0065A08C009190B590C760D79
:10117000680E260FAB0FF30FFF0FD70F700FCE0EB9
:10118000F50DED0CBD0B6F0A0E09A4073E06E50434
:10119000A50388029601D80053000B000000E3006D
:1011A000C601AA028D037104540538061B07FF0708
:1011B000E208C609A90A8D0B700C540D370E1B0FDF
:1011C000FE0F1B0F370E540D700C8D0BA90AC609AC
:1011D000E208FF071B073806540571048D03AA02B5
:1011E000C601E30000007500EA005F01D401490276
:1011F000BE023303A8031D04920407057C05F10514
:101200006606DB065007C5073A08AF0824099909A6
:101210000E0A830AF80A6D0BE20B570CCC0C410D39
:0D122000B60D2B0EA00E150F8A0FFF0F014B
:101230007556006D56005620006B560043485F41BE
:10124000000000005A45524F000000004449464645
:1012500000000000564F54414745000043485F429C
:10126000000000002020202020202020205061723B
:10127000616D65746572732076657273696F6E2037
:101280006572726F722020202020202020202000F4
:1012900020202020202020202053617665207468A3
:1012A000652063616C6962726174696F6E2064614C
:1012B00074612020202020202020200020202020B9
:1012C00020202020202020526573746F72652064D6
:1012D000656661756C7473206461746120202020E0
:1012E0002020202020202000213130562100000025
:1012F000203556200000000020325620000000005B
:101300002031562000000000302E3556000000002D
:10131000302E325600000000302E31560000000002
:1013200035306D560000000032306D560000000070
:1013300020496E70757420007374616E646172640C
:1013400020766F6C7461676520746F200000000068
:1013500043485F412020000043485F4220200000B6
:101360002020202020506C6561736520636F6E6EB5
:1013700065637400696E70757420746F20474E4405
:1013800020202020202020002043485F4120000012
:101390002043485F422000002020202050757368C1
:1013A00020746865202E206B657920746F20636F30
:1013B0006E6669726D206578697420202020202077
:1013C000202000003130302D3132306D56000000C9
:1013D0003235302D3330306D56000000302E352D33
:1013E000302E365620000000312E302D312E325650
:1013F00020000000322E352D332E30562000000004
:10140000352E302D362E3056200000002031302D64
:1014100031325620200000002032352D3330562046
:10142000200000002035302D3630562020000000EE
:101430007375697461626C652000000020457869ED
:101440007420776974686F75742063616C69627267
:101450006174696F6E200000000045786974207720
:1014600069746820736176652063616C696272617A
:1014700074696F6E000000004578697420776974A4
:101480006820526573746F72652064656661756C5F
:101490007473000000000000200040008000400045
:1014A0002000100008001000000042FE02000000B2
:1014B000468A9292620000448292926C0000182840
:1014C0004AFE0A000040407E40400000000000004C
:1014D000000000007000FF0370000000000000002A
:1014E000000000000200040008007000700070009E
:1014F00080000001000200002000200020002000E9
:10150000700070007000200020002000200000000B
:1015100000020001800070007000700008000400EC
:1015200002000000000000000000800740002000D2
:101530002000200020002000400080070000000064
:10154000000000000000000000000F00100020005C
:10155000200020000C038C01C00060003000180344
:101560000C0300000000800160021C026A02840279
:101570004001000002020202020202020202020212
:10158000FE03000000000000F800FC010603020258
:10159000000000000000000002020603FC01F80049
:1015A0000000000000008C01D80070007000D8001E
:1015B0008C010000000020002000F800F80020004E
:1015C000200000002000200010000F00000000009C
:1015D000000000000000200020002000200020006B
:1015E00020000000000000000003000300000000D5
:1015F000000000008001C0006000300018000C00F6
:1016000006000000FC01FE03420222021202FE0359
:10161000FC010000000008020C02FE03FE030002B1
:101620000002000004038603C202620232021E03AB
:101630000C03000004010603220222022202FE0320
:10164000DC0100006000700058004C02FE03FE0345
:10165000400200001E011E02120212021202F203D8
:10166000E2010000F801FC03260222022202E0034C
:10167000C001000006000600C203E20332001E00A3
:101680000E000000DC01FE03220222022202FE0301
:10169000DC0100001C003E02220222022203FE01A5
:1016A000FC0000000000000000009801980100000C
:1016B00000000000FA02FA02FA02FA02FA02FA0242
:1016C000FA02FA02000020007000D8008C01060324
:1016D00002020000900090009000900090009000A6
:1016E000000000000000020206038C01D800700018
:1016F0002000000018001C000400440364033C00A8
:1017000018000000F801040172027202F202840261
:1017100078000000F003F8034C0046004C00F8038A
:10172000F00300000202FE03FE0322022202FE0377
:10173000DC010000F800FC010603020202020603BD
:101740008C0100000202FE03FE0302020603FC01FC
:10175000F80000000202FE03FE03220272020603EA
:101760008E0300000202FE03FE0322027200060046
:101770000E000000F800FC01060322022202E6012E
:10178000EC030000FE03FE03200020002000FE0307
:10179000FE030000000000000202FE03FE0302023E
:1017A00000000000C001C00300020202FE03FE01AF
:1017B000020000000202FE03FE033000F800CE0328
:1017C000060300000202FE03FE0302020002000202
:1017D00000030000FE03FE031C0038001C00FE0393
:1017E000FE030000FE03FE031C0038007000FE0331
:1017F000FE030000F800FC01060302020603FC01E0
:10180000F80000000202FE03FE03220222003E0056
:101810001C000000FC01FE03020282020203FE0320
:10182000FC0100000202FE03FE0322006200FE0330
:101830009C0300000C011E03320222026202CE034E
:101840008C01000000000E000602FE03FE030602EB
:101850000E000000FE01FE03000200020002FE0373
:10186000FE0100007E00FE00800100038001FE00FA
:101870007E000000FE00FE038003E0018003FE0303
:10188000FE0000000603DE03F8002000F800DE037F
:101890000603000000001E003E02E003E0033E02DB
:1018A0001E0000008E03C603620232021E038E0376
:1018B0000000000000020003C0022002180204021F
:1018C000FE030000000022004200FE01FE03400271
:1018D0002002000020001000080006000800100090
:1018E00020002000000020021002FC03FE03120072
:1018F00022000000000000020002000200020002BC
:1019000000020000020202020202020202020202BD
:1019100002020202C001E80328022802F801F003D3
:10192000000200000202FE03FE0120022002E0038A
:10193000C0010000E001F0031002100210023003A9
:10194000200100000000C001E00320022202FE038B
:10195000FE030000E001F003500250025002700349
:101960006001000000002002FC03FE0322020200CE
:10197000040000003001780348024802F803F8012F
:10198000000000000202FE03FE0320001000F0032E
:10199000E0030000000000000002F603F60300026E
:1019A000000000000000000100031002F603F60131
:1019B000000000000202FE03FE036200F000980334
:1019C00008030000000000000202FE03FE03000204
:1019D00000000000F803F8031800F0031800F803F3
:1019E000F00300000800F803F00308000800F80303
:1019F000F00300000000F001F80308020802F803F9
:101A0000F00100000802F803F003480248007800E3
:101A1000300000003000780048004802F803F80366
:101A2000000200000802F803F00318020800180082
:101A30003000000000001001380368024802D8039B
:101A40009001000010001000F801FC0310021003C8
:101A500000010000F801F80300020002F801F80399
:101A6000000200000000F800F80100030003F80184
:101A7000F8000000F800F803000380010003F803F9
:101A8000F800000008021803B001E000B0011803DC
:101A90000802000038007802400240024002F801CB
:101AA000F800000018038803C8026802380218030F
:101AB00000000000F80088008E032200FA02FA02FB
:101AC000FA02FA02000000000000FE03FE0300001C
:101AD00000000000FA02FA02FA02FA02FA02020216
:101AE000FE030000F80088008E03020202020202D8
:101AF00002020202EF7BEF7BEF7BEF7BEF7BEF7B62
:101B0000EF7BEF7BEF7BEF7BEF7BEF7BEF7BEF7B85
:101B1000EF7BEF7BEF7BEF7BEF7BEF7BEF7BEF7B75
:101B2000EF7BEF7BEF7BEF7BEF7BEF7BEF7BEF7B65
:101B3000EF7BEF7BEF7BEF7BEF7BEF7BEF7BEF7B55
:101B4000EF7BEF7BEF7BEF7BEF7BEF7BEF7BEF7B45
:101B5000EF7BEF7BEF7BEF7BEF7BEF7BEF7BEF7B35
:101B6000EF7BEF7BEF7BEF7BEF7BEF7BEF7BEF7B25
:101B7000EF7BEF7BEF7BEF7BEF7BEF7BEF7BEF7B15
:101B8000EF7BEF7BEF7BEF7BEF7BEF7BEF7BEF7B05
:101B9000EF7BEF7BEF7BEF7BEF7BEF7BEF7BEF7BF5
:101BA000EF7BEF7BEF7BEF7BEF7BEF7BEF7BEF7BE5
:101BB000EF7BEF7BEF7BEF7BEF7BEF7BEF7BEF7BD5
:101BC000EF7BEF7BEF7BEF7BEF7BEF7BEF7BEF7BC5
:101BD000EF7BEF7BEF7BEF7BEF7BEF7BEF7BEF7BB5
:101BE000EF7BEF7BEF7BEF7BEF7BEF7BEF7BEF7BA5
:101BF000EF7BEF7BEF7BEF7BEF7BEF7BEF7BEF7B95
:101C0000EF7BEF7BEF7BEF7BEF7BEF7BEF7BEF7B84
:101C1000EF7BEF7BEF7BEF7BEF7BEF7BEF7BEF7B74
:101C2000EF7BEF7BEF7BEF7BEF7BEF7BEF7BEF7B64
:101C3000EF7BEF7BEF7BEF7BEF7BEF7BEF7BEF7B54
:101C4000EF7BEF7BEF7BEF7BEF7BEF7BEF7BEF7B44
:101C5000EF7BEF7BEF7BEF7BEF7BEF7BEF7BEF7B34
:101C6000EF7BEF7BEF7BEF7BEF7BEF7BEF7BEF7B24
:101C7000EF7BEF7BEF7BEF7BEF7BEF7BEF7BEF7B14
:101C8000EF7BEF7BEF7B0000EF7B000000000000AC
:101C90000000000000000000000000000000000044
:101CA0000000000000000000000000000000000034
:101CB0000000000000000000000000000000000024
:101CC0000000000000000000000000000000000014
:101CD0000000000000000000000000000000000004
:101CE00000000000000000000000000000000000F4
:101CF00000000000000000000000000000000000E4
:101D000000000000000000000000000000000000D3
:101D100000000000000000000000000000000000C3
:101D200000000000000000000000000000000000B3
:101D300000000000000000000000000000000000A3
:101D40000000000000000000000000000000000093
:101D50000000000000000000000000000000000083
:101D60000000000000000000000000000000000073
:101D70000000000000000000000000000000000063
:101D80000000000000000000000000000000000053
:101D90000000000000000000000000000000000043
:101DA0000000000000000000000000000000000033
:101DB0000000000000000000000000000000000023
:101DC0000000000000000000000000000000000013
:101DD0000000000000000000000000000000000003
:101DE00000000000000000000000000000000000F3
:101DF00000000000000000000000000000000000E3
:101E000000000000000000000000000000000000D2
:101E10000000000000000000EF7B0000EF7B0000EE
:101E200000000000000000000000000000000000B2
:101E300000000000000000000000000000000000A2
:101E40000000000000000000000000000000EF7B28
:101E50000000000000000000000000000000000082
:101E60000000000000000000000000000000000072
:101E70000000000000000000000000000000000062
:101E8000EF7B0000000000000000000000000000E8
:101E90000000000000000000000000000000000042
:101EA0000000000000000000000000000000000032
:101EB0000000EF7B000000000000000000000000B8
:101EC0000000000000000000000000000000000012
:101ED0000000000000000000000000000000000002
:101EE00000000000EF7B0000000000000000000088
:101EF00000000000000000000000000000000000E2
:101F000000000000000000000000000000000000D1
:101F1000000000000000EF7B000000000000000057
:101F200000000000000000000000000000000000B1
:101F300000000000000000000000000000000000A1
:101F40000000000000000000EF7B00000000000027
:101F50000000000000000000000000000000000081
:101F60000000000000000000000000000000000071
:101F700000000000000000000000EF7B00000000F7
