:020000040800F2
:10C000003C7D002065C1000861E4000865E400088B
:10C0100069E400086DE4000871E400080000000015
:10C0200000000000000000000000000079E40008AB
:10C0300075E40008000000007DE4000881E40008C9
:10C0400085E4000889E400088DE4000891E4000814
:10C0500095E4000899E400089DE40008A1E40008C4
:10C06000A5E40008A9E40008ADE40008B1E4000874
:10C07000B5E40008B9E40008BDE40008C1E4000824
:10C08000C5E40008C9E40008CDE40008D1E40008D4
:10C09000D5E40008D9E40008DDE40008E1E4000884
:10C0A000E5E40008E9E40008EDE40008F1E4000834
:10C0B000F5E40008F9E40008CDE50008D1E5000842
:10C0C000D5E50008D9E50008DDE50008E1E5000850
:10C0D000E5E50008E9E50008EDE50008F1E5000800
:10C0E000F5E50008F9E50008FDE5000801E60008AF
:10C0F00005E6000809E600080DE6000811E600085C
:10C1000015E6000819E600081DE6000821E600080B
:10C1100025E6000829E600082DE6000831E60008BB
:10C1200035E6000839E600083DE6000841E600086B
:10C130000120704710B5094C02E003F0EDFE0C340D
:10C140000748844208D26068A16822688142F4D11D
:10C15000002103F0EDFEF2E710BD00BF90FF0008E4
:10C16000A8FF0008024CA04730B1024CA04703E0F2
:10C1700031C1000835C10008034C4FF00000A04752
:10C18000024C034DAE46204745E6000815FF000867
:10C1900079FF0008F8F734B8F8F734B8F8F734B88E
:10C1A000F8F734B8F8F734B8F8F734B8F8F734B823
:10C1B000F8F734B8F8F734B8F8F734B8F8F734B813
:10C1C000F8F734B8F8F734B8F8F734B8F8F734B803
:10C1D000F8F734B8F8F734B8F8F734B8F8F734B8F3
:10C1E000F8F734B8F8F734B8F8F734B8F8F734B8E3
:10C1F000F8F734B8F8F734B8F8F734B8F8F734B8D3
:10C20000F8F734B8F8F734B8F8F734B8F8F734B8C2
:10C21000F8F734B82DE9F04FE44CE54DE54F8CB01C
:10C22000216809A8016061684160A16881600021FE
:10C230001420FFF7D5FF05F294300590B0F90010F7
:10C240000A20491C41430220FFF7CAFF0020FFF7E4
:10C25000ABFF01F091FE202104902020FFF7C0FFEA
:10C2600001212420FFF7BCFF00208046A5F85001E3
:10C2700005984646C246B0F950100520491E414374
:10C280000320FFF7ADFFCC485FF4FA710180CB4883
:10C2900041460D460170CA4801703868B0F90C116A
:10C2A0000720FFF79DFF39685FF48770095A08205F
:10C2B000FFF796FF29460920FFF792FF192128462C
:10C2C000FFF78EFF29460B20FFF78AFF1921012077
:10C2D000FFF786FFBB480027834651463800FFF72B
:10C2E0005FFFB9487F1CBFB28146FFF75BFF5F4528
:10C2F000F3D35046143080B28246DC28EAD30027BC
:10C30000EF213800FFF74CFF4846FFF74BFF7F1C3B
:10C31000BFB25F45F4D300210846FFF741FF2F4627
:10C320004846FFF73FFF7F1CBFB2EF2FF8D3142121
:10C330002C20FFF735FF14274846FFF733FF7F1CFB
:10C34000BFB2C92FF8D314215820FFF729FF1427B3
:10C350004846FFF727FF7F1CBFB2C92FF8D314212F
:10C360008420FFF71DFF14274846FFF71BFF7F1CA3
:10C37000BFB2C92FF8D31421C820FFF711FF14272B
:10C380004846FFF70FFF7F1CBFB2C92FF8D3142117
:10C39000F420FFF705FF14274846FFF703FF7F1C33
:10C3A000BFB2C92FF8D314215FF49070FFF7F8FEE5
:10C3B00014274846FFF7F6FE7F1CBFB2C92FF8D3FB
:10C3C00014215FF4A670FFF7EBFE14274846FFF731
:10C3D000E9FE7F1CBFB2C92FF8D300215FF4C770FC
:10C3E000FFF7DEFE2F464846FFF7DCFE7F1CBFB29C
:10C3F000EF2FF8D320000C3001B400230522B9211F
:10C40000062000F0CDFC2000143001B42B4605229C
:10C41000B921312000F0C4FC20001C3001B42B46AF
:10C420000522B9215D2000F0BBFC2000243001B4BE
:10C430002B460522B9218D2000F0B2FC63482B4623
:10C44000B921824620002C3001B45246CE2000F0A3
:10C45000A7FC2000143001B42B465246B921F92024
:10C4600000F09EFC20001C3001B459482B46524677
:10C47000B92100F095FC2000243001B42B4652462F
:10C48000B9215FF4AB7000F08BFC52482F46834615
:10C4900051480068808808B0401C012822DA29E051
:10C4A00014210023484300900099A6200522401A39
:10C4B000ADF820000846DBF800107F1C081801B416
:10C4C000BDF82410062000F06BFCDBF8001001988A
:10C4D0002B465246081801B4BDF82810CE2000F0B3
:10C4E0005FFC02B03C49BFB2380009688988491C2A
:10C4F0008842D5DB3148394A03210078002303F014
:10C5000041FD1E2100FB0140062100F2E01001B4B4
:10C510000A2000F045FC059801B0000439D02F4AEC
:10C52000343410B40023D821202000F039FC0698C0
:10C53000B0F950100520491E41430320FFF750FE7B
:10C540001D485FF4FA710180880001F02BFE03F0B2
:10C550004BF801B00CB0BDE8F08F18481F4A03211A
:10C56000007803F00FFD1E2100FB0140062100F2C0
:10C57000E01001B41A4803780A2000F011FC194AAF
:10C5800004F23C1001B40023D821202000F008FC64
:10C5900002B01548008848BB00210220FFF720FEAA
:10C5A00001211420FFF71CFED4E700BF500E010844
:10C5B0006C250020282C0020723400203A790020BD
:10C5C0006B3400208F010000FFFF00000501000018
:10C5D000250100007C340020803400200504000088
:10C5E0006E3400200506000076340020CA48002181
:10C5F0002F00018003F076F9C84810EB4700079040
:10C60000C74810EB47000490C648C0190690C648BA
:10C61000C0190090012E01D0042E21D104980A21C6
:10C620000A2200880A234843C0490968890A484306
:10C630000099000B91F9001001FB0200BC49401861
:10C64000079909885143BB4A1268920A5143069AD6
:10C65000090B92F9002002FB0311B54A89181BE06F
:10C660000498B24900880968B24A01F200211268B0
:10C67000890A48430099000B02F2002291F9001048
:10C68000920A40180799193809885143069A090BEC
:10C6900092F9002089181939A74A1180A749088002
:10C6A0000320FFF7A1FD18B101210620FFF798FD37
:10C6B000A3480078002800F0B381A2485FF4167107
:10C6C0000180A14800688088401C874280F29A80DF
:10C6D000142047430597A620C71B30000FD1974869
:10C6E000B0F9001001A801F065FD01A8801C01B49B
:10C6F00000230522B9B22D2000F052FB01B0012E1B
:10C700000FD18E48B0F9001001A801F053FD01A827
:10C71000801C01B400230522B9B2592000F040FB6F
:10C7200001B0022E22D18548DBF80020B0F90010BC
:10C73000059810180069414301A801F03BFD01A8CC
:10C74000801C01B400230522B9B2862000F028FB2A
:10C750009DF8080003210AAA434600FB0120052298
:10C76000B9B201B4AE2000F01BFB02B0032E0FD112
:10C770007148B0F9001001A801F01CFD01A8801C4F
:10C7800001B400235246B9B2F52000F009FB01B014
:10C79000042E0FD16848B0F9001001A801F00AFD7D
:10C7A00001A8801C01B4694800235246B9B200F0C8
:10C7B000F7FA01B0052E37D15F48DBF80020B0F959
:10C7C0000010059810180069414301A801F0F2FC1F
:10C7D00001A8801C01B400235246B9B25FF4A770CF
:10C7E00000F0DEFA9DF8080003210AAA434600FB88
:10C7F00001205246B9B201B45FF4BB7000F0D0FA28
:10C8000002B011E05248534A03210078002303F09C
:10C81000B9FB1E2100FB0140062100F2E01001B42B
:10C820000A2000F0BDFA01B04748454A4A4F016866
:10C830004A481278921E082A00F2BE80DFE802F011
:10C8400005BCBC3890BC322B250089888D42C0F0D5
:10C85000B3803F48007870B9603401F009FC3D4A6C
:10C8600010B40023D821202000F09AFA5FF47A70E7
:10C8700001F098FC01B036480078022804BFFF2080
:10C8800001F0F6FB02F0B0FE64E6052E2EBF002696
:10C89000761CB6B290E0290000F08E8049466D18F3
:10C8A000ADB289E08988A942C0F086806D1CF7E7A7
:10C8B000320004D1009A92F900305B1E1370012EF1
:10C8C00006D1049B4A469C461B889A1863461A80E8
:10C8D000022E03D102884B46D2180280032E04D1C7
:10C8E000069A92F900305B1E1370042E06D1079B46
:10C8F0004A469C461B889A1863461A80052E03D127
:10C900003A884B46D2183A8089888D4254D3104ACF
:10C910000F491278521E4EE0D42B0020EC2B002041
:10C92000D82B00200C2C0020002C0020182C0020DC
:10C930002AF9FFFF1C2C0020CA2B0020C02B00204E
:10C940006B34002076340020803400202101000068
:10C950003A79002005040000A22E0020A02E00201D
:10C96000320004D1009A92F900305B1C1370012E42
:10C9700003D1049A13885B1C1380022E02BF028825
:10C98000521C0280032E04D1069A92F900305B1CDF
:10C990001370042E03D1079A13885B1C1380032E97
:10C9A00002BF3A88521C3A8089888D4204D3D74A04
:10C9B000D6491278521C0A70D5490022012E0A70FD
:10C9C00001D0042E10D10088AF214843C11110EBD3
:10C9D000116001120020FFF703FC3888AF214843A3
:10C9E000C11110EB11600FE0008819214843C111FB
:10C9F00010EB116001120020FFF7F2FB38881921BB
:10CA00004843C11110EB116001120120FFF7E8FB50
:10CA100029000A20FFF7E4FB29000C20FFF7E0FBC8
:10CA2000BC48017800293FF4B4AD00210170BA4838
:10CA30002F0000688088401C8742BFF68EAD14200E
:10CA40004743300011D1B548415E01A801F0B2FB67
:10CA500001A8801C01B4B24805220378A620C11B9E
:10CA600089B22D2000F09CF901B0012E12D1AB4803
:10CA7000B0F9001001A801F09DFB01A8801C01B4D1
:10CA8000A74805220378A620C11B89B2592000F0CF
:10CA900087F901B0022E27D1A048B0F90010DBF8C9
:10CAA0000000C0190069414301A801F083FB01A8FF
:10CAB000801C01B49A4805220378A620C11B89B2C4
:10CAC000862000F06DF99DF8080003210AAA00FBFA
:10CAD0000120052201B492480378A620C11B89B227
:10CAE000AE2000F05DF902B0032E12D18D48B0F9EE
:10CAF000001001A801F05EFB01A8801C01B4884869
:10CB000052460378A620C11B89B2F52000F048F9EF
:10CB100001B0042E12D18348B0F9001001A801F031
:10CB200049FB01A8801C01B47D4852460378A62029
:10CB3000C11B89B27B3000F033F901B0052E27D13B
:10CB40007848B0F90010DBF80000C01900694143D3
:10CB500001A801F02FFB01A8801C01B470485246C7
:10CB60000378A620C11B89B2A83000F019F99DF8FE
:10CB7000080003210AAA00FB0120524601B46848BC
:10CB80000378A620C11B89B2D03000F009F902B0A9
:10CB9000022E02D0052E40F09180DBF8000021002B
:10CBA000CC31C01903F0CEF908B9002750E0DBF80A
:10CBB00000002100C431C01903F0C4F908B90127ED
:10CBC00046E0DBF800002100BC31C01903F0BAF9DF
:10CBD00008B902273CE0DBF800002100B431C0199D
:10CBE00003F0B0F908B9032732E0DBF800002100B8
:10CBF000AC31C01903F0A6F908B9042728E0DBF826
:10CC000000002100A431C01903F09CF908B90527E0
:10CC10001EE0DBF8000021009C31C01903F092F9FE
:10CC200008B9062714E0DBF8000021009431C01990
:10CC300003F088F908B907270AE0DBF800002100B3
:10CC40008C31C01903F07EF9002814BF092708278A
:10CC5000354A2000D43001B40023D821202000F030
:10CC60009FF8324A0C20434607FB0040D82100F2CF
:10CC7000681001B4582000F093F82B4A2000DC30F3
:10CC800001B44346D821A82000F08AF803B0032E4F
:10CC90000BD22000F43001B400230522D8215FF428
:10CCA000A47000F07DF801B073E42000FC3001B402
:10CCB00000235246D8215FF4A470F2E71A4A04F226
:10CCC000041001B40023D821202000F069F8164A8E
:10CCD00004F2181001B44346D821E82000F060F8AF
:10CCE00002B0032E0AD204F22C1001B400235246E3
:10CCF000D821B82000F054F801B04AE404F234100E
:10CD000001B400230522D821B820CAE73A790020CF
:10CD10006B3400206F34002080340020C02B0020B2
:10CD20006E340020CA2B0020050600000504000018
:10CD30002DE9F041984614000B000A339BB20A001B
:10CD400001000A3189B2FFF733FA002540460B2172
:10CD5000002700FB0150114931F8106041483200B2
:10CD60003A41D20703D5211230F8110003E0210720
:10CD7000090F30F81100FFF715FA7F1CBFB20B2F17
:10CD8000ECD36D1CADB20B2DE0D33549EF2300225F
:10CD90000020FFF70DFABDE8F08100BFC0100108C8
:10CDA0002DE9F04F16002E4A98460B0091460A33A3
:10CDB0009BB20A004946FFF7FBF9002529483107D5
:10CDC000090F10EB410B311210EB4104404610B932
:10CDD000BBF8000000E02088FFF7E4F96D1C0B2D84
:10CDE000ECDB09980078002832D0002609980078FA
:10CDF000202801D021280DD10027212801D1042E7F
:10CE000022D000253FB23800A840400540460DD54D
:10CE100048B90FE01449F2B212EBC000134A12EB0A
:10CE20004000475AEDE7BBF8000004E010B9BBF83A
:10CE3000000000E02088FFF7B5F96D1C0B2DE1DB49
:10CE4000761C36B2082ED1DB0998401C0990C8E741
:10CE5000EF2300224946FFF7ABF9BDE8F08F000051
:10CE60008F01000000200020E0FDFFFF18110108E5
:10CE70002DE9F04E92B006000C2E4BD35FF49C705F
:10CE8000864247D230000C388004001482463000BD
:10CE90000B38810009B20020D14D0BAA12184410A2
:10CEA00057463F1900231370EF5D06AB1B180C1992
:10CEB0001F702C5D5C70C724C82F01D31C7003E069
:10CEC000022F3CBF01251D705D78C82D01D35C7019
:10CED00003E0022D3CBF01245C701C785D78AC42FD
:10CEE0000ED1012C01D0C72C02D10124147007E00F
:10CEF000022C24BF641E1C70C72D3CBF6A1C5A70D4
:10CF00005A781C78A2423CBF5C701A70801CC0B278
:10CF10000828C1D3B34CFFF753F90D213000FFF7B8
:10CF20003FF9B14B9DF81E0004F2E01A35008DF870
:10CF300005009DF81F009DF805108146401A1190CC
:10CF40009DF81C008DF804009DF81D008DF802006E
:10CF50009DF80410401A10909DF81A008DF80300F7
:10CF60009DF81B008DF801009DF80310401A0F90EA
:10CF70009DF819008DF800009DF81810401A0E90C9
:10CF80009DF832008DF807009DF830008DF80600FE
:10CF900096489DF82E7000F23031029100F2C811CF
:10CFA00005910100B0310A919DF818100891010017
:10CFB0001031099100F29020049003F294100D902A
:10CFC0008B488346F00740F1DC810D982100FFF784
:10CFD000F9F80C2EC0F0AC818648864280F0AB8117
:10CFE000BBF80000ADF80C009DF82C00002835D1EE
:10CFF0000998B0F90000002830D00E98062808984B
:10D0000017DB9DF80010C2B2914227D3BDF80C3057
:10D01000C1B2401C14EB410101F2E0110A8813F582
:10D020003E43C0B213430B809DF80010814215D3DC
:10D03000ECE79DF80010C2B291420FD3BDF80C305E
:10D04000C1B2401C14EB410101F2E0110A88C0B2E8
:10D0500013430B809DF800108142EFD2BBF8020011
:10D06000002FADF80E0034D10998B0F95000002817
:10D070002FD00F98062817DB9DF803009DF80110AC
:10D08000814226D3BDF80E305B4E14EB400101F215
:10D09000E0110A889B19401C13430B809DF8011076
:10D0A000C0B2814215D3EDE79DF803009DF8011051
:10D0B00081420ED3BDF80E3014EB400101F2E011B5
:10D0C0000A88401CC0B213430B809DF801108142B6
:10D0D000F0D29DF80600BBF8041000282FD10A9862
:10D0E000B0F9000058B31098062815DB9DF804002D
:10D0F0009DF80220824222D3404E14EB400202F2FD
:10D10000E01213888E19401C1E4316809DF80220E1
:10D11000C0B2824213D3EFE79DF804009DF80220CD
:10D1200082420CD314EB400202F2E0121388401C3E
:10D13000C0B20B4313809DF802208242F2D2BBF8AA
:10D1400006209DF8070038BB0A98B0F9500018B3C4
:10D150001198062811DB9DF8050081451CD314EBBE
:10D16000400303F2E0131E8812F57E47401C37434C
:10D170001F80C0B281450FD3F1E79DF805008145BE
:10D180000AD314EB400303F2E0131E88401CC0B224
:10D1900016431E808145F4D20598B0F9780040B955
:10D1A000BBF92000BDF80C2014EB400000F2E010A9
:10D1B0002EE0012808D1BBF92400BDF80E2014EBA5
:10D1C000400000F2E01023E0022819D1BBF928004A
:10D1D00014EB400000F2E0100288114301801AE0D5
:10D1E00088740020A82E0020E81601086C25002075
:10D1F0000020002037010000F8FD0000F8BF00000B
:10D20000032808D1BBF92C0014EB400000F2E01019
:10D2100001880A4302800599A120B1F90010421A41
:10D2200012B204F26E310C2A24DBBBF80C309542AA
:10D230000FD10598807840070BD4012014EB4006ED
:10D2400006F2E0163788C01CC0B21F433780C828DA
:10D25000F4D3501E854202D0501C854202D14B802F
:10D26000AAF80030954205D14B800B80AAF8023015
:10D27000AAF800300298BBF80830B0F900200B3251
:10D2800012B295420ED1807840070BD4012014EBE6
:10D29000400606F2E0163788C01CC0B21F43378034
:10D2A000C828F4D3501E854202D0501C854207D1B5
:10D2B000488818434880BAF800001843AAF80000CC
:10D2C00095420FD148881843488008881843088041
:10D2D000BAF802001843AAF80200BAF8000018438E
:10D2E000AAF800000298B0F914200B3212B295424D
:10D2F0000ED1807D40070BD4012014EB400606F2CE
:10D30000E0163788C01CC0B21F433780C828F4D34A
:10D31000501E854202D0501C854202D14B80AAF893
:10D32000003095422AD14B800B80AAF8023025E0CC
:10D330000B2E23D100E021D10498BBF80830B0F9BE
:10D34000000014EB400010F5EF70018819430180D4
:10D350004188194341808188194381800498B0F93C
:10D36000140014EB400010F5EF70018819430180A0
:10D3700041881943418081880B438380C9215046ED
:10D380007DE1C149681C884202D15146180017E06E
:10D390000B2817D02A000A3A10001E2102F0F2FDD5
:10D3A00018B9514603F2BC400AE01000062102F011
:10D3B000E9FD0028514602D103F2283000E00D9823
:10D3C000FEF700FF04980499B0F91400B1F90010B9
:10D3D00014EB400014EB4102BBF808100C2E03D0F4
:10D3E0005FF49B739E4205D113880B43138003881F
:10D3F0000B430380049B9B785B075EBF13880B4342
:10D400001380049A927D52075EBF02880A4302800D
:10D410000C2EC0F032819C48864280F02E819DF80F
:10D420002C00002830D10998B0F9000000282BD03A
:10D430000E98BBF800A00628089813DB9DF8002082
:10D44000C3B29A4220D3C2B21AF53E4614EB42024E
:10D450001388401CC0B21E4316809DF800208242F3
:10D4600012D3F0E79DF80020C3B29A420CD3C2B2A7
:10D47000401C14EB42021388C0B25AEA0303138023
:10D480009DF800208242F2D2002F2DD10998B0F9E8
:10D49000500048B30F98BBF80220062813DB9DF814
:10D4A00003009DF8013083421ED3784F14EB4003F4
:10D4B0001E88D719401C37431F809DF80130C0B229
:10D4C000834211D3F1E79DF803009DF801308342B8
:10D4D0000AD314EB40031E88401CC0B216431E80C2
:10D4E0009DF801308342F4D29DF8060000282DD12A
:10D4F0000A98B0F9000048B31098BBF80420062839
:10D5000013DB9DF804009DF8023083421ED3604F68
:10D5100014EB40031E88D719401C37431F809DF829
:10D520000230C0B2834211D3F1E79DF804009DF8A8
:10D53000023083420AD314EB40031E88401CC0B261
:10D5400016431E809DF802308342F4D29DF80700F6
:10D5500028BB0A98B0F9500008B31198BBF8062010
:10D5600006280FDB9DF80500814518D314EB400316
:10D570001E8812F57E47401C37431F80C0B281458C
:10D580000DD3F3E79DF80500814508D314EB400364
:10D590001E88401CC0B216431E808145F6D2059AF3
:10D5A000A12014F5C773B2F90020821A12B20C2A16
:10D5B00021DBBBF80C6095420FD1059880784007BD
:10D5C0000BD4012014EB4009B9F80070C01CC0B2A4
:10D5D0003743A9F80070C828F4D3501E854202D002
:10D5E000501C854201D15E802680954203D15E8029
:10D5F0001E80668026800298B0F900200B3212B29D
:10D6000095420CD18078400709D4012014EB4006E4
:10D610003788C01CC0B20F433780C828F6D3501ECD
:10D62000854202D0501C854201D15980218095420B
:10D6300002BF5980198061800298B0F914200B3222
:10D6400012B295420CD1807D400709D4012014EB21
:10D6500040063788C01CC0B20F433780C828F6D3B5
:10D66000501E854202D0501C854201D15980218034
:10D67000954202BF598019806180C9212000FEF7C0
:10D680009BFD12B0BDE8F08E37010000F8FD0000F0
:10D69000F8BF000030B5104C104DFEF791FD05F2BB
:10D6A000E0112000FEF78EFDFEF78AFD290004F24E
:10D6B0009410FEF787FD0B2403E0FFF7D9FB641CF1
:10D6C000A4B220005FF49C718842F6D3FEF772FD8D
:10D6D000BDE83040FEF774BDE8160108A82E002012
:10D6E000CF4A2DE9F04F82B08046CC48ADF800100B
:10D6F000814619EB810A40465021042800FB012B8A
:10D7000007D2BBF94C00C62873DABAF92000C62844
:10D710006FDA00240DE028887F1CBFB2FEF742FDBF
:10D720000199B1F900101831091B8F42F3DB641C19
:10D73000A4B20B2C5DD2BDF8000019EB4005072CFC
:10D7400026D22D484146042906D2072201FB0200B9
:10D75000BBF94C10065D03E0BAF920100019067FF2
:10D76000093189B22000FEF71BFD002705E028885B
:10D77000FEF718FD76087F1CBFB2082F04D2F00711
:10D78000F5D5B9F80A00F3E72888FEF70BFDCEE7D8
:10D790004046042818D2BBF94C1020004118C91C7F
:10D7A00089B2FEF7FDFCBBF94C106718FF1CBFB235
:10D7B000BBF94C101831091B8F42B8DA28887F1C3E
:10D7C000BFB2FEF7EFFCF3E7BAF9201020004118D2
:10D7D000C91C89B2FEF7E4FCBAF92010BDF80000BC
:10D7E0006718FF1CBFB24946203111EB8000019041
:10D7F00096E702B0BDE8F08F9C1001082DE9F042D9
:10D80000864CFEF7DDFC00250C270C21A8B2FEF7A4
:10D81000C7FC3E4604E06089761CF6B2FEF7C2FC07
:10D82000D72EF8D36D1C0B2DEFDB7D4D2E0036F976
:10D83000100F18B100210020FFF752FFB6F9500079
:10D8400018B101210120FFF74BFF2E0036F9B00F70
:10D8500018B102210220FFF743FFB6F9500018B1BA
:10D8600003210320FFF73CFF05F2C816B6F9780044
:10D8700018B900210720FFF733FFB6F97800012817
:10D8800002BF01210720FFF72BFFB6F9780002281D
:10D8900002BF02210720FFF723FFB6F97800032813
:10D8A00002BF03210720FFF71BFF0C215FF49C70D0
:10D8B000FEF776FC04E060897F1CFFB2FEF772FC85
:10D8C000D72FF8D354480B2781460C21B8B2FEF766
:10D8D00067FC6089FEF766FCD621B8B2FEF760FCF3
:10D8E00060897F1C3FB2FEF75DFC4F45EDDB05F222
:10D8F0009029B9F900100A2000270B3189B2FEF7F0
:10D900004FFC20897F1CFEF74DFC052FF9DBB9F990
:10D9100014100A2000270B3189B2FEF741FC208940
:10D920007F1CFEF73FFC052FF9DBB9F900105FF40F
:10D930009C7000270B3189B2FEF732FC20897F1CD6
:10D94000FEF730FC052FF9DBB9F914105FF49C7079
:10D9500000270B3189B2FEF723FC20897F1CFEF7DC
:10D9600021FC052FF9DBB6F90010A120461A36B2CA
:10D970000C2E16DBB71E3FB2B61CBE4211DB0C21CB
:10D98000B8B2FEF70DFCA089FEF70CFCD621B8B2A8
:10D99000FEF706FCA0897F1C3FB2FEF703FCBE42E7
:10D9A000EDDA05F23035B5F900600B3636B2B71E48
:10D9B0003FB2B61CBE4211DB0C21B8B2FEF7F0FB41
:10D9C0002089FEF7EFFBD621B8B2FEF7E9FB2089EC
:10D9D0007F1C3FB2FEF7E6FBBE42EDDAB5F914500C
:10D9E0000B352DB2AE1E36B2AD1CB54211DB0C218B
:10D9F000B0B2FEF7D5FB2089FEF7D4FBD621B0B23A
:10DA0000FEF7CEFB2089761C36B2FEF7CBFBB54283
:10DA1000EDDABDE8F08200BF3901000000200020EF
:10DA20006C2500202DE9F04200214B4C59200025A7
:10DA3000FEF7B6FB6D1C2000FEF7B4FB0C2DF9DBE6
:10DA400000215A20FEF7ACFB00252000FEF7AAFBC0
:10DA50006D1C0C2DF9DB00215FF49A70FEF7A0FB22
:10DA600000252000FEF79EFB6D1C0C2DF9DB3B48CA
:10DA700000210026FEF794FB2000FEF793FB761CA6
:10DA80000C2EF9DB36485B25814600260021A819BB
:10DA900080B2FEF785FB002732490120B84031F8FB
:10DAA0001610084201D0200000E00020FEF77AFBAB
:10DAB0007F1C0C2FF0DB761C082EE7DB08352DB21F
:10DAC0004D45E2DB284C294D294E0021605EC822DD
:10DAD0000027504390FBF5F05B3080B2FEF760FB0F
:10DAE0007F1C3000FEF75EFB092FF9DB0021605E32
:10DAF000C8220027504390FBF5F06A3080B2FEF751
:10DB00004FFB3000FEF74EFB7F1C092FF9DB00278F
:10DB10000021605EC822504390FBF5F0C0195B30D5
:10DB200080B2FEF73DFB3000FEF73CFBB4F900008D
:10DB3000C8220921504390FBF5F0C0195B3080B238
:10DB4000FEF72EFB3000FEF72DFB7F1C102FDFDBD6
:10DB50000020A075BDE8F0821F050000350100001F
:10DB6000330100008C10010834270020D40E00007F
:10DB7000FFFF0000574A2DE9704B84B00C0001A94B
:10DB80000C256D1E535D4B55FBD1C54D01006846FC
:10DB900000F0D8FB9DF8000000218DF808009DF8EA
:10DBA00001008DF809009DF802008DF80A00207828
:10DBB0008DF80C0060788DF80D00A078464C8DF83B
:10DBC0000E0000208046C4F82C8020202081C20056
:10DBD0002800FEF70DFB287BE97A5FF40072C1464E
:10DBE00011EB0020A97B6080687BE080E87B11EB73
:10DBF0000020A97D2080E87D11EB0020A97FA08076
:10DC0000E87F090411EB0060697F10EB0120297F98
:10DC1000401821882063E06A4018A18810EB410178
:10DC20006088414361632800FEF7E2FA07E0401C88
:10DC3000C0B210280FD34846401C80B281462189CB
:10DC4000894542D2606B5FF4007210EB49212800D5
:10DC5000FEF7CEFA002015EB401B9BF80020E52ACA
:10DC600014BF0022FF22002313EB4016AE5DB44622
:10DC700001AEF65CB44518BFFF225B1CDBB20B2B78
:10DC8000F2D3002AD3D19BF81B009BF81A10E3882B
:10DC900011EB00202189A063A26B606B921E02FB36
:10DCA000031110EB4120E0639BF81D109BF81C0052
:10DCB00010EB01209BF81E1010EB01409BF81F1089
:10DCC00010EB01602064002000E0FF2004B0BDE8FC
:10DCD000708B00BF381D010830200020F0B52FA147
:10DCE000FFF748FF010028D16D4D6E4F0024134E01
:10DCF000002114EB8103F35C6B54114B491C89B276
:10DD00009942F6D3D94AF86B5021660204FB0121EF
:10DD1000641CA4B24C31098885F82B1181192800A4
:10DD2000FEF764FAF86B301800F2001105F20010EB
:10DD3000FEF75CFA042CDAD30020F0BD88740020D2
:10DD40002B01000010B515A1FFF714FF010018BF4B
:10DD500010BD544C5FF49672E16B20004430FEF726
:10DD600047FAE06B5FF4967200F2002104F2701043
:10DD7000FEF73EFAE06B5FF4967210F5806104F2F4
:10DD80009C20FEF735FAE06B5FF4967210F5C061E7
:10DD900004F2C830FEF72CFA002010BD44415400B4
:10DDA0002DE9F04B81B03CA1FFF7E4FE010070D1FA
:10DDB0003B485FF4807280463A488146D9F83C106F
:10DDC0004046FEF715FA0020834619EB4001898989
:10DDD00018EB800382003632424411F47844240A5E
:10DDE00003F8364F11F4FC63DB105370C9009170D7
:10DDF0000021D170401CC0B21028E6D376200090DC
:10DE00000024002559462800FEF7CAF9FEF7F6F966
:10DE100007005946681C80B2FEF7C2F9FEF7EEF91A
:10DE20000600380000F040F80700300000F03CF831
:10DE30000099424610EB0710C9B250540098401C9C
:10DE4000C0B20028009010D1D9F83C0010EB04219A
:10DE50004046FEF7CBF9114AA01083079B0F002123
:10DE6000FE20FEF765FF641CE4B2AD1CADB25FF4AA
:10DE7000C8718D42C6D35846401C80B28346F028F4
:10DE8000BFD3D9F83C0010EB04214046FEF7AEF9B1
:10DE9000002001B0BDE8F08B424D50000A050000A3
:10DEA00068320020302000202C49884204BF002026
:10DEB00070471F390A0002408A4204BF01207047A0
:10DEC00049090A0002408A4204BF032070472449DE
:10DED0000A0002408A4204BF0520704710F4FC612A
:10DEE000B1F5FC6F04BF072070471E490A000240CD
:10DEF0008A4204BF022070471B490A0002408A423E
:10DF000004BF0420704719490A0002408A4204BF36
:10DF10000620704710F4BC61B1F5BC6F04BF082047
:10DF2000704713490A0002408A4204BF0920704723
:10DF300010490A0002408A4204BF0A20704710F4C8
:10DF40007841B1F5784F04BF0B207047C006C00E72
:10DF50001F2804BF0C2070470D207047FFFF0000F2
:10DF60001FF80000E0BD0000F705000017B8000032
:10DF7000EF7B00001F05000050B57E4C00210026FD
:10DF80002000FEF739F92088C0B203281CBF012009
:10DF900050BD00205FF4807204E0215C401C80B220
:10DFA0007618F6B29042F8D30EB1022050BD7248F6
:10DFB00034F8021B090A017000200AE06F4A12EBD4
:10DFC00040012288401C80B20A7034F8022B120AE9
:10DFD0004A700728F2D3254B00200EE05022401C47
:10DFE00001FB0231228880B221F8102F62888A82D8
:10DFF000A2880A85E28808348A8701000D29EDD3BA
:10E00000604B00200AE00C22401C01FB02312288F8
:10E0100080B24A7134F8022B120A0A7101000929F0
:10E02000F1D3002011E0594A2388401C80B2535498
:10E03000554A23881B0A5354554A638822F81130E5
:10E04000544AA388A41D22F8113001000A29EAD3FA
:10E050005148218801805148618801805048A18839
:10E06000018034F8061F8180002050BD6C250020FF
:10E070002DE9F0413F4E00245FF480720700032039
:10E0800080462146300001F053FF00250FB1FF20EC
:10E09000804639480021007818EB00203080B01C01
:10E0A0000AE0364B13EB410253781278491C89B2CF
:10E0B00012EB032220F8022B0729F2D3304F002164
:10E0C0000EE05023491C02FB037289B2138A0380BD
:10E0D000938C4380138F4C3283801288C280083027
:10E0E0000A000D2AEDD3274F00210AE00C23491C1A
:10E0F00002FB037289B21379527912EB032220F8E2
:10E10000022B0A00092AF1D3002111E01E4B1F4FF8
:10E11000491C9B56BF5689B217EB032303801C4B47
:10E1200033F8123043801B4B33F812208280801D5D
:10E130000A000A2AEAD31849098801801749098880
:10E14000418017490A888280898820F8061F04E0E8
:10E15000305D641CA4B22D18EDB2FF2CF8D3E84357
:10E16000401C86F8FF0000213000FEF743F8002035
:10E17000BDE8F081683200203025002040250020D5
:10E180006C250020502B00200C2C0020002C00209F
:10E19000D82B0020EC2B0020A02E0020A22E002047
:10E1A000202000200249088008880028FCD1704700
:10E1B000703400202DE9F0430300080003249A1C6A
:10E1C000991C88462E2189462B21002560B91170A3
:10E1D0003020507082F80290D070107102F8055F04
:10E1E0001D70B2EB08009EE0012802DB02F8011B63
:10E1F00004E02D2102F8011B010048420600052120
:10E200000A2E08D30A27B6FBF7F66D1C042D28BF8B
:10E2100079430A2EF6D20326B5FBF6F61E70032DBF
:10E2200028BF40182900092900F27680DFE801F0B4
:10E230006D6257473D33251B11053C49002590FB76
:10E24000F1F401F09FFE30341470022482F8019042
:10E25000921C374990FBF1F6303602F8016B641ED0
:10E260005AD001F08FFE334990FBF1F6303602F8B8
:10E27000016B641E50D001F085FE2F4990FBF1F632
:10E28000303602F8016B641E46D001F07BFE15B1FA
:10E2900002F8019B0025294990FBF1F6303602F87F
:10E2A000016B641E38D001F06DFE254990FBF1F63C
:10E2B000303602F8016B641E2ED001F063FE5FF46D
:10E2C0007A7190FBF1F1303102F8011B641E23D00A
:10E2D0005FF47A7101F056FE0DB102F8019B6421E2
:10E2E00090FBF1F1303102F8011B641E14D064215F
:10E2F00001F048FE0A2190FBF1F1303102F8011BD8
:10E30000641E09D00A2101F03DFE303002F8010BF5
:10E3100002E0202002F8010BD81D8242F9D3002030
:10E320001070B2EB08005870BDE8F08300CA9A3B49
:10E3300000E1F5058096980040420F00A08601009C
:10E340001027000000B502000800642190FBF1F1E5
:10E3500030311170642101F015FEC0B20A2190FB2A
:10E36000F1F1303151700A2101F00CFE3030907023
:10E37000002002F8030F00BD00B502000800642170
:10E3800001F000FEC0B20A2190FBF1F130311170B2
:10E390000A2101F0F7FD30305070002002F8020F22
:10E3A00000BD000010B5040004BF002010BD8008AF
:10E3B000FFF7F8FF4000401C00FB00F18C4238BF23
:10E3C000401E10BDD0B5234E04200024FDF70CFFE5
:10E3D000C143214889B20A0003889A4305231700E4
:10E3E00020D019273770160748BF0924560648BFA2
:10E3F0000A24D60548BF0324960548BF04245605C1
:10E4000048BF0524130548BF0624D30448BF07248A
:10E41000930448BF0224530448BF0124120416D5B4
:10E42000082414E00288114211D032787AB90B4ADC
:10E43000167866B94E0548BF05240E0548BF062468
:10E440000E0748BF09240E0448BF0824137001803A
:10E450002000D0BD69340020387900206A340020C3
:10E4600070470000FEE70000FEE70000FEE7000046
:10E47000FEE7000070470000704700007047000092
:10E4800070470000704700007047000070470000B0
:10E4900070470000704700007047000070470000A0
:10E4A0007047000070470000704700007047000090
:10E4B0007047000070470000704700007047000080
:10E4C0007047000070470000704700007047000070
:10E4D000FDF760BEFDF760BE7047000070470000AA
:10E4E0007047000070470000704700007047000050
:10E4F000704700007047000030B5314C00211320F8
:10E50000FDF76EFE207918B12079401E207130BDD4
:10E5100014202071206910B12069401E20612189DA
:10E5200028480025152931BF258121890918218115
:10E530006189142903D361890818608103E00021EF
:10E540000320FDF74DFE6079322803D26079401C2C
:10E5500060710CE0657101210420FDF741FEA08986
:10E56000401CA081E08910B1E089401EE081207844
:10E57000401C207020780C2806D32570A17901203A
:10E5800001B90125A571E071607810B16078401E75
:10E590006070A07810B1A078401EA070FFF712FF45
:10E5A00001000BD0E0700848B0F900100520491EAA
:10E5B00041430320FDF714FE3C20608130BD00BFC5
:10E5C00068340020ECFF0000502900207047000054
:10E5D000704700007047000070470000704700005F
:10E5E000704700007047000070470000704700004F
:10E5F000704700007047000070470000704700003F
:10E60000704700007047000070470000704700002E
:10E61000704700007047000070470000704700001E
:10E62000704700007047000070470000704700000E
:10E6300070470000704700007047000070470000FE
:10E64000704700002DE9F04F87B05FF440415FF064
:10E650000060002401F048FCFDF7D2FDDC48DD4AF3
:10E66000002301B432213020FDF7B8FD0720FDF76B
:10E67000BBFDD94908600820FDF7B6FDD749086001
:10E680000920FDF7B1FDD64908600A20FDF7ACFD71
:10E69000D449086000F024FFFFF76EFCD2485FF415
:10E6A000FA7101808800FFF77DFD00F09DFFCF48E3
:10E6B0008046002088F8000001B00CE0547004206F
:10E6C00010705078022808BF1470002088F80000ED
:10E6D000C74801210170C74DC74F05F2BA2002900B
:10E6E000C648008840B900210220FDF779FD0121CC
:10E6F0001420FDF775FD4EE001F098FA0498401CD7
:10E7000080B20490BE480699028889B291420ED028
:10E71000008800260690BB4804990180049400F00C
:10E720002FFFF0B200F0DEFB761C092EF9D300F0CB
:10E7300091FB00F02FFDAE48007850B305F26E3922
:10E7400000F0A4FF00F0DAFF01F00AF801F074F81D
:10E75000FFF754F8B9F926100A20491C414302205A
:10E76000FDF73EFD3878092818BFFFF75BF90298DE
:10E77000017851F0020101700298017D51F002010F
:10E78000017599F8000050F0020089F800009848DF
:10E7900004709D48047098F8000000289BD09748AA
:10E7A000008808B900F020FF94485FF4167105F264
:10E7B0005019018098F80000012819D1B9F900100A
:10E7C000401AA9F8000099F8020050F0020089F8F8
:10E7D0000200B9F9500002280AD18C48002684555D
:10E7E000761CB6F5966FFAD301210620FDF7F8FCEA
:10E7F00098F80000022804D13878022838BFFDF7C5
:10E8000009FD98F80000032812D10020FFF730FC22
:10E81000387809280CD07E487E4A002301B4194676
:10E820005B20FEF7BDFA5FF4FA70FFF7BBFC01B0A6
:10E8300098F80000042848D13878092845D176484E
:10E840000023194682467548524601B4E620FEF779
:10E85000A7FA3878502100FB0150B0F9101001B030
:10E8600081B9B0F9381029B9B0F92400C0B2FFF766
:10E8700097FA0EE001290DD1B0F92400C0B2FFF7DC
:10E880002DFA06E0012905D1B0F92400C0B2FFF746
:10E8900059FA06000EB1624800E062480023524671
:10E8A00001B41946E620FEF77BFA01B05FF4FA7076
:10E8B000FFF778FC3878502100FB015001003A3115
:10E8C000097851F0020180F83A105748834698F8C9
:10E8D0000000092855D1397801F2FF0A0D293AD2F2
:10E8E000524850239C46405C142300FB035001FB1C
:10E8F0000C00827C52F00202827409B90C2004E000
:10E900005046C0B2042808BF03204849387009188F
:10E910000A78032A28BF0C7009785022504301FB63
:10E92000035109188A7C281852F001028A740100E8
:10E9300011F8122F52F002020A700A7D52F0020200
:10E940000A7510F83A1F51F002010170017D51F073
:10E950000201017515E00C2001FB00B010F8912DAB
:10E9600052F0020202700D2914BF50461520387073
:10E97000C0B20C2100FB01B010F8911D51F0010153
:10E98000017098F800100D200A2904D139780D295A
:10E990002CBF3C70387098F80010082940F089802E
:10E9A000397801F2010A0A000D296CD21F48502360
:10E9B0009C46805C142300FB035002FB0C00827C0D
:10E9C00052F0020282740C2932D1002035E000BFDF
:10E9D000441D0108FFFF00007C340020282C00208B
:10E9E0008034002084340020723400206B340020F6
:10E9F000A42E00206C250020302500207634002035
:10EA000074340020502500206F34002088740020CA
:10EA10006C1D0108050400000A0500008C1D01089A
:10EA2000941D01089C1D0108502B0020402500204A
:10EA30005046C0B2042808BF0520D94938700918CB
:10EA40000A78032A28BF0C7009785022504301FB32
:10EA5000035109188A7C281852F001028A740100B7
:10EA600011F8122F52F002020A700A7D52F00202CF
:10EA70000A7510F83A1F51F002010170017D51F042
:10EA80000201017515E00C2302FB03B212F8913D5F
:10EA900053F002031370152914BF87F800A03870D3
:10EAA00038780C2100FB01B010F8911D51F00101E4
:10EAB00001703978502005F2C81348430190281896
:10EAC0000090123082460C2001FB00B2B448983A04
:10EAD0004018834605F20830059098F80000052894
:10EAE00040F09F800D2980F08B8007290ED1D648F9
:10EAF000007802282BD1B3F97800D44F17EB8007A8
:10EB0000385F12285FDB401E38805CE00B2901D0A3
:10EB10000C2907D1BAF9120001282FDB401EAAF8F0
:10EB200012002BE0052912D1C948007802280ED125
:10EB3000185F1F2802DB1E38188003E00128A4BFDD
:10EB4000401E1880987D50F0020098753BE09BF8BD
:10EB500000008DF80C00019FBC46142700FB0750F5
:10EB60006746C019B0F91070012F02DB7F1E0782C3
:10EB700004E0877AFF0644BF0789078205290BD185
:10EB8000B3480078F8B9A9F8000099F8020050F0ED
:10EB9000020089F8020016E006290AD1B3F928001C
:10EBA000032810D0B3F93C000B280CDB0A2098870F
:10EBB00009E0092907D10298B0F92600012802BF0F
:10EBC0000598012707809AF8000050F002008AF8A3
:10EBD00000009AF8140050F002008AF81400009F18
:10EBE00000983A373F7857F0020700F83A7F009FC5
:10EBF00000983A373F7D3A3057F00207077510E02A
:10EC0000D07950F00200D071507850B3401E50704F
:10EC1000C0B2012804BF042010705078062800D12B
:10EC2000147098F80000072868D10D2959D29BF874
:10EC300000008DF80C00019FBC46142700FB075014
:10EC40006746C019877C57F0020787749DF80C004F
:10EC5000032827BF00208BF80000401C8BF8000021
:10EC600002E006205070DBE7019F9BF80000BC46E5
:10EC7000142700FB07506746C019807A000644BF7E
:10EC800000208BF80000019F9BF80000BC46142771
:10EC900000FB07506746C019807AC00744BF0020B8
:10ECA0008BF80000019F9BF80000BC46142700FB76
:10ECB00007506746C019807A800704D509291CBF10
:10ECC00000208BF80000019F9BF80000BC46142731
:10ECD00000FB07506746C019877C57F0010787740F
:10ECE0000CE0D07950F00200D071107803283CBFBE
:10ECF000401C10701078032808BF147098F80000AA
:10ED000006287FF4E2AC0D2980F090805048072956
:10ED100000780ED14C4A1278022A2FD1B3F978002C
:10ED20004A4911EB8000015FD12962DA491C018058
:10ED30005FE00B2901D00C2909D1BAF91220BAF9E8
:10ED40000A50AA4232DA521CAAF812202EE00529F3
:10ED500014D1022812D1B9F970101A5F08001E38B8
:10ED6000824202DA1E321A8003E08A42BCBF521C81
:10ED70001A80987D50F0020098753AE0019A9BF84D
:10ED800000709446142207FB02556246AA18B2F995
:10ED90001050B2F90870BD4204DA6D1C158205E00E
:10EDA00040250020957AED0648BF1482052909D137
:10EDB000F8B9A9F8000099F8020050F0020089F8AB
:10EDC000020016E006290AD1B3F92800032810D062
:10EDD000B3F93C000B280CDB0A20988709E00929CD
:10EDE00007D10298B0F92600012802BF0598012139
:10EDF00001809AF8000050F002008AF800009AF8AA
:10EE0000140050F002008AF81400009900983A317A
:10EE1000097851F0020100F83A1F009900983A3140
:10EE2000097D3A3051F0020101754EE4D07950F07D
:10EE30000200D07150780628BFF440AC401C5070DE
:10EE400000067FF43EAC3AE4472500202020002055
:10EE500045250020F0B5CE4D1E4E00240027380079
:10EE60000C2100FB0150C17A89070FD5C47241798A
:10EE70000368052201FB0231002302B4017936F850
:10EE80001120817AC088FDF78BFF01B07F1CFFB293
:10EE9000092FE4D3104807780D2F1AD3162F18D254
:10EEA0000E480178A9B1F337FFB204700C20052297
:10EEB00007FB00504179036801FB023102B40849A5
:10EEC0000B78017936F81120817AC088FDF768FF48
:10EED00001B0F0BDE81E0108302500206F3400208D
:10EEE0006E3400202DE9F0419A4EA74FA74D010046
:10EEF000B6F900003B68142200FB0230A44B0C2240
:10EF000001FB0234944988466179062929D8DFE853
:10EF100001F0042A4381A9D1F900904E0620FDF7A3
:10EF200063F95FF47A714843010028001030FFF75D
:10EF300041F92800123001B4A17A2089002332005F
:10EF4000FDF72EFF287C03210023320000FB015037
:10EF5000303001B4A17A2089283080B2FDF720FF3B
:10EF600002B0BDE8F081A98D2800C9B2FFF704FA0C
:10EF700020B4207938F81020A17A20890023FDF7E9
:10EF80000FFF40460C3001B4A17A207938F81020E8
:10EF9000208900231030E0E7217941B970490069E8
:10EFA000B1F90010414328001030FFF703F9207930
:10EFB00001280ED16B483B681422B0F90010B6F955
:10EFC000500000FB02300069414328001030FFF779
:10EFD000F1F82079022804D1002128001030FFF731
:10EFE000E9F82800123001B4A17A207938F810200D
:10EFF00020890023FDF7D4FE287C0321002300FB99
:10F000000150303001B4A17A207938F810202089DD
:10F010002830A2E7217941B953490069B1F90010BC
:10F02000414328001030FFF7C5F8207901280ED1A0
:10F030004E483B681422B0F90010B6F9500000FBAE
:10F0400002300069414328001030FFF7B3F82079FF
:10F05000022804D1002128001030FFF7ABF82079F6
:10F060000328B8E7217941B941490069B1F9001095
:10F07000414328001030FFF79DF8207901280ED178
:10F080003C483B681422B0F90010B6F9500000FB70
:10F0900002300069414328001030FFF78BF82079D7
:10F0A000022804D1002128001030FFF783F82079CE
:10F0B000032890E7217941B92F490069B1F900107F
:10F0C000414328001030FFF775F8207901280ED150
:10F0D0002A483B681422B0F90010B6F9500000FB32
:10F0E00002300069414328001030FFF763F82079AF
:10F0F000022804D1002128001030FFF75BF82079A6
:10F10000032868E7217941B91D490069B1F9001068
:10F11000414328001030FFF74DF8207901280ED127
:10F1200018483B681422B0F90010B6F9500000FBF3
:10F1300002300069414328001030FFF73BF8207986
:10F14000022804D1002128001030FFF733F820797D
:10F15000032840E7A4250020A41D0108050A00009B
:10F16000C22B0020CC2B0020C02B0020CA2B00205B
:10F17000C82B0020D22B0020C42B0020CE2B002037
:10F18000C62B0020D02B00207C340020242500201A
:10F19000502B00202DE9F04F002000248046C1466E
:10F1A000CB49CC4F14238A4650210AF2902B04FB02
:10F1B00001A109FB03160D001035B17C890740F150
:10F1C00007810020B074042C01D0072C1FD1B07A25
:10F1D000800609D53068002301B47168E85E31F813
:10F1E0001020B17BB0895FE1B07A000600F15F8149
:10F1F000B6F9100032680A21002300FB012001B497
:10F200007168E85E31F81020B17BB0894CE1B07ACA
:10F21000800607D53068002301B4B17B706802888E
:10F22000B08941E1B17ABBF92800890777D5082C6C
:10F2300034D1BBF90010BBF91420CF4B891A1B68DD
:10F24000502200FB02A01422B0F9380000FB02306B
:10F250000069414338001030FEF7ACFF380012302F
:10F2600001B47168BBF92800434631F81020B17B26
:10F27000B089FDF795FD387C0321434600FB017002
:10F28000303001B47168BBF9280031F81020B17B2F
:10F29000B089283080B2FDF783FD02B00A2C2DD151
:10F2A000B64B0AF23030B0F91410B0F900001B6808
:10F2B0001422091ABAF9B40100FB02300069414373
:10F2C00038001030FEF776FF3800123001B4B17B01
:10F2D000706800230288B089FDF762FD387C032145
:10F2E000434600FB01703C3001B4B17B706802887A
:10F2F000B089283080B2FDF753FD02B0092C40F0F0
:10F30000D680B5F914106868C9B2FFF71BF86868B1
:10F31000002301B4A97CA8680288288AC4E0B17AD5
:10F3200001292CD120203870B6F910100B2C09D1EE
:10F33000092905D13120387030207870B87009E083
:10F34000491C01E00A29F5D00A204143C9B2781CC2
:10F35000FFF712F880B47068B17B00230288B0898F
:10F36000FDF71EFD59A001B4B17B706843460288C9
:10F37000B089183080B2FDF713FD02B097E0802904
:10F380001CD0082C0DD1B6F9101033680A2201FBED
:10F390000231002302B4716831F81020B17BB089CA
:10F3A00082E0B6F9100032680A21002300FB012038
:10F3B00001B4B17B70680288B08975E00A2C76D1FF
:10F3C0003068002301B4B17B70680288B0896BE0BB
:10F3D000397BA1426BD13819007F484567D13E483F
:10F3E0000178002963D03D4F00210170042C01D029
:10F3F000072C1CD1B07A800609D5306801B43B785F
:10F40000685E716831F81020B17BB0894CE0B6F9C4
:10F41000100032680A2100FB012001B43B787168BA
:10F42000B5F9000031F81020B17BB0893CE0B07A2A
:10F43000800607D5306801B43B787068B17B0288DC
:10F44000B08931E0082C0ED1B6F9100032680A21DB
:10F4500000FB012001B43B787168BBF9280031F84A
:10F460001020B17B0AE0B6F9100032680A2100FBD7
:10F47000012001B43B787068B17B0288B089FDF748
:10F480008FFC01B0092C12D1B07A80070FD5B5F9E5
:10F4900014106868C9B2FEF755FF686801B43B787C
:10F4A000A868A97C0288288AFDF77AFC01B0484642
:10F4B000401CC0B281460428FFF472AE641CE4B262
:10F4C0000D2CFFF46CAEBDE8F08F00BF25000000EE
:10F4D0006C250020242500206F3400206E3400208D
:10F4E000F0B5234E234D0024306800278088401C4F
:10F4F00001280EDA13E0204A14217F1C1268BFB2E3
:10F5000000FB01210A2200FB025010F5826000F08E
:10F510002BFD316838008988491C8842EBDB306854
:10F52000818829868188A5F880100021A5F8D0104F
:10F53000A5F82011C088401C01280EDA13E00F4AFC
:10F540001421641C1268A4B200FB01210A2200FBF2
:10F55000025010F5956000F007FD31682000C98861
:10F56000491C8842EBDB3068C088A5F8AC01F0BDCF
:10F57000803400206C2500207C340020282C0020C2
:10F5800000B50620FCF730FE124B80B200219842F5
:10F5900028BF0121104B984224BF491C89B20F4B50
:10F5A000984224BF491C89B20D4A904224BF491C8D
:10F5B00089B20C480A22036801FB0232002304B41A
:10F5C000426832F81120817B8089FDF7E9FB01B0A8
:10F5D00000BD00BFB90B0000AD0D00003D0F0000E5
:10F5E00005100000C0260020B0B50121BB4C24202E
:10F5F000FCF7F6FD00211420FCF7F2FD0020FCF7DB
:10F60000D3FD1420FEF7CEFD01210620FCF7E8FD16
:10F6100000210022502700231500142005FB074578
:10F6200003FB00505B1C9BB2857C55F00205857482
:10F63000042BF1D3521C92B20D2AECD30F4D0020B3
:10F6400002000C23401C02FB035280B2D37A53F019
:10F650000203D3720928F3D309480078092805D09A
:10F6600004F2E22084F81E130170017505485FF46E
:10F6700016710180044801210170B0BD502B00209B
:10F680003025002076340020A42E002070B5934C45
:10F69000194E0920250035F9241FFCF7A1FDB5F905
:10F6A00014100A20FCF79CFD3088B5F92810484357
:10F6B000C11110EB116001120020FCF791FDB5F9AA
:10F6C00050100B20FCF78CFDB5F964100C20FCF7F2
:10F6D00087FD7088B5F978104843C11110EB1160AF
:10F6E00001120120FCF77CFDB4F9500118B9012189
:10F6F0000620FCF775FD70BDA02E002070B5154CDE
:10F700000021774E0520FCF76BFD01212420FCF73A
:10F7100067FDB4F964501420ADB24543F06E401952
:10F72000B0F908100720FCF75BFDF06E4019418925
:10F730000820FCF755FD084A0848B4F9641032F86F
:10F7400011100160B4F9000018B901210620FCF77E
:10F7500047FD70BDBC260020A021010878340020A0
:10F7600070B5314C314D324EB4F9000078B92421D6
:10F770000F20FCF735FD300084302860B4F9140008
:10F780000C2100FB016041890D20FCF729FDB4F933
:10F79000000002280FD1B4F914000C2100FB016015
:10F7A00041890D20FCF71CFD06F21410286024216D
:10F7B0000F20FCF715FDB4F9000001280ED1B4F9B3
:10F7C00014000C2100FB0160CC3641890D20FCF7B0
:10F7D00007FD2E6024210F20FCF702FDB4F9000084
:10F7E00003281FD1B4F91400124D0E2100FB015063
:10F7F00001891020FCF7F4FCB4F914000E2100FB81
:10F80000015041891120FCF7EBFCB4F914000E21E2
:10F8100000FB01504089401C10EBD07041101220B9
:10F82000FCF7DEFC70BD00BF5C27002050040240E6
:10F83000442D00202C2C00202DE9F041274C284E8F
:10F84000254F04F23030B0F91410B0F9000004F282
:10F85000402504F23808091A2220FCF7C1FCB5F94A
:10F860000000B5F9141011EBC0012020FCF7B8FC22
:10F87000B5F9000088B9B8F90000B7F900103218DE
:10F8800092F9442016EB4000808B891A890291FB83
:10F89000F0F0C1B22120FCF7A3FCB5F9000001286B
:10F8A00011D1B8F95000B7F90410321892F950206C
:10F8B00016EB4000008E891A890291FBF0F0C1B26C
:10F8C0002120FCF78DFCB4F9500118B90121062064
:10F8D000FCF786FCBDE8F081202000206C2500208C
:10F8E000BC2B00202DE9F04FCE4C00208BB0E26EF7
:10F8F0008046C748002514210690405FC14600FBA2
:10F9000001209621C089D0F580604843411210EB58
:10F91000915006998012B1F91410C4F85C80C4F8B3
:10F920006080401800B20A90C4F86480C4F868800F
:10F9300025706570FF20A070E070B64810EB890656
:10F94000B54803900120FCF74FFC58B9208B814546
:10F9500008D10399B1F9641021B9401C2083FCF748
:10F9600033FC3060306801008DF80010E16D9DF8C7
:10F9700000208918626EE165A8499DF800308A462A
:10F98000BAF91410591A01FB0121616621789DF81A
:10F990000020914238BF22701146A278914238BFB0
:10F9A000A170010A8DF801109DF80160216EBAF96D
:10F9B0006420A76E8919216631008A1A02FB02723F
:10F9C000A2666278B24238BF6670E278964238BF6B
:10F9D000E670020C012616408DF8086032468DF85C
:10F9E0000220400C012202408DF8092010468DF8BB
:10F9F00003000A98484580F2E880B5F5957F00F34A
:10FA0000E480BAF900600A9A4846801A14EB46026C
:10FA1000928B00B25A43A31993F94430561212EB59
:10FA2000965292129A188DF80420BAF9503014EBBD
:10FA30004302128E4A43E11891F95010531212EB0F
:10FA40009352921289188DF805100699E36E1422CC
:10FA5000B1F9001001FB023105910FE00799142361
:10FA600001FB03218BF803109DF804106D1C2DB2CF
:10FA70008DF806109DF80A108DF80710059A81027E
:10FA8000D28905FB12110129C0F29F80059F9DF8C4
:10FA900006209DF80460FF89411E8902B31A6F4356
:10FAA0007F1A7B43604F17EB850B5F1213EB975365
:10FAB0009B12D2188BF800209DF805208DF80A20A3
:10FAC0000492059F9DF80720049BFF899B1A6F43B2
:10FAD000791A4B43591213EB9151891251188BF833
:10FAE000011003999DF808301422B1F9001003FBAE
:10FAF0000212C82A01DBC72202E0022AB8BF012293
:10FB00008BF80220039ABAF91470B2F950209619B2
:10FB1000F61B08969DF8096007961E40142306FB05
:10FB200003230993039E3E4BB6F91460B61E072EBD
:10FB300094D802A7BF577F00BF4400BF04142022FF
:10FB40002631393F089A049BD218BAF96430D21A88
:10FB5000C82A01DBC72202E0022AB8BF01228BF8C3
:10FB6000032081E7089A049BD21ABAF96430D218AC
:10FB7000C82AEFDA022AF2DA0122F0E7099AF7E757
:10FB800009998BF803106FE75E5D93F82B31F31A38
:10FB90009A18C82ADEDA022AE1DA0122DFE75E19C2
:10FBA00093F8573296F82C61F31A9A18E0E75E1929
:10FBB00093F8833396F85862E9E75E1993F8AF3407
:10FBC00096F88463F31A9A18D2E74846401C00B2AC
:10FBD0008146B9F5805FFFF6B0AE00210020124BE0
:10FBE00010EB81029A18137913700F4B4A4210EBF5
:10FBF00082029A1812F595621378401C042813713A
:10FC0000EDDB491C0429E9DB0BB0BDE8F08F00BF38
:10FC1000202700208834002058260020A42500201A
:10FC200074200020BC2B0020887400208A482DE915
:10FC3000F04F8A4C804608F24020B0F90010B0F92D
:10FC4000140008F25016002710EBC10184488146C9
:10FC50008448824684488346B6F95000042847D831
:10FC6000DFE800F0031D384040002020FCF7B8FA20
:10FC70000220FCF7B9FA40B1FFF734FEB6F9640090
:10FC800039F81000CBF8000032E0DBF80000002863
:10FC90002ED1208B6F49884228BF278326E0202061
:10FCA000FCF79EFA0220FCF79FFA0028E4D1DBF86B
:10FCB0000000E8B9002352461754401C80B25FF49C
:10FCC00096629042F7D3B6F9640039F81000CBF889
:10FCD00000000DE02020FCF783FA0220FCF784FAF4
:10FCE00030B103E020212020FCF77AFAFFF7FAFD7B
:10FCF000FDF7D0FCF05F45463835002830D10320B1
:10FD0000FCF772FA60B301210620FCF769FAB6F934
:10FD1000640039F81000CBF80000B6F950002783D2
:10FD2000022806D101203080B07850F00200B07077
:10FD300016E0042814D10020AA8A1AEB8001401C86
:10FD40000A70B5F8642080B24A70424632F8EC3F3F
:10FD500050328B701288CA705FF496729042EBD367
:10FD6000E95FE26D601890F9440014EB4101898B62
:10FD7000920A5143226E090B4018B5F91410920AE9
:10FD8000401AB5F95010A080601890F9500014EB9B
:10FD90004101098E5143090B4018B5F96410401A0E
:10FDA000E081606E000BFEF7FDFAE95F621892F9E0
:10FDB000442014EB4101898B414312EB9120A08137
:10FDC000A06E000BFEF7EEFAB5F950102378B5F9E6
:10FDD000148014EB4102168EEA5FB5F96450611885
:10FDE00091F95010704311EB9020E08214EB420027
:10FDF000808BB1466678A21892F9442009FB06F67A
:10FE000043435F1213EB975377129B1216EB9756EF
:10FE1000A778D318B3EB0803238178434712B612AF
:10FE200010EB975080121018E2788E19761B6682BC
:10FE300009FB02F2B0EB080060815712181A12EBAE
:10FE4000975292128918491BA182E080701A208271
:10FE5000BDE8F08FFF0F00006C250020BC2B0020B8
:10FE6000A0210108887400207834002030BF70473A
:10FE700020BF704740BF7047BFF36F8F7047BFF31D
:10FE80004F8F7047BFF35F8F704701DF7047EFF30D
:10FE90001480704780F31488BFF36F8F7047EFF3BF
:10FEA0000980704780F309887047EFF30880704736
:10FEB00080F30888704762B6704772B67047EFF3F8
:10FEC0001080704761B6704771B67047EFF31380CA
:10FED000704780F311887047EFF31280704740BA83
:10FEE000704700BA70470000034A024B0B400343BF
:10FEF0001360704780FFFF1F08ED00E070470000AF
:10FF000010B581B00400009469460120FFF7F6FFA8
:10FF1000F9E7000000F030B810B50300002A04E053
:10FF200011F8014B521E03F8014BF9D110BD00002E
:10FF3000C9B20300002A02E003F8011B521EFBD1E4
:10FF40007047000001E0401C491C02780B789A427F
:10FF500003D1002AF7D10020704702D25FF0FF30B2
:10FF60007047012070470000020011F8013B02F8C1
:10FF7000013B002BF9D17047014CA64620470000F9
:10FF800001FF00088C4690FBF1F10CFB110070475B
:10FF9000934A0000A82E0020A82E0020A50E0000E5
:10FFA00000200020A8FF0008E0FFFF071FF8E0077F
:10FFB000FFFF00001F0500F8E0FFEF7BFFFFE007F9
:10FFC00000F8EF7BFF071F00AF000600740002007F
:10FFD0004B000600230006000000000000000000A7
:10FFE00000000000FFFFE0FFE0BDFF07F7051FF87E
:10FFF00017B8E007E005EF7B1F0500F81F000000C1
:020000040801F1
:1000000000000000000000000000000000000000F0
:1000100000000000000000000000000000000000E0
:1000200000000000000000000000000000000000D0
:1000300000000000000000000000000000000000C0
:1004F0000000000000000000000000007556006DC4
:1005000056005620006B56006E53007553006D5315
:1005100000532000101E0108E81E01080100100011
:100520002300E40001000200C01E0108A41D010810
:10053000010010002300D800000002007C290020E8
:10054000A41D0108080000003300D80005000200C7
:10055000E01E0108E81E0108C8002000000000009D
:1005600096000200241E0108EA1E01080100100086
:100570005600E40001000200C01E0108A61D01088B
:10058000010010005600D800010002007C29002064
:10059000A61D0108080000006600D8000100020046
:1005A000E01E0108EA1E0108C8002000000000004B
:1005B00064000200381E0108EC1E01080100100052
:1005C0008900E40001000200B81E0108A81D01080E
:1005D000000010008900D80000000200B01E0108D1
:1005E000A81D0108000000009900D80000000200CA
:1005F000E01E0108EC1E0108C700200000000000FA
:100600003C0002004C1E0108EE1E0108090010000B
:10061000BC00E40001000200B81E0108AA1D010888
:1006200000001000BC00D80000000200B01E01084D
:10063000AA1D010800000000CC00D8000000020044
:10064000E01E0108EE1E0108C700200000000000A7
:1006500014000200B81D0108CC1D010801000000B3
:100660000000E40000000200D01D0108041E010883
:10067000040000000000D80000000200D01D0108A6
:10068000041E0108040080000000000000000400B7
:10069000D01D0108041E01080400800000000000B5
:1006A00000000400F41E0108301F010804001000BF
:1006B000EF00E40000000200142A0020321F0108AD
:1006C0001A000000EF00D80011000200281F0108E6
:1006D000301F0108D30E20006E0100000000020050
:1006E000281F0108301F0108D30E800050000000B1
:1006F00000000200341F010824200108030010003C
:100700001A01E400030002005C1F01082620010812
:10071000130000001A01D8000D000200242500205B
:1007200024200108640080003201E400320004004B
:100730002425002024200108000080000000000083
:100740000000040028200108E81E01080300100032
:100750004D01E4000100020078200108E81E0108B4
:10076000070010007501E40000000200C820010825
:10077000A41D0108C80020004D01D800000002009F
:10078000C8200108A41D0108000080006501D800F0
:1007900000000400D4200108D8210108C70020006F
:1007A00023000000B4000200DC200108D821010869
:1007B000C70020003E000000280002005021010870
:1007C000E81E0108010010003A01C5000000020007
:1007D00024250020A41D0108F00002005601C500D8
:1007E00046000200F4200108E02101080100100089
:1007F000860000000000000024250020E021010800
:10080000FF000200CE0000000000010008210108E6
:10081000E021010801001000E600000000000000D7
:1008200008210108E021010800008000000000000C
:1008300000000400E4200108DC2101082C01200054
:100840003801000050000200EC200108DC21010802
:100850002C0120005301000018010200642101084E
:10086000DC210108000080003A01B600000002000F
:1008700024250020DE2101082C0102005601B600CB
:1008800050000200402B0020D82101080000200069
:100890003A01A7000000020024250020DA21010807
:1008A000090001005601A7000500020024250020D0
:1008B000D8210108000080000000000000000400B2
:1008C00024250020D821010800008000000000003D
:1008D00000000400482B0020D8210108000020005F
:1008E0003A0198000000020024250020DA210108C6
:1008F0000A0001005601980005000200242500208E
:10090000D821010800008000000000000000040061
:1009100024250020D82101080000800000000000EC
:1009200000000400000000000000000000000000C3
:1009300000000000000000000000000000000000B7
:1009400000000000000000000000000000000000A7
:100950000000000000000000000000000000000097
:100960000000000000000000000000000000000087
:100970000000000000000000000000000000000077
:100980000000000000000000000000000000000067
:100990000000000000000000000000000000000057
:1009A0000000000000000000000000000000000047
:1009B0000000000000000000000000000000000037
:1009C0000000000000000000000000000000000027
:1009D0000000000000000000000000000000000017
:1009E0000000000000000000000000000000000007
:1009F00000000000000000000000000000000000F7
:100A000000000000000000000000000000000000E6
:100A100000000000000000000000000000000000D6
:100A200000000000000000000000000000000000C6
:100A300000000000000000000000000000000000B6
:100A400000000000000000000000000000000000A6
:100A50000000000000000000000000000000000096
:100A60000000000000000000000000000000000086
:100A70000000000000000000000000000000000076
:100A80000000000000000000000000000000000066
:100A90000000000000000000000000000000000056
:100AA0000000000000000000000000000000000046
:100AB0000000000000000000000000000000000036
:100AC0000000000000000000000000000000000026
:100AD0000000000000000000000000000000000016
:100AE0000000000000000000422E4C00000000004A
:100AF000566F6C00000000006821010804003A01F4
:100B0000560189026821010804013A0156017A025E
:100B10006821010800023A0156016B0268210108B0
:100B200000033A0156015C026821010800043A0101
:100B300056014D026821010801053A0156013E02A5
:100B40006821010801063A0156012F0268210108B7
:100B500001023A01560120026821010802033A010C
:100B6000560111020000000000000000000000001B
:100B70000000000000000000000000000000000075
:100B80000004000400040004000400040004000445
:100B90000004000400040004000400040004000435
:100BA0000004000400040004000000000000000035
:100BB0000000000000000000000000000000000035
:100BC0000000000000000000000000000000000025
:100BD00000000000203130487A200000B3003F9C24
:100BE0003200203230487A200000B3001F4E32001D
:100BF000203530487A200000B3003F1F32002131F9
:100C00003030487A2100B3009F0F3200213230305B
:100C1000487A2100B300CF07320021353030487ABE
:100C20002100B3001F03320020314B487A2000001E
:100C3000B3008F01320020324B487A200000B3000D
:100C4000C700320020354B487A20000011001F03F6
:100C500032002131304B487A210011008F013200DF
:100C60002132304B487A21001100C7003200213573
:100C7000304B487A210000009F0532003130304B64
:100C8000487A00000000CF0232003230304B487A00
:100C900000000000670132003530304B487A000018
:100CA00000008F00320020314D487A200000000003
:100CB0004700320020324D487A2000000000230017
:100CC000320020344D487A2000000000110032002C
:100CD00020364D487A20000000000B0032002038FA
:100CE0004D487A20000000000800320020313048D2
:100CF0007A20000013000F27203230487A200000AD
:100D000013008713203530487A2000001300CF07E6
:100D100021313030487A21001300E703213230308E
:100D2000487A21001300F30121353030487A210040
:100D30001300C70020314B487A20000013006300E5
:100D400020324B487A2000001300310020354B48F8
:100D50007A200000130013002131304B487A210023
:100D6000130009002132304B487A2100130004009F
:100D7000000027008E0030010902110341048F0595
:100D8000F0065A08C009190B590C760D680E260F8B
:100D9000AB0FF30FFF0FD70F700FCE0EF50DED0C4D
:100DA000BD0B6F0A0E09A4073E06E504A5038802E1
:100DB0009601D80053000B000000E300C601AA0210
:100DC0008D037104540538061B07FF07E208C609A6
:100DD000A90A8D0B700C540D370E1B0FFE0F1B0F45
:100DE000370E540D700C8D0BA90AC609E208FF07D7
:100DF0001B073806540571048D03AA02C601E300DF
:100E000000007500EA005F01D4014902BE0233030D
:100E1000A8031D04920407057C05F1056606DB06A0
:100E20005007C5073A08AF08240999090E0A830A32
:100E3000F80A6D0BE20B570CCC0C410DB60D2B0EC6
:0D0E4000A00E150F8A0FFF0F000100010129
:100E50007556006D56005620006B560043485F41A2
:100E6000000000005A45524F000000004449464629
:100E700000000000564F54414745000043485F4280
:100E8000000000002020202020202020205061721F
:100E9000616D65746572732076657273696F6E201B
:100EA0006572726F722020202020202020202000D8
:100EB0002020202020202020205361766520746887
:100EC000652063616C6962726174696F6E20646130
:100ED0007461202020202020202020002131305645
:100EE000210000002035562000000000203256204E
:100EF000000000002031562000000000302E355642
:100F000000000000302E325600000000302E315616
:100F10000000000035306D560000000032306D5684
:100F20000000000020496E70757420007374616EBB
:100F30006461726420766F6C7461676520746F20E1
:100F40000000000043485F412020000043485F420A
:100F5000202000002020202020506C656173652037
:100F6000636F6E6E65637400696E70757420746F64
:100F700020474E4420202020202020002043485F8E
:100F8000412000002043485F422000002020202014
:100F90005075736820746865202E206B6579207405
:100FA0006F20636F6E6669726D20657869742020AA
:100FB00020202020202000003130302D3132306DB3
:100FC000560000003235302D3330306D56000000B1
:100FD000302E352D302E365620000000312E302D8B
:100FE000312E325620000000322E352D332E305651
:100FF00020000000352E302D362E30562000000007
:101000002031302D31325620200000002032352D85
:1010100033305620200000002035302D3630562049
:10102000200000007375697461626C652000000027
:1010300045786974207769746820736176652063E8
:10104000616C6962726174696F6E00000000204516
:1010500078697420776974686F75742063616C694E
:1010600062726174696F6E200000000045786974D7
:10107000207769746820526573746F7265206465A7
:101080006661756C74730000000000002000400071
:10109000800040002000100008001000000042FE08
:1010A00002000000468A9292620000448292926C92
:1010B000000018284AFE0A000040407E4040000020
:1010C00000000000000000007000FF03700000003E
:1010D0000000000000000000020004000800700092
:1010E000700070008000000100020000200020005D
:1010F0002000200070007000700020002000200000
:1011000020000000000200018000700070007000EC
:10111000080004000200000000000000000080073A
:101120004000200020002000200020004000800718
:1011300000000000000000000000000000000F00A0
:1011400010002000200020000C038C01C000600073
:10115000300018030C0300000000800160021C0234
:101160006A0284024001000002020202020202023C
:1011700002020202FE03000000000000F800FC0171
:101180000603020200000000000000000202060345
:10119000FC01F8000000000000008C01D800700085
:1011A0007000D8008C010000000020002000F80032
:1011B000F8002000200000002000200010000F0098
:1011C00000000000000000000000200020002000BF
:1011D00020002000200000000000000000030003A9
:1011E00000000000000000008001C000600030002E
:1011F00018000C0006000000FC01FE03420222025F
:101200001202FE03FC010000000008020C02FE03B3
:10121000FE0300020002000004038603C202620211
:1012200032021E030C030000040106032202220204
:101230002202FE03DC0100006000700058004C0236
:10124000FE03FE03400200001E011E0212021202F3
:101250001202F203E2010000F801FC03260222025E
:101260002202E003C001000006000600C203E20300
:1012700032001E000E000000DC01FE0322022202EA
:101280002202FE03DC0100001C003E0222022202B8
:101290002203FE01FC000000000000000000980195
:1012A0009801000000000000FA02FA02FA02FA02B5
:1012B000FA02FA02FA02FA02000020007000D800D6
:1012C0008C01060302020000900090009000900044
:1012D00090009000000000000000020206038C0154
:1012E000D80070002000000018001C000400440317
:1012F00064033C0018000000F8010401720272024D
:10130000F202840278000000F003F8034C0046006B
:101310004C00F803F00300000202FE03FE03220269
:101320002202FE03DC010000F800FC0106030202B9
:10133000020206038C0100000202FE03FE03020209
:101340000603FC01F80000000202FE03FE03220275
:10135000720206038E0300000202FE03FE03220255
:10136000720006000E000000F800FC0106032202D5
:101370002202E601EC030000FE03FE032000200031
:101380002000FE03FE030000000000000202FE0336
:10139000FE03020200000000C001C00300020202BE
:1013A000FE03FE01020000000202FE03FE03300005
:1013B000F800CE03060300000202FE03FE03020251
:1013C0000002000200030000FE03FE031C003800C0
:1013D0001C00FE03FE030000FE03FE031C00380099
:1013E0007000FE03FE030000F800FC010603020289
:1013F0000603FC01F80000000202FE03FE032202C5
:1014000022003E001C000000FC01FE0302028202DA
:101410000203FE03FC0100000202FE03FE032200A1
:101420006200FE039C0300000C011E033202220234
:101430006202CE038C01000000000E000602FE03D3
:10144000FE0306020E000000FE01FE030002000281
:101450000002FE03FE0100007E00FE00800100038A
:101460008001FE007E000000FE00FE038003E0011C
:101470008003FE03FE0000000603DE03F8002000E8
:10148000F800DE030603000000001E003E02E00339
:10149000E0033E021E0000008E03C6036202320219
:1014A0001E038E030000000000020003C0022002A1
:1014B00018020402FE030000000022004200FE01A8
:1014C000FE03400220020000200010000800060079
:1014D0000800100020002000000020021002FC0381
:1014E000FE031200220000000000000200020002C1
:1014F00000020002000200000202020202020202D6
:101500000202020202020202C001E80328022802CB
:10151000F801F003000200000202FE03FE012002B7
:101520002002E003C0010000E001F00310021002FD
:1015300010023003200100000000C001E00320027F
:101540002202FE03FE030000E001F00350025002FD
:10155000500270036001000000002002FC03FE0343
:101560002202020004000000300178034802480211
:10157000F803F801000000000202FE03FE03200051
:101580001000F003E0030000000000000002F6037A
:10159000F60300020000000000000001000310023A
:1015A000F603F601000000000202FE03FE036200E3
:1015B000F000980308030000000000000202FE0390
:1015C000FE03000200000000F803F8031800F00317
:1015D0001800F803F00300000800F803F003080007
:1015E0000800F803F00300000000F001F80308020F
:1015F0000802F803F00100000802F803F0034802B3
:1016000048007800300000003000780048004802B0
:10161000F803F803000200000802F803F0031802C0
:1016200008001800300000000000100138036802B4
:101630004802D8039001000010001000F801FC03DC
:101640001002100300010000F801F803000200027C
:10165000F801F803000200000000F800F8010003A0
:101660000003F801F8000000F800F803000380010F
:101670000003F803F800000008021803B001E000BE
:10168000B00118030802000038007802400240024E
:101690004002F801F800000018038803C80268023D
:1016A0003802180300000000F80088008E032200B2
:1016B000FA02FA02FA02FA02000000000000FE0339
:1016C000FE03000000000000FA02FA02FA02FA0229
:1016D000FA020202FE030000F80088008E030202F4
:1016E0000202020202020202EF7BEF7BEF7BEF7B42
:1016F000EF7BEF7BEF7BEF7BEF7BEF7BEF7BEF7B9A
:10170000EF7BEF7BEF7BEF7BEF7BEF7BEF7BEF7B89
:10171000EF7BEF7BEF7BEF7BEF7BEF7BEF7BEF7B79
:10172000EF7BEF7BEF7BEF7BEF7BEF7BEF7BEF7B69
:10173000EF7BEF7BEF7BEF7BEF7BEF7BEF7BEF7B59
:10174000EF7BEF7BEF7BEF7BEF7BEF7BEF7BEF7B49
:10175000EF7BEF7BEF7BEF7BEF7BEF7BEF7BEF7B39
:10176000EF7BEF7BEF7BEF7BEF7BEF7BEF7BEF7B29
:10177000EF7BEF7BEF7BEF7BEF7BEF7BEF7BEF7B19
:10178000EF7BEF7BEF7BEF7BEF7BEF7BEF7BEF7B09
:10179000EF7BEF7BEF7BEF7BEF7BEF7BEF7BEF7BF9
:1017A000EF7BEF7BEF7BEF7BEF7BEF7BEF7BEF7BE9
:1017B000EF7BEF7BEF7BEF7BEF7BEF7BEF7BEF7BD9
:1017C000EF7BEF7BEF7BEF7BEF7BEF7BEF7BEF7BC9
:1017D000EF7BEF7BEF7BEF7BEF7BEF7BEF7BEF7BB9
:1017E000EF7BEF7BEF7BEF7BEF7BEF7BEF7BEF7BA9
:1017F000EF7BEF7BEF7BEF7BEF7BEF7BEF7BEF7B99
:10180000EF7BEF7BEF7BEF7BEF7BEF7BEF7BEF7B88
:10181000EF7BEF7BEF7BEF7BEF7BEF7BEF7BEF7B78
:10182000EF7BEF7BEF7BEF7BEF7BEF7BEF7BEF7B68
:10183000EF7BEF7BEF7BEF7BEF7BEF7BEF7BEF7B58
:10184000EF7BEF7BEF7BEF7BEF7BEF7BEF7BEF7B48
:10185000EF7BEF7BEF7BEF7BEF7BEF7BEF7BEF7B38
:10186000EF7BEF7BEF7BEF7BEF7BEF7BEF7BEF7B28
:10187000EF7BEF7BEF7BEF7BEF7B0000EF7B0000EC
:101880000000000000000000000000000000000058
:101890000000000000000000000000000000000048
:1018A0000000000000000000000000000000000038
:1018B0000000000000000000000000000000000028
:1018C0000000000000000000000000000000000018
:1018D0000000000000000000000000000000000008
:1018E00000000000000000000000000000000000F8
:1018F00000000000000000000000000000000000E8
:1019000000000000000000000000000000000000D7
:1019100000000000000000000000000000000000C7
:1019200000000000000000000000000000000000B7
:1019300000000000000000000000000000000000A7
:101940000000000000000000000000000000000097
:101950000000000000000000000000000000000087
:101960000000000000000000000000000000000077
:101970000000000000000000000000000000000067
:101980000000000000000000000000000000000057
:101990000000000000000000000000000000000047
:1019A0000000000000000000000000000000000037
:1019B0000000000000000000000000000000000027
:1019C0000000000000000000000000000000000017
:1019D0000000000000000000000000000000000007
:1019E00000000000000000000000000000000000F7
:1019F00000000000000000000000000000000000E7
:101A0000000000000000000000000000EF7B00006C
:101A1000EF7B00000000000000000000000000005C
:101A200000000000000000000000000000000000B6
:101A300000000000000000000000000000000000A6
:101A40000000EF7B0000000000000000000000002C
:101A50000000000000000000000000000000000086
:101A60000000000000000000000000000000000076
:101A700000000000EF7B00000000000000000000FC
:101A80000000000000000000000000000000000056
:101A90000000000000000000000000000000000046
:101AA000000000000000EF7B0000000000000000CC
:101AB0000000000000000000000000000000000026
:101AC0000000000000000000000000000000000016
:101AD0000000000000000000EF7B0000000000009C
:101AE00000000000000000000000000000000000F6
:101AF00000000000000000000000000000000000E6
:101B000000000000000000000000EF7B000000006B
:101B100000000000000000000000000000000000C5
:101B200000000000000000000000000000000000B5
:101B3000000000000000000000000000EF7B00003B
:101B40000000000000000000000000000000000095
:101B50000000000000000000000000000000000085
:101B60000000000000000000000000000000EF7B0B
:101B70000000000000000000000000000000000065
:101B80000000000000000000000000000000000055
:101B90000000000000000000000000000000000045
:101BA000EF7B0000EF7B0000000000000000EF7BF7
:101BB0000000000000000000EF7B000000000000BB
:101BC0000000EF7B0000000000000000EF7B000041
:101BD000000000000000EF7B00000000000000009B
:101BE000EF7B0000000000000000EF7B0000000021
:101BF00000000000EF7B0000000000000000EF7B11
:101C00000000000000000000EF7B0000000000006A
:101C10000000EF7B0000000000000000EF7B0000F0
:101C2000000000000000EF7B00000000000000004A
:101C3000EF7B0000000000000000EF7B00000000D0
:101C400000000000EF7B0000000000000000EF7BC0
:101C50000000000000000000EF7B0000000000001A
:101C60000000EF7B0000000000000000EF7B0000A0
:101C7000000000000000EF7B0000000000000000FA
:101C8000EF7B0000000000000000EF7B0000000080
:101C900000000000EF7B0000000000000000EF7B70
:101CA0000000000000000000EF7B000000000000CA
:101CB0000000EF7B0000000000000000EF7B000050
:101CC000000000000000EF7B0000000000000000AA
:101CD000EF7B0000000000000000EF7B0000000030
:101CE00000000000EF7B0000000000000000EF7B20
:101CF0000000000000000000EF7B0000000000007A
:101D00000000EF7B0000000000000000EF7B0000FF
:101D1000000000000000EF7B000000000000000059
:101D2000EF7B0000000000000000EF7B00000000DF
:101D300000000000EF7B000046494C452020202099
:101D4000424D500020202020204453323033204D7B
:101D5000696E692044534F204150502056657220CF
:101D6000322E3330202020202020200021205361DB
:101D70007665207468652063757272656E74207371
:101D8000657474696E67202100000000203E2020E9
:101D9000200000002045525220000000204F4B2020
:101DA00020000000050005010502050305040000F0
:101DB0002F5365632E0000002152554E2100000074
:101DC0000000484F4C440000000000000B050F05C8
:101DD0007E6060270000000000007E60607D0000E3
:101DE000000000007E603B7D0000000000007E3BA4
:101DF0003B7D0000000000007B3B3B7D00000000BD
:101E000000000000050F050E050B050B050B00007B
:101E1000204849444520000000002143482841292A
:101E200021000000204849444520000000002143D3
:101E3000482842292100000020484944452000004C
:101E4000000021434828432921000000204849443C
:101E500045200000000021434828442921000000BB
:101E60002128412B4229210000002128412D42290F
:101E700021000000212843264429210000002128B8
:101E8000437C44292100000046494C455F31000055
:101E9000000046494C455F320000000046494C4571
:101EA0005F330000000046494C455F3400000000ED
:101EB000202D2D20000000002D2D0000000000002E
:101EC0004443000000000000000041430000000007
:101ED00000000000212D2100000000000000000093
:101EE00059504F530000000000050105020503058D
:101EF00004050000214155544F2100000000214EEF
:101F00004F524D210000000053494E474C00000045
:101F10000000214E4F4E4521000000002153434157
:101F20004E2100000000000058504F5300000000F8
:101F3000060505062053494E452000000000547256
:101F400069616E6700000000202153617721200045
:101F50000000537175617265000000002031304847
:101F60007A2000000000203230487A200000000073
:101F7000203530487A200000000020313030487A87
