:020000040800F2
:10C000000024002051210108BD170108C1170108B3
:10C01000C5170108C9170108CD1701080000000065
:10C02000000000000000000000000000D51701081B
:10C03000D117010800000000D9170108DD17010819
:10C04000E1170108E5170108E9170108ED170108D4
:10C05000F1170108F5170108F9170108FD17010884
:10C060000118010805180108091801080D18010830
:10C070001118010815180108191801081D180108E0
:10C080002118010825180108291801082D18010890
:10C090003118010835180108391801083D18010840
:10C0A0004118010845180108491801084D180108F0
:10C0B0005118010855180108291901082D190108FE
:10C0C0003119010835190108391901083D1901080C
:10C0D0004119010845190108491901084D190108BC
:10C0E0005119010855190108591901085D1901086C
:10C0F0006119010865190108691901086D1901081C
:10C100007119010875190108791901087D190108CB
:10C110008119010885190108891901088D1901087B
:10C120009119010895190108991901089D1901082B
:10C130002DE9F04381B014001D0001F10A039BB208
:10C140000A0000F10A0189B205F0E0FC0B20684307
:10C15000184901EB40050B2604F00F072412B5F82F
:10C1600000904FF00008DFF8180C414649FA01F141
:10C1700011F0010F04D000F5707030F8140003E0E6
:10C1800000F5707030F8170005F0BAFC08F10108EE
:10C190001FFA88F00B28E6D3AD1C761EDFD1EF2303
:10C1A000002240F28F11002001B0BDE8F04305F0FD
:10C1B000ADBC00BFA01D01082DE9F44F1C000A9D75
:10C1C00001F10A039BB20A0040F28F1105F09EFCB8
:10C1D0000B27BDF8000000F00F084FEA2029DFF818
:10C1E000A06B24B906F5707030F8180003E006F56E
:10C1F000707030F8190005F083FC7F1EF1D12878AB
:10C2000000283CD00027BDF8000000F00F084FEADE
:10C2100020292878202801D021281ED14FF0000B9A
:10C22000212801D1042F16D04FF0000A50460BFAF6
:10C2300000F010F4806F1BD0E4B906F5707030F890
:10C24000190005F05DFC0AF1010ABAF10B0FEDDBF4
:10C250007F1C082FDDDB6D1CD1E7F9B201EBC000BC
:10C260000B4901EB4000A0F50870B0F900B0DBE726
:10C27000002CE2D106F5707030F81800E1E7EF23EA
:10C28000002240F28F1101B0BDE8F04F05F03EBC36
:10C29000780C0108F0B585B005000C2D60D34FF483
:10C2A0009C7085425CD2A5F10C0000B2820012B2F3
:10C2B000A5F10B0000B283001BB200200DF1080CA9
:10C2C0000DF1000EDFF85C4A00218CF800104110DF
:10C2D0008E18365D8EF80060C918095D8EF8011061
:10C2E000C82E03D3C7268EF8006004E0022E02D2C7
:10C2F00001268EF80060C82903D3C7218EF80110EB
:10C3000004E0022902D201218EF801109EF80010EB
:10C310009EF80160B14211D1012901D0C72903D192
:10C3200001218CF8001009E0022902D3491E8EF881
:10C330000010C72E02D2711C8EF801109EF8011059
:10C340009EF80060B1423CBF8EF801608EF800108C
:10C35000801C0EF1020E0CF1020CC1B20829B3D3FD
:10C3600005F0DCFB0D21280005F0C8FB15F0010FDE
:10C3700000F08682DFF8084A2100DFF8AC0905F0FA
:10C38000CFFB0C2DC0F0418240F23717BD4280F048
:10C390003F82DFF89C299DF80800002831D1B2F9CE
:10C3A000100000282DD09DF8000000AB59780B1A22
:10C3B000062B14DB814224D304EB400303F5F07316
:10C3C000B4F8C0C3ACF5844CB3F800E04CEA0E0EF0
:10C3D00023F802EB401CC0B2814212D3F4E7814241
:10C3E0000FD304EB400303F5F073B4F8C0C3B3F804
:10C3F00000E04CEA0E0E23F802EB401CC0B2814272
:10C40000F5D202A98878002835D1B2F96000002859
:10C4100031D000AB93F802C06046DB78A3EB0C0C84
:10C42000BCF1060F15DB834225D304EB400C0CF561
:10C43000F07CB4F8C2E34FF6F857BE44BCF8006095
:10C440004EEA06062CF8026B401CC0B2834212D39F
:10C45000F4E783420FD304EB400C0CF5F07CB4F806
:10C46000C2E3BCF800604EEA06062CF8026B401CE2
:10C47000C0B28342F5D20879002835D1B2F9B000B4
:10C48000002831D000AB93F804C060465B79A3EB81
:10C490000C0CBCF1060F15DB834225D304EB400CDA
:10C4A0000CF5F07CB4F8C4E34BF6F877BE44BCF866
:10C4B00000604EEA06062CF8026B401CC0B28342B4
:10C4C00012D3F4E783420FD304EB400C0CF5F07C5D
:10C4D000B4F8C4E3BCF800604EEA06062CF8026B20
:10C4E000401CC0B28342F5D28879002833D1B2F91A
:10C4F000000100282FD000AB93F806C06046D97920
:10C50000A1EB0C03062B14DB814224D304EB400384
:10C5100003F5F073B4F8C6C3ACF5007CB3F800E0E3
:10C520004CEA0E0E23F802EB401CC0B2814212D33B
:10C53000F4E781420FD304EB400303F5F073B4F842
:10C54000C6C3B3F800E04CEA0E0E23F802EB401C21
:10C55000C0B28142F5D2B2F9400258B9B4F9E00351
:10C5600004EB4000B0F8E011B4F8C0331943A0F870
:10C57000E01128E001280BD1B4F9E40304EB4000FA
:10C58000B0F8E011B4F8C2331943A0F8E0111AE092
:10C5900002280BD1B4F9E80304EB4000B0F8E01135
:10C5A000B4F8C4331943A0F8E0110CE003280AD111
:10C5B000B4F9EC0304EB4000B0F8E011B4F8C63372
:10C5C0001943A0F8E011B2F8C801C0F1A10000B20F
:10C5D0000C2856DB85423BD102F5E571097811F054
:10C5E000040F35D1B4F8CC1304F5F1731B880B4359
:10C5F00004F5F17CACF8003004F5F4734FF00B0C4B
:10C60000B3F800E041EA0E0EA3F800E0B3F806E04C
:10C6100041EA0E0EA3F806E0B3F80CE041EA0E0E74
:10C62000A3F80CE0B3F812E041EA0E0EA3F812E012
:10C63000B3F818E041EA0E0EA3F818E0B3F81EE0D4
:10C6400041EA0E0EA3F81EE02433BCF1010CD7D151
:10C65000411E8D4202D0411C8D4205D1B4F8CC134D
:10C66000A4F87013A4F8E01185420AD1B4F8CC13F1
:10C67000A4F87013A4F86E1304F5F1700180A4F807
:10C68000E011B2F8300300F10B0109B28D423AD14A
:10C6900092F8320310F0040F35D1B4F8C80304F552
:10C6A000F1731B88034304F5F17CACF8003004F50A
:10C6B000F4734FF00B0CB3F800E040EA0E0EA3F851
:10C6C00000E0B3F806E040EA0E0EA3F806E0B3F887
:10C6D0000CE040EA0E0EA3F80CE0B3F812E040EADA
:10C6E0000E0EA3F812E0B3F818E040EA0E0EA3F81D
:10C6F00018E0B3F81EE040EA0E0EA3F81EE0243363
:10C70000BCF1010CD7D1481E854202D0481C85429D
:10C710000BD1B4F8C803B4F870330343A4F87033F2
:10C72000B4F8E0311843A4F8E0018D4217D1B4F811
:10C73000C803B4F870130143A4F87013B4F86E136F
:10C740000143A4F86E1304F5F1710988014304F55F
:10C75000F1731980B4F8E0110843A4F8E001B2F8CD
:10C76000440300F10B0109B28D4237D192F8460320
:10C7700010F0040F32D1B4F8C80304F5F172128836
:10C78000024304F5F1731A8004F5F4720B23B2F836
:10C7900000C040EA0C0CA2F800C0B2F806C040EAA3
:10C7A0000C0CA2F806C0B2F80CC040EA0C0CA2F8BF
:10C7B0000CC0B2F812C040EA0C0CA2F812C0B2F8D9
:10C7C00018C040EA0C0CA2F818C0B2F81EC040EA2B
:10C7D0000C0CA2F81EC024325B1ED8D1481E854224
:10C7E00002D0481C854205D1B4F8C803A4F87003F0
:10C7F000A4F8E0018D423FD1B4F8C803A4F8700357
:10C80000A4F86E0304F5F17135E00B2D34D100E08E
:10C8100032D1DFF81C25B2F9900204EB4001B4F8E4
:10C82000C80301F5EF731B88034301F5EF7CACF8F7
:10C830000030B1F8E0310343A1F8E03101F5F173C4
:10C840001B88034301F5F1710B80B2F9A41204EBCC
:10C85000410101F5EF721288024301F5EF731A806E
:10C86000B1F8E0210243A1F8E02101F5F17212884C
:10C87000104301F5F1710880C92104F5F0704DE213
:10C88000681C40F23717B84204D1DFF8A014DFF873
:10C89000EC0421E00B2821D0A5F10A001E21DFF8CD
:10C8A000DC24DFF8DC4490FBF1F303FB110121B938
:10C8B00004F5F07102F2BC400EE0062190FBF1F3AA
:10C8C00003FB110020B904F5F07102F54A7003E092
:10C8D00004F5F07102F5CA7005F022F90C2D03D0B1
:10C8E0004FF49B70854213D1DFF84424B2F99012C3
:10C8F000DFF88C44B4F8C80334F81130034324F84B
:10C900001130B2F9A41234F81120104324F81100A8
:10C91000DFF81C2492F8920210F0040F0AD1B2F949
:10C920009012DFF85C4434F81100B4F8C8331843AF
:10C9300024F8110092F8A60210F0040F0AD1B2F9FF
:10C94000A412DFF83C4434F81100B4F8C83318439B
:10C9500024F811000C2DC0F0DF81BD4280F0DC8195
:10C960009DF80800002831D1B2F9100000282DD020
:10C970009DF8000000AB59780B1A062B14DB81429E
:10C9800024D3DFF8FC4304EB4003B4F8C0C3ACF598
:10C99000844CB3F800E04CEA0E0E23F802EB401C86
:10C9A000C0B2814212D3F4E781420FD3DFF8D04303
:10C9B00004EB4003B4F8C0C3B3F800E04CEA0E0E39
:10C9C00023F802EB401CC0B28142F5D202A988785C
:10C9D000002834D1B2F96000002830D000AB93F8C1
:10C9E00002C06046DB78A3EB0C0CBCF1060F15DB34
:10C9F000834224D3DFF8884304EB400CB4F8C2E34D
:10CA00004FF6F857BE44BCF800404EEA04042CF838
:10CA1000024B401CC0B2834211D3F4E783420ED3D1
:10CA2000D74C04EB400CB4F8C2E3BCF800404EEA2B
:10CA300004042CF8024B401CC0B28342F5D20879A2
:10CA4000002833D1B2F9B00000282FD000AB93F802
:10CA500004C060465B79A3EB0C0CBCF1060F14DB41
:10CA6000834223D3C64C04EB400CB4F8C4E34BF62A
:10CA7000F877BE44BCF800404EEA04042CF8024BA0
:10CA8000401CC0B2834211D3F4E783420ED3BC4CA6
:10CA900004EB400CB4F8C4E3BCF800404EEA0404D4
:10CAA0002CF8024B401CC0B28342F5D28879002892
:10CAB00031D1B2F9000100282DD000AB93F806C0A7
:10CAC0006046D979A1EB0C03062B13DB814222D3FC
:10CAD000AB4C04EB4003B4F8C6C3ACF5007CB3F830
:10CAE00000E04CEA0E0E23F802EB401CC0B281427B
:10CAF00011D3F4E781420ED3A14C04EB4003B4F808
:10CB0000C6C3B3F800E04CEA0E0E23F802EB401C5B
:10CB1000C0B28142F5D2B2F8C801C0F1A10000B2A2
:10CB20000C2851DB854237D102F5E571097811F007
:10CB3000040F31D1924CB4F8CC1363880B4363805B
:10CB400004F108034FF00B0CB3F800E041EA0E0EBD
:10CB5000A3F800E0B3F806E041EA0E0EA3F806E001
:10CB6000B3F80CE041EA0E0EA3F80CE0B3F812E0C3
:10CB700041EA0E0EA3F812E0B3F818E041EA0E0EF7
:10CB8000A3F818E0B3F81EE041EA0E0EA3F81EE089
:10CB90002433BCF1010CD7D1411E8D4202D0411C7F
:10CBA0008D4205D1764CB4F8CC13A4F890112180B5
:10CBB000854209D1724CB4F8CC13A4F8901104F555
:10CBC000C770018061802180B2F8300300F10B0151
:10CBD00009B28D4236D192F8320310F0040F31D1F0
:10CBE000674CB4F8C80363880343638004F1080307
:10CBF0004FF00B0CB3F800E040EA0E0EA3F800E093
:10CC0000B3F806E040EA0E0EA3F806E0B3F80CE035
:10CC100040EA0E0EA3F80CE0B3F812E040EA0E0E64
:10CC2000A3F812E0B3F818E040EA0E0EA3F818E0FB
:10CC3000B3F81EE040EA0E0EA3F81EE02433BCF168
:10CC4000010CD7D1481E854202D0481C854205D12F
:10CC50004B4CB4F8C803A4F8900120808D4208D151
:10CC6000474CB4F8C803A4F8900104F5C7710880D4
:10CC70006080B2F8440300F10B0109B28D4234D157
:10CC800092F8460310F0040F2FD13D4CB4F8C803BE
:10CC900062880243628004F108020B23B2F800C0EC
:10CCA00040EA0C0CA2F800C0B2F806C040EA0C0C36
:10CCB000A2F806C0B2F80CC040EA0C0CA2F80CC0F6
:10CCC000B2F812C040EA0C0CA2F812C0B2F818C0B8
:10CCD00040EA0C0CA2F818C0B2F81EC040EA0C0CD6
:10CCE000A2F81EC024325B1ED8D1481E854202D055
:10CCF000481C854205D1224CB4F8C803A4F8900121
:10CD000020808D4208D11E4CB4F8C803A4F89001CD
:10CD100004F5C77108806080C921194804F0FAFE43
:10CD200005B0F0BDA0710020BC070108B878002054
:10CD30001C6B002030B581B004F0F0FE0F4C104D9C
:10CD400005F5F071200004F0EBFE04F0E7FE290089
:10CD500004F5CA7004F0E4FE0B24A0B2FFF79AFABF
:10CD6000641C4FF49C71A0B28842F6D304F0D0FE4C
:10CD700001B0BDE8304004F0D1BE00002806010833
:10CD8000D87600202DE9F14F82B0042810D250222D
:10CD9000554B00FB0232B2F94C20C62A80F2A0802B
:10CDA000524A02EB8102B2F9E023C62A80F298804F
:10CDB00000244F4A072300FB0323009302F11C0BBE
:10CDC0000D004A4E06EB85075021474A00FB01281B
:10CDD000A0B207282FD2BDF80800042807D2009877
:10CDE00090F80090B8F94C0000F1090105E09BF8BB
:10CDF0000090B7F9E00300F1090189B2A0B204F094
:10CE00007DFE4FF0080A19F0010F02D0B6F8CA03F0
:10CE100003E006F5707030F8150004F071FE4FEA7B
:10CE20005909BAF1010AEED106F5707030F8150013
:10CE300004F066FE4AE0BDF80800042823D2B8F9E1
:10CE40004C100819C11C89B2A0B204F057FEB8F901
:10CE50004C00011901F103091FFA89F91830001B70
:10CE6000814533DA06F5707030F8150004F048FE9D
:10CE700009F101091FFA89F9B8F94C001830001BB3
:10CE8000814523DAEEE7B7F9E0130819C11C89B22E
:10CE9000A0B204F033FEB7F9E003011901F1030970
:10CEA0001FFA89F91830001B81450FDA06F57070FA
:10CEB00030F8150004F024FE09F101091FFA89F980
:10CEC000B7F9E0031830001B8145EFDB641C0BF160
:10CED000010B0098401C0090A0B20B28FFF478AF23
:10CEE00003B0BDE8F08F00BF1C6B0020D876002097
:10CEF000A8200108F0B581B004F010FE00259D4C7B
:10CF00000C21A8B204F0FAFDCB26B4F8CA0304F051
:10CF1000F7FD761EF9D16D1C0B2DF1DB964DB5F9A1
:10CF2000100018B100210020FFF72CFFB5F96000B8
:10CF300018B101210120FFF725FFB5F9B00018B1A4
:10CF400002210220FFF71EFFB5F9000118B10321ED
:10CF50000320FFF717FFB5F9400218B90021072099
:10CF6000FFF710FFB5F94002012803D10121072086
:10CF7000FFF708FFB5F94002022803D1022107207C
:10CF8000FFF700FFB5F94002032803D10321072072
:10CF9000FFF7F8FE0C214FF49C7004F0AFFDCB2698
:10CFA000B4F8CA0304F0ACFD761EF9D10B2640F2AA
:10CFB00039170C21B0B204F0A1FDB4F8CA0304F093
:10CFC0009FFDD621B0B204F099FDB4F8CA0304F075
:10CFD00097FD761CBE42ECDBB5F9900200F10B0127
:10CFE00089B20A2004F08AFDB4F8C80304F088FD71
:10CFF000B4F8C80304F084FDB4F8C80304F080FD5D
:10D00000B4F8C80304F07CFDB4F8C80304F078FD5C
:10D01000B5F9A40200F10B0189B20A2004F06EFDFB
:10D02000B4F8C80304F06CFDB4F8C80304F068FD5C
:10D03000B4F8C80304F064FDB4F8C80304F060FD5C
:10D04000B4F8C80304F05CFDB5F9900200F10B01DF
:10D0500089B24FF49C7004F051FDB4F8C80304F099
:10D060004FFDB4F8C80304F04BFDB4F8C80304F056
:10D0700047FDB4F8C80304F043FDB4F8C80304F056
:10D080003FFDB5F9A40200F10B0189B24FF49C7089
:10D0900004F034FDB4F8C80304F032FDB4F8C8035A
:10D0A00004F02EFDB4F8C80304F02AFDB4F8C80358
:10D0B00004F026FDB4F8C80304F022FDB5F8C80159
:10D0C000C0F1A10000B20C2818DB861E36B2871C06
:10D0D000B74213DB0C21B0B204F010FDB4F8CC035E
:10D0E00004F00EFDD621B0B204F008FDB4F8CC0374
:10D0F00004F006FD761C36B2B742EBDAB5F8300321
:10D100000B3000B2861E36B2871CB74213DB0C21EF
:10D11000B0B204F0F3FCB4F8C80304F0F1FCD6217B
:10D12000B0B204F0EBFCB4F8C80304F0E9FC761CE0
:10D1300036B2B742EBDAB5F844030B3000B2851EC5
:10D140002DB2861CAE4213DB0C21A8B204F0D6FC33
:10D15000B4F8C80304F0D4FCD621A8B204F0CEFC85
:10D16000B4F8C80304F0CCFC6D1C2DB2AE42EBDA6F
:10D1700001B0F0BDD87600201C6B00202DE9F04FE7
:10D1800081B00021592004F0B9FC0C2540F21F5455
:10D19000200004F0B5FC6D1EFAD100215A2004F0E5
:10D1A000ADFC0C25200004F0ABFC6D1EFAD1002173
:10D1B0004FF49A7004F0A2FC0C25200004F0A0FCAF
:10D1C0006D1EFAD1002140F2351004F097FC0C25B9
:10D1D000200004F095FC6D1EFAD15B2540F2331B54
:10D1E0003D4E2F00B0464FF008090021B8B204F0C0
:10D1F00085FC4FF0000A012000FA0AF0B8F8001090
:10D20000084201D0200000E0002004F079FC0AF17F
:10D21000010ABAF10C0FEEDB08F102087F1CB9F12C
:10D220000109E2D108355D45DBDB40F6D464C82551
:10D230002A4E0021B6F9C801684390FBF4F05B3038
:10D2400080B204F05BFC4FF009084FF6FF7738001E
:10D2500004F056FCB8F10108F9D10021B6F9C80173
:10D26000684390FBF4F06A3080B204F047FC4FF062
:10D270000908380004F044FCB8F10108F9D14FF076
:10D2800000080021B6F9C801684390FBF4F042465B
:10D2900010185B3080B204F031FC380004F030FC30
:10D2A0000921B6F9C801684390FBF4F04246101812
:10D2B0005B3080B204F022FC380004F021FC08F15D
:10D2C0000108B8F1100FDCDB06F5EF7000210170EA
:10D2D00001B0BDE8F08F00BF342201081C6B0020B4
:10D2E00000B581B00121242004F028FC0021142085
:10D2F00004F024FC002004F005FC142003F0A4FF3B
:10D300000121062004F01AFCDFF8640D00F112017F
:10D310000D220B7843F002030B700B7D43F00203E8
:10D320000B7591F8283043F0020381F8283091F80A
:10D330003C3043F0020381F83C305031521EE8D1BA
:10D34000124903220B7843F002030B700B7B43F06E
:10D3500002030B730B7E43F002030B762431521E43
:10D36000F0D10B490978092906D0002180F8E21292
:10D3700080F8F61280F81E1306484FF416710180EB
:10D3800005480121017001B000BD00BF376F0020CA
:10D39000A46F0020126400204C7D002030B581B0C5
:10D3A000DFF8D84C04F5986000210170052004F0E6
:10D3B000C5FBDFF8BC5CB5F92410092004F0BEFB06
:10D3C000B5F938100A2004F0B9FBB4F8DA04B5F95D
:10D3D0004C104843C11100EB11600112002004F011
:10D3E000ADFBB5F9100090B9B5F9B40111280EDB09
:10D3F000D4F8F4048088411C0A2004F09FFB01212A
:10D40000052004F09BFB04F5986001210170B5F93B
:10D4100074100B2004F092FBB5F988100C2004F076
:10D420008DFBB4F8DC04B5F99C104843C11100EB46
:10D4300011600112012004F081FBB5F9600090B980
:10D44000B5F9B40111280EDBD4F8F4048088411C2E
:10D450000C2004F073FB0121052004F06FFB04F5A0
:10D46000986002210170B5F9500118B90121062018
:10D4700004F064FB01B030BD70B50121242004F03C
:10D480005DFBDFF8EC4BB4F9B40180B2142100FB72
:10D4900001F5DFF8E86B06F59E6000682818B0F922
:10D4A0000810072004F04AFB06F59E600068281863
:10D4B0004189082004F042FBB4F9B401DFF8B41B41
:10D4C00031F81000DFF8B01B0860B4F9500118B94A
:10D4D0000121062004F032FB70BD000070B5DFF8BA
:10D4E000904BB4F9F00198B924210F2004F026FBE9
:10D4F000314D05F5CE7031490860B4F904020C21B4
:10D5000000FB015000F5917001880D2004F016FB1E
:10D51000B4F9F001022813D1274DB4F904020C210B
:10D5200000FB015000F5917001880D2004F006FB0E
:10D5300005F50B702149086024210F2004F0FEFA44
:10D54000B4F9F001012813D11B4DB4F904020C21E8
:10D5500000FB015000F5917001880D2004F0EEFAF7
:10D5600005F5F2701549086024210F2004F0E6FA51
:10D57000B4F9F00103281DD10E260F4DB4F90402B1
:10D5800000FB06500189102004F0D8FAB4F9040217
:10D5900000FB06504189112004F0D0FAB4F90402CE
:10D5A00000FB06504089401C00EBD0704110122057
:10D5B00004F0C4FA70BD00BFC87A002050040240D5
:10D5C00010B5DFF8AC4AB4F94403B4F93013411A8A
:10D5D000222004F0B3FAB4F94002B4F9541201EB7A
:10D5E000C001202004F0AAFAB4F94002C0B9B4F98D
:10D5F0003810DFF8880A1B4AB2F900200B1803F52F
:10D600009F6393F90030D21A920200EB410000F5BB
:10D61000A260008892FBF0F0C1B2212004F08EFAE3
:10D62000B4F94002012815D1B4F98810DFF84C0A8A
:10D630000C4AB2F904200B1893F90435D21A92025D
:10D6400000EB4100B0F8240592FBF0F0C1B22120BC
:10D6500004F074FAB4F9500118B90121062004F05D
:10D660006DFA10BDB87A00202DE9F04F85B0DFF8D3
:10D670000C4A04F59B6000210180DFF8F459B5F9EC
:10D68000B401142104F59E62126800FB0120C089D8
:10D69000C0F5806096214843411200EB9150B5F8E7
:10D6A000C81101EBA02000B2039004F59C6000219A
:10D6B00001600020C4F8E40404F59D6001600846A0
:10D6C000C4F8EC0484F8BC0484F8BD04FF2084F89A
:10D6D000BE0484F8BF040399484200B204F598617F
:10D6E0000978002940F0278100260290DFF87005B4
:10D6F00000902AE00228B8BF0120DFF86815086012
:10D70000B87000F0B1FAF87008F1010004F59B61FF
:10D71000088004F59661097884F8B21484F8B3A4FB
:10D720004FEA8B2180B2B9F80E2000FB12100128BD
:10D7300080F2C480761C0098001D00900298401C66
:10D740000290B6F5805F80F27082012004F0FAF951
:10D7500068B9B4F8D604864209D1B5F9501131B987
:10D76000401CA4F8D60404F0DDF90099086004F523
:10D770009760009909680170017804F59C60006861
:10D78000081804F59C6210600800B5F94C20821A54
:10D79000DFF8D0341A6004F59D631B6802FB023287
:10D7A00004F59D631A6094F8BC248A4238BF84F85B
:10D7B000BC1494F8BE24914238BF84F8BE1400997A
:10D7C0000968090A84F8B91494F8B924D4F8E4145F
:10D7D0005118C4F8E4141100B5F99C30CB1ADFF8E5
:10D7E00084C4CCF80030D4F8ECC403FB03C3C4F801
:10D7F000EC3494F8BD34934238BF84F8BD2494F8D7
:10D80000BF349A4238BF84F8BF24009A1268120CC1
:10D8100002F0010284F8BA24009A1268520C02F055
:10D82000010284F8BB24039AB24283DA04F59B62B6
:10D83000128840F22B139A42BFF47CAFDDF808B097
:10D84000B5F9383004EB430C0CF5A26CBCF800C001
:10D850000CFB00F01B1903F59F6393F900304FEAAE
:10D86000602C00EB9C508012C01804F59663187071
:10D87000B5F9880004EB4003B3F824355943001987
:10D8800090F904054B1201EB93518912081884F8A2
:10D89000B104B5F9B401142104F59E631B6800FBC3
:10D8A0000139ABF10100800201904FEA8B20B9F8F9
:10D8B0000E1002FB11000128FFF63CAF04F59B603F
:10D8C000B0F8008094F8B20404F596610978091A5A
:10D8D000B9F80E2008FB02F2019BD21A51434A12FA
:10D8E00001EB92518912081884F8B40404F8280056
:10D8F00094F8B30494F8B1A4AAEB0001B9F80E208F
:10D9000008FB02F2019BD21A51434A1201EB9251D9
:10D910008912081884F8B50404EB88077870B5F903
:10D92000EC0094F8BA14142201FB0200C828FFF698
:10D93000E1AEC720E1E600260290C948019001202F
:10D9400004F000F968B9B4F8D604864209D1B5F9F3
:10D95000501131B9401CA4F8D60404F0E3F8019941
:10D96000086004F5976001990968017001980068E2
:10D97000000A84F8B90494F8B924100004F59761FA
:10D980000B78190004F59C6CDCF800C000EB010E6C
:10D99000F44404F59C6ECEF800C0C4F8E4C4B5F9B4
:10D9A0004CC0A1EB0C0EAF4FC7F800E004F59D672B
:10D9B0003F680EFB0E7EA0EB0C07DFF8A8C2CCF888
:10D9C000007007FB07EC04F59D6ECEF800C0C4F8AC
:10D9D000ECC494F8BCC49C4538BF84F8BC3494F8BB
:10D9E000BCC4944538BF84F8BC2494F8BCC484F803
:10D9F000BDC494F8BEC4634538BF84F8BE3494F8FF
:10DA0000BE349A4238BF84F8BE2494F8BE2484F809
:10DA1000BF24019A1268120C02F0010284F8BA24A1
:10DA2000019A1268520C02F0010284F8BB24B5F985
:10DA3000602002BBB5F9383004EB430202F5A26264
:10DA4000128802FB01FC191901F59F6191F9001080
:10DA50004FEA6C230CEB93539B125B1804F5966C06
:10DA60008CF800305043421200EB92508012401864
:10DA700084F8B1041CE0B5F9883004EB4302B2F835
:10DA8000242502FB01FC191991F904154FEA6C23B6
:10DA90000CEB93539B125B1804F5966C8CF80030DA
:10DAA0005043421200EB92508012401884F8B104A7
:10DAB0000398B04280F2AE8004F59B60008840F28B
:10DAC0002B11884280F0A680DDF808B0B5F9B411BA
:10DAD000142204F59E631B6801FB0238ABF10101BF
:10DAE00089020091B8F80E104843B0EB8B2F4BDB46
:10DAF000BA46ABF101008002009004F59B600088FB
:10DB0000B8F80E104843B0EB8B2F7BDA04F59B601E
:10DB1000078894F8B10404F596610978091AB8F8F1
:10DB20000E207A43009BD21A51434A1201EB9251C4
:10DB30008912081884F8B40404F8270004EB870954
:10DB400089F80100B5F9EC0094F8BA14142201FB2D
:10DB5000020ABAF1C80F3FDB4FF0C70A41E0022FBB
:10DB6000B8BF012789F8027000F07EF889F8030039
:10DB70000AF1010004F59B61088080B2B8F80E102C
:10DB80004843B0EB8B2FB3DA04F59B60B0F800A0EC
:10DB900094F8B20494F8B114091AB8F80E200AFBEC
:10DBA00002F2009BD21A51434A1201EB92518912A0
:10DBB000081884F8B50404F82A0004EB8A0989F8E7
:10DBC0000100B5F9EC0094F8BA14142201FB020725
:10DBD000C82FC4DBC727C5E7BAF1020FB8BF4FF0A3
:10DBE000010A89F802A000F03FF889F80300781CC8
:10DBF00004F59B61088080B2B8F80E104843B0EB82
:10DC00008B2F83DB1748C0F800A004F596600078DE
:10DC100084F8B204761C0198001D01900298401C03
:10DC20000290B6F5805FFFF68AAE04F59560042198
:10DC300022792270027802716279627042784271B0
:10DC4000A279A27082788271E279E270C278C271A0
:10DC5000241D001F491EEBD105B0BDE8F08F00BFA9
:10DC60000424002000240020DFF80414B1F900018E
:10DC7000801E072800F28880DFE800F004344B4B58
:10DC800057616E7ADFF8F40300F5986212787AB97A
:10DC9000B1F93C2100F596631B789A18B1F94C3024
:10DCA000D21A90F8B1048018B1F99C10401A73E0B0
:10DCB000B1F93C211000B1F910303BB1DFF8BC03E1
:10DCC00090F8B4048018B1F94C30C01AB1F9603042
:10DCD000002B61D0DFF8A40390F8B5048018B1F9E7
:10DCE0009C10E3E7DFF8940300F598621278002AAD
:10DCF000DED1B1F93C2100F596631B789A18B1F991
:10DD00004C30D21A90F8B104101AB1F99C100818CE
:10DD100042E0DA48B1F93C1190F8BA2490F8BB041B
:10DD20001040142200FB021036E02048204A1288DE
:10DD3000125C90F82B01101AB1F93C11E7E71B486F
:10DD40001B4A1288121892F82C2190F85702101AC8
:10DD5000B1F93C1108181FE01448154A128812182E
:10DD600092F8582290F88303101AB1F93C11CEE7CB
:10DD70000E480F4A1288121892F8842390F8AF04C4
:10DD8000101AB1F93C11E5E7B1F93C01BB4991F832
:10DD9000BB14142201FB0200C82801DBC72002E0EB
:10DDA0000228B8BF0120C0B2704700BF6C660020D7
:10DDB00078760020F0B581B0AD4DB5F9A00104280A
:10DDC0005BD8DFE800F0032946545400B5F940025F
:10DDD000B5F9541201EBC001202003F0AFFE022080
:10DDE00003F0B0FE48B1FFF73FFCB5F9B401A1491B
:10DDF00031F81000A04908603FE09F480068002803
:10DE00003BD19E4CB4F8D60440F6FF718842EAD369
:10DE10000020A4F8D604E6E7B5F94002B5F954129B
:10DE200001EBC001202003F089FE022003F08AFEEE
:10DE30000028D8D1904C2068F8B94FF496618F48EB
:10DE400004F042FAB5F9B4018A4931F810002060B3
:10DE500013E0B5F94002B5F9541201EBC0012020DE
:10DE600003F06CFE022003F06DFE30B103E02021D0
:10DE7000202003F063FEFFF7F7FBFEF75BFFB5F929
:10DE80005001002850D1032003F05CFE00284BD045
:10DE90000121062003F052FEB5F9B401754931F8AD
:10DEA000100075490860754C0020A4F8D604B5F937
:10DEB000A00102280BD10120A5F8500105F5A97099
:10DEC000007840F0020005F5A97108702CE00428E4
:10DED0002AD14B20B5F93C11B5F9EC20B5F99C30AD
:10DEE000B5F94CC004F801CB04F8013B04F8012B50
:10DEF00004F8011B04F801CB04F8013B04F8012BE2
:10DF000004F8011B04F801CB04F8013B04F8012BD1
:10DF100004F8011B04F801CB04F8013B04F8012BC1
:10DF200004F8011B401EDDD1B5F93800534C01192E
:10DF300001F59F6191F9001004EB400000F5A2602B
:10DF4000008804F59C621268920A504301EB10307D
:10DF5000B5F84C10401AA4F8C204B5F988000119AC
:10DF600091F9041504EB4000B0F82405D4F8E4243A
:10DF7000920A504301EB1030B5F89C10401AA4F8F7
:10DF8000CC0404F59D600068000B03F073FAB5F94A
:10DF900038100A1902F59F6292F9002004EB410142
:10DFA00001F5A2610988484302EB9020A4F8CA0455
:10DFB000D4F8EC04000B03F05DFAB5F9882004EB0B
:10DFC0004201B1F82415121992F90425484302EBD5
:10DFD0009020A4F8D404B5F9380004EB400303F50D
:10DFE000A2631B8894F8BCC403FB0CF6001900F56F
:10DFF0009F6090F900C0B5F94CE0701206EB9050AC
:10E000000CEBA020A0EB0E00A4F8C60494F8BD64AD
:10E010004E43B5F99C50771206EB975602EBA626B5
:10E02000761B04F59A673E8094F8BE747B435F12BA
:10E0300003EB97530CEBA323A3EB0E0304F5996CAE
:10E04000ACF8003094F8BFC401FB0CF14FEA612C2E
:10E0500001EB9C5102EBA121491BA4F8D214C01A78
:10E06000A4F8C404701AA4F8CE0401B0F0BD0000F6
:10E070001C6B0020A81F010814640020A071002060
:10E080002DE9F04F89B0DFF8BC4B06A80ECC0EC0CE
:10E090000C3CDFF8B40B00210170142003F04EFD9E
:10E0A000DFF8A80BB0F99403401C0A214143022079
:10E0B00003F044FD002003F025FD02F0F7F8059081
:10E0C0002021202003F03AFD0121242003F036FD19
:10E0D000DFF8780B0021A0F85011B0F9E403401EDE
:10E0E00005214143032003F029FDDFF8640B4FF4C1
:10E0F000FA710180DFF85C0B002101700D460E46BD
:10E10000DFF8440B0170DFF8507B3868B0F90C1170
:10E11000072003F013FD386800F587700188082098
:10E1200003F00CFD2946092003F008FD19212846BB
:10E1300003F004FD29460B2003F000FD1921012006
:10E1400003F0FCFC2F4640F28F1A4FF6FF79A846E9
:10E15000B9B2404603F0D2FC484603F0D1FC08F1C6
:10E1600001081FFA88F8D045F2D31437B8B2DC287A
:10E17000EDD30027EF21380003F0C0FC484603F040
:10E18000BFFC7F1CBFB25745F4D30021084603F003
:10E19000B5FCEF27484603F0B3FC7F1EFAD11421EB
:10E1A0002C2003F0ABFCB527484603F0A9FC7F1EEA
:10E1B000FAD11421582003F0A1FCB527484603F0FA
:10E1C0009FFC7F1EFAD11421842003F097FCB52711
:10E1D000484603F095FC7F1EFAD11421C82003F0B5
:10E1E0008DFCB527484603F08BFC7F1EFAD1142125
:10E1F000F42003F083FCB527484603F081FC7F1E22
:10E20000FAD114214FF4907003F078FCB5274846FA
:10E2100003F076FC7F1EFAD114214FF4A67003F0B0
:10E220006DFCB527484603F06BFC7F1EFAD1002138
:10E230004FF4C77003F062FCEF27484603F060FC20
:10E240007F1EFAD104F10C0001B500230522B9218B
:10E250000620FDF7B1FF02B004F1140001B52B4612
:10E260000522B9213120FDF7A7FF02B004F11C00FF
:10E2700001B52B460522B9215D20FDF79DFF02B0B7
:10E2800004F1240001B52B460522B9218D20FDF7AC
:10E2900093FF02B040F2051B04F12C0001B52B46A0
:10E2A0005A46B921CE20FDF787FF02B004F11400D1
:10E2B00001B52B465A46B921F920FDF77DFF02B082
:10E2C00004F11C0001B52B465A46B92140F2251035
:10E2D000FDF772FF02B004F1240001B52B465A4647
:10E2E000B9214FF4AB70FDF767FF02B02F46DFF89E
:10E2F0006CA94FF01408DFF8680900688088401C9A
:10E30000012829DB07FB08F00390C0F1A600ADF857
:10E3100010000398DAF80010401801B50023052218
:10E32000BDF818100620FDF747FF02B00398DAF891
:10E330000010401801B52B465A46BDF81810CE20E3
:10E34000FDF73AFF02B07F1CBFB2DFF81409006886
:10E350008088401C8742D5DBDFF8F808007803216D
:10E3600090FBF1F1032201FB12001E2100FB014092
:10E3700000F5037001B5002340F2054206210A2092
:10E38000FDF71AFF02B0059880B2002846D004F1CC
:10E39000340001B5002340F20542D8212020FDF7CA
:10E3A0000BFF02B0DFF8A408B0F9E403401E05211A
:10E3B0004143032003F0C2FBDFF894084FF4FA71E5
:10E3C00001804FF4FA6002F03FFFFEF789FF09B0C9
:10E3D000BDE8F08FDFF87C080078032190FBF1F1B5
:10E3E000032201FB12001E2100FB014000F5037017
:10E3F00001B5DFF87008037840F2054206210A20D3
:10E40000FDF7DAFE02B004F5B47001B5002340F266
:10E410000562D8212020FDF7CFFE02B0DFF8488842
:10E42000B8F8000040B90021022003F087FB012169
:10E43000142003F083FBCAE7DFF8300800210180D5
:10E44000FFF712F9B0B2012801D0042828D1AFB2E9
:10E45000DFF81C0830F817000A214843DFF81418C9
:10E460000968890A4843000BDFF80C1879560A221C
:10E4700001FB0200A0F2D660DFF8001831F8171097
:10E480005143DFF8FC271268920A5143090BDFF869
:10E49000F427BA560A2302FB0311A1F2D66122E047
:10E4A000AFB2DFF8CC0730F81700DFF8C8170968FB
:10E4B00001F50071890A4843DFF8BC17795601EB72
:10E4C00010301938DFF8B41731F81710DFF8B0271B
:10E4D000126802F50072920A5143DFF8A827BA5673
:10E4E00002EB11311939DFF8A0271180DFF89CA762
:10E4F000AAF80000032003F025FB18B10121062033
:10E5000003F01CFBDFF840070078002800F0FB81D7
:10E510004FF41670A8F80000DFF844070068808800
:10E52000401C874280F2BA80B0B290B9BAF90010AC
:10E5300000A802F091FE0DF1020001B500230522B2
:10E54000A620142107FB110189B22D20FDF734FE0E
:10E5500002B0B0B2012812D1BAF9001000A802F03E
:10E560007BFE0DF1020001B500230522A620142137
:10E5700007FB110189B25920FDF71EFE02B0B0B2AF
:10E5800002282AD14FF0140807FB08F8BAF9000056
:10E59000DFF8C816096841440969414300A802F040
:10E5A0005BFEC8F1A6080DF1020001B500230522AB
:10E5B0001FFA88F18620FDF7FFFD02B09DF80000EC
:10E5C000032106AA00FB012001B5002305221FFA42
:10E5D00088F1AE20FDF7F0FD02B0B0B2032814D1EF
:10E5E000DFF8A406B0F9001000A802F035FE0DF126
:10E5F000020001B500235A46A620142107FB110191
:10E6000089B2F520FDF7D8FD02B0B0B2042815D1CB
:10E61000DFF87406B0F9001000A802F01DFE0DF13D
:10E62000020001B500235A46A620142107FB110160
:10E6300089B240F22110FDF7BFFD02B0B0B205284B
:10E6400043D14FF0140807FB08F8DFF83C06B0F997
:10E650000000DFF80816096841440969414300A831
:10E6600002F0FAFDC8F1A6080DF1020001B5002381
:10E670005A461FFA88F14FF4A770FDF79DFD02B0CE
:10E680009DF80000032106AA00FB012001B500232C
:10E690005A461FFA88F14FF4BB7013E0DFF8B40557
:10E6A0000078032190FBF1F1032201FB12001E21EF
:10E6B00000FB014000F5037001B5002340F2054264
:10E6C00006210A20FDF778FD02B0DFF87C0500780E
:10E6D000801E082800F2DA80DFE800F005D8D8565E
:10E6E00097D84C453D00DFF86C050078012811D122
:10E6F000002001F0A7FE04F1600001B5002340F204
:10E700000542D8212020FDF757FD02B04FF47A7062
:10E7100002F09AFDDFF83C05007802287FF455AE40
:10E72000DFF86C554FF48071280003F0C9FD00211B
:10E73000280003F00DFA04F18C0001B5002340F22B
:10E740000542D8212020FDF737FD02B04FF47A7042
:10E7500002F07AFD39E6B0B2052802D2761CB6B2D4
:10E7600094E0002692E0A8B2002800F08F804D448B
:10E77000ADB28BE0DFF8E80400688088A9B2884277
:10E78000C0F084806D1CF3E7B0B220B9DFF8E80474
:10E79000395C491E3954B0B2012806D1DFF8D004E3
:10E7A00030F81710494420F81710B0B2022804D1ED
:10E7B000DFF8E004018849440180B0B2032804D1A5
:10E7C000DFF8C004395C491E3954B0B2042806D1C0
:10E7D000DFF8A80430F81710494420F81710B0B239
:10E7E000052804D1DFF8B004018849440180DFF82E
:10E7F000701409688988A8B2884247D3DFF85404A6
:10E800000078401EDFF84C143FE0B0B220B9DFF8CA
:10E810006804395C491C3954B0B2012806D1DFF8CC
:10E82000500430F81710491C20F81710B0B2022815
:10E8300004D1DFF860040188491C0180B0B20328CC
:10E8400004D1DFF84004395C491C3954B0B20428C3
:10E8500006D1DFF8280430F81710491C20F81710EB
:10E86000B0B2032804D1DFF830040188491C0180CC
:10E87000DFF8EC1309688988A8B2884206D3DFF86C
:10E88000D4030078401CDFF8CC130870DFF8B8031D
:10E8900000210170B0B2012801D0042813D1AF27A4
:10E8A000DFF8F00300887843C11100EB116001121A
:10E8B000002003F043F9DFF8E00300887843C1113A
:10E8C00000EB116012E01927DFF8C80300887843D5
:10E8D000C11100EB11600112002003F02FF9DFF8E5
:10E8E000B80300887843C11100EB116001120120C8
:10E8F00003F024F9AFB239000A2003F01FF9390000
:10E900000C2003F01BF9DFF89403017800293FF491
:10E9100085AD00210170AFB2D14800688088401CED
:10E920008742BFF657ADB0B298B9BAF9001000A847
:10E9300002F092FC0DF1020001B5CA4803780522ED
:10E94000A620142107FB110189B22D20FDF734FC0C
:10E9500002B0B0B2012813D1BAF9001000A802F039
:10E960007BFC0DF1020001B5BE4803780522A6200C
:10E97000142107FB110189B25920FDF71DFC02B0DB
:10E98000B0B202282DD14FF0140807FB08F8BAF9ED
:10E990000000B249096841440969414300A802F0F6
:10E9A0005BFCC8F1A60ADFF8BC820DF1020001B5DC
:10E9B00098F8003005221FFA8AF18620FDF7FCFB4B
:10E9C00002B09DF80000032106AA00FB012001B55A
:10E9D00098F8003005221FFA8AF1AE20FDF7ECFB13
:10E9E00002B0B0B2032814D1A748B0F9001000A8B3
:10E9F00002F032FC0DF1020001B59A4803785A4644
:10EA0000A620142107FB110189B2F520FDF7D4FBE4
:10EA100002B0B0B2042815D19B48B0F9001000A88C
:10EA200002F01AFC0DF1020001B58E4803785A4637
:10EA3000A620142107FB110189B240F22110FDF735
:10EA4000BBFB02B0B0B2052830D14FF0140807FB71
:10EA500008F88D48B0F90000804909684144096907
:10EA6000414300A802F0F8FBC8F1A60ADFF8F481E0
:10EA70000DF1020001B598F800305A461FFA8AF1EC
:10EA80004FF4A770FDF798FB02B09DF8000003213A
:10EA900006AA00FB012001B598F800305A461FFA7B
:10EAA0008AF14FF4BB70FDF787FB02B0B0B20228C9
:10EAB00002D0052840F09A804FF0140807FB08F8B0
:10EAC000DFF898A104F1F801DAF80000404403F0FF
:10EAD00007FA08B9002750E004F1F001DAF8000065
:10EAE000404403F0FDF908B9012746E004F1E801CC
:10EAF000DAF80000404403F0F3F908B902273CE0DB
:10EB000004F1E001DAF80000404403F0E9F908B943
:10EB1000032732E004F1D801DAF80000404403F0A2
:10EB2000DFF908B9042728E004F1D001DAF8000081
:10EB3000404403F0D5F908B905271EE004F1C801E7
:10EB4000DAF80000404403F0CBF908B9062714E0D6
:10EB500004F1C001DAF80000404403F0C1F908B93B
:10EB600007270AE004F1B801DAF80000404403F096
:10EB7000B7F908B9082700E0092740F2056804F54D
:10EB8000807001B500234246D8212020FDF714FBF8
:10EB900002B00C2007FB004000F5CA7001B500234D
:10EBA00040F20542D8215820FDF706FB02B004F5DB
:10EBB000847001B500234246D821A820FDF7FCFA55
:10EBC00002B0B0B2032808D204F5907001B500235A
:10EBD0000522D8214FF4A4701DE404F5947001B50A
:10EBE00000235A46D8214FF4A47014E440F205687B
:10EBF00004F5987001B500234246D8212020FDF786
:10EC0000DBFA02B004F5A27001B500234246D82118
:10EC1000E820FDF7D1FA02B0B0B2032808D204F51B
:10EC2000AC7001B500235A46D821B820FFF7F3BBDA
:10EC300004F5B07001B500230522D821B820FFF7F4
:10EC4000EABB00BF54150108076400201C6B0020BC
:10EC50000E640020266400209076002018640020B6
:10EC6000947600200A64002012640020767600204A
:10EC7000B07600208076002098760020C4760020B0
:10EC800084760020A47600206C7600206276002036
:10EC9000286400207A7600207C7600200B64002017
:10ECA0002DE9F041DFF80C4904F214450926DFF89C
:10ECB0008C800527E87910F0020F10D00020E87151
:10ECC000687855F8041C00FB071001B5002328786C
:10ECD00038F81020A9796888FDF76EFA02B00C3573
:10ECE000761EE7D104F5916000780D2823D316280D
:10ECF00021D2DFF8A4170A78EAB10D38C0B2002299
:10ED00000A700C2100FB014090F8151400F5826395
:10ED10001B6801FB073102B5DFF878170B7890F814
:10ED20001414064A32F8112090F81A14B0F8160498
:10ED3000FDF742FA02B0BDE8F08100BF5C22010895
:10ED400070B5DFF870580C2100FB015696F81504D9
:10ED5000062835D8DFE810F0070035005C00B30066
:10ED6000ED0028016301062002F0ECFE4FF47A71F9
:10ED7000414305F28C4002F06FFA40F6052405F29B
:10ED80008E4001B50023220096F81A1406F5836020
:10ED90000088FDF711FA02B095F88C04032100FBFE
:10EDA000015000F5956001B50023220096F81A1471
:10EDB00006F583600088283080B2FDF7FDF902B0C7
:10EDC00070BDB5F88A14C9B205F27C4002F03CFB74
:10EDD000B04C05F27C4001B5002396F8140434F8D9
:10EDE000102096F81A1406F583600088FDF7E4F900
:10EDF00002B004F10C0001B5002396F8140434F8B5
:10EE0000102096F81A1406F5836000881030D3E7B6
:10EE100096F8140480B9A048B0F90000B5F938108C
:10EE20001422DFF820371B6801FB023109694143D6
:10EE300005F28C4002F010FA96F81404012810D163
:10EE40009648B0F90000B5F988101422DFF8F436BE
:10EE50001B6801FB02310969414305F28C4002F055
:10EE6000FBF996F81404022804D1002105F28C4025
:10EE700002F0F2F9874C05F28E4001B5002396F8B6
:10EE8000140434F8102096F81A1406F583600088EC
:10EE9000FDF792F902B095F88C04032100FB0150B4
:10EEA00000F5956001B5002396F8140434F810209D
:10EEB00096F81A1406F58360008828307CE796F8E7
:10EEC000140480B97648B0F90000B5F9381014225E
:10EED000DFF870361B6801FB02310969414305F216
:10EEE0008C4002F0B9F996F81404012810D16D484D
:10EEF000B0F90000B5F988101422DFF848361B6815
:10EF000001FB02310969414305F28C4002F0A4F98A
:10EF100096F81404022804D1002105F28C4002F076
:10EF20009BF996F814040328A4D1002105F28C4023
:10EF30009EE796F8140480B95B48B0F90000B5F973
:10EF400038101422DFF8FC351B6801FB0231096917
:10EF5000414305F28C4002F07FF996F81404012831
:10EF600010D15248B0F90000B5F988101422DFF82A
:10EF7000D4351B6801FB02310969414305F28C401D
:10EF800002F06AF996F81404022804D1002105F26F
:10EF90008C4002F061F996F8140403287FF46AAFFC
:10EFA000002105F28C4063E796F8140480B94048CC
:10EFB000B0F90000B5F938101422DFF888351B6865
:10EFC00001FB02310969414305F28C4002F044F92A
:10EFD00096F81404012810D13648B0F90000B5F9AC
:10EFE00088101422DFF85C351B6801FB02310969C7
:10EFF000414305F28C4002F02FF996F814040228E0
:10F0000004D1002105F28C4002F026F996F8140490
:10F0100003287FF42FAF002105F28C4028E796F8F3
:10F02000140480B92448B0F90000B5F9381014224E
:10F03000DFF810351B6801FB02310969414305F215
:10F040008C4002F009F996F81404012810D11B48ED
:10F05000B0F90000B5F988101422DFF8E8341B6815
:10F0600001FB02310969414305F28C4002F0F4F8DA
:10F0700096F81404022804D1002105F28C4002F015
:10F08000EBF896F8140403287FF4F4AE002105F29F
:10F090008C40EDE680210108647600206E76002029
:10F0A000627600206C7600206A760020747600205C
:10F0B0006676002070760020687600207276002048
:10F0C0002DE9F04F81B04FF00008DFF8E84404F577
:10F0D0009360009004F11005DFF8B8B34FF00A0A0E
:10F0E0004FF00009AE1F307A10F0020F00F03181AE
:10F0F000002030725FFA88F0042801D0072825D15B
:10F10000307810F0200F0CD056F80A0C01B500230F
:10F11000E85EA6F10A01496831F81020317970885B
:10F120009DE110F0800F40F09D81B6F9060056F881
:10F130000A1C00FB0A1001B50023E85EA6F10A01D3
:10F14000496831F810203179708888E1307810F002
:10F15000200F0AD056F80A0C01B50023A6F10A00C8
:10F16000406802883179708879E110F0020F00F070
:10F1700088805FFA88F008283CD1B4F99002B4F98D
:10F18000A412401AB4F9B812502201FB0241B1F99D
:10F1900038101422DFF8AC331B6801FB0231096917
:10F1A000414304F28C4002F057F8A6F10A0704F23A
:10F1B0008E4001B50023B4F9B802796831F8102007
:10F1C00031797088FCF7F8FF02B094F88C040321C1
:10F1D00000FB014000F5956001B50023B4F9B802C9
:10F1E000796831F8102031797088283080B2FCF7C6
:10F1F000E3FF02B05FFA88F00A2830D1B4F9440383
:10F20000B4F93013401AB4F9B4111422CE4B1B6870
:10F2100001FB02310969414304F28C4002F01CF801
:10F22000A6F10A0704F28E4001B50023786802882F
:10F2300031797088FCF7C0FF02B094F88C04032188
:10F2400000FB014000F2B44001B500237868028859
:10F2500031797088283080B2FCF7AEFF02B05FFAD7
:10F2600088F0092840F0FE80A98AC9B2686802F0D7
:10F27000D1F8686801B50023A8680288A97C288AAB
:10F28000EDE001283AD1202084F87C04B6F906008C
:10F290005FFA88F10B2911D1092808D1312084F8AF
:10F2A0007C04302084F87D0484F87E040FE0401C48
:10F2B0000A214143C9B204F27D4006E00A28EDD09C
:10F2C0000A214143C9B204F27D4002F0BDF8A6F123
:10F2D0000A0704F27C4001B500237868028831797E
:10F2E0007088FCF769FF02B069A001B50023786857
:10F2F000028831797088183080B2B0E0802822D03E
:10F30000A6F10A075FFA88F008280FD1B6F90600BF
:10F3100056F80A1C00FB0A1001B50023B4F9B80224
:10F32000796831F810203179708898E0B6F90600D4
:10F3300056F80A1C00FB0A1001B500237868028801
:10F34000317970888BE05FFA88F00A2840F08A8073
:10F3500000E704F5916000785FFA88F1884240F098
:10F360008180009800785FFA89F188427AD14A4812
:10F370000078002876D04848002101705FFA88F0B4
:10F38000042801D0072822D1A6F10A07307810F00E
:10F39000200F0BD056F80A0C01B59BF80030685EC0
:10F3A000796831F810203179708858E0B6F9060094
:10F3B00056F80A1C00FB0A1001B59BF80030B5F99D
:10F3C0000000796831F810203179708847E0A6F1A3
:10F3D0000A07307810F0200F09D056F80A0C01B552
:10F3E0009BF80030786802883179708837E05FFADE
:10F3F00088F008280ED1B6F9060056F80A1C00FB62
:10F400000A1001B59BF80030B4F9B802796831F8F8
:10F4100010200AE0B6F9060056F80A1C00FB0A1094
:10F4200001B59BF800307868028831797088FCF764
:10F43000C3FE02B05FFA88F0092813D1307810F0CB
:10F44000020F0FD0A98AC9B2686801F0E3FF6868AB
:10F4500001B59BF80030A8680288A97C288AFCF7CF
:10F46000ABFE02B009F1010914365FFA89F00428F5
:10F47000FFF439AE08F1010850350098401C0090A7
:10F480005FFA88F00D28FFF42BAE01B0BDE8F08FD5
:10F49000250000000A6400200B6400202DE9F043E1
:10F4A00081B00026434C04F59867B046DFF894908D
:10F4B000234D28688088401C012810DBD9F8000003
:10F4C00008EB0001380002F02FFD761CB6B208F1FF
:10F4D00014080A3728688088401C8642EEDB2868BA
:10F4E000B0F904102186B0F90410A4F880100021AE
:10F4F000A4F8D010A4F82011002604F5AB678846C4
:10F50000DFF84490C088401C012810DBD9F80000C7
:10F5100008EB0001380002F007FD761CB6B208F1D6
:10F5200014080A372868C088401C8642EEDB286829
:10F53000B0F90600A4F8AC0101B0BDE8F08300BF4B
:10F5400094760020186400209076002000B581B0E9
:10F55000062002F0F7FA80B2002140F6B933984253
:10F5600028BF012140F6AD53984201D3491C89B20E
:10F5700040F63D73984201D3491C89B241F205021D
:10F58000904201D3491C89B20A480A22D0F854316A
:10F5900001FB023204B50023D0F8582132F81120C3
:10F5A00000F5B1710978B0F86001FCF705FE02B012
:10F5B00001B000BD1C6B00202DE9F04F81B04FF46D
:10F5C00040414FF0006002F021FE02F0C7FA0B202C
:10F5D00002F0B8FA58B9DFF8200801B5002340F26C
:10F5E000FF721E21302002F0A7FA02B0FEE7DFF81A
:10F5F0000C0801B500234FF6FF723221302002F0D3
:10F600009BFA02B0072002F09DFADFF8F4170860B9
:10F61000082002F097FADFF8EC170860092002F0E2
:10F6200091FADFF8E41708600A2002F08BFADFF89D
:10F63000DC170860FFF732FF00F038FEDFF8D00774
:10F640004FF4FA7101804FF4FA6001F0FDFDFDF70F
:10F6500047FEDFF8C097002089F800004FF0140B38
:10F66000DFF8B4574FF05008DFF8B067DFF8B07735
:10F6700011E000224A70042200F8982C49780229EF
:10F6800002D1002100F8981C002089F80000DFF862
:10F69000940701210170DFF89007008840B900212C
:10F6A000022002F04BFA0121142002F047FA58E040
:10F6B000FEF780FB0AF1010A1FFA8AFA0098DFF8C8
:10F6C0006C17098880B2884212D0DFF86007008882
:10F6D0000090DFF85C07A0F800A04FF0000AFFF7E9
:10F6E00035FF0024E0B2FFF72BFB641C092CF9D393
:10F6F000FFF7D6FAFFF7E4FCDFF82807007860B3DD
:10F70000FDF74CFEFDF7B8FEFDF7E8FEFDF758FFEC
:10F71000FDF7F0FBB7F99403401C0A214143022096
:10F7200002F00CFA3078092818BFFDF727FD97F88A
:10F73000BA0240F0020087F8BA0297F8CE0240F011
:10F74000020087F8CE0297F86E0340F0020087F8B7
:10F750006E03DFF8D00600210170DFF8D806002123
:10F76000017099F80000002895D0DFF8BC060088E9
:10F7700008B9FDF7B5FDDFF8B0064FF4167101804A
:10F7800099F8000001281DD1B7F85001C0F101001F
:10F79000A7F8500107F5A970007840F0020007F5BE
:10F7A000A9710870B7F9A00102280BD14FF4966136
:10F7B000DFF8840602F084FD4FF4966401210620F0
:10F7C00002F0BCF999F8000002282CD13078022808
:10F7D00029D24FF4FA7001F037FD042002F0B2F99B
:10F7E00010F4005F1FD14FF4FA7001F02DFD0420DA
:10F7F00002F0A8F910F4005F15D14FF4FA7001F08F
:10F8000023FD042002F09EF910F4005F0BD14FF4A9
:10F81000FA7001F019FD042002F094F910F4005F71
:10F8200008BFFEF72DFC99F80000032814D1002032
:10F8300000F008FE307809280ED0DFF8000601B588
:10F84000002340F2054200215B20FCF7B5FC02B02A
:10F850004FF4FA7001F0F8FC99F80000042849D13F
:10F860003078092846D1DFF8D80501B5002340F2E9
:10F870000A520021E620FCF79FFC02B0307800FB22
:10F880000870B0F9101071B9B0F9381021B9808C36
:10F89000C0B200F013FC0CE001290BD1808CC0B287
:10F8A00000F09AFB05E0012904D1808CC0B200F081
:10F8B000D3FB040034B1DFF88C0501B5002340F21E
:10F8C0000A5205E0DFF8800501B5002340F20A5234
:10F8D0000021E620FCF770FC02B04FF4FA7001F052
:10F8E000B3FC307800FB087090F83A1041F0020148
:10F8F00080F83A1099F80000092857D130780100B3
:10F900000D2836D24A5D01FB087102FB0B118A7C7F
:10F9100042F002028A7408B90C2104E0411EC9B207
:10F92000042908BF03213170485D032801D300205A
:10F93000485501FB0870495D01FB0B018A7C42F0D0
:10F9400001028A74817C41F00201817490F82610D2
:10F9500041F0020180F8261090F83A1041F00201BF
:10F9600080F83A1090F84E1041F0020180F84E10E5
:10F970001CE00C22DFF8D43401FB023111F8912C89
:10F9800042F0020201F8912C0D2801D1152000E06F
:10F99000401E3070C0B20C21DFF8B02400FB012003
:10F9A00010F8911C41F0010100F8911C99F8000039
:10F9B0000A2806D130780D2801D20D2000E0002061
:10F9C000307099F80000082858D1307801000D28CF
:10F9D00037D24A5D01FB087102FB0B118A7C42F0B1
:10F9E00002028A740C2801D1002104E0411CC9B232
:10F9F000042908BF05213170485D032801D3002088
:10FA0000485501FB0870495D01FB0B018A7C42F0FF
:10FA100001028A74817C41F00201817490F8261001
:10FA200041F0020180F8261090F83A1041F00201EE
:10FA300080F83A1090F84E1041F0020180F84E1014
:10FA40001CE00C22DFF8043401FB023111F8912C88
:10FA500042F0020201F8912C152801D10D2000E09E
:10FA6000401C307030780C21DFF8E02300FB0120CF
:10FA700010F8911C41F0010100F8911C99F8000068
:10FA8000052840F0AB8030780D2880F08C80072866
:10FA900010D1E979022935D1B7F94012DFF8B02346
:10FAA00032F92120122A65DBDFF8A433521E23F835
:10FAB00021205FE00B2801D00C2808D100FB087141
:10FAC000B1F92420012A31DB521E8A842EE0052858
:10FAD00018D16979022915D1B7F9C8111F2903DB9B
:10FAE0001E39A7F8C81104E0012902DB491EA7F856
:10FAF000C81107F5EF71097841F0020107F5EF72BF
:10FB0000117037E010F805C000FB08710CFB0B12F8
:10FB1000B2F91010012903DB118A491E118205E098
:10FB2000917A11F0100F1CBF1189118205280BD199
:10FB30006979F9B9A7F8501107F5A971097841F069
:10FB4000020107F5A972DBE706280BD1B7F9F0111E
:10FB500003290FD0B7F904120B290BDB0A21A7F8F0
:10FB6000041207E0092805D1B7F9E012012908BFFE
:10FB7000A7F8081300FB0871887C40F00200887425
:10FB800091F8260040F0020081F8260091F83A0032
:10FB900040F0020081F83A0091F84E0040F0020077
:10FBA00081F84E001AE003000C20A84903FB001066
:10FBB000A0F19801CA7942F00202CA714A783AB3B8
:10FBC000521E4A70D2B2012A02D1042200F8982CA7
:10FBD0004978062902D1002100F8981C99F8000004
:10FBE000072857D1307803000D283BD213F805C001
:10FBF00003FB08710CFB0B1292F812E04EF0020EA0
:10FC000082F812E0BCF1030F05D20CF1010203E00F
:10FC100006224A70DFE700225A555A5D02FB0B129A
:10FC2000927A12F0800F01D000225A555A5D02FBE1
:10FC30000B12927A12F0010F01D000225A555A5D30
:10FC400002FB0B12927A12F0020F03D0092801D0A6
:10FC500000205855585D00FB0B10817C41F00101DC
:10FC6000817417E00C20794903FB0010A0F1980182
:10FC7000CA7942F00202CA7110F8981C032902D214
:10FC8000491C00F8981C10F8981C032902D1002187
:10FC900000F8981C99F8000006287FF4F5AC30783D
:10FCA0000D2880F0928007280ED1E97902293BD1F6
:10FCB000B7F94012664A32F92120D12A6CDA644B36
:10FCC000521C23F8212067E00B2801D00C280BD10F
:10FCD00000FB0871B1F92420B1F91C309A4237DADF
:10FCE0008A8C521C8A8433E005281DD16979022947
:10FCF0001AD1B7F9C011B7F9C821A1F11E039A4270
:10FD000004DA02F11E01A7F8C81104E08A4202DAFF
:10FD1000511CA7F8C81107F5EF71097841F00201ED
:10FD200007F5EF72117037E000FB0871425D02FBCE
:10FD30000B11B1F91020B1F908309A4202DA0A8A9F
:10FD4000521C04E08A7A12F0100F01D000220A82BD
:10FD500005280BD16979F9B9A7F8501107F5A971F0
:10FD6000097841F0020107F5A972DBE706280BD1FB
:10FD7000B7F9F01103290FD0B7F904120B290BDBE7
:10FD80000A21A7F8041207E0092805D1B7F9E01203
:10FD9000012908BFA7F8081300FB0871887C40F010
:10FDA0000200887491F8260040F0020081F82600D5
:10FDB00091F83A0040F0020081F83A0091F84E00C4
:10FDC00040F0020081F84E005EE403000C201F4961
:10FDD00003FB0010A0F19801CA7942F00202CA7137
:10FDE0004A78062ABFF445AC521C4A70D2B2002AA7
:10FDF0007FF444AC3FE400BF681A0108901A010880
:10FE00001864002090760020947600201C64002066
:10FE10000E64002007640020B46F0020A46F00204F
:10FE20001C6B00204C7D0020126400201064002018
:10FE3000A66F00200B640020A0710020B81A0108F2
:10FE4000D81A0108E01A0108E81A01082C6F0020EE
:10FE5000B87A00202DE9F04184B005000C0001A81B
:10FE60005C490C2201F0FEFE290000A801F0D2FA44
:10FE70009DF800008DF8080001A800A94A78427199
:10FE800089788DF80A102178017261784172A07822
:10FE90008DF80E00DFF860470020C4F80C02202027
:10FEA000A4F808024FF480720021200001F04EFEF9
:10FEB000207BE17A01EB0020A4F80202607BA4F829
:10FEC0000602E07BA17B01EB0020A4F80002E07DAC
:10FED000A17D01EB0020A4F80402E07FA17F0904CA
:10FEE00001EB0060617F00EB0120217F0818C4F85E
:10FEF0001002D4F80C02B4F800120818B4F8041276
:10FF000000EB4100B4F802124143C4F814124FF45C
:10FF10000072200001F01AFE0025002608E0401CB7
:10FF20002031C2B2102A11D36D1CADB206F5007695
:10FF3000B4F808128D4248D24FF40072D4F814027B
:10FF40003118200001F002FE002021000A78E52A85
:10FF500001D1FF2200E000220B000DF1040C4FF054
:10FF60000B0E1F789CF80080474518BFFF220CF14C
:10FF7000010C5B1CBEF1010EF3D1002ACFD1C0B23F
:10FF800004EB4010C17E827E02EB0121C4F81812FE
:10FF9000D4F81412B4F80822D4F818329B1EB4F81E
:10FFA00006C203FB0C2201EB4221C4F81C12017FA4
:10FFB000427F01EB0221827F01EB0241C07F01EB16
:10FFC0000060C4F82002002000E0FF2004B0BDE87B
:10FFD000F08100BF442201082DE9F0411BA1FFF789
:10FFE00039FF01002FD11A4C1A4D00260427DFF8E3
:10FFF0000886207888F8000008F10100211D95226C
:020000040801F1
:1000000011F8043B00F8013B11F8043B00F8013BF8
:10001000521EF5D135F8500B88F82B01D8F81C0288
:100020003118404601F090FDD8F81C02801900F507
:10003000807108F5807001F087FD06F50076641C7C
:100040007F1ED6D10020BDE8F08100BF444154009E
:10005000A0710020686B002010B517A1FFF7FAFE11
:10006000010028D1DFF890454FF49672D4F81C12A5
:1000700004F5117001F06AFD4FF49672D4F81C0279
:1000800000F5007104F55C7001F060FD4FF49672AC
:10009000D4F81C0200F5806104F29C4001F056FD8A
:1000A0004FF49672D4F81C0200F5C06104F5B960F3
:1000B00001F04CFD002010BD444154002DE9F04FEB
:1000C00081B046A1FFF7C6FE010040F08480DFF852
:1000D00028B54FF48072DBF81C12584601F036FD4B
:1000E0000BF509700BF136010822038803F47843FD
:1000F0001B0A01F8013B038803F4FC63DB0801F8E9
:10010000013B30F8023B1B065B0D01F8013B00236D
:1001100001F8013B038803F478431B0A01F8013B13
:10012000038803F4FC63DB0801F8013B30F8023B71
:100130001B065B0D01F8013B002301F8013B521E39
:10014000D3D1762400251E46002704EB0B08B1B25C
:10015000B8B201F0D3FC01F0FFFC8146B1B2781CCB
:1001600080B201F0CBFC01F0F7FC8246484600F07B
:1001700037F88146504600F033F800EB091088F854
:100180000000641CE4B2200011D1DBF81C0200EB7B
:100190000521584601F0D8FCA81000F0030340F2F6
:1001A0000A520021FE20FBF7C3FF6D1CEDB2BF1CFD
:1001B00008F101084FF4C871B8B28842C7D3761C61
:1001C000B0B2F028C0D3DBF81C0200EB0521584682
:1001D00001F0BAFC002001B0BDE8F08F424D5000A4
:1001E0004FF6FF71884201D1002070474FF6E07151
:1001F00001EA00028A4201D1012070474105490D00
:1002000040F2FF72914201D1032070474FF61F0167
:1002100001EA00028A4201D10520704700F4FC6126
:10022000B1F5FC6F01D1072070474BF6E05101EAB0
:1002300000028A4201D10220704740F2F75101408A
:1002400040F2F752914201D1042070474BF617015A
:1002500001EA00028A4201D10620704700F4BC6125
:10026000B1F5BC6F01D10820704747F6EF3101EAC4
:1002700000028A4201D10920704740F21F5101401B
:1002800040F21F52914201D10A20704700F4784198
:10029000B1F5784F01D10B20704700F01F001F28E7
:1002A00001D10C2070470D207047000030B581B09F
:1002B0000025D14C0021200001F04CFC2088C0B268
:1002C000032801D00120BBE02000402110F8012BC1
:1002D0005219D2B210F8013B9A18D2B210F8013B71
:1002E0009A18D2B210F8013B9D18EDB2491EEDD11B
:1002F0000DB10220A4E02088000AC0490870C0495E
:1003000060880870000A4870201D891C022203883A
:1003100001F8013B1B0A01F8013B30F8023F01F8EC
:10032000013B03881B0A01F8013B30F8023F01F84A
:10033000013B30F8023B1B0A01F8013B521EE6D19B
:10034000B04930F9022B0A8230F9022B8A8430F945
:10035000022B0A8730F9022BA1F84C2060310622CB
:1003600030F9023B21F8143B30F9023B21F8143BF1
:1003700030F9023B21F8143B30F9023B21F8143BE1
:1003800030F9023B21F8143B30F9023B21F8143BD1
:1003900030F9023B21F8143B30F9023B21F8143BC1
:1003A000521EDDD19849032203884B701B0A0B7043
:1003B00030F8023F4B7303881B0A0B7330F8023F7F
:1003C0004B7630F8023B1B0A0B762431521EEBD1E0
:1003D0008F498E4A8F4BDFF840C24FF0050E0488DC
:1003E00001F8014B240A02F8014B30F8024F23F8C0
:1003F000024B30F8024F2CF8024B30F8024F01F854
:10040000014B30F8024B240A02F8014B30F8024B42
:1004100023F8024B30F8024B2CF8024BBEF1010ED0
:10042000DDD17E4902880A8030F8021F7C4A1180A3
:100430007C4930F9022F0A8030F9022F8A8000208F
:1004400001B030BDF0B581B00600032700246A4D2D
:100450004FF48071280001F037FF06B1FF2767488D
:10046000007807EB002028806549487811F8022BB6
:1004700002EB00206880281D02224B7891F800C012
:100480000CEB032320F8023BCB7891F802C00CEB75
:10049000032320F8023B4B7991F804C00CEB0323B3
:1004A00020F8023B891D521EE7D156490A8A20F8DE
:1004B000022B8A8C20F8022B0A8F20F8022BB1F82D
:1004C0004C2020F8022B6031062231F8143B20F832
:1004D000023B31F8143B20F8023B31F8143B20F882
:1004E000023B31F8143B20F8023B31F8143B20F872
:1004F000023B31F8143B20F8023B31F8143B20F862
:10050000023B31F8143B20F8023B521EDDD13E493C
:1005100003220B7891F801C00CEB032320F8023B77
:100520000B7B91F80DC00CEB032320F8023B0B7EF4
:1005300091F819C00CEB032320F8023B2431521E22
:10054000E7D13249324A334BDFF8CCC04FF0050EC9
:1005500011F9016B12F9017B07EB062620F8026BFB
:1005600033F8026B20F8026B3CF8026B20F8026B48
:1005700011F9016B12F9017B07EB062620F8026BDB
:1005800033F8026B20F8026B3CF8026B20F8026B28
:10059000BEF1010EDCD1214909880180204909887A
:1005A00020F8021F1F490A8820F8022F898820F8A6
:1005B000021F2800332110F8012B1219D2B210F8B3
:1005C000013B9A18D2B210F8013B9A18D2B210F837
:1005D000013B9A18D2B210F8013B9C18E4B2491EB4
:1005E000E9D1E043401C85F8FF000021280001F01C
:1005F000AFFA002001B0F0BD28640020A46F0020F5
:10060000B46F00201C6B0020306F0020A476002007
:1006100098760020B0760020C47600207A760020FC
:100620007C760020B87A0020EF7BEF7BEF7BEF7BBE
:10063000EF7BEF7BEF7BEF7BEF7BEF7BEF7BEF7B6A
:10064000EF7BEF7BEF7BEF7BEF7BEF7BEF7BEF7B5A
:10065000EF7BEF7BEF7BEF7BEF7BEF7BEF7BEF7B4A
:10066000EF7BEF7BEF7BEF7BEF7BEF7BEF7BEF7B3A
:10067000EF7BEF7BEF7BEF7BEF7BEF7BEF7BEF7B2A
:10068000EF7BEF7BEF7BEF7BEF7BEF7BEF7BEF7B1A
:10069000EF7BEF7BEF7BEF7BEF7BEF7BEF7BEF7B0A
:1006A000EF7BEF7BEF7BEF7BEF7BEF7BEF7BEF7BFA
:1006B000EF7BEF7BEF7BEF7BEF7BEF7BEF7BEF7BEA
:1006C000EF7BEF7BEF7BEF7BEF7BEF7BEF7BEF7BDA
:1006D000EF7BEF7BEF7BEF7BEF7BEF7BEF7BEF7BCA
:1006E000EF7BEF7BEF7BEF7BEF7BEF7BEF7BEF7BBA
:1006F000EF7BEF7BEF7BEF7BEF7BEF7BEF7BEF7BAA
:10070000EF7BEF7BEF7BEF7BEF7BEF7BEF7BEF7B99
:10071000EF7BEF7BEF7BEF7BEF7BEF7BEF7BEF7B89
:10072000EF7BEF7BEF7BEF7BEF7BEF7BEF7BEF7B79
:10073000EF7BEF7BEF7BEF7BEF7BEF7BEF7BEF7B69
:10074000EF7BEF7BEF7BEF7BEF7BEF7BEF7BEF7B59
:10075000EF7BEF7BEF7BEF7BEF7BEF7BEF7BEF7B49
:10076000EF7BEF7BEF7BEF7BEF7BEF7BEF7BEF7B39
:10077000EF7BEF7BEF7BEF7BEF7BEF7BEF7BEF7B29
:10078000EF7BEF7BEF7BEF7BEF7BEF7BEF7BEF7B19
:10079000EF7BEF7BEF7BEF7BEF7BEF7BEF7BEF7B09
:1007A000EF7BEF7BEF7BEF7BEF7BEF7BEF7BEF7BF9
:1007B000EF7BEF7BEF7BEF7BEF7B0000EF7B0000BD
:1007C0000000000000000000000000000000000029
:1007D0000000000000000000000000000000000019
:1007E0000000000000000000000000000000000009
:1007F00000000000000000000000000000000000F9
:1008000000000000000000000000000000000000E8
:1008100000000000000000000000000000000000D8
:1008200000000000000000000000000000000000C8
:1008300000000000000000000000000000000000B8
:1008400000000000000000000000000000000000A8
:100850000000000000000000000000000000000098
:100860000000000000000000000000000000000088
:100870000000000000000000000000000000000078
:100880000000000000000000000000000000000068
:100890000000000000000000000000000000000058
:1008A0000000000000000000000000000000000048
:1008B0000000000000000000000000000000000038
:1008C0000000000000000000000000000000000028
:1008D0000000000000000000000000000000000018
:1008E0000000000000000000000000000000000008
:1008F00000000000000000000000000000000000F8
:1009000000000000000000000000000000000000E7
:1009100000000000000000000000000000000000D7
:1009200000000000000000000000000000000000C7
:1009300000000000000000000000000000000000B7
:10094000000000000000000000000000EF7B00003D
:10095000EF7B00000000000000000000000000002D
:100960000000000000000000000000000000000087
:100970000000000000000000000000000000000077
:100980000000EF7B000000000000000000000000FD
:100990000000000000000000000000000000000057
:1009A0000000000000000000000000000000000047
:1009B00000000000EF7B00000000000000000000CD
:1009C0000000000000000000000000000000000027
:1009D0000000000000000000000000000000000017
:1009E000000000000000EF7B00000000000000009D
:1009F00000000000000000000000000000000000F7
:100A000000000000000000000000000000000000E6
:100A10000000000000000000EF7B0000000000006C
:100A200000000000000000000000000000000000C6
:100A300000000000000000000000000000000000B6
:100A400000000000000000000000EF7B000000003C
:100A50000000000000000000000000000000000096
:100A60000000000000000000000000000000000086
:100A7000000000000000000000000000EF7B00000C
:100A80000000000000000000000000000000000066
:100A90000000000000000000000000000000000056
:100AA0000000000000000000000000000000EF7BDC
:100AB0000000000000000000000000000000000036
:100AC0000000000000000000000000000000000026
:100AD0000000000000000000000000000000000016
:100AE000EF7B0000EF7B0000000000000000EF7BC8
:100AF0000000000000000000EF7B0000000000008C
:100B00000000EF7B0000000000000000EF7B000011
:100B1000000000000000EF7B00000000000000006B
:100B2000EF7B0000000000000000EF7B00000000F1
:100B300000000000EF7B0000000000000000EF7BE1
:100B40000000000000000000EF7B0000000000003B
:100B50000000EF7B0000000000000000EF7B0000C1
:100B6000000000000000EF7B00000000000000001B
:100B7000EF7B0000000000000000EF7B00000000A1
:100B800000000000EF7B0000000000000000EF7B91
:100B90000000000000000000EF7B000000000000EB
:100BA0000000EF7B0000000000000000EF7B000071
:100BB000000000000000EF7B0000000000000000CB
:100BC000EF7B0000000000000000EF7B0000000051
:100BD00000000000EF7B0000000000000000EF7B41
:100BE0000000000000000000EF7B0000000000009B
:100BF0000000EF7B0000000000000000EF7B000021
:100C0000000000000000EF7B00000000000000007A
:100C1000EF7B0000000000000000EF7B0000000000
:100C200000000000EF7B0000000000000000EF7BF0
:100C30000000000000000000EF7B0000000000004A
:100C40000000EF7B0000000000000000EF7B0000D0
:100C5000000000000000EF7B00000000000000002A
:100C6000EF7B0000000000000000EF7B00000000B0
:100C700000000000EF7B0000000000000000800783
:100C800040002000200020002000200040008007BD
:100C900000000000000000000000000000000F0045
:100CA00010002000200020000C038C01C000600018
:100CB000300018030C0300000000800160021C02D9
:100CC0006A028402400100000202020202020202E1
:100CD00002020202FE03000000000000F800FC0116
:100CE00006030202000000000000000002020603EA
:100CF000FC01F8000000000000008C01D80070002A
:100D00007000D8008C010000000020002000F800D6
:100D1000F8002000200000002000200010000F003C
:100D20000000000000000000000020002000200063
:100D3000200020002000000000000000000300034D
:100D400000000000000000008001C00060003000D2
:100D500018000C0006000000FC01FE034202220203
:100D60001202FE03FC010000000008020C02FE0358
:100D7000FE0300020002000004038603C2026202B6
:100D800032021E030C0300000401060322022202A9
:100D90002202FE03DC0100006000700058004C02DB
:100DA000FE03FE03400200001E011E021202120298
:100DB0001202F203E2010000F801FC032602220203
:100DC0002202E003C001000006000600C203E203A5
:100DD00032001E000E000000DC01FE03220222028F
:100DE0002202FE03DC0100001C003E02220222025D
:100DF0002203FE01FC00000000000000000098013A
:100E00009801000000000000FA02FA02FA02FA0259
:100E1000FA02FA02FA02FA02000020007000D8007A
:100E20008C010603020200009000900090009000E8
:100E300090009000000000000000020206038C01F8
:100E4000D80070002000000018001C0004004403BB
:100E500064033C0018000000F801040172027202F1
:100E6000F202840278000000F003F8034C00460010
:100E70004C00F803F00300000202FE03FE0322020E
:100E80002202FE03DC010000F800FC01060302025E
:100E9000020206038C0100000202FE03FE030202AE
:100EA0000603FC01F80000000202FE03FE0322021A
:100EB000720206038E0300000202FE03FE032202FA
:100EC000720006000E000000F800FC01060322027A
:100ED0002202E601EC030000FE03FE0320002000D6
:100EE0002000FE03FE030000000000000202FE03DB
:100EF000FE03020200000000C001C0030002020263
:100F0000FE03FE01020000000202FE03FE033000A9
:100F1000F800CE03060300000202FE03FE030202F5
:100F20000002000200030000FE03FE031C00380064
:100F30001C00FE03FE030000FE03FE031C0038003D
:100F40007000FE03FE030000F800FC01060302022D
:100F50000603FC01F80000000202FE03FE03220269
:100F600022003E001C000000FC01FE03020282027F
:100F70000203FE03FC0100000202FE03FE03220046
:100F80006200FE039C0300000C011E0332022202D9
:100F90006202CE038C01000000000E000602FE0378
:100FA000FE0306020E000000FE01FE030002000226
:100FB0000002FE03FE0100007E00FE00800100032F
:100FC0008001FE007E000000FE00FE038003E001C1
:100FD0008003FE03FE0000000603DE03F80020008D
:100FE000F800DE030603000000001E003E02E003DE
:100FF000E0033E021E0000008E03C60362023202BE
:101000001E038E030000000000020003C002200245
:1010100018020402FE030000000022004200FE014C
:10102000FE0340022002000020001000080006001D
:101030000800100020002000000020021002FC0325
:10104000FE03120022000000000000020002000265
:10105000000200020002000002020202020202027A
:101060000202020202020202C001E8032802280270
:10107000F801F003000200000202FE03FE0120025C
:101080002002E003C0010000E001F00310021002A2
:1010900010023003200100000000C001E003200224
:1010A0002202FE03FE030000E001F00350025002A2
:1010B000500270036001000000002002FC03FE03E8
:1010C00022020200040000003001780348024802B6
:1010D000F803F801000000000202FE03FE032000F6
:1010E0001000F003E0030000000000000002F6031F
:1010F000F6030002000000000000000100031002DF
:10110000F603F601000000000202FE03FE03620087
:10111000F000980308030000000000000202FE0334
:10112000FE03000200000000F803F8031800F003BB
:101130001800F803F00300000800F803F0030800AB
:101140000800F803F00300000000F001F8030802B3
:101150000802F803F00100000802F803F003480257
:101160004800780030000000300078004800480255
:10117000F803F803000200000802F803F003180265
:101180000800180030000000000010013803680259
:101190004802D8039001000010001000F801FC0381
:1011A0001002100300010000F801F8030002000221
:1011B000F801F803000200000000F800F801000345
:1011C0000003F801F8000000F800F80300038001B4
:1011D0000003F803F800000008021803B001E00063
:1011E000B0011803080200003800780240024002F3
:1011F0004002F801F800000018038803C8026802E2
:101200003802180300000000F80088008E03220056
:10121000FA02FA02FA02FA02000000000000FE03DD
:10122000FE03000000000000FA02FA02FA02FA02CD
:10123000FA020202FE030000F80088008E03020298
:101240000202020202020202024908800888002803
:10125000FCD170470C64002030B581B04FF0030C16
:10126000831C91B92B211970302103F8011F2E2105
:1012700003F8011F302103F8011F03F8011F0021AB
:1012800003F8011F01700521B6E0012903DB2B22C1
:1012900003F8012B04E02D2203F8012B0A00514230
:1012A0008E46002205240A2505E0BEFBF5FE521CF1
:1012B000042A28BF6C43BEF10A0FF6D2E646B2FB01
:1012C000FEFE80F800E0032A28BF6118092A00F218
:1012D0008C80DFE802F083776B5A4D402E21140595
:1012E000474A91FBF2FE0EF1300C03F801CB4FF0B0
:1012F000020C0EFB12112E2203F8012B0022DFF844
:1013000004E191FBFEF42500303503F8015BBCF1EC
:10131000010C6AD004FB1E11DFF8ECE091FBFEF437
:101320002500303503F8015BBCF1010C5DD004FBF6
:101330001E11DFF8D8E091FBFEF42500303503F8EC
:10134000015BBCF1010C50D004FB1E111AB12E221E
:1013500003F8012B0022DFF8B8E091FBFEF4250032
:10136000303503F8015BBCF1010C3ED004FB1E11CB
:1013700042F2107E91FBFEF42500303503F8015B4C
:10138000BCF1010C31D004FB1E114FF47A7E91FBAD
:10139000FEF42500303503F8015BBCF1010C24D0CC
:1013A00004FB1E1112B12E2203F8012B642291FBC3
:1013B000F2FE7446303403F8014BBCF1010C14D03A
:1013C0000EFB12110A2591FBF5F202F1300E03F823
:1013D00001EBBCF1010C08D002FB1511303103F810
:1013E000011B02E0202103F8011BC11D8B42F9D330
:1013F00000211970811C591A417001B030BD0000E4
:1014000000CA9A3B00E1F5058096980040420F0023
:10141000A0860100642291FBF2F303F1300C80F806
:1014200000C003FB1211C9B20A2291FBF2F303F1CF
:10143000300C00F801CF03FB1211303100F8011F0E
:10144000002100F8011F7047642291FBF2F303FBB7
:101450001211C9B20A2291FBF2F303F1300C80F8A9
:1014600000C003FB1211303100F8011F002100F809
:10147000011F704710B5040001D1002010BDA00865
:10148000FFF7F8FF4000401C00FB00F18C4238BF22
:10149000401E10BD10B50024042000F053FBC043D3
:1014A00080B2294902000B88DB431A402DD0274B1C
:1014B0004FF0190C83F800C012F0080F18BF092470
:1014C00012F0400F18BF0A2412F4807F18BF0324C3
:1014D00012F4007F18BF042412F4806F18BF052493
:1014E00012F4006F18BF062412F4805F18BF07249F
:1014F00012F4005F18BF022412F4804F18BF0124B9
:1015000012F4004F1CD008241AE00A88104217D0A9
:101510000E4A1278A2B90E4A13788BB910F4806F74
:1015200018BF052410F4006F18BF062410F0080F30
:1015300018BF092410F4004F18BF082405231370A6
:101540000880200010BD00BF246400200564002036
:10155000066400207556006D56005620006B56003C
:1015600043485F41000000005A45524F0000000010
:101570004449464600000000564F5441474500008C
:1015800043485F420000000020202020202020202F
:1015900020506172616D6574657273207665727337
:1015A000696F6E206572726F7220202020202020CB
:1015B0002020200020202020202020202053617681
:1015C00065207468652063616C6962726174696F1B
:1015D0006E206461746120202020202020202000C3
:1015E0002020202020202020202020526573746F8E
:1015F00072652064656661756C74732064617461E2
:1016000020202020202020202020200021313056A2
:101610002100000020355620000000002032562016
:10162000000000002031562000000000302E35560A
:1016300000000000302E325600000000302E3156DF
:101640000000000035306D560000000032306D564D
:101650000000000020496E70757420007374616E84
:101660006461726420766F6C7461676520746F20AA
:101670000000000043485F412020000043485F42D3
:10168000202000002020202020506C656173652000
:10169000636F6E6E65637400696E70757420746F2D
:1016A00020474E4420202020202020002043485F57
:1016B000412000002043485F4220000020202020DD
:1016C0005075736820746865202E206B65792074CE
:1016D0006F20636F6E6669726D2065786974202073
:1016E00020202020202000003130302D3132306D7C
:1016F000560000003235302D3330306D560000007A
:10170000302E352D302E365620000000312E302D53
:10171000312E325620000000322E352D332E305619
:1017200020000000352E302D362E305620000000CF
:101730002031302D31325620200000002032352D4E
:1017400033305620200000002035302D3630562012
:10175000200000007375697461626C6520000000F0
:10176000204578697420776974686F7574206361A7
:101770006C6962726174696F6E20000000004578C8
:101780006974207769746820736176652063616C81
:101790006962726174696F6E000000004578697457
:1017A000207769746820526573746F726520646570
:1017B0006661756C747300000000000070470000E3
:1017C000FEE70000FEE70000FEE70000FEE7000085
:1017D000704700007047000070470000704700002D
:1017E000704700007047000070470000704700001D
:1017F000704700007047000070470000704700000D
:1018000070470000704700007047000070470000FC
:1018100070470000704700007047000070470000EC
:1018200070470000704700007047000000F060B98A
:1018300000F060B97047000070470000704700007A
:1018400070470000704700007047000070470000BC
:101850007047000010B50021132000F06FF9304CE4
:10186000207918B12079401E207110BD14202071FC
:10187000206910B12069401E20612089152802D3FB
:101880002089143800E0002020816089142803D3C7
:1018900060891438608103E00021032000F04EF9D4
:1018A0006079322803D26079401C60710DE000201D
:1018B00060710121042000F041F9A089401CA08141
:1018C000E08910B1E089401EE0812078401C207042
:1018D00020780C2808D300202070A179481E804170
:1018E000C00FA0710120E071607810B16078401ED7
:1018F0006070A07810B1A078401EA070FFF7CAFDFC
:1019000001000BD0E0700748B0F9E403401E052148
:101910004143032000F012F93C20608110BD00BF5C
:10192000046400201C6B002070470000704700001A
:1019300070470000704700007047000070470000CB
:1019400070470000704700007047000070470000BB
:1019500070470000704700007047000070470000AB
:10196000704700007047000070470000704700009B
:10197000704700007047000070470000704700008B
:10198000704700007047000070470000704700007B
:10199000704700007047000070470000704700006B
:1019A000203130487A2000000000203230487A2070
:1019B00000000000203530487A200000000020316F
:1019C0003030487A0000000021323030487A21005F
:1019D000000021353030487A2100000020314B488A
:1019E0007A200000000020324B487A2000000000DE
:1019F00020354B487A20000000002131304B487AD6
:101A0000210000002132304B487A210000002135AE
:101A1000304B487A210000003130304B487A0000CA
:101A200000003230304B487A000000003530304B37
:101A3000487A0000000020314D487A200000000064
:101A400020324D487A200000000020344D487A2092
:101A50000000000020364D487A20000000002038A9
:101A60004D487A20000000002020202020204650F1
:101A7000474120636F6E66696775726174696F6E46
:101A8000206572726F72202020202020200000002C
:101A900020202020204453323033204D696E6920AD
:101AA00044534F204150502056657220322E33321D
:101AB0002020202020200000212053617665207402
:101AC00068652063757272656E74207365747469DD
