:020000040800F2
:1040000000040020958800087D7C0008817C000861
:10401000857C0008897C00088D7C00080000000079
:10402000000000000000000000000000957C000877
:10403000917C000800000000997C00089D7C00082D
:10404000A17C0008A57C0008A97C0008AD7C0008C4
:10405000B17C0008B57C0008B97C0008BD7C000874
:10406000C17C0008C57C0008C97C0008CD7C000824
:10407000D17C0008D57C0008D97C0008DD7C0008D4
:10408000E17C0008E57C0008E97C0008ED7C000884
:10409000F17C0008F57C0008F97C0008FD7C000834
:1040A000017D0008057D0008097D00080D7D0008E0
:1040B000117D0008157D0008CD7D0008D17D000828
:1040C000D57D0008D97D0008DD7D0008E17D000870
:1040D000E57D0008E97D0008ED7D0008F17D000820
:1040E000F57D0008F97D0008FD7D0008017E0008CF
:1040F000057E0008097E00080D7E0008117E00087C
:10410000157E0008197E00081D7E0008217E00082B
:10411000257E0008297E00082D7E0008317E0008DB
:10412000357E0008397E00083D7E0008417E00088B
:1042000002F0ACBE04F066BA01F054B901F036BB5E
:1042100043E042E001F06CBB01F084BB01F05ABC0A
:1042200048E047E063E062E06BE06AE038E037E0F6
:104230004AE049E075E047E003F054BC26E025E0A1
:104240001EE01DE01FE01EE001F078BB00F06CBD39
:1042500001F076B801F086B803F05ABB03F080BBDA
:1042600003F02EBB03F0A8BB13E012E004F0D6BAB3
:1042700003F0ECBC03F0D2BC03F086BF03F08EBFAA
:104280002E4B1B6818472E4B1B6818472D4B1B687D
:1042900018472D490888088870472B4908807047BF
:1042A0002A49C869012240EA0200C861086A002858
:1042B000FCD1704726498868012240EA02008860E4
:1042C000C8680028FCD17047204B47F2C152DA6120
:1042D0001A6A002AFCD147F2C052DA6140F2C902E0
:1042E0001A625862996247F2C152DA617047184BFC
:1042F00045F290529A605861D96045F291529A60A5
:104300007047134B45F211529A60DA68002AFCD1CB
:1043100045F210529A605861D96045F211529A6084
:1043200070470C4940F220020B4B4A6118884FEA53
:1043300000400A61198808447047000028000008FE
:104340002400000820000008000000600000024077
:0C43500000040240001001400000006466
:1044AC0010B5DFF8284820B92068012101820020CE
:1044BC0010BDDFF8A40700680068804720680A3048
:1044CC0010BD000000B581B0DFF800080068C178AD
:1044DC00DFF83C2852788A420BD382784AB982881A
:1044EC003AB98172DFF87007006840688047002095
:1044FC0000E0022001B000BD10B5DFF8D04720B9B4
:10450C00206801210182002010BDDFF84C070068F3
:10451C008068804720680C3010BD000010B5DFF8B3
:10452C00AC472068C1784079DFF898271268926907
:10453C00904721688A7A22B118B9087908B9887825
:10454C0008B1022010BDDFF810070068C068804772
:10455C0020684179C172C1780173002010BD000040
:10456C0010B5DFF86817096818B902200882002016
:10457C0010BD234C00202080087810F07F0F18D13C
:10458C00487A10F0200F1EBF217841F002012170F3
:10459C0010F0400F207809D000F0FE002070DFF8FA
:1045AC00B806006800698047200010BD40F001008B
:1045BC00F4E700F07F02012AF6D000F07F00022819
:1045CC00D5D1487900F00F0110F0800F0BD0DFF837
:1045DC00440750F8210000F030001028DFD120787B
:1045EC0040F00100DAE7DFF82C0750F8210000F466
:1045FC004050B0F5805FD2D1207840F00100CDE77B
:10460C000807002030B581B0DFF8C00600680178DB
:10461C0011F07F0104D1417A01F0DF01417266E0B3
:10462C00022903D1418809B9017909B102205FE05F
:10463C0041790C008022944311F0800F06D0DFF8F2
:10464C00D42652F8242002F0300205E0DFF8C4260C
:10465C0052F8242002F44052DFF8B4361B789C4206
:10466C00E4D2002AE2D0807A0028DFD011F0800F4B
:10467C000FD0DFF8A00650F8240000F0300010280E
:10468C0030D1200003F08EF83021200003F02AF8FE
:10469C0028E0DFF8800650F8240000F44050B0F514
:1046AC00805F1FD14BF68F7574B9DFF81C0690F83C
:1046BC002C10002003F0C2F8DFF8580601682940DE
:1046CC0081F4405101600DE0200003F055F8DFF853
:1046DC00440650F824002840DFF8381680F4405087
:1046EC0041F82400DFF8700500684069804700201D
:1046FC0001B030BD00B581B0DFF8D00501684A7952
:10470C0010008023984312F0800F06D0DFF8043697
:10471C0053F8203003F0300305E0DFF8F83553F898
:10472C00203003F44053DFF8E8C59CF800C0604526
:10473C0007D2B1F802C0BCF1000F02D10BB1897ADB
:10474C0009B9022023E012F0800F0DD0DFF8C41558
:10475C0051F8201048F6BF721140DFF8B82581F0EF
:10476C00100142F820100CE0DFF8A81551F82010C9
:10477C004BF68F721140DFF89C2581F4805142F882
:10478C002010DFF8D404006880698047002001B055
:10479C0000BD000000B581B0DFF830050068417A3B
:1047AC0041F020014172DFF8B0040068C069804715
:1047BC00002001B000BD0000DFF810251268538AFC
:1047CC0020B98888C01A1082002070470868181811
:1047DC0070470000F0B581B0DFF8F054286800F1A4
:1047EC0010063088B1680A0015D0A0B1B488A04278
:1047FC0038BF04462000884707003088001B3080F3
:10480C00708820187080002003F004F8220001004A
:10481C00380003F091FF308860B1DFF8B4044FF436
:10482C00405101800021002002F0FEFFDFF8A404BB
:10483C003021018028683188B288914202D303214B
:10484C00017210E009B10521FAE706210172DFF8C7
:10485C00B403006880B25F49002241F81020DFF8F1
:10486C0074043021018001B0F0BD00002DE9F0414D
:10487C00DFF85844206800F110052988B1B9007A96
:10488C00042813D1DFF80403017801290BD1DFF8D8
:10489C007413096889B24F4A002342F81130302151
:1048AC000426037025E00726102122E0AF888F42F2
:1048BC0026D30426B94238BF0F46B8B2A968884738
:1048CC008046002002F09CFFBAB20100404603F083
:1048DC0021FFB9B2002002F0A7FF2888C01B288056
:1048EC006888381868803021DFF8E4034FF44052B0
:1048FC000280DFF8E003018020680672BDE8F081D9
:10490C000226DAE730B581B0DFF8C043206845787D
:10491C00017811F07F0F2ED1092D02D1FFF7D2FDB6
:10492C003AE0052D0BD1C178802906D2817821B9C6
:10493C00818811B9807A00283BD0082045E0032DEE
:10494C000BD1C178012928D1818831BB407A10F074
:10495C00200F22D0FFF71EFF1EE0012D1DD1C178C4
:10496C0001291AD18188C1B9407A10F0200F14D0D6
:10497C00FFF748FE10E001F07F00012804D10B2D59
:10498C000BD1FFF7CBFD07E0022806D1012DEFD0AC
:10499C00032D02D1FFF7AEFE58B12800DFF8241327
:1049AC00096849698847032801D109200DE00028CE
:1049BC00C3D106209349096889B2064A002342F8FC
:1049CC001130DFF8101330220A802168087201B010
:1049DC0030BD00000460004010B582B0BB4C2068B4
:1049EC004178062916D1017811F07F0F32D18078E9
:1049FC00012803D1B3480068C1697BE0022803D1C8
:104A0C00B0480068016A75E0032823D1AD480068FE
:104A1C00416A6FE0002949D14188D9B9C18802297E
:104A2C0018D10179B1B9017811F07F0F03D18288C7
:104A3C000AB953495EE001F07F02012A16D1002128
:104A4C004079A04A12689269904718B92068807A18
:104A5C000028EED1206840789A490968096988478E
:104A6C00032850D120680921017287E001F07F01F1
:104A7C000229EFD1407900F00F0100F0700210F024
:104A8C00800F05D0A34850F8210000F0300004E05E
:104A9C00A04850F8210000F440509D4B1B789942DF
:104AAC00D8D2002AD6D10028C3D1D3E7082905D102
:104ABC00007810F07F0FCDD132491BE00A29C9D103
:104ACC00017801F07F010129C4D1817A0029C1D07C
:104ADC0041880029BED101790029BBD1C1880129A7
:104AEC00B8D100214079774A126892699047002822
:104AFC00B0D125490800ADD02068002242828161E6
:104B0C0000208847002021680A8A4FF6FF739A42DA
:104B1C0002D10920087231E0022800D00AB908201D
:104B2C00F8E7087810F0800F22D0C8880090009B1E
:104B3C00934202D20098088212E0824210D261485D
:104B4C00006890F82C00824202D21048002206E045
:104B5C0092FBF0F303FB102010B90C4801220270F9
:104B6C005848006890F82C008882FFF77FFE05E01B
:104B7C000320087256484FF44051018002B010BD1A
:104B8C006D450008AD440008054500081D070020D0
:104B9C0030B581B019481B49096889B2184A52F8D6
:104BAC00111089B200EB4104484D2868017A09299B
:104BBC0015D014F8011B017014F8011B4170A41CD2
:104BCC0034F8020B02F070FE29684880A41C34F8FB
:104BDC00020B02F069FE296888806088C88028680A
:104BEC0001210172C08810B9FFF78CFE01E0FFF7BC
:104BFC00F3FE01B0BDE8304048E000BF006000406B
:104C0C0008600040505C004010B5304C2068017AC0
:104C1C00022901D0042904D1FFF728FE2068007A6C
:104C2C0014E0062911D1417805290AD1017811F037
:104C3C007F0F06D1C07800F04FF807480068006A73
:104C4C0080472048006880688047082021680872E7
:104C5C00BDE810401AE00000C406002010B51B4C43
:104C6C002068007A032801D0052804D1FFF7B2FD93
:104C7C002068007A06E0072803D112480068C06853
:104C8C008047082021680872BDE8104000B581B04B
:104C9C000D4890F82C10002002F0D0FD0B48006855
:104CAC00017A082906D10A494FF480520A80094931
:104CBC0010220A80007A092801D1012000E000208E
:104CCC0001B000BDC006002020070020BC0600205B
:104CDC00100700201207002010B50D49097800229A
:104CEC0079B148F68F730B4C5FFA82FC54F82CE0C8
:104CFC0003EA0E0E4CEA0E0E44F82CE0521C8A42CB
:104D0C00F2D340F080000149086010BD4C5C0040BB
:104D1C004C080020005C00407047000030B581B0AA
:104D2C0005000C00272800F2C482DFE810F02800F0
:104D3C003500420047004F00580065008000840099
:104D4C00AE00C300B900570114022A022D02300232
:104D5C004102450261026402C202C202C202C202E4
:104D6C00C202C202C202C202C202C2027602B50270
:104D7C00B502B802C202B502B502B502B502DFF83F
:104D8C0038054FF4EB71C0F81C18C4F5E170DFF86E
:104D9C002815C1F824088CE2DFF81C054FF4EB71E0
:104DAC00C0F81C18C4F5E170DFF80C15C1F8280820
:104DBC007FE2DFF80805C0F834487AE26420A0EB03
:104DCC005400DFF8F814C1F8380872E2DFF8F00488
:104DDC00016804F0010241EA8251016069E22CB9D8
:104DEC00DFF8E0040821C0F8141862E2DFF8D404FC
:104DFC0000F501600821F0E7012C0AD1DFF8C404AA
:104E0C0000F5826002210160DFF8B804C0F81414C8
:104E1C004FE2002C40F04D82DFF8A80400F5016051
:104E2C0010210160DFF89C04C0F8141841E2DFF88F
:104E3C008C0484623DE254B9DFF8800400210162E5
:104E4C00DFF88404DFF88414C0F8BC1B31E2012CB9
:104E5C000AD1DFF8680400210162DFF86C04DFF886
:104E6C007014C0F8BC1B24E2DFF85C04DFF8641497
:104E7C00C0F8BC1BDFF8440403210162C462601C4F
:104E8C004008DFF83814486313E2012C04D1DFF832
:104E9C004804012141600CE2DFF83C0401219CE74D
:104EAC00012C03D1DFF830042021F3E7DFF82804CC
:104EBC00202192E7082C00F2FC81DFE814F00900B5
:104ECC00180028003700490059006800780082005B
:104EDC00DFF8040410210160DFF8E81301F58261AA
:104EEC004FF400720A6004210160082175E7DFF8B5
:104EFC00E80310210160DFF8CC1301F582614FF457
:104F0C0000720A600422426008210160D1E1DFF8DE
:104F1C00C80310210160DFF8AC1301F582614FF476
:104F2C0000720A60042101600821B3E7DFF8A803CE
:104F3C0010210160DFF88C0300F582604FF40071E2
:104F4C000160DFF894030421416008214160B0E165
:104F5C00DFF8840310214160DFF868034FF400711F
:104F6C00C0F81414DFF8700304210160082134E741
:104F7C00DFF8640310214160DFF848034FF400713F
:104F8C00C0F81414DFF8500304214160BCE7DFF8CB
:104F9C00480310214160DFF82C034FF40071C0F876
:104FAC001414DFF8340304210160082172E7CA48A5
:104FBC0010214160C3484FF40071C0F81414C64866
:104FCC00C1E7C54810210160BE484FF40071C0F81C
:104FDC001414C1480421416008215BE7082C00F23D
:104FEC006881DFE814F009001E003100460059000A
:104FFC006D007F009300A500B24800F501604FF4EE
:10500C0000510160B44840210160AE4800F50160D8
:10501C004FF480410160AB4800F501604FF4004152
:10502C00DBE6A84800F501604FF400510160AA4886
:10503C0040210160A3484FF48041C0F8141800F5DA
:10504C0001604FF4004160E79E4800F501604FF4A9
:10505C0000510160A048402101609A4800F50160B0
:10506C004FF48041016097484FF40041C0F8141888
:10507C001FE1944800F501604FF40051016096481F
:10508C00402101608F484FF48041C0F814184FF450
:10509C000041C0F814180CE18A484FF40051C0F8D4
:1050AC0014188D4840214160864800F501604FF48A
:1050BC0080410160834800F501604FF400418CE6AB
:1050CC0080484FF40051C0F81418834840214160C7
:1050DC007C484FF48041C0F8141800F501604FF47F
:1050EC00004112E777484FF40051C0F814187A4881
:1050FC0040214160734800F501604FF4804101602C
:10510C0070484FF40041C0F81418D2E06D484FF4C9
:10511C000051C0F8141870484021416069484FF4A0
:10512C008041C0F814184FF40041C0F81418C0E0C6
:10513C00644800F501604FF400510160664840215D
:10514C00416060484FF48041C0F814184FF400419E
:10515C00C0F81418ADE05B4800F580605F49016051
:10516C0055488021C0F8F01356485D4901605D48F0
:10517C00012101605C4804604F4800F57F60852187
:10518C002BE65148846094E04F48046091E04A4813
:10519C0000F5836004604B48016841F48021016094
:1051AC00454800F57F60842101604E48002114E6DB
:1051BC004148C0F81C447CE0424800F5806000681F
:1051CC006FF0706108403F4901F5806108603D480F
:1051DC0000F58060006840F030603A4901F580616C
:1051EC0008603548C0F824448121C0F8F01360E011
:1051FC0031480021F1E53148012C06D131494FF4F9
:10520C000052C1F8142C84217FE62E4901F541612E
:10521C004FF400520A608521DFE56FF07064294875
:10522C00D0F8040420402749C1F80404D1F8040440
:10523C0040F08070C1F8040408464FF48041C0F877
:10524C001414012000F00CFB1E4800F582604FF492
:10525C0080610160012000F003FB1A484FF480616B
:10526C00C0F81414012000F0FBFA164800F5826017
:10527C004FF480410160022000F0F2FA1148D0F89E
:10528C00040420400F49C1F80404D1F8040440F090
:10529C000060C1F804040CE0E1B2280007E0E1B2C0
:1052AC00280000F047F8210AC9B2681CC0B200F00F
:1052BC0041F8002001B030BD10040040002C01402A
:1052CC00083C0140000801404804024002841D04CF
:1052DC0002841D0702841D001018014038B4BB3431
:1052EC00BB111011007400402C14004010494022D6
:1052FC000A600022130000FA03F313F0800F02D0AF
:10530C0080230B6003E04FF0800CC1F804C04FF019
:10531C00400CC1F804C040230B60521CD3B2082BC4
:10532C00E8D380224A6040224A608020086070479F
:10533C001008014010B50C00064920220A6000F04C
:10534C001F00FFF7D3FF0348202141602000BDE878
:10535C001040CBE7101001400C2800F29780DFE8DA
:10536C0000F0071A0F25306F767D7F8183858B00C7
:10537C0047482021C0F80C184FF0C84000887047EF
:10538C0043482021C0F80C184FF0C840008800F0AA
:10539C000400800870473E482021C0F80C184FF0DC
:1053AC00C840008800F010000009704738482021E0
:1053BC00C0F80C184FF0C840008800F00800C00876
:1053CC0070473348016801F4804100F500621268AF
:1053DC0002F4806241EAC20100F50062126802F434
:1053EC00007241EA520100F50062126802F4807208
:1053FC0041EA4201026802F4005241EAD20100F58E
:10540C000062126802F4805241EA520100F5006217
:10541C00126802F4006241EA4201006800F40040A4
:10542C0008431B4901F54061096801F00801084374
:10543C00174901F54061096801F0400108437047C4
:10544C00134800F54060006800F00400A1E7114823
:10545C0000684FF4AF614843800A70470E487047AC
:10546C000E4870470E4870470E487047084800F5C4
:10547C0080600068C00B7047054800F580600068CC
:10548C00000A00F0010080F0010070470020704716
:10549C00080801404C3C014094660008486700082D
:1054AC00786600086469000870B5DFF8D8464FF4D8
:1054BC00805020604FF400602060012000F0D0F993
:1054CC004FF4006161600A2000F0CAF94FF40060EB
:1054DC002060322000F0C4F900F0A0F94FF0C04574
:1054EC00DFF898060068DFF89816884275D1E92035
:1054FC0000F088F920202880112000F083F9642026
:10550C0000F0AEF9D12000F07DF9002028805E205B
:10551C00288017202880D02000F074F907202880DC
:10552C0028800C202880362000F06CF94020288040
:10553C000C2000F067F9552028803A2000F062F921
:10554C0055202880C12000F05DF91020288028808B
:10555C00022028802880C02000F054F900202880E8
:10556C0035202880002028802880012028800220D7
:10557C002880C52000F046F901202880D22000F0B8
:10558C0041F90120288022202880C82000F03AF917
:10559C000120288073202880372028800020288034
:1055AC000F2028800220288004202880402028807A
:1055BC006720288000202880022028800F20288047
:1055CC00082028808020288000202880292000F0B6
:1055DC0019F92C2000F016F970BD0021002000F004
:1055EC0003F90021084600F0FFF80021084600F0FE
:1055FC00FBF80021084600F0F7F80A2000F030F91B
:10560C0001214FF4C06000F0EFF80A2000F028F9F7
:10561C0040214FF4DE6000F0E7F80A2000F020F99A
:10562C004FF4C4414FF4806000F0DEF840F60801FE
:10563C00082000F0D9F84FF48071012000F0D4F864
:10564C004FF48071022000F0CFF83021032000F0DD
:10565C00CBF80121092000F0C7F800210C2000F044
:10566C00C3F84FF40041902000F0BEF800210F2049
:10567C0000F0BAF81621102000F0B6F840F201162E
:10568C003100112000F0B0F80021122000F0ACF82D
:10569C000121132000F0A8F84FF44C714FF48070E6
:1056AC0000F0A2F840F23721300000F09DF84FF4E2
:1056BC00706140F2031000F097F84FF4D6414FF4AC
:1056CC00207000F091F84CF2B0114FF4817000F0A2
:1056DC008BF8642000F0C4F84FF440614FF4407034
:1056EC0000F082F845F60B2140F2013000F07CF816
:1056FC0040F6061140F2023000F076F841F2170144
:10570C0040F2033000F070F84FF40C514FF441703C
:10571C0000F06AF84FF4B85140F2053000F064F82C
:10572C0046F2093140F2063000F05EF840F60941CD
:10573C0040F2073000F058F841F20C014FF442707F
:10574C0000F052F842F2322140F2093000F04CF8ED
:10575C0000214FF4047000F047F8EF2140F21120C3
:10576C0000F042F8002140F2122000F03DF840F227
:10577C008F1140F2132000F037F800214FF4A06095
:10578C0000F032F8002140F2015000F02DF8052114
:10579C0040F2025000F028F8012140F2014000F0E4
:1057AC0023F8002140F2044000F01EF8642000F0C1
:1057BC0057F84FF48071072000F016F8642000F0C1
:1057CC004FF800214FF4007000F00EF8002140F269
:1057DC00012000F009F84FF48051616040F2022082
:1057EC002880216070BD0000DFF898234FF48053AF
:1057FC0053604FF0C0421080DFF8880303601180C3
:10580C0070470000DFF87C134FF480524A604FF071
:10581C00C0410880DFF86C030260704700B581B0AE
:10582C00EF20FFF7EFFF4FF0C04000884FF0C04073
:10583C0000884FF0C04109884FF0C0421288090619
:10584C00090A41EA0060D1B240EA01204FF0C041A0
:10585C000988C9B20843C949086001B000BD0000FD
:10586C000249088008880028FCD17047D006002027
:10587C0070B505000C00FEF7CDFC4FF0C046BF48DC
:10588C000068BF49884219D12A20FFF7BBFF0020CE
:10589C003080E0B2308000203080EF2030802B2030
:1058AC00FFF7B0FF280A3080E8B23080012030804A
:1058BC008F2030802C20FFF7A5FF70BD21004FF406
:1058CC000070FFF791FF290040F20120FFF78CFFD9
:1058DC00AC484FF48051416040F202203080A9481E
:1058EC00016070BD30B581B00A4D288000210020C8
:1058FC00FFF7BEFF4BF6803421002800FEF78EFC2C
:10590C00FEF788FC2100280001B0BDE83040FEF70E
:10591C0085BC00BF1607002001EBC000034901EB5A
:10592C004000A0F508700088704700BF945B000829
:10593C002DE9F24F050093461C000A9EFFF798FFD5
:10594C000E271CB90020FEF75DFC04E0012C04BFFF
:10595C005846FEF757FC7F1EF3D16D1C01E008354D
:10596C00761C3078002841D00027A846BDF80010DE
:10597C001FFA88F0FFF77CFF3078202801D021280F
:10598C0002D14FF0000903E0B9B2FFF7C5FF814621
:10599C003078212801D1042F26D04FF00E0A19F0AF
:1059AC00040F08D01CB95846FEF72CFC0DE0012C56
:1059BC000BD10020F8E71CB90020FEF723FC04E013
:1059CC00012C04BF5846FEF71DFC4FEA09494FEA6B
:1059DC006949BAF1010AE2D17F1C08F10108082FCC
:1059EC00C4DB30782128BAD12D1DB9E701B0BDE850
:1059FC00F08F00002DE9F04F89B08346D9460C009A
:105A0C0000A9304A082392F800C04FEADC0C92F847
:105A1C0001E04FEA9E0E4FEA4E1E0EEBCC2C92F894
:105A2C0002E04FEADE0EF44421F802CB92F804C0F7
:105A3C004FEADC0C92F805E04FEA9E0E4FEA4E1E40
:105A4C000EEBCC2C92F806E04FEADE0EF44421F873
:105A5C0002CB08325B1ED6D11A4901F140054FF436
:105A6C00005600F1FF0A4FF0C0470DF1000821006D
:105A7C004846FFF7FDFE2878001138F810003880F2
:105A8C0009F101091FFA89F9CA4502DAD946641CE1
:105A9C00A4B221004846FFF7EBFE287800F00F0077
:105AAC0038F81000388009F101091FFA89F9CA4544
:105ABC0002DAD946641CA4B26D1C761ED7D109B08B
:105ACC00BDE8F08F36D803082DE9F04106000F0031
:105ADC0015001C004FF0C04828480068284988422F
:105AEC0021D12A20FFF78EFE280AA8F80000E8B280
:105AFC00A8F80000200AA8F80000E0B2A8F80000FE
:105B0C002B20FFF77FFE300AA8F80000F0B2A8F8AF
:105B1C000000380AA8F80000F8B2A8F800002C2001
:105B2C00FFF770FE27E0210040F21120FFF75CFE2A
:105B3C00390040F21320FFF757FE29004FF4047090
:105B4C00FFF752FE310040F21220FFF74DFE290004
:105B5C004FF40070FFF748FE310040F20120FFF7D0
:105B6C0043FE08484FF48051416040F20220A8F8EF
:105B7C00000004480160BDE8F0810000FC06002034
:105B8C0027930402101401400000000000001C00C8
:105B9C0020004000400040004000400020001C005D
:105BAC00000000000000000000000000000000E009
:105BBC000010000800080008300C600CC0008001C8
:105BCC0000033006300C000000080008001000E054
:105BDC0000000000000000001020102010201020F9
:105BEC0010201020F03F000000000000C00FE01F4C
:105BFC003030102000000000000000001020303079
:105C0C00E01FC00F000000000000C018800D00074E
:105C1C000007800DC0180000000000010001C00743
:105C2C00C007000100010000000000000000FCFFA4
:105C3C000000000000000000000000010001000155
:105C4C000001000100010000000000000000300015
:105C5C00300000000000000030006000C000800137
:105C6C0000030006000C0000E01FF03F9020102302
:105C7C001024F03FE01F0000000010081018F03F47
:105C8C00F03F1000100000007010F0309021102335
:105C9C00102630383018000020103030102210221E
:105CAC001022F03FE01D000000030007000D10194A
:105CBC00F03FF03F10010000203E303E1022102239
:105CCC001023F023E0210000E00FF01F103210220F
:105CDC001022F003E001000000300030F020F02131
:105CEC000023003E003C0000E01DF03F102210227B
:105CFC001022F03FE01D0000001C103E102210226C
:105D0C003022E03FC01F0000000000000000600CCB
:105D1C00600C00000000000040004000400040000B
:105D2C004000400040004000000000018003C0061D
:105D3C00600C3018101000000000900090009000D3
:105D4C00900090009000000040024002400240028F
:105D5C004002400240020000000010103018600C9D
:105D6C00C006800300010000C00F20109027902473
:105D7C00D0275010800F0000F007F00F00190031F1
:105D8C000019F00FF00700001020F03FF03F102238
:105D9C001022F03FE01D0000C00FE01F303010203B
:105DAC0010203030601800001020F03FF03F102021
:105DBC003030E01FC00F00001020F03FF03F1022E9
:105DCC0010273030703800001020F03FF03F1022C8
:105DDC000027003000380000C00FE01F30301021C9
:105DEC001021E031F0190000F03FF03F00020002FA
:105DFC000002F03FF03F0000000000001020F03FD8
:105E0C00F03F102000000000E000F0001000102017
:105E1C00F03FE03F002000001020F03FF03F000377
:105E2C00000FF03C703000001020F03FF03F1020CD
:105E3C001000300030000000F03FF03F001C000E5E
:105E4C00001CF03FF03F0000F03FF03F001C000E44
:105E5C000007F03FF03F0000C00FE01F3030102073
:105E6C003030E01FC00F00001020F03FF03F102238
:105E7C000022003E001C0000E01FF03F10207020AC
:105E8C003020F83FE81F00001020F03FF03F0022C8
:105E9C000023F03FF01C00006018703C102610220C
:105EAC001023F039E0180000000000381030F03FEB
:105EBC00F03F103000380000E03FF03F10001000C1
:105ECC001000F03FE03F0000803FC03F600030001A
:105EDC006000C03F803F0000C03FF03F7000C00139
:105EEC007000F03FC03F00003030F03CC00F0003AA
:105EFC00C00FF03C303000000000003C103EF003BE
:105F0C00F003103E003C00007038F030902110235C
:105F1C001026303C7038000010003000500090010A
:105F2C001003100CF03F00000008000800080008E7
:105F3C0000080008000800080000000000007CFCBD
:105F4C00800280020001000100020004000CF01F1E
:105F5C00F03F000C0004000200018000C000E03F94
:105F6C00F03FC000800000011020102010201020F5
:105F7C001020102010201020E000F0051005100556
:105F8C00E007F003100000001020F03FE03F10028B
:105F9C001002F003E0010000E003F007100410040D
:105FAC001004300620020000E001F003100610245B
:105FBC00F03FF03F10000000E003F0071005100563
:105FCC00100530072003000000001002F01FF03F06
:105FDC001022003000180000C803EC07240424042D
:105FEC00FC03F807000400001020F03FF03F2002F3
:105FFC000004F007F0030000000000001004F0376C
:10600C00F037100000000000000018001C00040411
:10601C00FC37F837000400001020F03FF03F8021DF
:10602C00C003700630040000000000001020F03F98
:10603C00F03F100000000000F007F0070006F0032E
:10604C000006F007F00700000004F007F00300045E
:10605C000004F007F0030000E003F0071004100444
:10606C001004F007E00300000404FC07FC034404E4
:10607C004004C007800300008003C00740044404B0
:10608C00FC07FC03040400001004F007F0031006E6
:10609C0000040006000300000000200230079005F9
:1060AC009004F0066002000000040004E01FF03FC2
:1060BC001004300420000000E007F007100010006E
:1060CC00E007F007100000000000C007E0073000F8
:1060DC003000E007C0070000E007F0073000E000E8
:1060EC003000F007E007000010043006E003C001A8
:1060FC00E0033006100400008007C407440044008D
:10610C004400F807F007000030067006D004900534
:10611C00100730063004000080078004F03C10208B
:10612C00D02FD02FD02FD02FD02FD02FD02FD02F6B
:10613C00D02FD02FD02FD02FD02FD02FD02FD02F5B
:10614C00D02F1020F03F000080078004F03C10207E
:10615C00102010201020102010B502F09DF84FF4E4
:10616C00803002F0B9F8164C02F0D4F820700128F7
:10617C0017D1102001F0F8FF022001F0EBFF1148BD
:10618C0011490160012002F0DDF8392002F0F6F827
:10619C000028FAD0022002F0DBF802F0E1F808281F
:1061AC00FBD1084840F2171101614AF67D6141614B
:1061BC00002002F0DBF803480449816110BD00BFE8
:1061CC001C0700200410024002841D002F80802038
:1061DC0000B581B04FF480414FF0006002F0C2F97D
:1061EC004FF4C06002F06CF914208DF8000001200F
:1061FC008DF801008DF802008DF8030000A802F064
:10620C0067F913208DF8000001208DF801000020A3
:10621C008DF8020001208DF8030000A802F058F957
:10622C001D208DF8000001208DF8010000208DF854
:10623C00020001208DF8030000A802F049F901B01A
:10624C0000BD00001E481F49C0F8FC1700F5006097
:10625C001D4901601A484EF2FF71C0F808181B491D
:10626C00C0F8FC1B00F540601F4901604FF6FF7041
:10627C001349C1F8080C164AC1F8FC2F1549164AE7
:10628C000A604FF6EF728A60144AC1F8FC2301F5DC
:10629C008061134A0A600F4901F5816108600D495C
:1062AC00104AC1F8FC2701F500614FF0BB320A60BF
:1062BC000849C1F8080802484FF080610160704736
:1062CC0004000140BB888011BB3B838818B8BB3BE2
:1062DC00001011BB0410014088883833BB84BBB854
:1062EC00BB1B13BB833333B3383388884FF0204048
:1062FC000949416009484FF02041C1F8040145F2B9
:10630C0011020A60064ACA60C1F80C01084645F23F
:10631C0011018160704700BF020F101001041010B2
:10632C000207101010B586B00020ADF800004FF435
:10633C008270ADF802000020ADF804000220ADF828
:10634C0006000120ADF808004FF40070ADF80A000B
:10635C00002003900720ADF81000054C00A9200088
:10636C0002F082F90121200002F096F906B010BD6E
:10637C00003C00401A481B4981604FF4D551016024
:10638C004FF480524260016841F00101016047F214
:10639C00C05141610021C0F8041400F581604FF038
:1063AC00C04101600E4800F58060006840F00100BB
:1063BC000B4901F580610860094800F5806047F2DF
:1063CC0091510160064800F5886024210160044861
:1063DC000549C0F8441443F2B151C0F83C1470475D
:1063EC00080002404C24014008740040034801217D
:1063FC0001604FF400618160704700BF0074004081
:10640C00424800210160424800F58060016040482C
:10641C0001603E484FF4BC0141603D484FF480118F
:10642C00C0F804143B494160384800218162384867
:10643C0000F5856001603648816234480C210163A7
:10644C00334800F586600B21016031480A21016355
:10645C002E48802181602E4800F58160002101606A
:10646C002B4881602948406840F00100274948606A
:10647C002748D0F8040440F001002549C1F8040471
:10648C00486840F0010048602048406840F008002F
:10649C001E494860486810F0080FFBD11C48D0F822
:1064AC00040440F008001A49C1F80404D1F80404AB
:1064BC0010F0080FFAD1486840F0080048604868AE
:1064CC0010F0080FFBD11148406840F004000F4950
:1064DC0048600F48D0F8040410F0040FF9D10C48B0
:1064EC00D0F8040440F004000949C1F80404D1F8C0
:1064FC00040410F0040FFAD1486840F0040048601E
:10650C00486810F0040FFBD1704700BF043C0140F9
:10651C0004240140000110003E480921816223211E
:10652C00C1621221416303210162782181614FF420
:10653C00004141640021C16085210160364847213A
:10654C00816240F2E731C1620121C16085210160A5
:10655C0000F58560032101602F4844F24F61C0F8BB
:10656C002C1442F22831C0F8341400F58460012157
:10657C000160294800F5836078210160264800F508
:10658C0080608121016024480021C0F8281840F265
:10659C00F311C0F82C184FF49671C0F83418C0F8E9
:1065AC00381800F50260332101601B4847F678016A
:1065BC00C0F8181800F500608121016017481321FC
:1065CC0081626321C1624FF48071C1600821416016
:1065DC00852101600F48C721C0F828186321C0F835
:1065EC002C183221C0F834186421C0F8381800F582
:1065FC00026013210160074847F67801C0F81818AB
:10660C004FF40041C0F8441800F50060912101607E
:10661C00704700BF002C01400004004000140040F3
:10662C00104800680F4949680E4A9268C8B10E4B71
:10663C0098704FEA102C83F804C04FEA104C83F882
:10664C0006C0000E18729972080A1873080C987319
:10665C00080E18749A74100A1875100C9875100E90
:10666C0018767047E8F7FF1FC00700209001F00074
:10667C00070015000F00C8000010010001011100F7
:10668C00000000040000000435306D5600000000CE
:10669C000000000400000004D0070000302E31562A
:1066AC00000000000000000400000004A00F000027
:1066BC00302E325600000000FEFF0004FAFF0004EA
:1066CC00401F0000302E355600000000FFFF000474
:1066DC00FAFF0004204E000020315620000000007C
:1066EC0000000004FAFF0004409C000020325620F9
:1066FC0000000000FEFF0004FAFF000480380100D7
:10670C002035562000000000FFFF0004FAFF0004B3
:10671C00400D030021313056210000000000000420
:10672C00FAFF0004801A06000000000000000000C0
:10673C000000000000000000000000002120315388
:10674C0020210000E7035F09B004000455A0FC0100
:10675C003530306D53000000E703AF0458020004DD
:10676C002B50FE003230306D53000000E703DF0188
:10677C00F0000004ABB965003130306D53000000FF
:10678C00E703EF0078000004D5DC32002135306DD2
:10679C0053210000E70377003C0000046B6E1900E6
:1067AC002132306D532100006300DF01F000000442
:1067BC002B2C0A002131306D532100006300EF00B7
:1067CC00780000041516050020356D5320000000DC
:1067DC00630077003C0000040B8B020020326D53E9
:1067EC00200000000900DF01F00000046B04010030
:1067FC0020316D53200000000900EF0078000004E8
:10680C0035820000353030755300000009007700E8
:10681C003C0000041B410000323030755300000076
:10682C000000DF01F00000040B1A0000313030755D
:10683C00530000000000EF0078000004050D00007C
:10684C002135307553210000000077003C00000416
:10685C0083060000213230755321000000002F0008
:10686C00180000049B0200002131307553210000F8
:10687C00000017000C0000044D010000203575537A
:10688C002000000000000B0006000004A700000020
:10689C002032755320000000000004000300D703D1
:1068AC00430000002031755320000000000002005E
:1068BC000200330321000000302E35755300000018
:1068CC00000001000100660211000000302E32753C
:1068DC0053000000000000000100EC010700000064
:1068EC00302E317553000000000000000100F6004E
:1068FC0003000000203275532B000000000009003B
:10690C000300D70343000000203175532B00000017
:10691C00000004000200D703210000002E3575533F
:10692C002B000000000002000100330311000000E6
:10693C002E3275532B000000000001000100D7031C
:10694C00070000002E3175532B00000000000000E2
:10695C000100EB01030000003C5674000000000035
:10696C0000003C5674000000000001023C5674000C
:10697C000000000002043C567400000000000306F6
:10698C003E5674000000000000013E5674000000EA
:10699C00000001033E5674000000000002053E5644
:1069AC0074000000000003073A215C210000000085
:1069BC0000083A215C2100000000010A3A215C2108
:1069CC0000000000020C3A215C2100000000030EC4
:1069DC003A215E210000000000093A215E210000EE
:1069EC000000010B3A215E2100000000020D3A214B
:1069FC005E2100000000030F3C544C00000000001E
:106A0C0000103C544C000000000001123C544C009F
:106A1C000000000002143C544C000000000003165F
:106A2C003E544C000000000000113E544C0000008D
:106A3C00000001133E544C000000000002153E54AF
:106A4C004C000000000003173C54480000000000FC
:106A5C0000183C54480000000000011A3C54480047
:106A6C0000000000021C3C54480000000000031E03
:106A7C003E5448000000000000193E54480000003D
:106A8C000000011B3E54480000000000021D3E5453
:106A9C00480000000000031F00B581B09B4890F82F
:106AAC003010891E0AD0491E10D0491E012916D853
:106ABC00002180F830104FF440510DE0C17B2829A3
:106ACC000DD1816F406F00F007FB08E00121002021
:106ADC0000F0FAF84FF44051022000F01BFE01B018
:106AEC0000BD000030B581B0884CE57B022000F081
:106AFC00C3FE60860246D82104F1340001F01CFE6E
:106B0C0094F8300010B1012803D009E000F016F819
:106B1C0011E02A2D05D1A16F606F00F005FB0AE092
:106B2C00022000F0F5F82421052000F0CBFA00211A
:106B3C00022000F0C9F801B030BD000010B5734C54
:106B4C00628E22B104F13401200001F061FD606815
:106B5C006062A068A062608E1F2806D0022000F040
:106B6C00D7F8002020601A2188E0E07B282801D08B
:106B7C002A280FD1617CA27C120442EA0161E27CDA
:106B8C0041EA0221227D11436167A17DE27D42EA47
:106B9C000121A16721683D4A91426BD13C490968AA
:106BAC00627B914203D3A17B09B1112904D302204A
:106BBC0000F0AEF8242161E0002845D003282ED047
:106BCC00042851D0082852D00A2850D0122829D095
:106BDC0015284CD01A282BD01B2826D01D2846D07F
:106BEC001E2822D0232829D025282AD028282ED088
:106BFC002A2831D02F2834D0552838D05A281AD0EA
:106C0C00882834D08A2832D08F2830D09E282ED095
:106C1C00A8282CD0AA282AD0AF2828D02AE000F007
:106C2C0049FA10BD00F0E6F910BD00F051FA10BDA4
:106C3C0000F034FA10BD00F037FA10BD00F0EEF998
:106C4C0010BD00F009FA10BD00F0B2FA10BDA16F32
:106C5C00606F00F041FA10BDA16F606F00F064FA34
:106C6C0010BD00F08BFA10BD00F0AEFA10BD00F0B4
:106C7C00ADFA10BD022000F04BF82021052000F0E9
:106C8C0021FA0021012000F01FF810BD555342439A
:106C9C000007002010B50C002200982101F03AFDED
:106CAC002100012000F0C0FD3021012000F01AFD70
:106CBC001648032180F83010816A091B816200217B
:106CCC0080F82C1010BD000030B581B00C000F4DB9
:106CDC000D49296285F82C000D22982105F1200020
:106CEC0001F018FD0D21012000F09EFD052085F816
:106CFC00300034B1042085F830003021012000F040
:106D0C00F1FC01B030BD00BF5553425324060020A6
:106D1C0000B581B020B1012807D0022808D010E0BE
:106D2C001021012000F0DEFC0BE04FF4805105E057
:106D3C001021012000F0D6FC4FF48051022000F00D
:106D4C00E9FC01B000BD00002DE9F04F81B048F620
:106D5C00BF744BF68F757D4EDFF888B2A44FDFF809
:106D6C008882DFF8889224E057F820A01FFA8AFA6C
:106D7C001AF4004F0BD057F8201040F68F721140C8
:106D8C0047F820100BEB800050F8040C80471AF0E9
:106D9C00800F0ED098F8000057F8201048F60F72AC
:106DAC00114047F820108E4901EB800050F8040C7C
:106DBC008047786CA9F8000010F4004F00F0C380F5
:106DCC0047F6FF717964B9F8000010F00F0088F8ED
:106DDC000000C9D1386800F440503080386800F0A9
:106DEC00300070803868284080F400503860386873
:106DFC00204080F020003860B9F8000010F0100F2F
:106E0C0024D1386848F60F7108403860FDF7FCFE55
:106E1C0038682840318811F4805F18BF80F48050A6
:106E2C0011F4005F1CBF80F4005080B238603868E9
:106E3C002040718811F0100F18BF80F0100011F075
:106E4C00200F1CBF80F0200080B27BE0D7F800A0A0
:106E5C001FFA8AFA1AF0800F24D0386848F60F719E
:106E6C0008403860FDF7D0FE38682840318811F4AE
:106E7C00805F18BF80F4805011F4005F1CBF80F459
:106E8C00005080B2386038682040718811F0100FC3
:106E9C0018BF80F0100011F0200F1CBF80F02000F4
:106EAC0080B24FE01AF4006F24D0386840F68F712E
:106EBC0008403860FDF76CFE38682840318811F4C2
:106ECC00805F18BF80F4805011F4005F1CBF80F409
:106EDC00005080B2386038682040718811F0100F73
:106EEC0018BF80F0100011F0200F1CBF80F02000A4
:106EFC0080B227E01AF4004F3FF45BAF386840F6DD
:106F0C008F7108403860FDF7A9FE38682840318839
:106F1C0011F4805F18BF80F4805011F4005F1CBF27
:106F2C0080F4005080B2386038682040718811F0CD
:106F3C00100F18BF80F0100011F0200F1CBF80F054
:106F4C00200080B2386001B0BDE8F08F100700203F
:106F5C002DE9F04381B0224C48F60F75214E224F9B
:106F6C00DFF88880DFF874900DE0214951F820108B
:106F7C0040F68F7211401E4A42F8201006EB80003A
:106F8C0050F8040C8047D9F80000A8F8000010F461
:106F9C00004F1FD047F6FF70C9F80000B8F800008A
:106FAC0000F00F003870124951F8201089B211F41A
:106FBC00004FDAD111F0800FE5D00D4951F82010B7
:106FCC0029400B4A42F8201004EB800050F8040CC6
:106FDC008047D8E701B0BDE8F08300BF445C0040B7
:106FEC00DC070020F80700201E07002018070020EF
:106FFC00005C00409A49087C10F0010F02D0054853
:10700C00052104E00448C97C252928BF2421FFF769
:10701C0041BE00BFEC0600209C07002000B581B0EB
:10702C0000F02EFD8D4801680A480A0E02710A0C08
:10703C0042710A0A8271C1718A4909680A0C42724A
:10704C000A0A8272C1720C2101B05DF804EBFFF7E1
:10705C0021BE00BF2808002000B581B000F010FD53
:10706C007E4801684A1E0C48130E0370130C4370C3
:10707C00120A8270491EC1707A4909680A0E02719F
:10708C000A0C42710A0A8271C171082101B05DF8C3
:10709C0004EBFFF7FFBD00BFF406002004210148FC
:1070AC00FFF7F8BD5008002008210148FFF7F2BD9A
:1070BC00440800206A48C17C132928BF12210348C8
:1070CC00FFF7E8BD014A9070117370471408002057
:1070DC0001210020FFF7F8BD70B505000C00264E0D
:1070EC003078D0B922002900282000F08BF8C8B1E4
:1070FC005B48007B10F0800F03D002203070210021
:10710C000DE00220FFF704FE24210520FFF7DAFF33
:10711C0001210120FFF7D8FD70BD022802D1280003
:10712C0000F08AFE70BD000010B5134C2278F2B945
:10713C000A0001002A2000F065F8E0B14848007B05
:10714C0010F0800F07D1012020704FF44051022025
:10715C0000F0E0FA10BD0020FFF7DAFD2421052035
:10716C00FFF7B0FF00210120FFF7AEFD10BD012A93
:10717C0008BF00F0BBFE10BD5406002000B581B066
:10718C003748816831B9007C10F0040F02D101211D
:10719C00002008E00220FFF7BBFD24210520FFF7AB
:1071AC0091FF00210120FFF78FFD01B000BD000011
:1071BC0000B581B000F064FC0121002001B05DF845
:1071CC0004EBFFF781BD000000F05ABC00B581B0A4
:1071DC002348816809B9002006E0007B10F0800F7D
:1071EC0001D0002000E00220FFF792FD20210520B5
:1071FC00FFF768FF0021012001B05DF804EBFFF7F9
:10720C0063BD000000B581B0144B1B6851188B4254
:10721C0011D22A2802D10220FFF77AFD0020FFF7B5
:10722C0077FD21210520FFF74DFF00210120FFF7FD
:10723C004BFD002010E00A4989680A4B1B685A4331
:10724C00914208D02A2801D1022000E00020FFF74B
:10725C005FFD2421E6E7012001B000BDE00600201F
:10726C0024060020DC06002000B581B0FFF7D8F919
:10727C00914800680021817201F096FA06480021BD
:10728C00416006484FF404410180034801604B48BB
:10729C000021016001B000BD405C00401A070020D5
:1072AC0010B5314800218172834800682F49C97993
:1072BC004172002000F000FA4FF40071002000F041
:1072CC0003FA2021002000F00DFA1821002000F014
:1072DC008BFA274C94F82C10002000F0AFFA5821B0
:1072EC00002000F075FA002000F03AFA002000F0BF
:1072FC0029FA0021012000F0E7F99821012000F083
:10730C0067FA2021012000F0EDF90021012000F0A6
:10731C0001FA0021022000F0D7F9D821022000F058
:10732C0063FA94F82C10022000F088FA4FF44051C4
:10733C00022000F0EFF90021022000F0D3F994F8BC
:10734C002C10002000F07AFA002000F0FBF900204D
:10735C00FDF7C2FC1948012101603D483D4901601F
:10736C003D480021017010BDA0060020FC870008DC
:10737C002007002000B581B04F480068807A58B1D2
:10738C000E4805210160012000F00CFA022000F0EB
:10739C00F3F931480021017001B000BD00B581B096
:1073AC002B4800682B49884202D00220FFF7B0FC22
:1073BC0001B000BD014804210160704704070020A2
:1073CC00704700007047000000B581B03A49096869
:1073DC000A7802F07F02212A0BD1FE2809D14888B5
:1073EC0048B9888838B9C888012802D106480200F3
:1073FC0002D1022006E0FCE788610020488200F000
:10740C004FF8002001B000BDAD74000800B581B08C
:10741C00294909680A7802F07F02212A15D1FF2830
:10742C0013D1488888B9888878B9C88868B9012088
:10743C0000F0B8F9022000F09FF9054805490160F9
:10744C00054800210170002000E0022001B000BDC1
:10745C0024060020555342435406002001B900B1C4
:10746C00022070470149FDF7A7B900BF340800207E
:10747C000149FDF7A1B900BF3C08002000B581B05F
:10748C000D490968C978062901D3002004E0034A94
:10749C0002EBC101FDF790F901B000BD50070020CF
:1074AC0028B9054800680121018200207047014875
:1074BC00704700BF00070020BC060020F0B583B069
:1074CC00FEF74AFEFEF784FEFEF7BCFEFFF724F83B
:1074DC00FEF70CFFFEF726FFFEF74CFFFEF790FFC2
:1074EC00FEF784FF4FF4FA71142000F02BFEFDF729
:1074FC00DBFF0020FEF7F6F996214620FEF77AFA1C
:10750C00644C10B500234FF4FC625A213020FEF776
:10751C000FFA02B004F1140001B500234FF4FC6221
:10752C005A21C020FEF704FA02B0FCF781FE0100DC
:10753C0000A800F049FD40F2FF7500A801B500233A
:10754C002A005A214FF48C70FEF7F2F902B004F1C4
:10755C00200001B500234FF4FC6246213020FEF7D9
:10756C00E7F902B04C48D0F8040810F4806F5CD0F6
:10757C004948D0F8040810F4007F56D04648D0F89B
:10758C00040810F4807F50D0444E0020307000F07E
:10759C0085FAFCF74FFE012840D004F1480001B5F4
:1075AC0000234FF4FC6232213020FEF7C1F902B007
:1075BC0032214FF48C7000F08FFA0700FCF73AFE82
:1075CC00012805D004F1700001B500232A0012E057
:1075DC000021380000F066FA012806D104F1980069
:1075EC0001B500234FF4FC6205E004F1C00001B5C5
:1075FC0000234FF4FC6232213020FEF799F902B0DF
:10760C0004F1E80001B500234FF4FC621E21302088
:10761C00FEF78EF902B030780028FCD02048406884
:10762C002049486008601E4825E01B48D0F8040833
:10763C0010F4806F06D11C4840681A4948600860F5
:10764C00194818E01448D0F8040810F4007F06D14B
:10765C001648406813494860086014480BE00E480F
:10766C00D0F8040810F4807F08D1114840680D4907
:10767C00486008600E48006800F0A2FF06480D49FB
:10768C00016001F0C5F8074800688047002003B08E
:10769C00F0BD00BFBC83000804080140CB060020ED
:1076AC0000C00008E40600200040010800C00108EA
:1076BC0000400208BBBB8B884FF6F8710840DFF81E
:1076CC00D811086070470000DFF8D82152F820204C
:1076DC0048F68F131A401143DFF8C82142F82010E6
:1076EC0070470000DFF8BC2152F8202048F6BF7329
:1076FC001A4011F0100F18BF82F0100211F0200F79
:10770C001CBF82F0200292B2DFF8981141F82020C1
:10771C0070470000DFF88C2152F820204BF68F7355
:10772C001A4011F4805F18BF82F4805211F4005F8C
:10773C001CBF82F4005292B2DFF8681141F820208D
:10774C0070470000DFF85C1151F820104BF68F7277
:10775C001140DFF8502181F4405142F8201070475D
:10776C00DFF8401151F8201048F68F621140DFF815
:10777C00342142F820107047DFF8281151F82010FE
:10778C0011F4804F0CD0DFF81C1151F8201048F682
:10779C008F72114041F48041DFF8082142F820102B
:1077AC0070470000DFF8FC1051F8201011F0400F6A
:1077BC000CD0DFF8F01051F8201048F68F72114001
:1077CC0041F04001DFF8DC2042F820107047000047
:1077DC00314A126892B202EBC0002D4A49084900A6
:1077EC0042F81010704700002B4A126892B202EB5C
:1077FC00C000284A4908490042F8101070470000A0
:10780C002549096889B201EBC000214951F81000E3
:10781C0080B270472049096889B201EBC0001D494C
:10782C0051F8100080B270471B4A126892B202EBFA
:10783C00C0001B4A42F8101070470000164A12682C
:10784C0092B202EBC000154A02EB40003F2909D36B
:10785C004A0911F01F0F01D1521E92B2910241F44C
:10786C00004106E04A0811F0010F01D0521C92B2FF
:10787C0091020160704700000749096889B201EB69
:10788C00C000064951F810008005800D70470000BB
:10789C000060004008600040505C00400C600040FC
:1078AC0004600040005C00400106090C41EA102015
:1078BC007047000070B50400481C450200F0B8F891
:1078CC006E4E8021300001F01FF80A2000F094F871
:1078DC00280CC0B200F090F8280AC0B200F08CF866
:1078EC00E8B200F089F84FF4807514F8010B00F041
:1078FC0083F86D1EF9D18021300001F003F8BDE84A
:10790C007040A5E070B504000D0000F091F85B4EDE
:10791C008021300000F0F8FF0A2000F06DF8280CF0
:10792C00C0B200F069F8280AC0B200F065F8E8B2FD
:10793C0000F062F84FF4807514F8010B00F05CF85D
:10794C006D1EF9D18021300000F0DCFFBDE87040E5
:10795C007EE00000F0B581B005000E001400474F2A
:10796C008021380000F0D0FF032000F045F8300CE7
:10797C00C0B200F041F8300AC0B200F03DF8F0B2ED
:10798C0000F03AF854B14FF6FF763419A52000F008
:10799C0033F805F8010BA4B2002CF6D18021380085
:1079AC0001B0BDE8F04000F0ADBF000070B50400C0
:1079BC00481C4502314E8021300000F0A5FF032009
:1079CC0000F01AF8280CC0B200F016F8280AC0B261
:1079DC0000F012F8E8B200F00FF84FF48075A52013
:1079EC0000F00AF804F8010B6D1EF8D1802130006C
:1079FC00BDE8704000F086BF30B581B004000B4D7F
:107A0C000221280000F058FE0028F9D0210028009F
:107A1C0000F04EFE0121280000F04EFE0028F9D0A7
:107A2C00280000F047FEC0B201B030BD003C004061
:107A3C0010B5124C8021200000F066FF0620FFF7E5
:107A4C00DBFF80212000BDE8104000F05BBF000090
:107A5C0010B50A4C8021200000F056FF0520FFF7DE
:107A6C00CBFFA520FFF7C8FF10F0010FF9D1802143
:107A7C002000BDE8104000F045BF0000000C0140A4
:107A8C0005484FF4805181604FF4007141604FF410
:107A9C0000110160704700BFD80600200D4908583E
:107AAC007047000070B504000D0000F067FBA1B238
:107ABC000848401900F0ACF80600210C04484019A5
:107ACC0000F0A6F800EA060400F062FB200070BD8E
:107ADC0006380008043800082DE9F14F84B08A46B6
:107AEC00002400A847490A7802704A7842700025A1
:107AFC00214601A800F068FA4FF6FF7901A801B5FC
:107B0C0023464A465146BDF81800FDF711FF02B056
:107B1C00290001A800F058FA3B4909785FFA8BF06C
:107B2C00884220D0384890F800B000260DF10408A7
:107B3C00BDF8107098F800008DF80000F1B28C427E
:107B4C0000A801B501D15B4600E000234A4651462E
:107B5C00B8B2FDF7EDFE02B0761C083708F101084B
:107B6C00F0B20828E6D329480078002844D02748EA
:107B7C00007802283CD0052806D0062818D0082802
:107B8C0029D009282ED034E02000C0F107000006CF
:107B9C00800D25FA00F111F00F0F04D0012101FA2C
:107BAC0000F02D1A25E00F2101FA00F0451920E014
:107BBC002000C0F107000006800D25FA00F101F04D
:107BCC000F010F2903D2012101FA00F0EEE70F217A
:107BDC0001FA00F0E5E7072C02D2641CE4B208E0DD
:107BEC00002406E0200001D0641EF7E7072400E023
:107BFC000824064800210170082C89D3280005B000
:107C0C00BDE8F08F24890008CE060020CB060020AA
:107C1C0030B581B005000C00144800F01FFB05289E
:107C2C0002D0342000F0FEFA2100280000F0D8FA2F
:107C3C00042801D1012000E0002001B030BD00007B
:107C4C0010B5040060050ED1084800F007FB0528AC
:107C5C0002D0342000F0E6FA200000F0A1FA04284B
:107C6C0001D0002010BD012010BD0000A086010035
:107C7C0070470000FEE70000FEE70000FEE7000092
:107C8C00FEE70000704700007047000070470000DE
:107C9C0070470000704700007047000070470000FC
:107CAC0070470000704700007047000070470000EC
:107CBC0070470000704700007047000070470000DC
:107CCC0070470000704700007047000070470000CC
:107CDC0070470000704700007047000070470000BC
:107CEC00FFF736B900F0F0BC704700007047000099
:107CFC00704700007047000070470000704700009C
:107D0C00704700007047000010B52B48002101603F
:107D1C002A4C207918B12079401E207110BD1420F6
:107D2C0020712089152803D320891438208100E084
:107D3C002181E089152807D3E0891438E081E08996
:107D4C00152810D203200CE06079322803D2607918
:107D5C00401C607107E061716089401C60810121E9
:107D6C000420FCF7DBFF2078401C207020780C28C6
:107D7C000BD300202070A179481E8041C00FA07148
:107D8C00A08910B1A089401EA081607810B16078E4
:107D9C00401E6070A07810B1A078401EA07000F05A
:107DAC0071F9010006D0E07014210320FCF7B6FF36
:107DBC003C20E08110BD00BF10040040C80600202C
:107DCC0070470000704700007047000070470000CB
:107DDC0070470000704700007047000070470000BB
:107DEC0070470000704700007047000070470000AB
:107DFC00704700007047000070470000704700009B
:107E0C00704700007047000070470000704700008A
:107E1C00704700007047000070470000704700007A
:107E2C00704700007047000070470000704700006A
:107E3C00704700007047000030B581B05E4C22786E
:107E4C005AB95E4D2A685043C4F8140201FB02F083
:107E5C00C4F818020120207001E0012A38D16068B2
:107E6C0098B9564D2A6892B2D4F8141204F1140041
:107E7C00FFF770FD4022982104F1140000F04AFC39
:107E8C0028684038606040200BE040229821A068B0
:107E9C000019143000F03EFC606840386060A06847
:107EAC004030A06040210120FFF7BEFC30210120B2
:107EBC00FFF718FCD4F814024030C4F81402D4F8BC
:107ECC0018024038C4F818023D4881684039816076
:107EDC00D4F8180240B96060A060C4F814023948A4
:107EEC00032101700020207001B030BD30B581B08D
:107EFC00314CE268403223785BB9304B1B685843F5
:107F0C00C4F81C0201FB03F0C4F82002012020700D
:107F1C0001E0012B3CD10020206125480AE0E168FA
:107F2C00091910F8013B0B752169491C2161E168A5
:107F3C00491CE160E1689142F1D31E4D2888D4F8C8
:107F4C001C124118C4F81C12D4F82022101AC4F8C0
:107F5C0020021A4A1368B0FBF3F202FB130068B953
:107F6C00E060C91A04F11400FFF7CCFCD4F81C0231
:107F7C00A0F5807104F58A70FFF7C4FC1048816885
:107F8C002A88891A81604FF440510220FFF7C2FB06
:107F9C00D4F8200218B10B480078042806D1002030
:107FAC00E0600121FEF790FE0020207001B030BD92
:107FBC00580600205606002000040020DC06002095
:107FCC0044060020540600200A0F0A2A03D3373235
:107FDC0000F8012B02E0303200F8012B09010909ED
:107FEC000A0E0A2A03D3373200F8012B02E0303292
:107FFC0000F8012B0902090A0A0D0A2A03D33732A9
:10800C0000F8012B02E0303200F8012B0903090BB8
:10801C000A0C0A2A03D3373200F8012B02E0303263
:10802C0000F8012B89B20A0B0A2A03D3373200F865
:10803C00012B02E0303200F8012B0905090D0A0A68
:10804C000A2A03D3373200F8012B02E0303200F851
:10805C00012BC9B20A090A2A03D3373200F8012BC3
:10806C0002E0303200F8012B01F00F010A2903D392
:10807C00373100F8011B02E0303100F8011B002100
:10808C000170704710B5002400210420FDF764F93D
:10809C00C04380B2284902000B88DB431A402DD024
:1080AC00264B4FF0190C83F800C012F4807F18BFD8
:1080BC00032412F4007F18BF042412F4806F18BF3D
:1080CC00052412F4006F18BF062412F4805F18BF49
:1080DC00072412F4005F18BF022412F4804F18BF5B
:1080EC00012412F4004F18BF082412F0080F18BF17
:1080FC00092412F0400F1CD00A241AE00A881042FE
:10810C0017D00E4A1278A2B90D4A13788BB910F415
:10811C00806F18BF052410F4006F18BF062410F0F0
:10812C00080F18BF092410F4004F18BF08240523AA
:10813C0013700880200010BD14070020C906002011
:10814C00CA060020024A118001000320FCF7E6BD9C
:10815C00D6060020DFF8C4100A6802F038020A6064
:10816C000A68104308607047DFF8B0100A681023E3
:10817C009A430A600A681043086070470348DFF8A6
:10818C0094100160DFF890100160704704200240E9
:10819C00DFF88C00016841F080010160704700003D
:1081AC0070B5060040F6FF74200000F057F8042864
:1081BC0014D1DFF86C50286840F0020028606E6023
:1081CC00286840F040002860200000F047F80128A3
:1081DC0004D0296841F6FD721140296070BD000081
:1081EC0070B506000C000F2000F038F804280FD1F1
:1081FC000B4D286840F00100286034800F2000F0FF
:10820C002DF8012804D0296841F6FE72114029602E
:10821C0070BD000023016745AB89EFCD0020024003
:10822C00102002400C490860704700000A480168A1
:10823C0011F0010F01D001207047016811F0040FFB
:10824C0001D002207047006810F0100F01D00320FD
:10825C0070470420704700000C20024010B5040049
:10826C00FFF7E4FF05E03CB100F008F8FFF7DEFF94
:10827C00641E0128F7D004B9052010BD82B000207F
:10828C000090FF2001E00098401E0090009800280C
:10829C00F9D102B0704700004448016841F0010177
:1082AC00016041680A4A114041600168094A114065
:1082BC00016001686FF480221140016040686FF426
:1082CC00FE0108403949486008460021816070472A
:1082DC000000FFF8FFFFF6FE34490A686FF48033A4
:1082EC001A400A600A686FF480231A400A604FF43F
:1082FC008032801A08D04FF44032801A02BF0868CE
:10830C0040F4A02008607047086840F48030086092
:10831C007047000000B581B000200090312000F0C3
:10832C002DF80099491C009118B90098B0F5A06F70
:10833C00F4D1312000F022F8401E8041C043C00F20
:10834C0001B000BD01490860704700BF60004242A7
:10835C0009490A6803239A431043086070470000D8
:10836C000548006800F00C007047000001490860E7
:10837C00704700BFD8004242041002404109012955
:10838C0002D10A49096805E0022919BF0749496A5F
:10839C000649096A012200F01F0002FA00F00840A9
:1083AC00401E8041C043C00F7047000000100240C7
:1083BC0048617264776172652056657220322E3680
:1083CC002020000053657269616C204E6F3A2000CA
:1083DC0020202020204453323033204D696E6920F8
:1083EC0044534F205359532056657220312E333449
:1083FC002020202020202000506C656173652069AE
:10840C006E707574206D6173746572206C69636530
:10841C006E63653A20303030303030303000000040
:10842C0020202020202020204C6963656E6365206D
:10843C00696E707574206572726F72202020202016
:10844C002020202020000000202020202020202080
:10845C00204C6963656E63652077726974656E2064
:10846C006F6B2020202020202020202020000000C6
:10847C0020202020202020204C6963656E6365201D
:10848C0077726974656E206572726F72202020207D
:10849C0020202020200000002020202020205075AB
:1084AC00736820616E79206B657920746F206E651E
:1084BC007874207374657020202020202000000028
:1084CC00024908432C490860704700000000FA0577
:1084DC0070B50378C178002935D02749096801F4B3
:1084EC00E061C1F5E061090A9A10DFF86CC05CF834
:1084FC0022E003F00303DB004FF0FF0C0CFA03FC4B
:10850C006FEA0C0404EA0E0E44780D00C5F1040564
:10851C00AC4085780F2626FA01F129402143090148
:10852C0099400CEA010141EA0E010B4B43F8221071
:10853C0000784111094A012300F01F0003FA00F0F2
:10854C0042F8210070BD58110549012203F01F03A8
:10855C009A4041F8202070BD00E400E000E100E00A
:10856C0080E100E0024A114008430249086070476C
:10857C0080FFFF1F08ED00E00CED00E030BF7047FE
:10858C0020BF704740BF7047BFF36F8F7047BFF37A
:10859C004F8F7047BFF35F8F704701DF7047EFF36A
:1085AC001480704780F31488BFF36F8F7047EFF31C
:1085BC000980704780F309887047EFF30880704793
:1085CC0080F30888704762B6704772B67047EFF355
:1085DC001080704761B6704771B67047EFF3138027
:1085EC00704780F311887047EFF31280704740BAE0
:1085FC00704700BA704700008B0707D0521E24BF8B
:10860C0011F8013B00F8013BF6D8704783071ED1E7
:10861C00103A07D330B4B1E83810103AA0E838104B
:10862C00F9D230BC530724BFB1E80810A0E80810F9
:10863C0044BF51F8043B40F8043BD20724BF31F847
:10864C00022B20F8022B44BF0B7803707047083ABA
:10865C0007D3B1E80810083A40F8043B40F804CBC3
:10866C00F7D25307E4E70000028802F441520B886A
:10867C001A434B881A438B881A43CB881A430B89AD
:10868C001A434B891A438B891A43CB891A430280AC
:10869C00098A0182704700000029018802D041F04C
:1086AC00400102E04FF6BF7211400180704700009C
:1086BC00818170478089704700890140481E804144
:1086CC00C043C00F7047000030B581B00D4C0E4850
:1086DC00016821800D4D21882A88114011F4806F8A
:1086EC0005D04FF6FF31016009484068804720886B
:1086FC002988084010F4004F18BFFEF725FB01B085
:10870C0030BD00BF18070020445C00401A07002051
:10871C00200700200F4B03EB4101521C52100AD0D2
:10872C0010F8013B10F801CB43EA0C2321F8023B73
:10873C00891C521EF4D17047064B03EB4101521CAD
:10874C00521005D051F8043B20F8023B521EF9D1CF
:10875C0070470000006000402603530054004D0099
:10876C006900630072006F0065006C0065006300B7
:10877C00740072006F006E006900630073000000EB
:10878C002603530054004D003300320020004D00EE
:10879C006100730073002000530074006F007200BE
:1087AC00610067006500000007480121016000219D
:1087BC0001600022426003494FF4E0520A800260DB
:1087CC00002070471A070020405C004079880008A0
:1087DC002003000000040020000000003D88000879
:1087EC003401000028890008200700200000000048
:1087FC0009022000010100C0320904000002080631
:10880C0050040705810240000007050202400000E9
:10881C000448C0610221017203490162034A4262A9
:10882C0008680047A00600202007002078070020D9
:10883C0009E050F8041B50F8042B51F804CB42F813
:10884C0004CB1B1FF9D150F8043B002BF1D170471E
:10885C0010B50448044C02E050F8041B8847A042B1
:10886C00FAD110BDD8870008FC870008002305E06A
:10887C0050F8041B41F8043B121FFBD150F8042B99
:10888C00002AF5D17047000000F042F8002801D012
:10889C00FFF7DEFF0020FEF711FE00F03BF80000B2
:1088AC0080B504490868002803D00220ABBE002024
:1088BC00086001BD0C0700201201000200000040FE
:1088CC0083042057000201020301000080B5FFF76A
:1088DC00E7FF02491820ABBEFCE7C04626000200A9
:1088EC0010035300540020004D006100730073000E
:1088FC0007463846FFF7EAFFFBE70000FEF7CCB867
:10890C00FEF7F0B801617047416170470403090438
:10891C0001207047FFF7ECBF3000000075720008B3
:10892C00AD720008CD730008D1730008D573000830
:10893C001974000869740008717400087D740008CB
:10894C00897400080000000040000000188900082D
:10895C000400000064870008260000008C870008D3
:10896C0026000000C00700201A000000EC88000858
:10897C0010000000254D000881730008254D0008EB
:10898C00254D0008254D0008A9730008254D000849
:10899C00254D0008C1730008008002022000000071
:1089AC004D696E695F44534F466C6173682044692E
:1089BC00736B202020202020200000001A0353007D
:1089CC0054004D0033003200310030000000000034
:1089DC00000000000000000009890008254D000877
:1089EC00254D0008254D0008254D0008254D000893
:1089FC00254D0008254D00080D890008254D00085F
:108A0C00254D0008254D0008254D0008254D000872
:108A1C00700000000000000A0000000000000000D0
:108A2C000000000000000008000000000200000030
:108A3C00C488000812000000FC8700082000000019
:108A4C00000600000000000003010000030000000D
:0400000508008895D2
:00000001FF
