:020000040800F2
:10C00000E833002039390108F92E0108FD2E010816
:10C01000012F0108052F0108092F01080000000069
:10C02000000000000000000000000000112F0108C7
:10C030000D2F010800000000152F0108192F01081D
:10C040001D2F0108212F0108252F0108292F010884
:10C050002D2F0108312F0108352F0108392F010834
:10C060003D2F0108412F0108452F0108492F0108E4
:10C070004D2F0108512F0108552F0108592F010894
:10C080005D2F0108612F0108652F0108692F010844
:10C090006D2F0108712F0108752F0108792F0108F4
:10C0A0007D2F0108812F0108852F0108892F0108A4
:10C0B0008D2F0108912F01086530010869300108B2
:10C0C0006D300108713001087530010879300108C0
:10C0D0007D30010881300108853001088930010870
:10C0E0008D30010891300108953001089930010820
:10C0F0009D300108A1300108A5300108A9300108D0
:10C10000AD300108B1300108B5300108B93001087F
:10C11000BD300108C1300108C5300108C93001082F
:10C12000CD300108D1300108D5300108D9300108DF
:10C13000F0B581B00021142007F0CEF801212420B1
:10C1400007F0CAF8304C2068B0F95C11072007F0FE
:10C15000C3F8206800F5AF700188082007F0BCF82C
:10C160000121092007F0B8F801210B2007F0B4F8ED
:10C170006421002007F0B0F86421012007F0ACF83A
:10C18000224C206881880A2007F0A6F82068808861
:10C19000411C0C2007F0A0F80121052007F09CF8B5
:10C1A00003F0F0FB2021202007F096F84FF4FA600E
:10C1B00006F034FB0121062007F08EF8142006F06B
:10C1C0002DFB134C4FF400602060124D2860124E7E
:10C1D0004FF4805707F074F8306020683168C9B2B6
:10C1E00008182060296856F8042B1204120E511802
:10C1F00029607F1EEED12968401A000B01490870A2
:10C2000001B0F0BD42740020F88600203474002094
:10C210000C340020103400201C3400202DE9F04F95
:10C22000A7B08246DFF8880E00210170142007F0C5
:10C2300053F8DFF8805EB5F99403401C0A214143AE
:10C24000022007F049F8002007F02AF8DFF86C0E0A
:10C2500000210170052007F03FF80121242007F09C
:10C260003BF82021202007F037F80020A5F85001E6
:10C27000B5F9E403401E05214143032007F02CF8E3
:10C28000DFF8440E4FF4FA71018000252E4628464F
:10C290008DF81000DFF8347E3868B0F9F810072008
:10C2A00007F01AF83868B0F8FA10082007F014F808
:10C2B0002946092007F010F829460B2007F00CF852
:10C2C000A94640F28F1B4FF6FF77A8461FFA89F167
:10C2D0001FFA88F006F0E0FF380006F0DFFF08F1F3
:10C2E00001081FFA88F05845F0D309F114091FFA24
:10C2F00089F0DC28E9D3A846EF211FFA88F006F080
:10C30000CBFF380006F0CAFF08F101081FFA88F0D9
:10C310005845F1D30021084606F0BEFF4FF0EF0864
:10C32000380006F0BBFFB8F10108F9D114212C2028
:10C3300006F0B2FF4FF0B508380006F0AFFFB8F1D5
:10C340000108F9D11421582006F0A6FF4FF0B508D6
:10C35000380006F0A3FFB8F10108F9D114218420B8
:10C3600006F09AFF4FF0B508380006F097FFB8F1D5
:10C370000108F9D11421C82006F08EFF4FF0B5084E
:10C38000380006F08BFFB8F10108F9D11421F42030
:10C3900006F082FF4FF0B508380006F07FFFB8F1D5
:10C3A0000108F9D114214FF4907006F075FF4FF099
:10C3B000B508380006F072FFB8F10108F9D1142170
:10C3C0004FF4A67006F068FF4FF0B508380006F08D
:10C3D00065FFB8F10108F9D100214FF4C77006F0EC
:10C3E0005BFF4FF0EF08380006F058FFB8F1010886
:10C3F000F9D1DFF8DC8C2DE9004100230522B921B9
:10C40000062001F08FF802B008F1080001B52B46B4
:10C410000522B921312001F085F802B008F11000A1
:10C4200001B52B460522B9215D2001F07BF802B051
:10C4300008F1180001B52B460522B921892001F029
:10C4400071F802B008F1200001B52B4640F2051248
:10C45000B921CE2001F066F802B008F1080001B55C
:10C460002B4640F20512B921F92001F05BF802B029
:10C4700008F1100001B52B4640F20512B92140F237
:10C48000251001F04FF802B008F1180001B52B4655
:10C4900040F20512B9214FF4A97001F043F802B03F
:10C4A0002F4610A80990DFF8300C0A9016A80B90C0
:10C4B000DFF8280C0C9013A80D90DFF8240C0E90D8
:10C4C00019A80F90DFF81C0C00901CA80890DFF84A
:10C4D000180C079021A80690DFF8100C0590AB46C9
:10C4E0004FF0A609DFF8080C0068584401B5002396
:10C4F00005221FFA89F1062001F014F802B0DFF8D6
:10C50000F00B0068584401B52B4640F205121FFAA3
:10C5100089F1CE2001F006F802B009A90868421C92
:10C520000A600AA90B685A1C0A601978017008A9E8
:10C530000868821C0A6007A90B689A1C0A6019889F
:10C5400001800BA90868421C0A600CA90B685A1CE0
:10C550000A60197801700DA90868421C0A600EA9CA
:10C560000B685A1C0A601978017006A90868821CB9
:10C570000A6005A90B689A1C0A60198801800FA936
:10C580000868421C0A6000A90B685A1C0A601978E6
:10C5900001707F1CBFB2A9F114090BF1140BDFF875
:10C5A000540B00688088B8429CD2DFF84C0B00889E
:10C5B00050B90021022006F08FFE0121142006F060
:10C5C0008BFE27B0BDE8F08FEFB239000A2006F0ED
:10C5D00083FE39000C2006F07FFE142006F01EF9C1
:10C5E0000121062006F078FE142006F017F9DFF886
:10C5F0006C0E4FF400610160DFF864BE0846CBF8B2
:10C600000000DFF8607E4FF4805906F059FE386074
:10C61000DFF8480E00683968C9B20818DFF83C1E18
:10C620000860DBF8001057F8042B1204120E5118A2
:10C63000CBF80010B9F10109E7D1EFB2DFF8981A91
:10C640007956DFF8A42A32F81720000B4FF4007354
:10C6500002FB003001EB902000B20090DFF8800A6E
:10C660003856DFF8881A31F81710DBF80020120B63
:10C6700001FB023100EB912B0FFA8BFBDFF8E80D89
:10C680000178002900F0EE8400210170F0B20C283E
:10C6900000F2E884DFE810F00D00B8002F01AD01D2
:10C6A000E3015B02C202300307047304A504BA0469
:10C6B000CF0400252827DFF8240A40574FF42241F1
:10C6C00000FB0710411200EB91508112002006F090
:10C6D00003FEDFF8100A40574FF4224100FB071019
:10C6E000411200EB91508112012006F0F5FD08F196
:10C6F000280001B52B4640F20532D821082000F071
:10C7000011FF02B008F1400001B52B4640F205329E
:10C71000D821E82000F006FF02B040F2054908F1F8
:10C720004C0001B52B464A46D8214FF4987000F0D2
:10C73000F9FE02B008F1580001B52B4640F205326F
:10C740000621082000F0EEFE02B0D9A001B5DFF806
:10C750001C0D03784A460621502000F0E3FE02B08B
:10C760005FFA8AFABAF1000F24D108F1880001B506
:10C7700000230522D821B82000F0D4FE02B02F46B5
:10C78000DFF85409DFF85419DFF85C29002300F8BA
:10C79000013B4FF4806322F8023B2B4601F8013B3A
:10C7A0007F1CBFB2DFF84C391B689B88BB42C0F0CE
:10C7B0005984EBE7BAF1010F40F0548408F190007E
:10C7C00001B5002340F20512D821B82000F0AAFEDE
:10C7D00002B02F46DFF80809DFF80819DFF80C2946
:10C7E000002300F8013B4FF4806322F8023B2B4604
:10C7F00001F8013B7F1CBFB2DFF8F8381B689B884B
:10C80000BB42C0F02F84EBE708F1980001B500238C
:10C8100040F205320621082000F084FE02B05FFAE3
:10C820008AFABAF1000F1CD10098A0F1280149B290
:10C8300001A806F0BFF801A801B501230522A62032
:10C84000142107FB110189B22D2000F06BFE02B00C
:10C85000DFF88408385C0099401A2830DFF878182F
:10C860001EE0BAF1010F1CD1ABF1280149B201A8B9
:10C8700006F0A0F801A801B5012340F20512A62098
:10C88000142107FB110189B2F52000F04BFE02B024
:10C89000DFF84C08385C5946401A2830DFF8401859
:10C8A00078546D1CEDB2DFF84C0800688088A8420F
:10C8B00002D20025761CF6B22827DFF82008285679
:10C8C0004FF4224100FB0710411200EB91508112FE
:10C8D000002006F001FDDFF80C0828564FF4224135
:10C8E00000FB0710411200EB91508112012006F06D
:10C8F000F3FC0024B6E3641CE4B2082C28BF002437
:10C900005FFA8AFABAF1000F21D10098A0F128014C
:10C9100049B201A806F04EF801A801B5002305228E
:10C92000A620142107FB110189B22D2000F0FAFD89
:10C9300002B00098283808D0DFF89C07385C0099CE
:10C94000401A2830DFF8901723E0002423E0BAF1E2
:10C95000010F1FD1ABF1280149B201A806F02AF856
:10C9600001A801B5002340F20512A620142107FBFF
:10C97000110189B2F52000F0D5FD02B0BBF128000D
:10C98000E3D0DFF85C07385C5946401A2830DFF8FE
:10C99000501778540CB96D1CEDB2DFF858070068D9
:10C9A0008088E9B2884202D20025761CF6B25FFA8E
:10C9B00085F92827DFF8240719F900004FF42241F0
:10C9C00000FB0710411200EB91508112002006F08D
:10C9D00083FCDFF8100719F900004FF4224100FB37
:10C9E0000710411200EB91508112012006F074FCF7
:10C9F00038E3641C4FF0A009DFF8E0063856DFF892
:10CA0000701A00FB0910411200EB915081120020B6
:10CA100006F062FCDFF8CC063856DFF8541A00FB4B
:10CA20000910411200EB91508112012006F054FCD4
:10CA30005FFA8AFABAF1000F02D100988D2804E05B
:10CA4000BAF1010F04D1BBF18D0F01DB761CF6B2F8
:10CA5000E4B2152CC0F00683761CF6B202E3002483
:10CA60005FFA8AFABAF1000F24D1009800F1600150
:10CA700049B201A805F09EFF01A801B501230522D6
:10CA8000A620142107FB110189B2592000F04AFDAC
:10CA900002B0DFF84806385C0099DFF8D82902EBCD
:10CAA0008121A02291FBF2F1401ADFF8301626E036
:10CAB00020000000BAF1010F22D10BF1600149B250
:10CAC00001A805F077FF01A801B5012340F2051286
:10CAD000A620142107FB110189B240F2211000F0B9
:10CAE00021FD02B0DFF8FC05385CDFF8881901EBA6
:10CAF0008B21A02291FBF2F1401ADFF8E81578545F
:10CB00006D1CEDB2DFF8EC0500688088A84202D207
:10CB10000025761CF6B2EFB24FF0A009DFF8BC0595
:10CB20003856DFF84C1900FB0910411200EB915008
:10CB30008112002006F0D0FBDFF8A8053856DFF898
:10CB4000301900FB0910411200EB91504CE7641CB6
:10CB5000E4B2082C28BF00245FFA8AFABAF1000F69
:10CB600027D1009800F1600149B201A805F022FF29
:10CB700001A801B500230522A620142107FB1101FD
:10CB800089B2592000F0CEFC02B00098A0380ED037
:10CB9000DFF84805385C0099DFF8D82802EB8121DE
:10CBA000A02291FBF2F1401ADFF8301529E00024B1
:10CBB00029E0BAF1010F25D10BF1600149B201A8BA
:10CBC00005F0F8FE01A801B5002340F20512A620E9
:10CBD000142107FB110189B240F2211000F0A2FCE0
:10CBE00002B0BBF1A000E2D0DFF8F804385CDFF857
:10CBF000841801EB8B21A02291FBF2F1401ADFF89F
:10CC0000E41478540CB96D1CEDB2DFF8E804006848
:10CC10008088E9B28842BFF47EAF79E7641CE4B251
:10CC2000152C01D3761CF6B20025DFF8B00440576E
:10CC30009DF81010022932D228274FF4224100FB20
:10CC40000710411200EB91508112002006F044FBC6
:10CC5000DFF8900440574FF4224100FB07104112C7
:10CC600000EB91508112012006F036FB5FFA8AFA40
:10CC7000BAF1000F0AD10098322880F2F381012620
:10CC80009DF81000401C8DF81000EBE1BAF1010F87
:10CC900040F0E881BBF1320F80F2E481EFE7192721
:10CCA0004FF4CC4100FB0710411200EB9150811270
:10CCB000002006F011FBDFF82C0440574FF4CC4164
:10CCC00000FB0710411200EB91508112012006F089
:10CCD00003FB5FFA8AFABAF1000F04D100983728F3
:10CCE00080F2C081B8E6BAF1010F40F0BB81BBF120
:10CCF000370F80F2B781AFE608F1C80001B5002315
:10CD000040F20532D821202000F00CFC02B040F2A5
:10CD100005490C2007FB008000F53A7001B5DFF8EB
:10CD20004C0703784A46D821582000F0FBFB02B09C
:10CD300008F1D00001B5002340F20532D821A0202F
:10CD400000F0F0FB02B008F1E80001B5002340F26A
:10CD500005320621082000F0E5FB02B0D3A001B5A2
:10CD6000DFF8080703784A460621902000F0DAFB36
:10CD700002B0D1A001B5DFF8F40603784A460621D7
:10CD8000B02000F0CFFB02B008F5827001B500239F
:10CD900040F205320621D82000F0C4FB02B0C8A042
:10CDA00001B5DFF8C80603784A4606214FF4A8709B
:10CDB00000F0B8FB02B0C3A001B5DFF8B0060378FD
:10CDC0004A4606214FF4B87000F0ACFB02B05FFA9F
:10CDD0008AFABAF1000F2FD114204743DFF89826C2
:10CDE000009824280ADB002001B503230298193893
:10CDF000BF49096879180969414303E0002001B57A
:10CE00000323002103A805F011FD02B001A801B51C
:10CE1000DFF8580603780522C7F1A60189B28620FB
:10CE200000F080FB02B008F58E7001B500230522EA
:10CE3000D8214FF4A47012E1BAF1010F40F0128131
:10CE400014204743DFF83026BBF1240F0ADB002013
:10CE500001B50323ABF11900A549096879180969DF
:10CE6000414303E0002001B50323002103A805F09E
:10CE7000DDFC02B001A801B5DFF8F005037840F24F
:10CE80000512C7F1A60189B24FF4A77000F04AFB62
:10CE900002B008F5927001B5002340F20512D821C6
:10CEA0004FF4A470DBE000208DF8100008F59670B8
:10CEB00001B5002340F205320621082000F032FBC4
:10CEC00002B040F205497EA001B5DFF8A005037865
:10CED0004A460621602000F025FB02B079A001B58A
:10CEE000DFF8880503784A460621802000F01AFB07
:10CEF00002B008F5A07001B5002340F2053206210A
:10CF0000882000F00FFB02B008F5B27001B50023D5
:10CF100040F20532D821082000F004FB02B008F5E9
:10CF2000BA7001B500234A46D821702000F0FAFA01
:10CF300002B068A001B5DFF8340503784A46D8216D
:10CF4000482000F0EFFA02B05FFA8AFABAF1000F57
:10CF500008D108F5C87001B500230522D8214FF487
:10CF6000A4707CE0BAF1010F7CD108F5CC7001B55A
:10CF7000002340F20512D8214FF4A4706FE040F274
:10CF8000054954A001B5DFF8E40403784A46D821E6
:10CF9000482000F0C7FA02B008F5D07001B50023B0
:10CFA0004A46D821702000F0BDFA02B05FFA8AFA32
:10CFB000BAF1000F09D108F5DC7001B5002340F289
:10CFC0000512D8214FF4947049E0BAF1010F49D10C
:10CFD00008F5E27001B500230522D8214FF49470C2
:10CFE0003DE040F205493BA001B5DFF8800403783D
:10CFF0004A46D821482000F095FA02B008F5E870BA
:10D0000001B500234A46D821702028E040F20549A6
:10D0100030A001B5DFF8540403784A46D8214820EF
:10D0200000F080FA02B008F5FA7001B500234A4614
:10D03000D821702013E040F2054926A001B5DFF8A1
:10D040002C0403784A46D821482000F06BFA02B03D
:10D0500008F5067001B500234A46D821702000F07B
:10D0600061FA02B01248007800283FF49EAA2248D4
:10D070004FF4167101801F4800688088E9B2884229
:10D080004FD3F0B207284CD15FFA8AFABAF1000FF9
:10D0900034D101A801B500230522A6204FF0140CBD
:10D0A00001FB1C0189B2862038E000BF2D00000082
:10D0B0001F740020D07B00202B000000E0860020A1
:10D0C0003C0000003E00000026740020F88600208E
:10D0D000A42B010820000000FC8600203C870020D3
:10D0E0000887002048870020148700202887002018
:10D0F00030740020347400202A740020BAF1010F2B
:10D100000FD101A801B5002340F20512A6204FF06F
:10D11000140C01FB1C0189B24FF4A77000F002FA55
:10D1200002B0D648007802280CD0052800F04B81C8
:10D13000062800F06B81082800F02D81092800F0F6
:10D14000198185E1F0B208B9761CF6B2F0B2082870
:10D1500003D0092855D1CAF1010A0027A62640F2BA
:10D1600021195FFA8AFABAF1000F1BD108F50F7086
:10D1700001B500230522B1B22D2000F0D3F902B091
:10D1800008F50F7001B500230522B1B2592000F057
:10D19000C9F902B008F5117001B500230522B1B23A
:10D1A000862021E0BAF1010F21D108F50F7001B5F9
:10D1B000002340F20512B1B2F52000F0B3F902B03D
:10D1C00008F50F7001B5002340F20512B1B24846D0
:10D1D00000F0A8F902B008F5117001B5002340F283
:10D1E0000512B1B24FF4A77000F09CF902B07F1C99
:10D1F000BFB2143EA84800688088B842B1D2002669
:10D2000026E10A28C0F0248169D100279C480590B6
:10D2100010A806909B48079016A808909A4813A952
:10D220009A4A19ABDFF868C20DF1700E994C21AD26
:10D230000DF1140ADAF8009009F1010BCAF800B0F8
:10D240004DF8089D0DF12009D9F800A00AF1010B55
:10D25000C9F800B09AF800A05DF8089B89F800A012
:10D260003EF8029B2CF8029B0DF11C0ADAF80090A4
:10D2700009F1010BCAF800B04DF8089D0DF128091D
:10D28000D9F800A00AF1010BC9F800B09AF800A083
:10D290005DF8089B89F800A011F8019B00F8019B3C
:10D2A00035F8029B24F8029B13F8019B02F8019BBE
:10D2B0007F1CBFB2DFF8E091D9F80090B9F8049074
:10D2C000B945B5D202F0A2F808F5137001B50023F4
:10D2D00040F20542D821082000F024F902B0F0B253
:10D2E0000B280CD102F092F808F5207001B500234C
:10D2F00040F20542D821082000F014F902B0F6B23D
:10D300000C2E2FD100275E485E495F4A5F4BDFF845
:10D3100080C1DFF880E1002400F8014B4FF4806405
:10D320002CF8024B002401F8014B02F8014B4FF49A
:10D3300080642EF8024B002403F8014B7F1CBFB21F
:10D34000554C2468A488BC42E5D202F05FF808F589
:10D350002D7001B5002340F20542D821082000F0CD
:10D36000E1F802B04FF47A7005F058FA02F0A8F92B
:10D37000FFF727B9F0B2072803D1E8B208B16D1E54
:10D38000EDB2F0B2092801D3761EF6B2F0B2082849
:10D390005ED10C265CE0F0B2082801D3761CF6B210
:10D3A000F0B20D2801D3082603E0072801D16D1C37
:10D3B000EDB2394800688088E9B2884248D2002539
:10D3C000761CF6B244E0F0B2072841D15FFA8AFA3F
:10D3D000BAF1000F0BD10098242839DBE8B22C49B0
:10D3E00031F81010891E2A4A22F8101030E0BAF1E4
:10D3F000010F2DD1BBF1240F2ADBE8B2254931F80A
:10D400001010891E234A22F8101021E0F0B20728DC
:10D410001ED15FFA8AFABAF1000F0BD100982428C6
:10D4200016DBE8B21A4931F81010891C184A22F8A4
:10D4300010100DE0BAF1010F0AD1BBF1240F07DB88
:10D44000E8B2144931F81010891C124A22F8101061
:10D450000A4800210170FFF7A8B800BF0C34002073
:10D46000103400201C34002023740020227400207B
:10D47000008202005080FDFFBC3601081F740020AE
:10D48000FC8600203C870020088700204887002079
:10D490001487002028870020347400202DE9F043F1
:10D4A00081B014001D0001F10A039BB20A0000F1D3
:10D4B0000A0189B205F0F8FE0B206843184901EB18
:10D4C00040050B2604F00F072412B5F800904FF02A
:10D4D0000008DFF8180C414649FA01F111F0010F7C
:10D4E00004D000F5707030F8140003E000F570709F
:10D4F00030F8170005F0D2FE08F101081FFA88F095
:10D500000B28E6D3AD1C761EDFD1EF23002240F2BC
:10D510008F11002001B0BDE8F04305F0C5BE00BF8B
:10D520005C3501082DE9F44F1C000A9D01F10A0346
:10D530009BB20A0040F28F1105F0B6FE0B27BDF832
:10D54000000000F00F084FEA2029DFF8A06B24B993
:10D5500006F5707030F8180003E006F5707030F8CA
:10D56000190005F09BFE7F1EF1D1287800283CD0E1
:10D570000027BDF8000000F00F084FEA20292878A6
:10D58000202801D021281ED14FF0000B212801D1E5
:10D59000042F16D04FF0000A50460BFA00F010F49A
:10D5A000806F1BD0E4B906F5707030F8190005F0F3
:10D5B00075FE0AF1010ABAF10B0FEDDB7F1C082F93
:10D5C000DDDB6D1CD1E7F9B201EBC0000B4901EBCB
:10D5D0004000A0F50870B0F900B0DBE7002CE2D104
:10D5E00006F5707030F81800E1E7EF23002240F2F2
:10D5F0008F1101B0BDE8F04F05F056BE382201088A
:10D60000F0B585B005000C2D60D34FF49C708542B9
:10D610005CD2A5F10C0000B2820012B2A5F10B00A1
:10D6200000B283001BB200200DF1080C0DF1000EBA
:10D63000DFF85C4A00218CF8001041108E18365D2E
:10D640008EF80060C918095D8EF80110C82E03D34A
:10D65000C7268EF8006004E0022E02D201268EF862
:10D660000060C82903D3C7218EF8011004E0022905
:10D6700002D201218EF801109EF800109EF8016080
:10D68000B14211D1012901D0C72903D101218CF860
:10D69000001009E0022902D3491E8EF80010C72E9F
:10D6A00002D2711C8EF801109EF801109EF80060E5
:10D6B000B1423CBF8EF801608EF80010801C0EF164
:10D6C000020E0CF1020CC1B20829B3D305F0F4FD2F
:10D6D0000D21280005F0E0FD15F0010F00F0868215
:10D6E000DFF8084A2100DFF8AC0905F0E7FD0C2D52
:10D6F000C0F0418240F23717BD4280F03F82DFF830
:10D700009C299DF80800002831D1B2F910000028AA
:10D710002DD09DF8000000AB59780B1A062B14DBB6
:10D72000814224D304EB400303F5F073B4F8C0C383
:10D73000ACF5844CB3F800E04CEA0E0E23F802EB93
:10D74000401CC0B2814212D3F4E781420FD304EBF4
:10D75000400303F5F073B4F8C0C3B3F800E04CEA3B
:10D760000E0E23F802EB401CC0B28142F5D202A992
:10D770008878002835D1B2F96000002831D000AB9C
:10D7800093F802C06046DB78A3EB0C0CBCF1060FEB
:10D7900015DB834225D304EB400C0CF5F07CB4F888
:10D7A000C2E34FF6F857BE44BCF800604EEA0606E6
:10D7B0002CF8026B401CC0B2834212D3F4E78342C0
:10D7C0000FD304EB400C0CF5F07CB4F8C2E3BCF8CA
:10D7D00000604EEA06062CF8026B401CC0B2834281
:10D7E000F5D20879002835D1B2F9B000002831D03F
:10D7F00000AB93F804C060465B79A3EB0C0CBCF162
:10D80000060F15DB834225D304EB400C0CF5F07CAE
:10D81000B4F8C4E34BF6F877BE44BCF800604EEAB7
:10D8200006062CF8026B401CC0B2834212D3F4E708
:10D8300083420FD304EB400C0CF5F07CB4F8C4E346
:10D84000BCF800604EEA06062CF8026B401CC0B221
:10D850008342F5D28879002833D1B2F9000100283B
:10D860002FD000AB93F806C06046D979A1EB0C032A
:10D87000062B14DB814224D304EB400303F5F07341
:10D88000B3F800C0B4F8C6E3AEF5007E4EEA0C0C67
:10D8900023F802CB401CC0B2814212D3F0E7814290
:10D8A0000FD304EB400303F5F073B4F8C6C3B3F829
:10D8B00000E04CEA0E0E23F802EB401CC0B281429D
:10D8C000F5D2B2F9400258B9B4F9E00304EB4000D4
:10D8D000B0F8E011B4F8C0331943A0F8E01128E023
:10D8E00001280BD1B4F9E40304EB4000B0F8E011D7
:10D8F000B4F8C2331943A0F8E0111AE002280BD1A2
:10D90000B4F9E80304EB4000B0F8E011B4F8C43314
:10D910001943A0F8E0110CE003280AD1B4F9EC0394
:10D9200004EB4000B0F8E011B4F8C6331943A0F896
:10D93000E011B2F8C801C0F1A10000B20C2856DB1A
:10D9400085423BD102F5E571097811F0040F35D11C
:10D95000B4F8CC1304F5F1731B880B4304F5F17C88
:10D96000ACF8003004F5F4734FF00B0CB3F800E0A2
:10D9700041EA0E0EA3F800E0B3F806E041EA0E0E0D
:10D98000A3F806E0B3F80CE041EA0E0EA3F80CE0B1
:10D99000B3F812E041EA0E0EA3F812E0B3F818E073
:10D9A00041EA0E0EA3F818E0B3F81EE041EA0E0EAD
:10D9B000A3F81EE02433BCF1010CD7D1411E8D42E7
:10D9C00002D0411C8D4205D1B4F8CC13A4F87013D9
:10D9D000A4F8E01185420AD1B4F8CC13A4F870136E
:10D9E000A4F86E1304F5F1700180A4F8E011B2F808
:10D9F000300300F10B0109B28D423AD192F83203A3
:10DA000010F0040F35D1B4F8C80304F5F1731B8886
:10DA1000034304F5F17CACF8003004F5F4734FF0E7
:10DA20000B0CB3F800E040EA0E0EA3F800E0B3F8E8
:10DA300006E040EA0E0EA3F806E0B3F80CE040EA78
:10DA40000E0EA3F80CE0B3F812E040EA0E0EA3F8B5
:10DA500012E0B3F818E040EA0E0EA3F818E0B3F8AD
:10DA60001EE040EA0E0EA3F81EE02433BCF1010CC8
:10DA7000D7D1481E854202D0481C85420BD1B4F84C
:10DA8000C803B4F870330343A4F87033B4F8E0313A
:10DA90001843A4F8E0018D4217D1B4F8C803B4F8D4
:10DAA00070130143A4F87013B4F86E130143A4F883
:10DAB0006E1304F5F1710988014304F5F1731980BF
:10DAC000B4F8E0110843A4F8E001B2F8440300F10F
:10DAD0000B0109B28D4237D192F8460310F0040FC2
:10DAE00032D1B4F8C80304F5F1721288024304F588
:10DAF000F1731A8004F5F4720B23B2F800C040EA07
:10DB00000C0CA2F800C0B2F806C040EA0C0CA2F857
:10DB100006C0B2F80CC040EA0C0CA2F80CC0B2F877
:10DB200012C040EA0C0CA2F812C0B2F818C040EAC9
:10DB30000C0CA2F818C0B2F81EC040EA0C0CA2F8F7
:10DB40001EC024325B1ED8D1481E854202D0481C1C
:10DB5000854205D1B4F8C803A4F87003A4F8E00125
:10DB60008D423FD1B4F8C803A4F87003A4F86E0343
:10DB700004F5F17135E00B2D34D100E032D1DFF83E
:10DB80001C25B2F9900204EB4001B4F8C80301F57A
:10DB9000EF731B88034301F5EF7CACF80030B1F85C
:10DBA000E0310343A1F8E03101F5F1731B88034331
:10DBB00001F5F1710B80B2F9A41204EB410101F5FA
:10DBC000EF721288024301F5EF731A80B1F8E02179
:10DBD0000243A1F8E02101F5F1721288104301F52A
:10DBE000F1710880C92104F5F0704DE2681C40F223
:10DBF0003717B84204D1DFF8A014DFF8EC0421E0B5
:10DC00000B2821D0A5F10A001E21DFF8DC24DFF863
:10DC1000DC4490FBF1F303FB110121B904F5F07131
:10DC200002F2BC400EE0062190FBF1F303FB110071
:10DC300020B904F5F07102F54A7003E004F5F071C3
:10DC400002F5CA7005F03AFB0C2D03D04FF49B701F
:10DC5000854213D1DFF84424B2F99012DFF88C44E6
:10DC6000B4F8C80334F81130034324F81130B2F982
:10DC7000A41234F81120104324F81100DFF81C24FA
:10DC800092F8920210F0040F0AD1B2F99012DFF864
:10DC90005C4434F81100B4F8C833184324F8110078
:10DCA00092F8A60210F0040F0AD1B2F9A412DFF81C
:10DCB0003C4434F81100B4F8C833184324F8110078
:10DCC0000C2DC0F0DF81BD4280F0DC819DF80800A2
:10DCD000002831D1B2F9100000282DD09DF80000A5
:10DCE00000AB59780B1A062B14DB814224D3DFF8E2
:10DCF000FC4304EB4003B4F8C0C3ACF5844CB3F868
:10DD000000E04CEA0E0E23F802EB401CC0B2814248
:10DD100012D3F4E781420FD3DFF8D04304EB400382
:10DD2000B4F8C0C3B3F800E04CEA0E0E23F802EBDF
:10DD3000401CC0B28142F5D202A98878002834D1B3
:10DD4000B2F96000002830D000AB93F802C0604602
:10DD5000DB78A3EB0C0CBCF1060F15DB834224D35C
:10DD6000DFF8884304EB400CB4F8C2E34FF6F857F1
:10DD7000BE44BCF800404EEA04042CF8024B401CA0
:10DD8000C0B2834211D3F4E783420ED3D74C04EBE5
:10DD9000400CB4F8C2E3BCF800404EEA04042CF88E
:10DDA000024B401CC0B28342F5D20879002833D11F
:10DDB000B2F9B00000282FD000AB93F804C0604641
:10DDC0005B79A3EB0C0CBCF1060F14DB834223D36D
:10DDD000C64C04EB400CB4F8C4E34BF6F877BE44F1
:10DDE000BCF800404EEA04042CF8024B401CC0B2C0
:10DDF000834211D3F4E783420ED3BC4C04EB400CB6
:10DE0000B4F8C4E3BCF800404EEA04042CF8024B1A
:10DE1000401CC0B28342F5D28879002831D1B2F9D2
:10DE2000000100282DD000AB93F806C06046D979D8
:10DE3000A1EB0C03062B13DB814222D3AB4C04EB8A
:10DE40004003B4F8C6C3ACF5007CB3F800E04CEA7C
:10DE50000E0E23F802EB401CC0B2814211D3F4E74E
:10DE600081420ED3A14C04EB4003B4F8C6C3B3F80F
:10DE700000E04CEA0E0E23F802EB401CC0B28142D7
:10DE8000F5D2B2F8C801C0F1A10000B20C2851DBF4
:10DE9000854237D102F5E571097811F0040F31D1CF
:10DEA000924CB4F8CC1363880B43638004F10803ED
:10DEB0004FF00B0CB3F800E041EA0E0EA3F800E0BF
:10DEC000B3F806E041EA0E0EA3F806E0B3F80CE062
:10DED00041EA0E0EA3F80CE0B3F812E041EA0E0E90
:10DEE000A3F812E0B3F818E041EA0E0EA3F818E028
:10DEF000B3F81EE041EA0E0EA3F81EE02433BCF195
:10DF0000010CD7D1411E8D4202D0411C8D4205D15A
:10DF1000764CB4F8CC13A4F890112180854209D135
:10DF2000724CB4F8CC13A4F8901104F5C7700180BA
:10DF300061802180B2F8300300F10B0109B28D42FB
:10DF400036D192F8320310F0040F31D1674CB4F897
:10DF5000C80363880343638004F108034FF00B0C8C
:10DF6000B3F800E040EA0E0EA3F800E0B3F806E0D4
:10DF700040EA0E0EA3F806E0B3F80CE040EA0E0EFD
:10DF8000A3F80CE0B3F812E040EA0E0EA3F812E09A
:10DF9000B3F818E040EA0E0EA3F818E0B3F81EE05C
:10DFA00040EA0E0EA3F81EE02433BCF1010CD7D1D9
:10DFB000481E854202D0481C854205D14B4CB4F81E
:10DFC000C803A4F8900120808D4208D1474CB4F8D2
:10DFD000C803A4F8900104F5C77108806080B2F806
:10DFE000440300F10B0109B28D4234D192F846038B
:10DFF00010F0040F2FD13D4CB4F8C80362880243DF
:10E00000628004F108020B23B2F800C040EA0C0C55
:10E01000A2F800C0B2F806C040EA0C0CA2F806C094
:10E02000B2F80CC040EA0C0CA2F80CC0B2F812C056
:10E0300040EA0C0CA2F812C0B2F818C040EA0C0C6E
:10E04000A2F818C0B2F81EC040EA0C0CA2F81EC01C
:10E0500024325B1ED8D1481E854202D0481C85421E
:10E0600005D1224CB4F8C803A4F8900120808D4259
:10E0700008D11E4CB4F8C803A4F8900104F5C77188
:10E0800008806080C921194805F012F905B0F0BD7B
:10E09000308200207C1D010834890020D07B0020C4
:10E0A00030B581B005F008F90F4C104D05F5F07151
:10E0B000200005F003F905F0FFF8290004F5CA7007
:10E0C00005F0FCF80B24A0B2FFF79AFA641C4FF499
:10E0D0009C71A0B28842F6D305F0E8F801B0BDE823
:10E0E000304005F0E9B80000E81B01085487002023
:10E0F0002DE9F14F82B0042810D25022554B00FB7D
:10E100000232B2F94C20C62A80F2A080524A02EBB9
:10E110008102B2F9E023C62A80F2988000244F4A97
:10E12000072300FB0323009302F11C0B0D004A4E52
:10E1300006EB85075021474A00FB0128A0B20728BB
:10E140002FD2BDF80800042807D2009890F800905C
:10E15000B8F94C0000F1090105E09BF80090B7F90F
:10E16000E00300F1090189B2A0B205F095F84FF083
:10E17000080A19F0010F02D0B6F8CA0303E006F549
:10E18000707030F8150005F089F84FEA5909BAF1B6
:10E19000010AEED106F5707030F8150005F07EF832
:10E1A0004AE0BDF80800042823D2B8F94C10081939
:10E1B000C11C89B2A0B205F06FF8B8F94C00011982
:10E1C00001F103091FFA89F91830001B814533DA80
:10E1D00006F5707030F8150005F060F809F10109D6
:10E1E0001FFA89F9B8F94C001830001B814523DA71
:10E1F000EEE7B7F9E0130819C11C89B2A0B205F027
:10E200004BF8B7F9E003011901F103091FFA89F985
:10E210001830001B81450FDA06F5707030F81500D4
:10E2200005F03CF809F101091FFA89F9B7F9E00393
:10E230001830001B8145EFDB641C0BF1010B0098CB
:10E24000401C0090A0B20B28FFF478AF03B0BDE8EB
:10E25000F08F00BFD07B0020548700207038010869
:10E26000F0B581B005F028F800259D4C0C21A8B22E
:10E2700005F012F8CB26B4F8CA0305F00FF8761EA5
:10E28000F9D16D1C0B2DF1DB964DB5F9100018B1CD
:10E2900000210020FFF72CFFB5F9600018B1012123
:10E2A0000120FFF725FFB5F9B00018B102210220C7
:10E2B000FFF71EFFB5F9000118B103210320FFF796
:10E2C00017FFB5F9400218B900210720FFF710FF2A
:10E2D000B5F94002012803D101210720FFF708FF0B
:10E2E000B5F94002022803D102210720FFF700FF01
:10E2F000B5F94002032803D103210720FFF7F8FEF8
:10E300000C214FF49C7004F0C7FFCB26B4F8CA036D
:10E3100004F0C4FF761EF9D10B2640F239170C2108
:10E32000B0B204F0B9FFB4F8CA0304F0B7FFD621C5
:10E33000B0B204F0B1FFB4F8CA0304F0AFFF761C2A
:10E34000BE42ECDBB5F9900200F10B0189B20A2064
:10E3500004F0A2FFB4F8C80304F0A0FFB4F8C803A7
:10E3600004F09CFFB4F8C80304F098FFB4F8C803A5
:10E3700004F094FFB4F8C80304F090FFB5F9A402C8
:10E3800000F10B0189B20A2004F086FFB4F8C8033B
:10E3900004F084FFB4F8C80304F080FFB4F8C803A5
:10E3A00004F07CFFB4F8C80304F078FFB4F8C803A5
:10E3B00004F074FFB5F9900200F10B0189B24FF43B
:10E3C0009C7004F069FFB4F8C80304F067FFB4F868
:10E3D000C80304F063FFB4F8C80304F05FFFB4F8A7
:10E3E000C80304F05BFFB4F8C80304F057FFB5F9A5
:10E3F000A40200F10B0189B24FF49C7004F04CFFB1
:10E40000B4F8C80304F04AFFB4F8C80304F046FFA8
:10E41000B4F8C80304F042FFB4F8C80304F03EFFA8
:10E42000B4F8C80304F03AFFB5F8C801C0F1A10080
:10E4300000B20C2818DB861E36B2871CB74213DBED
:10E440000C21B0B204F028FFB4F8CC0304F026FF8E
:10E45000D621B0B204F020FFB4F8CC0304F01EFFC4
:10E46000761C36B2B742EBDAB5F830030B3000B2A7
:10E47000861E36B2871CB74213DB0C21B0B204F003
:10E480000BFFB4F8C80304F009FFD621B0B204F0C2
:10E4900003FFB4F8C80304F001FF761C36B2B7429C
:10E4A000EBDAB5F844030B3000B2851E2DB2861CA2
:10E4B000AE4213DB0C21A8B204F0EEFEB4F8C803A0
:10E4C00004F0ECFED621A8B204F0E6FEB4F8C803CE
:10E4D00004F0E4FE6D1C2DB2AE42EBDA01B0F0BDEB
:10E4E00054870020D07B00202DE9F04F81B000211F
:10E4F000592004F0D1FE0C2540F21F54200004F0F6
:10E50000CDFE6D1EFAD100215A2004F0C5FE0C2567
:10E51000200004F0C3FE6D1EFAD100214FF49A7062
:10E5200004F0BAFE0C25200004F0B8FE6D1EFAD1EE
:10E53000002140F2351004F0AFFE0C25200004F05D
:10E54000ADFE6D1EFAD15B2540F2331B3D4E2F0010
:10E55000B0464FF008090021B8B204F09DFE4FF01C
:10E56000000A012000FA0AF0B8F80010084201D0B1
:10E57000200000E0002004F091FE0AF1010ABAF147
:10E580000C0FEEDB08F102087F1CB9F10109E2D1A2
:10E5900008355D45DBDB40F6D464C8252A4E0021F2
:10E5A000B6F9C801684390FBF4F05B3080B204F028
:10E5B00073FE4FF009084FF6FF77380004F06EFE47
:10E5C000B8F10108F9D10021B6F9C801684390FB00
:10E5D000F4F06A3080B204F05FFE4FF009083800B2
:10E5E00004F05CFEB8F10108F9D14FF000080021F9
:10E5F000B6F9C801684390FBF4F0424610185B304E
:10E6000080B204F049FE380004F048FE0921B6F952
:10E61000C801684390FBF4F0424610185B3080B2AA
:10E6200004F03AFE380004F039FE08F10108B8F1B0
:10E63000100FDCDB06F5EF700021017001B0BDE8C2
:10E64000F08F00BF083A0108D07B00204FF6FF7121
:10E65000884201D1002070474FF6E07101EA0002C4
:10E660008A4201D1012070474105490D40F2FF72F5
:10E67000914201D1032070474FF61F0101EA0002C9
:10E680008A4201D10520704700F4FC61B1F5FC6FAE
:10E6900001D1072070474BF6E05101EA00028A429F
:10E6A00001D10220704740F2F751014040F2F75289
:10E6B000914201D1042070474BF6170101EA000294
:10E6C0008A4201D10620704700F4BC61B1F5BC6FED
:10E6D00001D10820704747F6EF3101EA00028A4273
:10E6E00001D10920704740F21F51014040F21F52F2
:10E6F000914201D10A20704700F47841B1F5784F7A
:10E7000001D10B20704700F01F001F2801D10C2001
:10E7100070470D207047000070B588B0040002A853
:10E720001B490C2204F07CFE210000A804F028F90B
:10E730009DF800008DF80C009DF801008DF80D008B
:10E740009DF802008DF80E00DFF89C4A01AB05AA87
:10E7500002A9200004F0E0FD050016D1002504F513
:10E76000297605A9200004F0D9FD08B108200CE0A5
:10E770004FF496722100300004F052FE6D1C06F535
:10E780009676A8B20428ECD3002008B070BD00BF74
:10E79000383A01082DE9F04188B0040004A82C495A
:10E7A0000D2204F03DFE210000A804F0E9F89DF8D8
:10E7B00000008DF814009DF801008DF815009DF8FB
:10E7C00002008DF81600DFF8204A01AB02AA04A966
:10E7D000200004F09FFD08B10A2036E04FF40071DC
:10E7E000200005F089F900251A4E1B4F40F20A5807
:10E7F00030782070601C311D952211F8043B00F820
:10E80000013B11F8043B00F8013B521EF5D137F8EB
:10E81000500B84F82B0102A9200004F081FD98B967
:10E8200005F0030342460021FE20FEF737FE6D1C73
:10E83000761CA8B20428DBD301AB02AA4FF4006116
:10E84000200004F06FFD00B1092008B0BDE8F081A0
:10E85000183A0108308200201C7C00202DE9F04F7E
:10E8600087B0040004A856490C2204F0D9FD210009
:10E8700000A804F085F89DF800008DF8140000A8A9
:10E8800041788DF8151080788DF81600DFF858491A
:10E8900001AB02AA04A9200004F03CFD08B10A2043
:10E8A0008BE0362204F25471200004F0C5FD04F51B
:10E8B000217004F136010822038803F478431B0A0F
:10E8C00001F8013B038803F4FC63DB0801F8013B1A
:10E8D00030F8023B1B065B0D01F8013B002301F8F9
:10E8E000013B038803F478431B0A01F8013B0388CA
:10E8F00003F4FC63DB0801F8013B30F8023B1B0624
:10E900005B0D01F8013B002301F8013B521ED3D1FE
:10E910004FF0760800251E4640F20A5B0027B1B290
:10E92000380004F0B9FC04F0E5FC8146B1B2781C73
:10E9300080B204F0B1FC04F0DDFC82464846FFF7EB
:10E9400085FE81465046FFF781FE00EB09104146E7
:10E95000085508F101081FFA88F84FF4007188453E
:10E9600010D302A9200004F0DBFC28BB681000F0E3
:10E9700003035A460021FE20FEF790FD6D1CADB248
:10E980004FF00008BF1CBFB24FF4C8718F42C6D30E
:10E99000761CB0B2F028C1D3B8F1000F04D002A9A0
:10E9A000200004F0BDFC38B901AB02AA4FF43C4191
:10E9B000200004F0B7FC00B1092007B0BDE8F08FDB
:10E9C000443A01082DE9F04188B0040004A85449F4
:10E9D0000C2204F025FD210000A803F0D1FF9DF8D2
:10E9E00000008DF8140000A841788DF8151080788B
:10E9F0008DF81600DFF8F04701AB02AA04A9200049
:10EA000004F088FC08B10A2086E00025002640F2C8
:10EA10000A58DFF8DC774FF40072701006EB907044
:10EA2000801007EB8001200004F0FAFC02A920000E
:10EA300004F076FC00286ED1681000F00303424613
:10EA40000021FE20FEF72AFD6D1C06F50076E8B2D7
:10EA50002028E0D34FF40071200005F04DF820008D
:10EA6000DFF8841901F11002022332F814CB20F8E8
:10EA700002CB32F814CB20F802CB32F814CB20F8BA
:10EA800002CB32F814CB20F802CB32F814CB20F8AA
:10EA900002CB32F814CB20F802CB32F814CB20F89A
:10EAA00002CB32F814CB20F802CB5B1EDDD1B1F8DB
:10EAB000A0210280B1F8B42120F8022FB1F938204A
:10EAC000DFF82C39D256D2B220F8022FB1F9382013
:10EAD000DFF82C3933F8122020F8022FB1F9882002
:10EAE000DFF81039D256D2B220F8022FB1F98810CF
:10EAF000DFF8102932F8111020F8021F02A92000B7
:10EB000004F00EFC38B901AB02AA4FF48441200096
:10EB100004F008FC00B1092008B0BDE8F08100BF96
:10EB2000503A01082DE9F04F89B0060004A8894940
:10EB30000D2204F075FCDFF8B0464AF65520A4F823
:10EB4000000204F20220DFF8A05805F110010222B1
:10EB500031F8143B20F8023B31F8143B20F8023B1B
:10EB600031F8143B20F8023B31F8143B20F8023B0B
:10EB700031F8143B20F8023B31F8143B20F8023BFB
:10EB800031F8143B20F8023B31F8143B20F8023BEB
:10EB9000521EDDD1B5F8A01120F8021BB5F8B41152
:10EBA00020F8021BDFF848B85946DFF848A852465B
:10EBB000DFF84C984B46DFF84C88C4464FF0040E03
:10EBC00011F9017BFFB220F8027B33F8027B20F8B9
:10EBD000027B12F9017BFFB220F8027B3CF8027B3A
:10EBE00020F8027B11F9017BFFB220F8027B33F899
:10EBF000027B20F8027B12F9017BFFB220F8027B36
:10EC00003CF8027B20F8027BBEF1010ED8D1310026
:10EC100000A803F0B5FE9DF800008DF8140000A8D0
:10EC200041788DF8151080788DF8160003AB01AA95
:10EC300004A9200004F070FB060040F08880002644
:10EC4000002701A9200004F069FB08B108207EE03C
:10EC50004FF400722100781007EB90708010DFF8FD
:10EC6000903503EB800004F0DBFB761C07F50077A2
:10EC7000F0B22028E5D301A9200004F04FFB0028C2
:10EC8000E4D1200005F11001022230F9023B21F805
:10EC9000143B30F9023B21F8143B30F9023B21F8D8
:10ECA000143B30F9023B21F83A39022301F8143BB6
:10ECB00001F8143B01F8143B01F8123B30F9023B18
:10ECC00021F8143B30F9023B21F8143B30F9023BA8
:10ECD00021F8143B30F9023B21F83A39022301F8BC
:10ECE000143B01F8143B01F8143B01F8123B521E8F
:10ECF000CBD1B0F90010A5F8A01130F9021FA5F88A
:10ED0000B41105F5D1710B7005F5DB710B70B5F918
:10ED1000381030F8022F01F80B2030F8022F29F8B4
:10ED20001120B5F9881030F8022F01F80A2030F8C8
:10ED3000022F28F811200120A5F8500105F5A9702F
:10ED4000007840F0020005F5A9710870002009B0B4
:10ED5000BDE8F08F283A010830B581B0DFF88804AB
:10ED600000F20221B0F800224AF655239A4240F000
:10ED70009C80DFF8742602F110034FF0020C31F989
:10ED800002EB23F814EB31F902EB23F814EB31F921
:10ED900002EB23F814EB31F902EB23F83AE94FF0D8
:10EDA000020E03F814EB03F814EB03F814EB03F86A
:10EDB00012EB31F902EB23F814EB31F902EB23F8F3
:10EDC00014EB31F902EB23F814EB31F902EB23F8E1
:10EDD0003AE94FF0020E03F814EB03F814EB03F8D2
:10EDE00014EB03F812EBBCF1010CC8D131F9023B72
:10EDF000A2F8A03131F9023BA2F8B43102F5D17387
:10EE0000F44683F800C002F5DB7202231370DFF8CA
:10EE1000E025DFF8E035DFF8E8C5DFF8E8E50224B3
:10EE200031F8025B02F8015B31F8025B2CF8025BFF
:10EE300031F8025B03F8015B31F8025B2EF8025BEC
:10EE400031F8025B02F8015B31F8025B2CF8025BDF
:10EE500031F8025B03F8015B31F8025B2EF8025BCC
:10EE600031F8025B02F8015B31F8025B2CF8025BBF
:10EE700031F8025B03F8015B31F8025B2EF8025BAC
:10EE800031F8025B02F8015B31F8025B2CF8025B9F
:10EE900031F8025B03F8015B31F8025B2EF8025B8C
:10EEA000641EBDD10021A0F8001201B030BD0000E9
:10EEB0002DE9F04F89B0050006A8C7490C2204F0DF
:10EEC000AFFA0024290001A803F05AFD9DF80400C0
:10EED0008DF81C0001A841788DF81D1080788DF800
:10EEE0001E00C14D05AB02AA06A9280004F012FAC3
:10EEF00008B10A206CE10722B849280004F09CFA06
:10EF000000200A26B94FDFF8E014B1F9381001FBF0
:10EF100006712A0004E0D371491C401CC0B2521C87
:10EF20000B781BB1212BF6D12023F4E741192C22B9
:10EF3000CA710C72401CC0B200F1070808EB050949
:10EF40000722A749484604F06BFA09F1070100209F
:10EF5000DFF89424B2F9882002FB06720B0004E06B
:10EF600003F801CB521C401CC0B292F800C0BCF1A7
:10EF7000000F05D0BCF1210FF2D14FF0200CEFE7CC
:10EF80002C23435441184C70401CC0B2C01D00EBF0
:10EF900008060F229349701904F042FA06F10F098E
:10EFA000A34693480190DFF84004B0F93810019867
:10EFB0000068DFF83C248A56DFF8443433F8111037
:10EFC000C3B24FF4007C01FB03C102EB912109B2F3
:10EFD000012908DBC92903DBC7218DF8001005E0F2
:10EFE0008DF8001002E000218DF80010DFF8F81312
:10EFF000B1F98810DFF8FC238A56DFF8083433F8BB
:10F00000111000F47F435943090A01F5007102EB26
:10F01000912109B2012908DBC92903DBC7218DF839
:10F02000011005E08DF8011002E000218DF80110BB
:10F03000DFF8B413B1F9EC1010F4803F02D18DF871
:10F04000021002E014318DF80210DFF89C13B1F9C0
:10F050003C1110F4003F1ABF01F114008DF80300B9
:10F060008DF803104FF000080DF1000A9AF8001017
:10F0700004A803F085FC002604AF3878F8B109F83D
:10F08000050009F10109B9F5007F13D302A9280091
:10F0900004F046F9002840F09A80601000F0030365
:10F0A00040F20A520021FE20FEF7F8F9641CE4B297
:10F0B0004FF00009761C7F1CF6B2032EDDD32C2006
:10F0C00009F8050009F10109B9F5007F12D302A979
:10F0D000280004F025F9002879D1601000F003031E
:10F0E00040F20A520021FE20FEF7D8F9641CE4B277
:10F0F0004FF0000908F101080AF1010A5FFA88F0EF
:10F100000428B3D30D2009F8050009F10109B9F568
:10F11000007F12D302A9280004F002F9002856D17A
:10F12000601000F0030340F20A520021FE20FEF7B7
:10F13000B5F9641CE4B24FF000090A2009F8050093
:10F1400009F10109B9F5007F11D302A9280004F0E3
:10F15000E7F8E0BB601000F0030340F20A52002120
:10F16000FE20FEF79BF9641CE4B24FF000090BF19E
:10F17000010B0198001D0190BBF5805FFFF413AFF8
:10F18000B9F1000F1CD00D2009F8050009F10100AC
:10F190000A21415500F10109C9F5007109EB05008B
:10F1A00004F0A6FC02A9280004F0BAF878B96010AF
:10F1B00000F0030340F20A520021FE20FEF76EF930
:10F1C00005AB02AA6102280004F0ACF800B10920E6
:10F1D00009B0BDE8F08F00BF5C3A0108983A010819
:10F1E000A03A010868390108447400206C800020AE
:10F1F0001C34002070B586B0002404F065F80100CE
:10F2000000A803F001FC57208DF8080050208DF86D
:10F21000090054208DF80A0000208DF80B006F4D76
:10F2200003AB04AA00A9280004F076F8010040F01E
:10F23000D38004A9280004F071F808B10820CBE0BD
:10F240002888C0B2062801D00520C5E0280080210A
:10F2500010F8012B1219D2B210F8013B9A18D2B251
:10F2600010F8013B9A18D2B210F8013B9C18E4B296
:10F27000491EEDD10CB10620AEE02888000A58499D
:10F280000870584968880870000A4870281D891C51
:10F290000222038801F8013B1B0A01F8013B30F808
:10F2A000023F01F8013B03881B0A01F8013B30F8DB
:10F2B000023F01F8013B30F8023B1B0A01F8013B19
:10F2C000521EE6D1484930F9022B0A8230F9022B4E
:10F2D0008A8430F9022B0A8730F9022BA1F84C20DE
:10F2E0006031062230F9023B21F8143B30F9023B31
:10F2F00021F8143B30F9023B21F8143B30F9023B72
:10F3000021F8143B30F9023B21F8143B30F9023B61
:10F3100021F8143B30F9023B21F8143B30F9023B51
:10F3200021F8143B521EDDD13049032203884B7073
:10F330001B0A0B7030F8023F4B7303881B0A0B73D8
:10F3400030F8023F4B7630F8023B1B0A0B76243133
:10F35000521EEBD12649274A274BDFF8A0C0DFF821
:10F36000A0E0284C0525068801F8016B360A02F852
:10F37000016B30F8026F2EF8026B30F8026F24F840
:10F38000026B30F8026F03F8016B0688360A0CF83E
:10F39000016B30F8026F01F8016B0688360A02F83B
:10F3A000016B30F8026F2EF8026B30F8026F24F810
:10F3B000026B30F8026F03F8016B30F8026B360A0B
:10F3C0000CF8016B6D1ECED10F49B0F900200A80F8
:10F3D00030F9022F8A80002006B070BD44740020EE
:10F3E0004C80002050800020D07B0020E47F002053
:10F3F000FC860020088700203C87002048870020EA
:10F400001487002028870020348B00202DE9F0434A
:10F4100087B0002403F058FF010004A803F0F4FAB9
:10F4200004AE57203072502070725420B072984D44
:10F4300000AB01AA04A9280003F06EFF10B1042854
:10F440002BD021E1BDF80400ADF80C004220307251
:10F45000412070724B20B07200AB01AA04A92800B1
:10F4600003F058FF08B10A200FE103A9280003F0B8
:10F4700055FF08B1082008E101A9280003F050FF5A
:10F48000002840F0018100AB01AA4FF40071280070
:10F4900003F048FF002840F0F780572030725020DA
:10F4A00070725420B07200AB01AA04A9280003F0C6
:10F4B00031FF0028D7D14FF40071280004F01CFB65
:10F4C000744800780002801D28807349487811F83C
:10F4D000022B02EB00206880281D02224B7891F855
:10F4E00000C00CEB032320F8023BCB7891F802C05C
:10F4F0000CEB032320F8023B4B7991F804C00CEB92
:10F50000032320F8023B891D521EE7D163490A8A72
:10F5100020F8022B8A8C20F8022B0A8F20F8022B6D
:10F52000B1F84C2020F8022B6031062231F8143B50
:10F5300020F8023B31F8143B20F8023B31F8143B31
:10F5400020F8023B31F8143B20F8023B31F8143B21
:10F5500020F8023B31F8143B20F8023B31F8143B11
:10F5600020F8023B31F8143B20F8023B521EDDD15B
:10F570004B4903220B7891F801C00CEB032320F8D0
:10F58000023B0B7B91F80DC00CEB032320F8023BF0
:10F590000B7E91F819C00CEB032320F8023B2431B9
:10F5A000521EE7D13F49404A404BDFF804C1DFF823
:10F5B00004E1414E052711F9018B12F9019B09EB7A
:10F5C000082820F8028B3EF8028B20F8028B36F8D0
:10F5D000028B20F8028B13F9018B1CF9019B09EBBC
:10F5E000082820F8028B11F9018B12F9019B09EB15
:10F5F000082820F8028B3EF8028B20F8028B36F8A0
:10F60000028B20F8028B13F9018B1CF9019B09EB8B
:10F61000082820F8028B7F1ECDD128490A88028055
:10F62000898820F8021F2800492110F8012B12199F
:10F63000D2B210F8013B9A18D2B210F8013B9A18D6
:10F64000D2B210F8013B9A18D2B210F8013B9A18C6
:10F65000D2B210F8013B9A18D2B210F8013B9C18B4
:10F66000E4B2491EE1D1E043401C85F8FF0101A945
:10F67000280003F055FE38B900AB01AA4FF4007121
:10F68000280003F04FFE00B1092007B0BDE8F08369
:10F69000447400204C80002050800020D07B00204B
:10F6A000E47F002008870020FC8600204887002097
:10F6B0003C8700201487002028870020348B0020FE
:10F6C00000B581B00121242003F006FE00211420A2
:10F6D00003F002FE002003F0E3FD142003F09EF887
:10F6E0000121062003F0F8FDDFF8140C00F11201EF
:10F6F0000D220B7843F002030B700B7D43F00203E5
:10F700000B7591F8283043F0020381F8283091F806
:10F710003C3043F0020381F83C305031521EE8D1B6
:10F72000124903220B7843F002030B700B7B43F06A
:10F7300002030B730B7E43F002030B762431521E3F
:10F74000F0D10B490978092906D0002180F8E2128E
:10F7500080F8F61280F81E1306484FF416710180E7
:10F7600005480121017001B000BD00BFEB7F002002
:10F770004C8000202A740020C88D002030B581B054
:10F78000DFF8784B04F596600021017001212420F8
:10F7900003F0A2FD0021052003F09EFDDFF8605B71
:10F7A000B5F92410092003F097FDB5F938100A20A7
:10F7B00003F092FDB5F93800001990F90C0500F539
:10F7C0008060B5F94C104FF4007200FB012041122B
:10F7D00000EB91508112002003F07EFDB5F974100A
:10F7E0000B2003F079FDB5F988100C2003F074FDAF
:10F7F000B5F98800001900F5A36090F9000000F544
:10F800008060B5F99C104FF4007200FB012041129A
:10F8100000EB91508112012003F05EFDB5F950011B
:10F8200018B90121062003F057FD01B030BD0000DA
:10F8300070B50121242003F04FFDDFF8C44AB4F96C
:10F84000B401DFF8B85A05F59661097801B1401D99
:10F8500080B2142100FB01F605F5996000683018AC
:10F86000B0F90810072003F037FD05F5996000682E
:10F8700030184189082003F02FFDB4F9B40106497E
:10F8800031F8100005490860B4F9500118B9012198
:10F89000062003F021FD70BD703701082C74002094
:10F8A00070B5DFF85C4AB4F9F00198B924210F2053
:10F8B00003F012FD314D05F5CE7031490860B4F901
:10F8C00004020C2100FB015000F5917001880D200D
:10F8D00003F002FDB4F9F001022813D1274DB4F969
:10F8E00004020C2100FB015000F5917001880D20ED
:10F8F00003F0F2FC05F50B702149086024210F206C
:10F9000003F0EAFCB4F9F001012813D11B4DB4F95E
:10F9100004020C2100FB015000F5917001880D20BC
:10F9200003F0DAFC05F5F2701549086024210F2078
:10F9300003F0D2FCB4F9F00103281DD10E260F4DBF
:10F94000B4F9040200FB06500189102003F0C4FC46
:10F95000B4F9040200FB06504189112003F0BCFCFD
:10F96000B4F9040200FB06504089401C00EBD07043
:10F970004110122003F0B0FC70BD00BF448B00208A
:10F980005004024010B5DFF87849B4F93003B4F9F7
:10F990004423824201DA811A00E0111A222003F086
:10F9A0009BFCB4F94002B4F9541201EBC0012020D1
:10F9B00003F092FCB4F94002A8B9B4F93810DFF8AA
:10F9C0003C091B4AB2F900200B1893F9CC34D21A27
:10F9D000920200EB4100B0F8E40492FBF0F0C1B2F7
:10F9E000212003F079FCB4F94002012818D1B4F9C0
:10F9F0008810DFF808090E4AB2F904200B1803F545
:10FA00009B6393F90030D21A920200EB410000F59B
:10FA10009F60008892FBF0F0C1B2212003F05CFCF3
:10FA2000B4F9500118B90121062003F055FC10BDAE
:10FA3000348B00202DE9F04F93B0002400250220E4
:10FA40000490059006908346DFF824673482748220
:10FA5000B482F48234837483B483F483DFF8A0988F
:10FA6000B9F94C20B9F93C01831AB9F99C10DFF8B7
:10FA70008C88A3EB010CA8F8B2C4A8F8B434431ADC
:10FA8000A8F8B6340B1808F5976CACF80030DFF81E
:10FA9000743893F82BC1A0EB0C0CA8F8BAC493F8F7
:10FAA00057C2A0EB0C0CA8F8BCC493F883C3A0EB1E
:10FAB0000C0CA8F8BEC493F8AF34C31A08F5986CC0
:10FAC000ACF80030B9F9383003EB080C9CF9CCC421
:10FAD000A2EB0C02920208EB4303B3F8E43492FB6E
:10FAE000F3F23284B9F9882002EB080303F59B6333
:10FAF0001B57C91A890208EB420202F59F6212885D
:10FB000091FBF2F17184B6F920103171B6F922201F
:10FB10007271B171F2714FF400617162B162F162A0
:10FB20003163B9F9EC1001F11402C82A01DBC721D5
:10FB300000E01431A8F8C21400F11401C82901DB57
:10FB4000C72000E01430A8F8C404B9F9B4011421A6
:10FB500008F59962126800FB0121B9F9C8019622E3
:10FB6000DFF8103608F5966C9CF800C0BCF1000F69
:10FB700040F07C81C98901FB12314A1201EB92519C
:10FB800000EBA12A002706F13400019093E0BBF1BD
:10FB9000010F06D14FF0000BF08A3818F189401A96
:10FBA000F0820FFA8AFA57457DDBB9F9380008EB85
:10FBB0004001B1F8E4144FF4007C01FB03C1404460
:10FBC00090F9CC044B1201EB935100EBA120ADF85E
:10FBD0001C00B9F9880008EB400101F59F61098814
:10FBE00001FB02C1404400F59B6090F900004A12FD
:10FBF00001EB925100EBA120ADF80800BDF8080020
:10FC0000ADF81E00BDF82000ADF80A00BDF91C00DB
:10FC1000BDF90A10401A1090BDF82200ADF82C0072
:10FC2000BDF90800BDF92C10401A1190012C2FDBF2
:10FC3000C4F5806011994143109A5043ABB2039AC6
:10FC4000D2B2BDF82CC04FEA612E01EB9E510CEBF5
:10FC5000A12109B2BDF80AC04FEA602E00EB9E5008
:10FC60000CEBA02000B200F087FA6D1C2DB2B9F9A0
:10FC7000B401142108F59962126800FB0120B0F963
:10FC80000E00241A24B2B5F5967FCFDB4FF4005A4C
:10FC900004F5806424B2BDF81C00ADF82000BDF866
:10FCA0000800ADF822007F1C0198001D0190B7F5F7
:10FCB000805F80F21582B9F9B401112802DBB9F92D
:10FCC000500168B1012003F00BFB68B9B8F8C60415
:10FCD000874209D1B9F9501131B9401CA8F8C604BE
:10FCE00003F0EEFA019908600198006800A9087015
:10FCF000716A9DF80020511871629DF80030B6F9C4
:10FD00002010591AF26A01FB0121F162000A8DF8F4
:10FD100001009DF80110B06A0818B0620A00B6F937
:10FD20002200101AD6F830C000FB00C030633079D2
:10FD30009DF800C060453CBF60463071604696F853
:10FD400006C0604538BFB0717079884238BF7171A4
:10FD5000F079814238BFF171019800680002000E0D
:10FD60000390022FFFF61DAF40F6FE708742BFF6EC
:10FD700018AF0498022804D13781B8B20C90002043
:10FD8000308230789DF800C0604508D2049818B9D8
:10FD90003781308B401C30830120049010E0604696
:10FDA00096F801C060450BD20498012808D10020C4
:10FDB0000490308A3818B6F808C0A0EB0C003082E6
:10FDC0000598022804D17781B8B20D900020708286
:10FDD000B078884208D2059818B97781708B401C9A
:10FDE0007083012005900CE0F078814209D20598DB
:10FDF000012806D100200590708A38187189401AB0
:10FE000070820698022804D1B781B8B20E90002003
:10FE1000B082039810F0010F069807D018B9B78187
:10FE2000B08B401CB0830120069008E0012806D169
:10FE300000200690B08A3818B189401AB082BBF110
:10FE4000020F04D1F781B8B20F900020F08203981E
:10FE500010F0020F3FF49BAEBBF1000F03D1F7810E
:10FE6000F08B401CF0834FF0010B9AE6B1F8721052
:10FE700001FB12314A1201EB925100EBA12A00273B
:10FE800006F134000190B9F9500118B903F018FADD
:10FE90000199086001980168080CC0B20390F06AEB
:10FEA000B9F86020ADF80820BDF90820002A00AAA2
:10FEB00015D11170090A8DF80110B6F920209DF8AE
:10FEC00000309B1A5B4303EBD37300EB6303C9B2AF
:10FED000881A404300EBD07003EB600015E05170CE
:10FEE000090A8DF80010B6F922109DF80020521A68
:10FEF000524302EBD27200EB62029DF80100401AFD
:10FF0000404300EBD07002EB6000F0629DF80120EE
:10FF100010009DF800104318D6F824C003EBD373EB
:10FF20000CEB6303736233799DF800C063453CBFFB
:10FF3000634633713379934238BF32719DF8003094
:10FF400096F806C0634538BFB371B3799A4238BF9B
:10FF5000B2710FFA8AFA574573DBBDF908200ABB64
:10FF6000B9F9383008EB4302B2F8E4244FF4007CCE
:10FF700002FB01CC03EB080191F9CC144FEA6C238E
:10FF80000CEB935301EBA323ADF81C304FF400733B
:10FF900002FB0030421200EB925001EBA020ADF8C2
:10FFA0001E0022E0B9F9882008EB420303F59F63A5
:10FFB0001B884FF4007C03FB01C1424402F59B62A5
:10FFC00092F900204FEA612C01EB9C5102EBA12138
:10FFD000ADF81C104FF4007103FB0010411200EB50
:10FFE000915002EBA020ADF81E00012C26DBBDF9DC
:10FFF0002200BDF91C10091AC4F5806251434A124F
:020000040801F1
:1000000001EB925100EBA120ABB2039AD2B201B244
:1000100000B200F0B1F86D1C2DB2B9F9B401142191
:1000200008F59962126800FB0120B0F97200241AE9
:1000300024B2B5F5967FD8DB4FF4005A04F58064FE
:1000400024B257452EDBBDF91EB0012C25DBBDF9CE
:100050001C00ABEB0001C4F5806251434A1201EB76
:10006000925100EBA120ABB2039AD2B201B200B21E
:1000700000F082F86D1C2DB2B9F9B401142108F515
:100080009962126800FB0120B0F97200241A24B2B0
:10009000B5F5967FD7DB4FF4005A04F5806424B29F
:1000A000ADF822B07F1C0198001D0190B7F5805F6C
:1000B000FFF6E9AE706AB062F06A30633079707151
:1000C000B079F071B9F9100018B9B9F94C00000312
:1000D0007062B9F9600018B9B9F99C000003B06208
:1000E0003079B179081800EBD0704010001D3070E5
:1000F000083870707079F179081800EBD0704010F2
:10010000001DB0700838F07030890C99401A3081A9
:1001100070890D99401A7081B0890E99401AB0818A
:10012000F0890F99401AF08198F8040088F80000CF
:1001300008F59560007888F8AC0498F8050088F810
:10014000010098F8A90488F8AD0498F8060088F82A
:10015000020098F8AA0488F8AE0498F8070088F816
:10016000030098F8AB0488F8AF0413B0BDE8F08F33
:10017000E8330020005A02002DE9F0419C005F4D59
:10018000C82804DB4FF0C70E04F805E006E002289B
:10019000AEBF60554FF0010E04F805E0C82905DB3D
:1001A00004EB050EC7268EF801600BE0022905DA84
:1001B00004EB050E01268EF8016003E004EB050E4A
:1001C0008EF801104E4E12F0010F07BFB6F8EC701A
:1001D0008EF80270B5F8C2748EF80270B6F900712C
:1001E000BF1E072F70D8DFE807F0041E3A434B52BA
:1001F0005B6405F5966212782AB9B5F9B2248018C5
:1002000001EB000C67E0B6F910201AB1B5F9B4247F
:1002100000EB020CB6F9600000285CD0B5F9B6041A
:1002200001EB000C57E005F5966212782AB9B5F992
:10023000B2248018A0EB010C4DE0B6F910201AB1E1
:10024000B5F9B42400EB020CB6F96000002842D0E6
:1002500005F59760B0F90000A0EB010C3BE0D0433E
:1002600010F0030F0CBFB6F93CC1B5F9C4C432E0BD
:1002700012F0030F0CBFB6F93CC1B5F9C4C42AE0B3
:10028000B5F9BA041F49595C01EB000C23E0B5F93C
:10029000BC041C49591891F82C1101EB000C1AE010
:1002A000B5F9BE041749591891F8581201EB000C22
:1002B00011E005F59860B0F900001249591891F85D
:1002C000841301EB000C06E012F0020F0CBFB6F92C
:1002D0003CC1B5F9C4C4BCF1C80F03DB6019C72128
:1002E000C17008E0BCF1020F02DA60190121F7E7E2
:1002F000601980F803C0BDE8F08100003082002062
:10030000D07B0020E876002030B581B05C4CB4F999
:10031000A00104285BD8DFE800F00329465454000C
:10032000B4F94002B4F9541201EBC001202002F0EC
:10033000D3FF022002F0D4FF48B1FFF77BFBB4F9F2
:10034000B401504931F810004F4908603FE04E4871
:10035000006800283BD14D48B0F8C61440F6FF7243
:100360009142EAD30021A0F8C614E6E7B4F94002AE
:10037000B4F9541201EBC001202002F0ADFF0220BD
:1003800002F0AEFF0028D8D13F4D2868F8B94FF4ED
:1003900096613E4803F0B0FBB4F9B401394931F835
:1003A0001000286013E0B4F94002B4F9541201EBD4
:1003B000C001202002F090FF022002F091FF30B136
:1003C00003E02021202002F087FFFFF733FBFDF739
:1003D00067FEB4F95001002850D1032002F080FFDD
:1003E00000284BD00121062002F076FFB4F9B401B9
:1003F000244931F810002449086024480021A0F85D
:10040000C614B4F9A01102290BD10120A4F850019F
:1004100004F5A970007840F0020004F5A971087095
:100420002CE004292AD14B21B4F93C21B4F9EC3059
:10043000B4F99CC0B4F94CE000F801EB00F801CB32
:1004400000F8013B00F8012B00F801EB00F801CBAC
:1004500000F8013B00F8012B00F801EB00F801CB9C
:1004600000F8013B00F8012B00F801EB00F801CB8C
:1004700000F8013B00F8012B491EDDD101B030BD71
:10048000D07B0020703701082C74002030820020BF
:100490002DE9F041DFF8344D04F214450926DFF868
:1004A00088800527E87910F0020F10D00020E8714D
:1004B000687855F8041C00FB071001B50023287864
:1004C00038F81020A9796888FDF72CF802B00C35AF
:1004D000761EE7D194F87C040D2823D3162821D268
:1004E000DFF8381C0A78EAB10D38C0B200220A7071
:1004F0000C2100FB014090F8151400F582631B6885
:1005000001FB073102B5DFF8181C0B7890F81414C2
:10051000054A32F8112090F81A14B0F81604FDF7C5
:1005200001F802B0BDE8F081743A01082DE9F04FFE
:1005300081B007000024DFF8945CB5F9B4B14FF046
:100540001409DFF8900C00680BFB0900DFF84C176A
:100550000978002914BFB0F87260C6894FF0010A0B
:10056000D046BBF1090F0AD2CBF10B000321B0FB3F
:10057000F1F1C9B20A2002F047F9824609E0ABF175
:1005800009000321B0FBF1F1C9B20A2002F03CF9E5
:1005900080460320BBFBF0F0032100FB11B0DFF825
:1005A000341C096800FB0910D0F8C4000C2107FBBB
:1005B000015797F815140B291DD8DFE811F00C002E
:1005C00031003D009800E10039018B01DD01560248
:1005D000A702EC023103062002F082FE002102B5E0
:1005E0000323DFF82C2B4FF47A71414305F5926019
:1005F00002F01CF902B005F5926001B5002397F8EE
:100600001404DFF89C1631F8102097F81A1407F537
:1006100083600088FCF786FF02B001B0BDE8F08F70
:10062000022001B50223DFF87C26B5F87E0400F035
:100630007F0105F59260DBE797F8141431BBB5F93B
:10064000100001284AD1B5F93800DFF85C1631F8FE
:100650001000DFF858160978DFF854261278891A46
:100660004FF4007200FB0120411200EB9150801208
:100670000528B8BF0020B5F93810DFF8542B1268F0
:1006800001FB0921096900FB01F427E0012925D1BB
:10069000B5F96000012821D1B5F98800DFF81416FA
:1006A00031F81000DFF810160978DFF810261278FC
:1006B000891A4FF4007200FB0120411200EB9150A7
:1006C00080120528B8BF0020B5F98810DFF8002B8C
:1006D000126801FB0921096900FB01F4002001B542
:1006E0000323DFF82C2A210005F5926080E797F8B4
:1006F000141409BBB5F910000128EFD1B5F9380081
:10070000DFF8BC154156DFF8A02532F81000DFF8FD
:10071000B4251268120B4FF4007300FB023001EB9A
:100720009020B5F94C10401A6FF001018842A2DB0D
:100730000328A0DA00209EE70129CFD1B5F9600097
:100740000128CBD1B5F98800DFF87C154156DFF8D8
:10075000642532F81000DFF874251268120B4FF48C
:10076000007300FB023001EB9020B5F99C10401A99
:100770006FF001018842A7DB0328A5DA0020A3E778
:1007800097F8140418BBB5F91000012847D1DFF819
:1007900040050068000B02F095F9B5F93810DFF854
:1007A00020258A56DFF8003533F811304FF4007CED
:1007B00003FB00C002EB90200328B8BF0020DFF845
:1007C000102A126801FB0921096900FB01F497F85E
:1007D0001404012823D1B5F9600001281FD1DFF8E6
:1007E000F4040068000B02F06DF9B5F98810DFF829
:1007F000D8248A56DFF8BC3433F811304FF4007C2B
:1008000003FB00C002EB90200328B8BF0020DFF8F4
:10081000C029126801FB0921096900FB01F40120CC
:1008200001B50323DFF8E828210005F59260DFE633
:1008300097F8141429BBB5F9100001287FF44EAFC6
:10084000B5F93800DFF8601431F81010DFF85C24D7
:1008500012784FF4007301FB0231DFF864248256F2
:100860004B1201EB935102EBA121B5F94C20891AEF
:10087000DFF85C29126800FB0920006901FB00F425
:100880002CE701297FF42AAFB5F9600001287FF435
:1008900025AFB5F98800DFF81C1431F81010DFF827
:1008A000182412784FF4007301FB0231DFF818248A
:1008B00082564B1201EB935102EBA121B5F99C201A
:1008C000891ADFF80C29126800FB0920006901FB76
:1008D00000F403E797F8141429BBB5F910000128B8
:1008E0007FF4FCAEB5F93800DFF8BC1331F8101016
:1008F000DFF8BC2312784FF4007301FB0231DFF8FC
:10090000C02382564B1201EB935102EBA121B5F9A2
:100910004C20891ADFF8B828126800FB092000690A
:1009200001FB00F4DAE601297FF4D8AEB5F96000E6
:1009300001287FF4D3AEB5F98800DFF8781331F8D9
:100940001010DFF8782312784FF4007301FB0231A6
:10095000DFF8742382564B1201EB935102EBA12175
:10096000B5F99C20891ADFF86828126800FB092075
:10097000006901FB00F4B1E697F8141499B9B5F9D0
:10098000101001294AD1DFF850130988DFF84C23F1
:100990005143DFF84C23128891FBF2F14FF4FA62D5
:1009A00001FB02F43AE0012913D1B5F960100129E5
:1009B00034D1DFF830130988DFF820235143DFF802
:1009C0002823128891FBF2F14FF4FA6201FB02F442
:1009D00024E0022910D1B5F9B01001291ED1C34974
:1009E0000988BE4A5143C24A128891FBF2F14FF482
:1009F000FA6201FB02F411E003290FD1B5F90011ED
:100A000001290BD1BB490988B44A5143BA4A12881B
:100A100091FBF2F14FF4FA6201FB02F43C21B0FBCE
:100A2000F1F0B4FBF0F09E49B8F10A0F0ED20122AA
:100A300004B5042301F12402FA214843B0FBFAF083
:100A40000F21B0FBF1F105F59260D1E5012204B56B
:100A5000042301F1240208FB00F0F021B0FBF1F0C7
:100A60007043010A05F59260C2E597F8141459B96C
:100A7000B5F91010012930D19949098848439649A0
:100A80000988B0FBF1F428E001290BD1B5F9601019
:100A9000012922D194490988484392490988B0FB29
:100AA000F1F41AE002290BD1B5F9B010012914D1E3
:100AB0008F49098848438D490988B0FBF1F40CE05F
:100AC00003290AD1B5F90011012906D18A490988FB
:100AD000484388490988B0FBF1F46FF00040B0FB4F
:100AE000FAF0A04207D30AFB04F0B0FBF6F0800254
:100AF000B0FBF8F401E04FF00044012001B50423FD
:100B0000DFF81026210005F5926071E597F81414BE
:100B100061B9B5F91000012834D1784800887849C6
:100B200048436F49098890FBF1F42BE001290CD16F
:100B3000B5F96000012825D1724800887049484302
:100B40006949098890FBF1F41CE002290CD1B5F940
:100B5000B000012816D16C480088694948436449AF
:100B6000098890FBF1F40DE003290BD1B5F90001E0
:100B7000012807D165480088614948435E490988D2
:100B800090FBF1F4012001B50423DFF88C2521004E
:100B900005F592602CE597F8141489B9B5F9101091
:100BA00001299AD14C4909884D4A12884243B2FB27
:100BB000F1F2524B1B885843B0FBF1F0141A8CE74A
:100BC00001290CD1B5F96000012886D14D48008873
:100BD0004B4948434449098890FBF1F47DE70229D9
:100BE0000DD1B5F9B00001287FF477AF46480088F1
:100BF000434948433E49098890FBF1F46DE70329D6
:100C00007FF46BAFB5F9000101287FF466AF3F4870
:100C100000883B4948433849098890FBF1F45CE778
:100C200097F8141461B9B5F9101001297FF455AF84
:100C300032490988484328490988B0FBF1F44CE758
:100C400001290CD1B5F9601001297FF446AF2D4977
:100C50000988484323490988B0FBF1F43DE702299C
:100C60000CD1B5F9B01001297FF437AF26490988B6
:100C700048431E490988B0FBF1F42EE703297FF4AD
:100C80002CAFB5F9001101297FF427AF1F4909885E
:100C9000484318490988B0FBF1F41EE7E0860020BC
:100CA000A4360108D436010814870020EC33002054
:100CB000EE33002028870020ED330020EF330020A2
:100CC000FC8600200C34002008870020103400200F
:100CD00014340020183400200034002020A1070024
:100CE000F033002002340020F233002004340020CE
:100CF000F433002006340020F6330020F8330020BF
:100D0000A0860100FA330020FC330020FE330020CF
:100D10002DE9F04F81B00024DFF8B05405F5906064
:100D2000009005F1100A4FF0000BAAF10606307A88
:100D300010F0020F00F0478100F0FD003072A0B209
:100D4000042801D0072828D1307810F0200F0DD0CA
:100D500056F80A0C01B50023BAF90000A6F10A0101
:100D6000496831F8102031797088B8E110F0800FAF
:100D700040F0B881B6F906000A2156F80A2C00FBAB
:100D8000012001B50023BAF90000A6F10A01496863
:100D900031F8102031797088A1E1307810F0200FFF
:100DA0000AD056F80A0C01B50023A6F10A004068E3
:100DB00002883179708892E110F0020F00F0AA8069
:100DC000A0B208282FD1002001B50323D04AB5F9DD
:100DD0009002B5F9A412401AB5F9B8124FF0500CB0
:100DE00001FB0C51B1F938104FF0140CDFF8E0E3BF
:100DF000DEF800E001FB0CE10969414305F5926072
:100E000001F014FD02B005F5926001B50023B5F9BB
:100E1000B802A6F10A01496831F8102031797088CA
:100E2000FCF780FB02B0A0B20A285CD10127B846CB
:100E3000B5F9B491B9F1090F0ADAC9F10B00032130
:100E400090FBF1F1C9B20A2001F0DEFC070009E0D5
:100E5000A9F10900032190FBF1F1C9B20A2001F0C8
:100E6000D3FC8046032099FBF0F0032100FB119096
:100E70001421D84A126800FB0120D0F8C400B5F94B
:100E80004413B5F93023891A48436FF0004191FBB0
:100E9000F7F1012808DB814203DB784390FBF8F18E
:100EA0000BE04FF0004108E04242914203DA784300
:100EB00090FBF8F101E04FF00041002001B5032361
:100EC000944A05F5926001F0B1FC02B005F592601C
:100ED00001B50023A6F10A004068028831797088C4
:100EE000FCF720FB02B0A0B2092840F0FB80B5F867
:100EF000F412C9B2D5F8E40201F042FDD5F8E402DB
:100F000001B50023D5F8E802028895F8F212B5F889
:100F1000F002E4E001282BD105F592602021017058
:100F2000B6F90600A1B20B2916D1092816D1022064
:100F300001B50323784A642105F5926001F076FC3F
:100F400002B005F5926001B50023A6F10A004068E1
:100F5000028831797088C2E00A28E8D0022102B5FF
:100F600002236D4A401C0A21414305F59260E5E7E2
:100F7000802823D0A6F10A00A1B2082910D1B6F921
:100F800006100A2256F80A3C01FB023102B5002382
:100F9000B5F9B812406830F81120317970889EE0B8
:100FA000B6F906100A2256F80A3C01FB023102B5D6
:100FB0000023406802883179708890E0A0B20A2846
:100FC00040F09080EDE695F87C04A1B2884240F0B4
:100FD0008980009800781FFA8BF1884240F0828067
:100FE0004E48007800287DD04C4800210170A0B206
:100FF000042801D0072824D1A6F10A00317811F085
:10100000200F0CD056F80A1C02B545490B78BAF9E6
:101010000010406830F81120317970885FE0B6F92F
:1010200006100A2256F80A3C01FB023102B53C497F
:101030000B78BAF90010406830F8112031797088C7
:101040004DE0307810F0200F07D056F80A0C01B5AB
:1010500033480378A6F10A0020E0022825D0A6F143
:101060000A00A1B208290FD1B6F906100A2256F8D3
:101070000A3C01FB023102B529490B78B5F9B812D7
:10108000406830F811200BE0B6F906100A2256F835
:101090000A3C01FB023102B521490B784068028805
:1010A00031797088FCF73EFA02B0A0B2092819D154
:1010B000307810F0020F15D0BAF81410C9B2DAF86F
:1010C000040001F05DFCDAF8040001B5144803786F
:1010D000DAF8080002889AF81210BAF81000FCF743
:1010E00021FA02B00BF1010B14361FFA8BF0042821
:1010F000FFF41DAE641C0AF1500A0098401C0090D9
:10110000A0B20D28FFF40FAE01B0BDE8F08F0000D3
:10111000BC360108B0360108E0360108237400200F
:10112000227400202DE9F04381B00026274C04F200
:101130009C47B046DFF89890234D28688088401C73
:10114000012810DBD9F8000008EB0001380002F09C
:10115000CDFA761CB6B208F114080A3728688088E0
:10116000401C8642EEDB2868B0F904102186B0F9F5
:101170000410A4F880100021A4F8D010A4F82011C5
:10118000002604F234578846DFF84890C088801D56
:10119000012810DBD9F8000008EB0001380002F04C
:1011A000A5FA761CB6B208F114080A372868C08878
:1011B000801D8642EEDB2868B0F90600A4F8AC0179
:1011C00001B0BDE8F08300BF34740020D07B002064
:1011D00030740020F886002000B581B0062002F0AF
:1011E0007FF880B2002140F6B933984228BF012130
:1011F00040F6AD53984201D3491C89B240F63D7385
:10120000984201D3491C89B241F20502904201D3B0
:10121000491C89B20A480A22D0F8543101FB023233
:1012200004B50023D0F8582132F8112000F5B1712F
:101230000978B0F86001FCF775F902B001B000BDA3
:10124000D07B00202DE9F04F81B04FF440414FF0AA
:10125000006002F0C5FB02F04FF80B2002F040F8EE
:1012600058B9DFF8140901B5002340F2FF721E21BE
:10127000302002F02FF802B0FEE7DFF8000901B5D8
:1012800000234FF6FF723221302002F023F802B023
:10129000072002F025F8DFF8E8180860082002F0BF
:1012A0001FF8DFF8E0180860092002F019F8DFF8ED
:1012B000D81808600A2002F013F8DFF8D018086088
:1012C000FFF730FFFDF796FF040006D1DFF8C008F6
:1012D00001B500234FF4FC6205E0DFF8B80801B562
:1012E000002340F2FF721E21302001F0F3FF02B014
:1012F000DFF8A4084FF4FA710180FAF719FFFEF73E
:10130000DFF9DFF89898002089F800004FF0140BFF
:10131000DFF88C58DFF88C68DFF88C784FF05008D5
:1013200011E000224A70042200F8982C4978022922
:1013300002D1002100F8981C002089F80000DFF895
:101340006C0801210170DFF86808008840B90021AD
:10135000022001F0C1FF0121142001F0BDFF58E07F
:10136000FEF7D2FF0AF1010A1FFA8AFA0098DFF8A5
:101370004418098880B2884212D0DFF83808008803
:101380000090DFF83408A0F800A04FF0000AFFF743
:1013900023FF0024E0B2FFF7C9F8641C092CF9DB35
:1013A000FFF776F8FFF7B4FCDFF80008007860B3C9
:1013B000FEF7E4F9FEF73CFAFEF772FAFEF7E2FAFE
:1013C000FCF74EFFB7F99403401C0A214143022069
:1013D00001F082FF3078092818BFFDF785F897F8EB
:1013E000BA0240F0020087F8BA0297F8CE0240F045
:1013F000020087F8CE0297F86E0340F0020087F8EB
:101400006E03DFF8A80700210170DFF8B0070021A4
:101410000170B7F95001012812D1032001F060FFDB
:1014200018B9022001F05CFF50B90220A7F8500162
:1014300007F5A970007840F0020007F5A97108705F
:1014400099F8000000283FF47EAFDFF864070088B9
:1014500008B9FEF735F9DFF858074FF41671018027
:1014600099F80000012827D1B7F95011481E804192
:10147000C00FA7F8500107F5A970007840F00200EE
:1014800007F5A97108703078092805D1B7F9080364
:10149000022808BFFDF760FCB7F9A00102280BD1B4
:1014A0004FF49661DFF8180702F022FB4FF49664C0
:1014B0000121062001F010FF99F80000022819D13F
:1014C000307808B1012815D1DFF8F8064FF4FA6139
:1014D0000180DFF8F006008828B1042001F000FF49
:1014E00010F4005FF5D0DFF8DC06008810B9307822
:1014F000FAF794FE99F80000032813D1FDF786FF50
:10150000307809280ED0DFF8C00601B5002340F27C
:10151000054200215B20FCF705F802B04FF4FA7099
:1015200001F07CF999F80000042840F08D803078B3
:10153000092840F08980DFF8940601B5002340F2C5
:101540000A520021E620FBF7EDFF02B0307800FBE5
:101550000870B0F9101049BBB0F9381031B1012949
:1015600009D0022911D0032914D018E0808CC0B210
:10157000FDF774F912E0808CC0B2FDF70BF904009E
:101580004FF47A7001F04AF909E0808CC0B2FDF79F
:1015900019FA03E0808CC0B2FDF78AFC04003078B1
:1015A00000FB0870818C491C818415E00024B0F98F
:1015B0003810012904D1808CC0B2FDF7ADF80400C9
:1015C000307800FB0870B0F93810022904D1808C03
:1015D000C0B2FDF7A7FA040034B9DFF8F40501B58D
:1015E000002340F20A5217E0042C06D1DFF8E4058C
:1015F00001B5002340F20A520EE0032C06D1DFF8B9
:10160000D80501B5002340F20A5205E0DFF8CC0509
:1016100001B5002340F20A520021E620FBF782FFC9
:1016200002B04FF47A7001F0F9F8307800FB0870DE
:1016300090F8261041F0020180F8261090F83A1038
:1016400041F0020180F83A1099F80000092857D1BA
:10165000307801000D2836D24A5D01FB087102FB8B
:101660000B118A7C42F002028A7408B90C2104E052
:10167000411EC9B2042908BF03213170485D032807
:1016800001D30020485501FB0870495D01FB0B01A7
:101690008A7C42F001028A74817C41F002018174EB
:1016A00090F8261041F0020180F8261090F83A10C8
:1016B00041F0020180F83A1090F84E1041F002011A
:1016C00080F84E101CE00C22DFF8143501FB0231CB
:1016D00011F8912C42F0020201F8912C0D2801D151
:1016E000152000E0401E3070C0B20C21DFF8F0245D
:1016F00000FB012010F8911C41F0010100F8911C41
:1017000099F800000A2806D130780D2801D20D2062
:1017100000E00020307099F80000082858D1307897
:1017200001000D2837D24A5D01FB087102FB0B1145
:101730008A7C42F002028A740C2801D1002104E064
:10174000411CC9B2042908BF05213170485D032836
:1017500001D30020485501FB0870495D01FB0B01D6
:101760008A7C42F001028A74817C41F0020181741A
:1017700090F8261041F0020180F8261090F83A10F7
:1017800041F0020180F83A1090F84E1041F0020149
:1017900080F84E101CE00C22DFF8443401FB0231CB
:1017A00011F8912C42F0020201F8912C152801D178
:1017B0000D2000E0401C307030780C21DFF8202430
:1017C00000FB012010F8911C41F0010100F8911C70
:1017D00099F80000052840F0B58030780D2880F099
:1017E0009680072810D1E979022935D1B7F940123E
:1017F000DFF8F02332F92120122A6FDBDFF8E4331F
:10180000521E23F8212069E00B2801D00C2808D1B2
:1018100000FB0871B1F92420012A31DB521E8A84B1
:101820002EE0052818D16979022915D1B7F9C81118
:101830001F2903DB1E39A7F8C81104E0012902DBC8
:10184000491EA7F8C81107F5EF71097841F00201A8
:1018500007F5EF72117041E010F805C000FB087148
:101860000CFB0B12B2F91010012903DB118A491E7F
:10187000118205E0917A11F0100F1CBF11891182BD
:1018800005280BD1697949BBA7F8501107F5A97153
:10189000097841F0020107F5A972DBE706280BD1B0
:1018A000B7F9F011032919D0B7F904120B2915DB88
:1018B0000A21A7F8041211E009280FD1B7F9E012A4
:1018C00001290BD1B7F9081319B90221A7F8081398
:1018D00004E0032902D10221A7F8081300FB0871D4
:1018E000887C40F00200887491F8260040F00200E5
:1018F00081F8260091F83A0040F0020081F83A00A1
:1019000091F84E0040F0020081F84E001AE003000A
:101910000C20B34903FB0010A0F19801CA7942F0F2
:101920000202CA714A783AB3521E4A70D2B2012AF0
:1019300002D1042200F8982C49780B2902D1002109
:1019400000F8981C99F80000072857D13078030058
:101950000D283BD213F805C003FB08710CFB0B12DA
:1019600092F812E04EF0020E82F812E0BCF1030F82
:1019700005D20CF1010203E00B224A70DFE70022DE
:101980005A555A5D02FB0B12927A12F0800F01D069
:1019900000225A555A5D02FB0B12927A12F0010F87
:1019A00001D000225A555A5D02FB0B12927A12F0B6
:1019B000020F03D0092801D000205855585D00FBC4
:1019C0000B10817C41F00101817417E00C208449E7
:1019D00003FB0010A0F19801CA7942F00202CA711B
:1019E00010F8981C042902D2491C00F8981C10F821
:1019F000981C042902D3002100F8981C99F80000D3
:101A000006287FF499AC30780D2880F09D80072857
:101A10000ED1E97902293BD1B7F94012714A32F966
:101A20002120D12A76DA6F4B521C23F8212071E055
:101A30000B2801D00C280BD100FB0871B1F9242030
:101A4000B1F91C309A4237DA8A8C521C8A8433E00E
:101A500005281DD1697902291AD1B7F9C011B7F942
:101A6000C821A1F11E039A4204DA02F11E01A7F86F
:101A7000C81104E08A4202DA511CA7F8C81107F520
:101A8000EF71097841F0020107F5EF72117041E042
:101A900000FB0871425D02FB0B11B1F91020B1F996
:101AA00008309A4202DA0A8A521C04E08A7A12F05A
:101AB000100F01D000220A8205280BD1697949BB99
:101AC000A7F8501107F5A971097841F0020107F54F
