:020000040800F2
:10C00000E499002065C1000811F2000815F200084B
:10C0100019F200081DF2000821F2000800000000DB
:10C0200000000000000000000000000029F20008ED
:10C0300025F20008000000002DF2000831F200088F
:10C0400035F2000839F200083DF2000841F200081C
:10C0500045F2000849F200084DF2000851F20008CC
:10C0600055F2000859F200085DF2000861F200087C
:10C0700065F2000869F200086DF2000871F200082C
:10C0800075F2000879F200087DF2000881F20008DC
:10C0900085F2000889F200088DF2000891F200088C
:10C0A00095F2000899F200089DF20008A1F200083C
:10C0B000A5F20008A9F200087DF3000881F300084A
:10C0C00085F3000889F300088DF3000891F3000858
:10C0D00095F3000899F300089DF30008A1F3000808
:10C0E000A5F30008A9F30008ADF30008B1F30008B8
:10C0F000B5F30008B9F30008BDF30008C1F3000868
:10C10000C5F30008C9F30008CDF30008D1F3000817
:10C11000D5F30008D9F30008DDF30008E1F30008C7
:10C12000E5F30008E9F30008EDF30008F1F3000877
:10C130000120704710B5094C02E005F033FB0C34C8
:10C140000748844208D26068A16822688142F4D11D
:10C15000002105F033FBF2E710BD00BF0418010811
:10C160001C180108024CA04730B1024CA04703E064
:10C1700031C1000835C10008034C4FF00000A04752
:10C18000024C034DAE462047F5F30008A117010805
:10C19000E1170108F8F734B8F8F734B8F8F734B80D
:10C1A000F8F734B8F8F734B8F8F734B8F8F734B823
:10C1B000F8F734B8F8F734B8F8F734B8F8F734B813
:10C1C000F8F734B8F8F734B8F8F734B8F8F734B803
:10C1D000F8F734B8F8F734B8F8F734B8F8F734B8F3
:10C1E000F8F734B8F8F734B8F8F734B8F8F734B8E3
:10C1F000F8F734B8F8F734B8F8F734B8F8F734B8D3
:10C20000F8F734B8F8F734B8F8F734B8F8F734B8C2
:10C21000F8F734B8F8F734B8F8F734B8F8F734B8B2
:10C22000F8F734B8F8F734B8F8F734B8F8F734B8A2
:10C23000F8F734B8F0B5364C0021364D1420FFF72E
:10C24000CFFF01212420FFF7CBFF20680026B0F9A3
:10C250005C110720FFF7C4FF21682F4C5FF4AF701B
:10C26000095A0820FFF7BCFF01210920FFF7B8FF9A
:10C2700001210B20FFF7B4FF64210020FFF7B0FF7E
:10C2800064210120FFF7ACFF206881880A20FFF7B6
:10C29000A7FF2068214C81880C20491CFFF7A0FFD4
:10C2A00001210520FFF79CFF04F006FD202120203E
:10C2B000FFF796FF5FF4FA6002F0F8FD0121062017
:10C2C000FFF78EFF142002F0F1FD5FF400602060A4
:10C2D000286010E0124911EB8607FFF775FF386000
:10C2E0002168C2B20004891821602968000E761CFA
:10C2F00008182860B6B25FF480518E42EAD3034832
:10C3000021682A68891A090B0170F0BDE2890020B2
:10C3100050370020443700201045002040370020CF
:10C32000184500202DE9F04FBD4CA3B000218046F8
:10C3300000208146BB4804F294354E46CA4601703F
:10C340001420FFF74DFFB5F900100A20491C4143A6
:10C350000220FFF745FF4846FFF726FFB24849464F
:10C3600001700520FFF73CFF01212420FFF738FF73
:10C3700020210846FFF734FFB5F950104846A4F8CD
:10C380005001491EA94C05204D4641430320FFF7AB
:10C3900027FFA7485FF4FA71018048468DF8010035
:10C3A0002068B0F9F8100720FFF71AFF2068A14CA9
:10C3B00030F8FA1F0820FFF713FF29460920FFF77E
:10C3C0000FFF29460B20FFF70BFF9B4800278346F2
:10C3D00051463800FFF7E4FE2000FFF7E3FE7F1C24
:10C3E000BFB25F45F4D35046143080B28246DC2899
:10C3F000EBD30027EF213800FFF7D2FE2000FFF734
:10C40000D1FE7F1CBFB25F45F4D300210846FFF781
:10C41000C7FE2F462000FFF7C5FE7F1CBFB2EF2FDF
:10C42000F8D314212C20FFF7BBFE14272000FFF7C0
:10C43000B9FE7F1CBFB2C92FF8D314215820FFF7D3
:10C44000AFFE14272000FFF7ADFE7F1CBFB2C92F3F
:10C45000F8D314218420FFF7A3FE14272000FFF750
:10C46000A1FE7F1CBFB2C92FF8D31421C820FFF74B
:10C4700097FE14272000FFF795FE7F1CBFB2C92F3F
:10C48000F8D31421F420FFF78BFE14272000FFF7C8
:10C4900089FE7F1CBFB2C92FF8D314215FF49070BE
:10C4A000FFF77EFE14272000FFF77CFE7F1CBFB243
:10C4B000C92FF8D314215FF4A670FFF771FE14277B
:10C4C0002000FFF76FFE7F1CBFB2C92FF8D30021F9
:10C4D0005FF4C770FFF764FE2F462000FFF762FE8F
:10C4E0007F1CBFB2EF2FF8D35448002305228246A9
:10C4F000703001B4B921062000F086FF5046783034
:10C5000001B42B460522B921312000F07DFF5046B1
:10C5100001B42B460522B9215D2000F075FF544679
:10C520008C3410B42B460522B921892000F06CFF11
:10C53000434A5046943001B42B46B921CE2000F036
:10C5400063FF3F4A5046783001B42B46B921F920A9
:10C5500000F05AFF3A4A504601B43A482B46B921F6
:10C5600000F052FF364A10B42B46B9215FF4A9708F
:10C5700000F04AFF2F4608B03EE033493C0014204B
:10C58000002304FB00FB05227F1CDBF1A600ADF8B5
:10C590001E0009685846BFB2081801B4BDF8221041
:10C5A000062000F031FF2849254A584609682B46E5
:10C5B000081801B4BDF82610CE2000F025FF23494D
:10C5C0000FA8095D015522491BA831F8141020F865
:10C5D0001410204915A8095D01551F4912A8095DCD
:10C5E00001551E4920A831F8141020F814101C49D8
:10C5F00018A8095D015502B01A4800688088B84241
:10C60000BBD21948008888BB00210220FFF7E8FD53
:10C6100001211420FFF7E4FD23B0BDE8F08F00BF37
:10C6200088300020D7440020E0360020503700201A
:10C63000DE440020FFFF00008F010000FC21010804
:10C6400005010000250100000C45002028370020CE
:10C6500014370020C88900203437002054370020C8
:10C66000D489002010450020E2440020ECB22100D3
:10C670000A20FFF7B5FD21000C20FFF7B1FD1420C3
:10C6800002F014FC01210620FFF7AAFD142002F09D
:10C690000DFCE348E349002783465FF40060CBF8D4
:10C6A00000000860E04911EB8704FFF78DFD206072
:10C6B000DBF80010C2B200048918DA4A000ECBF889
:10C6C000001012687F1CBFB21018D64A5FF4805366
:10C6D0009F421060E6D3D54BD54CEAB29A18089227
:10C6E000089AEBB234F8133092F90020090B000BD2
:10C6F0004B4303F20021CF4B890A5118CE4A09B2AD
:10C700000191E9B2511809910999EAB233F812205E
:10C7100091F90010424302F20020800A0C18C74829
:10C7200024B28346C6480178002900F0968400218F
:10C730000170E8B2142148430C900C99A620471AC6
:10C74000C049681CC0B20B90E8B20818BE490A90F4
:10C75000E8B208180290701CC0B203900198283803
:10C760008DF80300200028388DF81C0001999DF8F1
:10C770000020200060316030521C8DF80220F2B29F
:10C780000C2A00F26A84DFE812F00D009B00FB0027
:10C790008901C0011A027302EB02A50304043304E9
:10C7A00044045504A748002528214057484310F564
:10C7B0002240411210EB915081122846FFF710FDE4
:10C7C000A14828214057484310F52240411210EB60
:10C7D000915081120120FFF703FD9C4A50469C3086
:10C7E00001B42B46D821082000F00EFE974A50468F
:10C7F000B43001B42B46D821E82000F005FE5046A5
:10C80000803001B42B465A46D8215FF4987000F06E
:10C81000FBFD8E4A5046F43001B42B460621082019
:10C8200000F0F2FD8AA001B48A485A460621037836
:10C83000502000F0E9FD404605B000061DD10AF287
:10C84000241001B400230522D821B82000F0DCFD1B
:10C850002F4601B0804800688088B842C0F0FD8350
:10C86000724938005FF480627F1C0D547049BFB27A
:10C8700021F8102073490D54ECE74046C0B201285E
:10C8800040F0EB83754A0AF22C1001B40023D82142
:10C89000B82000F0B9FD2F4601B06F4800688088CD
:10C8A000B842C0F0DA83644938005FF480627F1CCC
:10C8B0000D546049BFB221F8102063490D54ECE7D4
:10C8C000624A0AF2341001B400230621082000F065
:10C8D0009BFD404601B0000612D19DF9031004A84B
:10C8E00002F0BAFB04A801B401230522B9B22D203D
:10C8F00000F08AFD0998029A90F90010891A14E054
:10C900004046C0B2012813D19DF91C1004A802F0C2
:10C91000A3FB524A04A801B40123B9B2F52000F0E8
:10C9200073FD0A9890F90010091B2831017001B0BD
:10C9300049480B9D0068E9B2808888423CBF0025C9
:10C94000039E4048EFB22821C057484310F52240CB
:10C95000411210EB915081120020FFF741FC3A4840
:10C960002821C057484310F52240411210EB915046
:10C9700081120120FFF734FC48468DF800006CE37B
:10C980009DF802008DF80000082824BF00208DF8D3
:10C9900000004046000663D19DF9031004A802F090
:10C9A0005BFB04A801B400230522B9B22D2000F0DE
:10C9B0002BFD029801B028382ED00898019A90F9E2
:10C9C0000010891A283101709DF8000000B90B9DF4
:10C9D0002148E9B20068808888423CBF0025039E58
:10C9E0001848EFB22821C057484310F522404112A1
:10C9F00010EB915081120020FFF7F2FB1248282122
:10CA0000C057484310F52240411210EB915081125B
:10CA10000120FFF7E5FB20E300208DF80000D6E7BA
:10CA200040370020443700201845002028370020D8
:10CA3000143700205437002034370020050400004C
:10CA4000DB440020C8890020D489002005030000B1
:10CA500020000000DA4400201045002005010000FD
:10CA60004046C0B20128AFD19DF91C1004A802F0C5
:10CA7000F3FAB44A04A801B40023B9B2F52000F0D7
:10CA8000C3FC2000283801B004D0099890F90010A8
:10CA9000091B97E700208DF8000098E79DF8020039
:10CAA000A94AA0218DF800000A9890F9000000FB27
:10CAB0000120411210EB915081120020FFF790FBF2
:10CAC0000298A14AA02190F9000000FB0120411228
:10CAD00010EB915081120120FFF782FB40460006C7
:10CAE00004D101988D2808DB039E06E04046C0B2C1
:10CAF000012802D18D2CA8BF039E9DF800001528A7
:10CB0000C0F0AB82761CF6B2A7E200228DF80020BE
:10CB10004246120616D149B204A802F09DFA04A8B2
:10CB200001B401230522B9B2592000F06DFC874BF6
:10CB30000B98029A90F9001013EB8222A02392FB2B
:10CB4000F3F218E04146C9B2012917D141B204A855
:10CB500002F082FA7B4A04A801B47D480123B9B2ED
:10CB600000F052FC794A0398A02312EB842290F93A
:10CB7000001092FBF3F2891A017001B075480B9D09
:10CB80000068E9B28088884201D2039E002572487D
:10CB90006D4AEFB2C057A02100FB0120411210EBFB
:10CBA000915081120020FFF71BFB6C48664AA021C0
:10CBB000C05700FB0120411210EB915027E79DF870
:10CBC00002208DF80020082A24BF00228DF80020C2
:10CBD000424612062AD149B204A802F03DFA04A83E
:10CBE00001B400230522B9B2592000F00DFC0298CF
:10CBF00001B0A03816D00A98019A544B90F9001051
:10CC000013EB8222A02392FBF3F2891A01709DF8A4
:10CC1000000000B90B9D4F48E9B200688088884247
:10CC2000B5D2B2E700208DF80000F3E74146C9B263
:10CC30000129ECD141B204A802F00EFA414A04A83D
:10CC400001B443480023B9B200F0DEFB2000A03855
:10CC500001B009D002983D4AA02390F9001012EBD0
:10CC6000842292FBF3F2D0E700208DF80000D1E798
:10CC70009DF802008DF80000152828BF039E364855
:10CC80009DF8011000254057022931D22821484340
:10CC900010F52240411210EB915081120020FFF755
:10CCA0009FFA2E4828214057484310F52240411250
:10CCB00010EB915081120120FFF792FA9DF80100CC
:10CCC0004246401C120607D1019A322A80F2C581E1
:10CCD00001268DF80100C0E14246D2B2012A40F09F
:10CCE000BC81322C80F2B98101268DF80100B4E1BB
:10CCF0001921484310F5CC40411210EB915081129C
:10CD00000020FFF76DFA154819214057484310F5E8
:10CD1000CC40411210EB915081120120FFF760FAD4
:10CD2000701CC0B24146090605D10199372980F22D
:10CD30009481060091E14146C9B2012940F08D81FC
:10CD4000372CF4E705010000008202005080FDFF4F
:10CD50002101000010450020C8890020D48900204E
:10CD6000E24A0AF2641001B40023D821202000F026
:10CD70004BFBE8B20C215A4600FB01A0D82100F27F
:10CD8000E82001B4DA480378582000F03DFBD74A88
:10CD90000AF26C1001B44B46D821A02000F034FBFD
:10CDA000D24A0AF2841001B44B460621082000F052
:10CDB0002BFBD0A001B4CE485A4606210378902020
:10CDC00000F022FBCCA001B4C9485A4606210378E2
:10CDD000B02000F019FBC54A0AF2A01001B44B467E
:10CDE0000621D82000F010FBC4A001B4C0485A4668
:10CDF000062103785FF4A87000F006FBC0A001B420
:10CE0000BB485A46062103785FF4B87000F0FCFA7C
:10CE1000BC4A09B0404600062BD1019824280EDBFD
:10CE2000B949002001B40D9809689446029A08187F
:10CE30000069193A032342431100624603E00020CF
:10CE400001B40323014605A802F038F801B004A894
:10CE500001B4A7480522B9B20378862000F0D4FABD
:10CE60000AF2B81001B400230522D8215FF4A4709F
:10CE7000F0E04046C0B2012840F0EF80242C0EDBE9
:10CE8000A149002001B40D980968944622000818B1
:10CE90000069193A032342431100624603E000206F
:10CEA00001B40323014605A802F008F801B0974A2F
:10CEB00004A801B48E48B9B203785FF4A77000F0FB
:10CEC000A3FA924A0AF2C01001B40023D8215FF4F9
:10CED000A470BFE0854A00208DF801000AF2C81056
:10CEE00001B44B460621082000F08EFA83A001B45D
:10CEF0007F485A4606210378602000F085FA80A01A
:10CF000001B47B485A4606210378802000F07CFA61
:10CF1000764A0AF2DC1001B44B460621882000F064
:10CF200073FA724A0AF2002001B44B46D821082055
:10CF300000F06AFA0AF2102001B44B465A46D82192
:10CF4000702000F061FA72A001B469485A46D821F5
:10CF50000378482000F058FA404607B000060BD18D
:10CF60000AF22C2001B400230522D8215FF4A4701A
:10CF700000F04AFA01B070E04046C0B201286CD11E
:10CF8000624A0AF2342001B40023D8215FF4A4706D
:10CF9000EEE75FA001B456485A46D82103784820EE
:10CFA00000F032FA0AF23C2001B400235A46D8219C
:10CFB000702000F029FA404602B000060BD1534A17
:10CFC0000AF2542001B40023D8215FF4947000F0D9
:10CFD0001BFA01B041E04046C0B201283DD10AF23F
:10CFE000602001B400230522D8215FF49470BFE7CC
:10CFF00047A001B43E485A46D8210378482000F0A3
:10D0000003FA0AF26C2001B400235A46D82170209A
:10D0100020E03FA001B436485A46D8210378482082
:10D0200000F0F2F90AF2902001B400235A46D82108
:10D0300070200FE036A001B42D485A46D82103785D
:10D04000482000F0E1F90AF2B42001B400235A4666
:10D05000D821702000F0D8F902B0C3480078002829
:10D060003FF4CFAAC1485FF41671EFB20180C04807
:10D07000E9B20068808888421ED3F0B207281BD12D
:10D08000A620142107FB11014046000606D104A882
:10D0900001B40023052289B286200AE04046C0B2CE
:10D0A000012809D1194A04A801B4002389B25FF408
:10D0B000A77000F0A9F901B0AB4AAE48711CC9B223
:10D0C00010EB47000290AC48127810EB4700022AA0
:10D0D00020D0052A00F01681062A00F02981082AAE
:10D0E00000F0F980092A00F0E58037E1050300002F
:10D0F000DA4400202D0000002B0000003C0000005E
:10D100003E000000703301080C45002005010000BE
:10D1100020000000300608BF0E46F0B2082801D0FB
:10D1200009284CD1F6B2092E08BFD8F10108002712
:10D130000AF2D8261DE04046C0B2012817D140B4FB
:10D140000023F132A1B2F52000F05EF98B4A8C4841
:10D1500040B44B46A1B200F057F9884A05984B46B7
:10D16000A1B201B45FF4A77000F04EF903B07F1CC8
:10D17000BFB27F4800688088B8421ED3A620142220
:10D1800007FB12040AF2E020039040460006D2D1C9
:10D1900040B400230522A1B22D2000F035F940B49F
:10D1A0004B460522A1B2592000F02EF905984B46B6
:10D1B000052201B4A1B28620D6E70026CEE00A28D7
:10D1C000C0F0CC8031D100271EE06E4938000DAA96
:10D1D000125C7F1CBFB20A54664919AA32F81020AB
:10D1E00021F81020684913AA125C0A54674910AA52
:10D1F000125C0A5460491EAA32F8102021F810204F
:10D20000634916AA125C0A54594800688088B842DB
:10D21000DBD201F047FD5046083001B400235A46E6
:10D22000D821082000F0F0F801B0F0B20B280BD1A3
:10D2300001F038FD50463C3001B400235A46D82155
:10D24000082000F0E1F801B0F6B20C2E2AD1002738
:10D2500017E04C49380000227F1C0A5445495FF40E
:10D260008062BFB221F8102047494A460A54474914
:10D270000A5441495FF4806221F8102044494A462B
:10D280000A543B4800688088B842E2D201F00AFDA7
:10D290005046C03001B400235A46D821082000F07F
:10D2A000B3F801B05FF47A7001F000FE03F0BCFB4C
:10D2B000FFF7B2B9F0B2072803D128061CBF6D1ED4
:10D2C000EDB2F0B2092824BF761EF6B2F0B20828FB
:10D2D00044D10C2642E0F0B2082828BF0E46F0B236
:10D2E0000D2801D3082603E0072804BF6D1CEDB20A
:10D2F0001F48E9B20068808888422FD20025761C3A
:10D30000F6B22BE0F1B2072928D122494246120693
:10D3100007D10198242821DB029802885118018046
:10D320001CE04246D2B2012A18D1242C16DBF4E7C5
:10D33000F1B2072912D14146090606D101982428E5
:10D340000CDB02980188891CE9E74146C9B2012932
:10D3500004D1242CA2BF0188891C0180024800212D
:10D360000170FFF74EB900BFD7440020E24400200F
:10D37000104500201437002054370020050100001C
:10D380002101000028370020C88900203437002000
:10D39000D4890020FEFF00002DE9F04198461400DA
:10D3A0000B000A339BB20A0001000A3189B2FEF772
:10D3B000FFFE002540460B21002700FB01501149CC
:10D3C00031F81060414832003A41D20703D52112AA
:10D3D00030F8110003E02107090F30F81100FEF7C3
:10D3E000E1FE7F1CBFB20B2FECD36D1CADB20B2D39
:10D3F000E0D33549EF2300220020FEF7D9FEBDE837
:10D40000F08100BF842501082DE9F04F16002E4A57
:10D4100098460B0091460A339BB20A004946FEF734
:10D42000C7FE002529483107090F10EB410B3112C7
:10D4300010EB4104404610B9BBF8000000E0208822
:10D44000FEF7B0FE6D1C0B2DECDB09980078002870
:10D4500032D0002609980078202801D021280DD14B
:10D460000027212801D1042E22D000253FB2380008
:10D47000A840400540460DD548B90FE01449F2B226
:10D4800012EBC000134A12EB4000475AEDE7BBF81D
:10D49000000004E010B9BBF8000000E02088FEF7AF
:10D4A00081FE6D1C0B2DE1DB761C36B2082ED1DB24
:10D4B0000998401C0990C8E7EF2300224946FEF76F
:10D4C00077FEBDE8F08F00008F01000000300020E3
:10D4D000E0FDFFFFDC2501082DE9F04E92B00600CB
:10D4E0000C2E4BD35FF49C70864247D230000C3830
:10D4F00080040014824630000B38810009B20020FD
:10D50000D14D0BAA1218441057463F19002313702F
:10D51000EF5D06AB1B180C191F702C5D5C70C724E7
:10D52000C82F01D31C7003E0022F3CBF01251D70E2
:10D530005D78C82D01D35C7003E0022D3CBF01244F
:10D540005C701C785D78AC420ED1012C01D0C72CE8
:10D5500002D10124147007E0022C24BF641E1C7049
:10D56000C72D3CBF6A1C5A705A781C78A2423CBF37
:10D570005C701A70801CC0B20828C1D3B34CFEF78F
:10D580001FFE0D213000FEF70BFEB14B9DF81E0073
:10D5900004F2E01A35008DF805009DF81F009DF893
:10D5A00005108146401A11909DF81C008DF804006A
:10D5B0009DF81D008DF802009DF80410401A10908F
:10D5C0009DF81A008DF803009DF81B008DF80100EE
:10D5D0009DF80310401A0F909DF819008DF8000077
:10D5E0009DF81810401A0E909DF832008DF8070033
:10D5F0009DF830008DF8060096489DF82E7000F2D8
:10D600003031029100F2C81105910100B0310A9148
:10D610009DF81810089101001031099100F2902036
:10D62000049003F294100D908B488346F00740F16C
:10D63000DC810D982100FEF7C5FD0C2EC0F0AC81F9
:10D640008648864280F0AB81BBF80000ADF80C0044
:10D650009DF82C00002835D10998B0F90000002869
:10D6600030D00E980628089817DB9DF80010C2B23B
:10D67000914227D3BDF80C30C1B2401C14EB4101DC
:10D6800001F2E0110A8813F53E43C0B213430B8048
:10D690009DF80010814215D3ECE79DF80010C2B24E
:10D6A00091420FD3BDF80C30C1B2401C14EB4101C4
:10D6B00001F2E0110A88C0B213430B809DF80010FC
:10D6C0008142EFD2BBF80200002FADF80E0034D13A
:10D6D0000998B0F9500000282FD00F98062817DBC2
:10D6E0009DF803009DF80110814226D3BDF80E304D
:10D6F0005B4E14EB400101F2E0110A889B19401CBB
:10D7000013430B809DF80110C0B2814215D3EDE7A1
:10D710009DF803009DF8011081420ED3BDF80E3034
:10D7200014EB400101F2E0110A88401CC0B213431F
:10D730000B809DF801108142F0D29DF80600BBF8E5
:10D74000041000282FD10A98B0F9000058B310989F
:10D75000062815DB9DF804009DF80220824222D3A2
:10D76000404E14EB400202F2E01213888E19401C66
:10D770001E4316809DF80220C0B2824213D3EFE709
:10D780009DF804009DF8022082420CD314EB400265
:10D7900002F2E0121388401CC0B20B4313809DF8C4
:10D7A00002208242F2D2BBF806209DF8070038BB67
:10D7B0000A98B0F9500018B31198062811DB9DF8AB
:10D7C000050081451CD314EB400303F2E0131E88CF
:10D7D00012F57E47401C37431F80C0B281450FD3EE
:10D7E000F1E79DF8050081450AD314EB400303F2ED
:10D7F000E0131E88401CC0B216431E808145F4D23F
:10D800000598B0F9780040B9BBF92000BDF80C20AC
:10D8100014EB400000F2E0102EE0012808D1BBF923
:10D820002400BDF80E2014EB400000F2E01023E0CD
:10D83000022819D1BBF9280014EB400000F2E010D7
:10D840000288114301801AE018850020E039002089
:10D85000AC2B010888300020003000203701000088
:10D86000F8FD0000F8BF0000032808D1BBF92C0028
:10D8700014EB400000F2E01001880A430280059991
:10D88000A120B1F90010421A12B204F26E310C2A32
:10D8900024DBBBF80C3095420FD105988078400707
:10D8A0000BD4012014EB400606F2E0163788C01CAA
:10D8B000C0B21F433780C828F4D3501E854202D01F
:10D8C000501C854202D14B80AAF80030954205D108
:10D8D0004B800B80AAF80230AAF800300298BBF8FF
:10D8E0000830B0F900200B3212B295420ED1807888
:10D8F00040070BD4012014EB400606F2E0163788EF
:10D90000C01CC0B21F433780C828F4D3501E8542C4
:10D9100002D0501C854207D1488818434880BAF885
:10D9200000001843AAF8000095420FD14888184318
:10D930004880088818430880BAF802001843AAF8FB
:10D940000200BAF800001843AAF800000298B0F9E3
:10D9500014200B3212B295420ED1807D40070BD4B9
:10D96000012014EB400606F2E0163788C01CC0B256
:10D970001F433780C828F4D3501E854202D0501C64
:10D98000854202D14B80AAF8003095422AD14B80C3
:10D990000B80AAF8023025E00B2E23D100E021D124
:10D9A0000498BBF80830B0F9000014EB400010F503
:10D9B000EF700188194301804188194341808188B3
:10D9C000194381800498B0F9140014EB400010F55D
:10D9D000EF70018819430180418819434180818893
:10D9E0000B438380C92150467DE1C149681C8842B0
:10D9F00002D15146180017E00B2817D02A000A3A26
:10DA000010001E2103F0F8FE18B9514603F2BC4085
:10DA10000AE01000062103F0EFFE0028514602D173
:10DA200003F2283000E00D98FEF7CCFB049804992F
:10DA3000B0F91400B1F9001014EB400014EB4102EE
:10DA4000BBF808100C2E03D05FF49B739E4205D1E7
:10DA500013880B43138003880B430380049B9B783C
:10DA60005B075EBF13880B431380049A927D5207B5
:10DA70005EBF02880A4302800C2EC0F032819C48AF
:10DA8000864280F02E819DF82C00002830D1099824
:10DA9000B0F9000000282BD00E98BBF800A0062893
:10DAA000089813DB9DF80020C3B29A4220D3C2B27B
:10DAB0001AF53E4614EB42021388401CC0B21E43C6
:10DAC00016809DF80020824212D3F0E79DF80020D6
:10DAD000C3B29A420CD3C2B2401C14EB4202138868
:10DAE000C0B25AEA030313809DF800208242F2D2AA
:10DAF000002F2DD10998B0F9500048B30F98BBF80A
:10DB00000220062813DB9DF803009DF801308342B4
:10DB10001ED3784F14EB40031E88D719401C37439F
:10DB20001F809DF80130C0B2834211D3F1E79DF808
:10DB300003009DF8013083420AD314EB40031E8892
:10DB4000401CC0B216431E809DF801308342F4D2BF
:10DB50009DF8060000282DD10A98B0F9000048B3BE
:10DB60001098BBF80420062813DB9DF804009DF8EC
:10DB7000023083421ED3604F14EB40031E88D71936
:10DB8000401C37431F809DF80230C0B2834211D33E
:10DB9000F1E79DF804009DF8023083420AD314EBAC
:10DBA00040031E88401CC0B216431E809DF8023000
:10DBB0008342F4D29DF8070028BB0A98B0F95000C0
:10DBC00008B31198BBF8062006280FDB9DF8050066
:10DBD000814518D314EB40031E8812F57E47401C84
:10DBE00037431F80C0B281450DD3F3E79DF8050090
:10DBF000814508D314EB40031E88401CC0B2164375
:10DC00001E808145F6D2059AA12014F5C773B2F99A
:10DC10000020821A12B20C2A21DBBBF80C6095425C
:10DC20000FD10598807840070BD4012014EB4009F0
:10DC3000B9F80070C01CC0B23743A9F80070C828FA
:10DC4000F4D3501E854202D0501C854201D15E8023
:10DC50002680954203D15E801E80668026800298D1
:10DC6000B0F900200B3212B295420CD180784007F7
:10DC700009D4012014EB40063788C01CC0B20F4302
:10DC80003780C828F6D3501E854202D0501C8542EA
:10DC900001D159802180954202BF5980198061804D
:10DCA0000298B0F914200B3212B295420CD1807D4B
:10DCB000400709D4012014EB40063788C01CC0B2CD
:10DCC0000F433780C828F6D3501E854202D0501C1F
:10DCD000854201D159802180954202BF5980198027
:10DCE0006180C9212000FEF767FA12B0BDE8F08E0E
:10DCF00037010000F8FD0000F8BF000030B5104CFF
:10DD0000104DFEF75DFA05F2E0112000FEF75AFA19
:10DD1000FEF756FA290004F29410FEF753FA0B248A
:10DD200003E0FFF7D9FB641CA4B220005FF49C71F0
:10DD30008842F6D3FEF73EFABDE83040FEF740BA1F
:10DD4000AC2B0108E0390020CF4A2DE9F04F82B01A
:10DD50008046CC48ADF80010814619EB810A404658
:10DD60005021042800FB012B07D2BBF94C00C62828
:10DD700073DABAF92000C6286FDA00240DE028888B
:10DD80007F1CBFB2FEF70EFA0199B1F900101831ED
:10DD9000091B8F42F3DB641CA4B20B2C5DD2BDF8CF
:10DDA000000019EB4005072C26D22D4841460429D6
:10DDB00006D2072201FB0200BBF94C10065D03E00E
:10DDC000BAF920100019067F093189B22000FEF748
:10DDD000E7F9002705E02888FEF7E4F976087F1CBC
:10DDE000BFB2082F04D2F007F5D5B9F80A00F3E75F
:10DDF0002888FEF7D7F9CEE74046042818D2BBF9A9
:10DE00004C1020004118C91C89B2FEF7C9F9BBF9B2
:10DE10004C106718FF1CBFB2BBF94C101831091B1E
:10DE20008F42B8DA28887F1CBFB2FEF7BBF9F3E750
:10DE3000BAF9201020004118C91C89B2FEF7B0F9C8
:10DE4000BAF92010BDF800006718FF1CBFB24946A0
:10DE5000203111EB8000019096E702B0BDE8F08F11
:10DE6000602501082DE9F042864CFEF7A9F900254E
:10DE70000C270C21A8B2FEF793F93E4604E0608916
:10DE8000761CF6B2FEF78EF9D72EF8D36D1C0B2D4B
:10DE9000EFDB7D4D2E0036F9100F18B10021002068
:10DEA000FFF752FFB6F9500018B101210120FFF72A
:10DEB0004BFF2E0036F9B00F18B102210220FFF7F8
:10DEC00043FFB6F9500018B103210320FFF73CFFD0
:10DED00005F2C816B6F9780018B900210720FFF737
:10DEE00033FFB6F97800012802BF01210720FFF7B0
:10DEF0002BFFB6F97800022802BF02210720FFF7A6
:10DF000023FFB6F97800032802BF03210720FFF79B
:10DF10001BFF0C215FF49C70FEF742F904E060895E
:10DF20007F1CFFB2FEF73EF9D72FF8D354480B27DA
:10DF300081460C21B8B2FEF733F96089FEF732F959
:10DF4000D621B8B2FEF72CF960897F1C3FB2FEF7EC
:10DF500029F94F45EDDB05F29029B9F900100A20A7
:10DF600000270B3189B2FEF71BF920897F1CFEF7D1
:10DF700019F9052FF9DBB9F914100A2000270B3124
:10DF800089B2FEF70DF920897F1CFEF70BF9052FEA
:10DF9000F9DBB9F900105FF49C7000270B3189B2EE
:10DFA000FEF7FEF820897F1CFEF7FCF8052FF9DB51
:10DFB000B9F914105FF49C7000270B3189B2FEF799
:10DFC000EFF820897F1CFEF7EDF8052FF9DBB6F995
:10DFD0000010A120461A36B20C2E16DBB71E3FB237
:10DFE000B61CBE4211DB0C21B8B2FEF7D9F8A089ED
:10DFF000FEF7D8F8D621B8B2FEF7D2F8A0897F1C78
:10E000003FB2FEF7CFF8BE42EDDA05F23035B5F992
:10E0100000600B3636B2B71E3FB2B61CBE4211DBF3
:10E020000C21B8B2FEF7BCF82089FEF7BBF8D62168
:10E03000B8B2FEF7B5F820897F1C3FB2FEF7B2F800
:10E04000BE42EDDAB5F914500B352DB2AE1E36B224
:10E05000AD1CB54211DB0C21B0B2FEF7A1F820894E
:10E06000FEF7A0F8D621B0B2FEF79AF82089761C08
:10E0700036B2FEF797F8B542EDDABDE8F08200BFA0
:10E080003901000000300020883000202DE9F042E6
:10E0900000214B4C59200025FEF782F86D1C200012
:10E0A000FEF780F80C2DF9DB00215A20FEF778F8F6
:10E0B00000252000FEF776F86D1C0C2DF9DB002101
:10E0C0005FF49A70FEF76CF800252000FEF76AF8FE
:10E0D0006D1C0C2DF9DB3B4800210026FEF760F893
:10E0E0002000FEF75FF8761C0C2EF9DB36485B2526
:10E0F000814600260021A81980B2FEF751F80027BA
:10E1000032490120B84031F81610084201D02000F1
:10E1100000E00020FEF746F87F1C0C2FF0DB761C99
:10E12000082EE7DB08352DB24D45E2DB284C294DA2
:10E13000294E0021605EC8220027504390FBF5F075
:10E140005B3080B2FEF72CF87F1C3000FEF72AF817
:10E15000092FF9DB0021605EC8220027504390FBA5
:10E16000F5F06A3080B2FEF71BF83000FEF71AF8BF
:10E170007F1C092FF9DB00270021605EC822504375
:10E1800090FBF5F0C0195B3080B2FEF709F8300063
:10E19000FEF708F8B4F90000C8220921504390FBAB
:10E1A000F5F0C0195B3080B2FDF7FAFF3000FDF7E3
:10E1B000F9FF7F1C102FDFDB0020A075BDE8F08287
:10E1C0001F05000035010000330100005025010843
:10E1D00050320020D40E0000FFFF00002C4988427E
:10E1E00004BF002070471F390A0002408A4204BF62
:10E1F0000120704749090A0002408A4204BF0320F7
:10E20000704724490A0002408A4204BF0520704733
:10E2100010F4FC61B1F5FC6F04BF072070471E4984
:10E220000A0002408A4204BF022070471B490A00CC
:10E2300002408A4204BF0420704719490A00024084
:10E240008A4204BF0620704710F4BC61B1F5BC6F70
:10E2500004BF0820704713490A0002408A4204BFE5
:10E260000920704710490A0002408A4204BF0A2070
:10E27000704710F47841B1F5784F04BF0B20704718
:10E28000C006C00E1F2804BF0C2070470D20704729
:10E29000FFFF00001FF80000E0BD0000F7050000D0
:10E2A00017B80000EF7B00001F0500001D4A30B5C5
:10E2B00087B002A90C24641E135D0B55FBD1984C4A
:10E2C0000100684600F0AEFE9DF8000001AB05AA13
:10E2D0008DF80C009DF8010002A98DF80D009DF845
:10E2E00002008DF80E002000FDF79AFF050016D100
:10E2F000002505A92000FDF795FF08B108200EE0D4
:10E300005FF496722800210000FB02406D1CADB244
:10E3100000F2002003F046FA042DEAD3002007B0F3
:10E3200030BD00BFFC3101082B4AD0B588B004A92C
:10E330000D24641E135D0B55FBD1794C010068461A
:10E3400000F070FE9DF8000001AB02AA8DF81400E9
:10E350009DF8010004A98DF815009DF802008DF8C4
:10E3600016002000FDF75AFF08B10A2032E05FF4E2
:10E3700000720021194F200003F020FA002600202F
:10E3800016EB8003FB5C2354154B401C80B2984273
:10E39000F6D3AC4A502002A906FB00204C3000887E
:10E3A00084F82B012000FDF73FFF90B9A44AB30782
:10E3B0009B0F0021FE20FEF7EFFF761CB6B2042E65
:10E3C000DDD301AB02AA5FF400612000FDF72EFF50
:10E3D00000B1092008B0D0BD08320108188500201E
:10E3E0002B0100004C4A2DE9F04F87B004A90C2402
:10E3F000641E135D0B55FBD10100684600F012FE50
:10E400009DF8000001AB02AA8DF814009DF80100F0
:10E4100004A98DF815009DF802008DF816004048FB
:10E420008046FDF7FBFE08B10A2072E03B4C362225
:10E4300040462100203103F0B5F90020814602005A
:10E4400034F8121018EB820392003632424411F471
:10E4500078452D0A03F8365F11F4FC63DB10537026
:10E46000C90091700021D170401C80B21028E6D301
:10E4700076240025CA46002651463000FDF790FE5E
:10E48000FDF7BCFE83465146701C80B2FDF788FE46
:10E49000FDF7B4FE07005846FFF7A0FE010002B4E6
:10E4A0003800FFF79BFE02BC424610EB01101055EE
:10E4B000641CA4B25FF400718C420FD302A94046E1
:10E4C000FDF7B2FE20BB5E4A681083079B0F002158
:10E4D000FE20FEF761FF6D1CADB24C46B61CB6B215
:10E4E0005FF4C8718E42C7D35046401C80B282464A
:10E4F000F028C0D324B102A94046FDF795FE38B9F3
:10E5000001AB02AA5FF43C414046FDF78FFE00B12B
:10E51000092007B0BDE8F08F183201083030002024
:10E52000A03D0020454A70B587B004A90C24641EA4
:10E53000135D0B55FBD1A44C0100684600F072FD41
:10E540009DF8000001AB02AA8DF814009DF80100AF
:10E5500004A98DF815009DF802008DF81600200022
:10E56000FDF75CFE08B10A2065E000260025680280
:10E5700041105FF4007210EB91709449801011EB20
:10E580008001200003F00EF902A92000FDF74CFEE7
:10E5900000284FD12A4A681083079B0F0021FE20D4
:10E5A000FEF7FAFE6D1CEDB2202DE0D35FF4007291
:10E5B0000021200003F002F92249200035462A00FC
:10E5C00050236D1C02FB0312EDB2138A0380938C5F
:10E5D0004380138F4C3283801288C2800830042D10
:10E5E000EDD301F2A012138838310380928A9D4B3B
:10E5F00042808A5F9A5C9C4B82808A5F33F812204B
:10E600009A4BC280B1F950209A5C0281984AB1F9C4
:10E61000501032F8111020F80A1F02A92000FDF74F
:10E6200003FE38B901AB02AA5FF484412000FDF774
:10E63000FDFD00B1092007B070BD00BF2432010804
:10E640000A050000883000205E4A2DE9F04E88B0AF
:10E6500004A90D24641E135D0B55FBD17F4E804928
:10E6600026F8021B0021834A502391460A00491CC8
:10E6700002FB0392C9B2138A3380938C7380138F89
:10E680004C32B3801288F28008360429EBD3774CE1
:10E69000774D09F2A01ABAF800103180BAF81410B8
:10E6A0007180361D00216F4B0A00491C9B469B5C04
:10E6B000C9B233806C4B33F812307380A35CB380E3
:10E6C00035F81220F28008360829ECD33E4E0100BE
:10E6D000684600F0A7FC9DF8000003AB01AA8DF886
:10E6E00014009DF8010004A98DF815009DF80200A2
:10E6F0008DF816003000FDF793FD07005ED100276E
:10E7000001A93000FDF78EFD08B1082056E078021F
:10E7100043105FF4007210EB93702C4B80103100AB
:10E7200013EB800003F03EF87F1CFFB2202FE7D3ED
:10E7300001A93000FDF776FD0028E6D1002738005A
:10E74000328850217F1C00FB0190FFB201003A305B
:10E7500021F8102F72888A82B2880A85F2880836DA
:10E76000428202228A708A7502700275042FE6D3F3
:10E770003088AAF8000070888AF816205A46AAF84D
:10E78000140002208AF80200B388484630F9381F86
:10E790005354354AF38822F81130B0F950003189CA
:10E7A000215436F80A1F25F8101009F250100121E3
:10E7B0000180817851F002018170002008B0BDE82D
:10E7C000F08E00BF30320108A03D00201845002027
:10E7D0002249234BF0B408888A1C98423BD100237D
:10E7E0000024022514E01788502604FB0600641C50
:10E7F000E4B206003A3026F8107F5788B78297882F
:10E800003785D78808324782B570B57505700575AC
:10E810001848042CE7D3148800F2A0100480548810
:10E82000121D857084828575002010E00D4D1688BC
:10E83000401CC0B22E550C4D568825F814600B4D67
:10E8400096882E550A4DD688083225F814600400A3
:10E85000082CEBD30B80F0BC704700005044002024
:10E8600055AA000028370020143700203437002034
:10E870005437002088300020B14A2DE9F04F89B08C
:10E8800006A90C24641E135D0B55FBD1B24D00216B
:10E890008846010001A800F0C5FB9DF8040005AB07
:10E8A00002AA8DF81C009DF8050006A900248DF829
:10E8B0001D009DF806008DF81E002800FDF7AEFC37
:10E8C00008B10A2039E19F490722280002F06AFFB7
:10E8D0009D480A2100268146A0488246B9F90000D9
:10E8E00000FB01A020218B46017861B10278A919B3
:10E8F000212A14BFCA7181F807B010F8011F761CD5
:10E90000F6B20029F2D1A8192C21C1718F490472E5
:10E91000761CF6B2F61DAF190722380002F042FF4E
:10E92000B9F950100A22FF1D002001FB02A10A784C
:10E9300062B10A783B18212A14BF1A7083F800B01C
:10E9400011F8012F401CC0B2002AF2D139182C2234
:10E950000A704C707E49401CC0B2C01D36180F2290
:10E96000A81902F01FFF0F36C2467D48B9F90020F2
:10E97000C849CA4B50F82A00895633F81220C3B24E
:10E980005A4302F20022920A8A1812B2C721012ABF
:10E9900006DBC92AB4BF8DF800208DF8001002E014
:10E9A00000228DF80020B9F95020BB4BBC4F9B567C
:10E9B00037F8122010F47F477A43120A02F200223D
:10E9C000920A9A1812B2012A06DBC92AB4BF8DF83E
:10E9D00001208DF8011002E000218DF801105D4941
:10E9E000C303B1F9002046BF14328DF802208DF820
:10E9F0000220B1F95010800346BF14318DF8031086
:10EA00008DF80310CDF80480019869460027C0B244
:10EA1000095C04A800F006FB524904A8C05D8B46BF
:10EA2000D0B1A855761CB6F5007F11D302A92800F5
:10EA3000FDF7FAFB002840F07F80601083079B0FF2
:10EA40005A460021FE20FEF7A7FC641CE4B24646AD
:10EA50007F1CFFB2032FDFD32C20A855761CB6F500
:10EA6000007F10D302A92800FDF7DEFB002863D148
:10EA7000601083079B0F5A460021FE20FEF78CFC96
:10EA8000641CE4B246460198401CC0B201900428C0
:10EA9000BAD30D20A855761CB6F5007F10D302A975
:10EAA0002800FDF7C1FB002846D1601083079B0FAB
:10EAB0005A460021FE20FEF76FFC641CE4B2464675
:10EAC0000A27AF55761CB6F5007F0FD302A92800A0
:10EAD000FDF7AAFB80BB601083079B0F5A460021FD
:10EAE000FE20FEF759FC641CE4B246460AF2010A15
:10EAF000BAF5805FFFF439AFBEB10D20A855761C82
:10EB00000021AF55761CD6F50072A81902F056FE0A
:10EB100002A92800FDF788FB70B9601083079B0FDE
:10EB20005A460021FE20FEF737FC05AB02AA61021F
:10EB30002800FDF77BFB00B1092009B0BDE8F08F8C
:10EB4000403201084C320108C03000205432010824
:10EB50005C32010874310020A03D00209834002070
:10EB6000184500200A05000050B5BF4C86B00026AD
:10EB7000FDF72EFB0100684600F096FA57208DF84D
:10EB8000080050208DF8090054208DF80A0000205C
:10EB90008DF80B0003AB04AA69462000FDF740FB8B
:10EBA000010075D104A92000FDF73CFB08B1082045
:10EBB0006EE02088C0B2062801D0052068E0002061
:10EBC0005FF40072215C401C80B27618F6B290426D
:10EBD000F8D30EB106205BE0A44834F8021B090A02
:10EBE00001700020A24A12EB40012288401C80B232
:10EBF0000A7034F8022B120A4A700728F2D39D4B90
:10EC0000002001005022401C01FB0231228880B20A
:10EC100021F8102F62888A82A2880A85E288083447
:10EC20000D288A87EDD3944B002001000C22401C54
:10EC300001FB0231228880B24A7134F8022B120A99
:10EC40000A710928F1D30020124A23880100401CD0
:10EC50005354114A238880B21B0A53540F4A6388C5
:10EC600022F811300E4AA38822F81130854A34F870
:10EC7000063F5354864A34F8023B1B0A53540A2871
:10EC8000E2D3844834F8021B01802188818000206F
:10EC900006B050BD2837002034370020143700203C
:10ECA000543700202DE9F0416F4E87B000245427DF
:10ECB000FDF78EFA010001A800F0F6F95720804612
:10ECC0008DF80C8050208DF80D008DF80E706B467D
:10ECD00004AA01A93000FDF7A3FA002510B1042809
:10ECE0002ED0BBE0BDF810006B4604AAADF81800AA
:10ECF00042208DF80C0041208DF80D004B208DF83E
:10ED00000E0001A93000FDF789FA08B10A20A6E03B
:10ED100006A93000FDF786FA08B108209FE004A993
:10ED20003000FDF781FA002840F098806B4604AA75
:10ED30005FF400713000FDF779FA002840F08E8012
:10ED40008DF80C8050208DF80D008DF80E706B46FC
:10ED500004AA01A93000FDF761FA0028D6D15FF4BA
:10ED600000720021300002F029FD40482146007861
:10ED70000002801D3080B01C0AE03D4B13EB4102C5
:10ED800053781278491C89B212EB032220F8022B27
:10ED90000729F2D3374F00210EE05023491C02FB14
:10EDA000037289B2138A0380938C4380138F4C3291
:10EDB00083801288C28008300A000D2AEDD32E4FBE
:10EDC00000210AE00C23491C02FB037289B213796B
:10EDD000527912EB032220F8022B0A00092AF1D300
:10EDE000002218E0254B264F521C5B567F5692B2EC
:10EDF00017EB0323234F0380234B33F81130438059
:10EE0000224B33F811308380214B5B56795611EB3E
:10EE10000321C180083011000A29E3D31D490A8863
:10EE200020F8022B898801800E4904E0305D641CC3
:10EE3000A4B22D18EDB28C42F8D3E843401C86F8FA
:10EE4000FF0104A93000FDF7EFF938B96B4604AAB9
:10EE50005FF400713000FDF7E9F900B1092007B057
:10EE6000BDE8F081FF010000A03D0020E844002043
:10EE7000EC440020883000206C360020343700201D
:10EE800028370020C889002014370020543700207C
:10EE9000D489002020300020020011B901207047E1
:10EEA0005043491EC9B20029FAD17047024908806F
:10EEB00008880028FCD17047DC4400202DE9F04F81
:10EEC00081B00C000500202080462E2081460020C5
:10EED000B4F1004F0DD185F8008085F80190AD1C8C
:10EEE00001E005F8018B5B1EDBB2002BF9D1287025
:10EEF00094E09DF8280088B91CB9302005F8010B72
:10EF00000CE0012C03DB2B2005F8010B06E0002CA4
:10EF100004D52D2005F8010B2000444226000020D6
:10EF200005210A2E08DB0A2796FBF7F6401C8342D0
:10EF3000B8BF79430A2EF6DA9842A8BF64182100B8
:10EF400000200A2905DB0A2691FBF6F1401C0A295C
:10EF5000F9DA401C042B0AD3411E032691FBF6F676
:10EF6000032102F049FC834638B9032004E0032161
:10EF700090FBF1F602F040FC8346ED18681C00900F
:10EF800002E00A2094FBF0F418000A2118B90121CC
:10EF900005E00A277943401EC0B20028F9D18C420F
:10EFA000EFD20020012E06DA07E011000978521C8A
:10EFB0000029FAD1401CB042F7DB009811780170AB
:10EFC0000098401C009010000078521C0028F4D1DA
:10EFD000180000F2FF03000615D020000A2102F0FD
:10EFE0000BFC303005F801090A2094FBF0F49DF881
:10EFF00028000228ECD0012EEADBDBB29B45E7D1EA
:10F0000005F80199E4E79DF82800022803D02EB9FD
:10F0100085F8009002E00EB985F8008001B0BDE8E7
:10F02000F08F000000B502000800642190FBF1F1B0
:10F0300030311170642102F0DFFBC0B20A2190FB75
:10F04000F1F1303151700A2102F0D6FB303090706E
:10F05000002002F8030F00BD00B50200080003D431
:10F060002B2102F8011B04E02D2102F8011B0100F5
:10F07000484240B2642190FBF1F1303111706421BB
:10F0800002F0BAFB2E21517040B20A2190FBF1F13F
:10F09000303191700A2102F0AFFB3030D070002087
:10F0A00002F8040F00BD00000A0F0A2A39BF3032EF
:10F0B00000F8012B373200F8012B090109090A0E6B
:10F0C0000A2A39BF303200F8012B373200F8012B01
:10F0D0000902090A0A0D0A2A39BF303200F8012B49
:10F0E000373200F8012B0903090B0A0C0A2A39BF31
:10F0F000303200F8012B373200F8012B89B20A0BAD
:10F100000A2A39BF303200F8012B373200F8012BC0
:10F110000905090D0A0A0A2A39BF303200F8012B05
:10F12000373200F8012BC9B20A090A2A39BF303236
:10F1300000F8012B373200F8012B0907090F0A29C3
:10F1400039BF303100F8011B373100F8011B0021B5
:10F150000170704710B5040004BF002010BD800886
:10F16000FFF7F8FF4000401C00FB00F18C4238BF65
:10F17000401E10BDD0B5234E04200024FDF734F806
:10F18000C143214889B20A0003889A430523170026
:10F1900020D019273770160748BF0924560648BFE4
:10F1A0000A24D60548BF0324960548BF0424560503
:10F1B00048BF0524130548BF0624D30448BF0724CD
:10F1C000930448BF0224530448BF0124120416D5F7
:10F1D000082414E00288114211D032787AB90B4A1F
:10F1E000167866B94E0548BF05240E0548BF0624AB
:10F1F0000E0748BF09240E0448BF0824137001807D
:10F200002000D0BDD5440020E0890020D644002055
:10F2100070470000FEE70000FEE70000FEE7000088
:10F22000FEE70000704700007047000070470000D4
:10F2300070470000704700007047000070470000F2
:10F2400070470000704700007047000070470000E2
:10F2500070470000704700007047000070470000D2
:10F2600070470000704700007047000070470000C2
:10F2700070470000704700007047000070470000B2
:10F28000FCF788BFFCF788BF70470000704700009C
:10F290007047000070470000704700007047000092
:10F2A000704700007047000030B5314C002113203A
:10F2B000FCF796FF207918B12079401E207130BDEF
:10F2C00014202071206910B12069401E206121891D
:10F2D00028480025152931BF258121890918218158
:10F2E0006189142903D361890818608103E0002132
:10F2F0000320FCF775FF6079322803D26079401C47
:10F3000060710CE0657101210420FCF769FFA089A0
:10F31000401CA081E08910B1E089401EE081207886
:10F32000401C207020780C2806D32570A17901207C
:10F3300001B90125A571E071607810B16078401EB7
:10F340006070A07810B1A078401EA070FFF712FF87
:10F3500001000BD0E0700848B0F900100520491EEC
:10F3600041430320FCF73CFF3C20608130BD00BFDF
:10F37000D4440020ECFF00006C34002070470000F3
:10F3800070470000704700007047000070470000A1
:10F390007047000070470000704700007047000091
:10F3A0007047000070470000704700007047000081
:10F3B0007047000070470000704700007047000071
:10F3C0007047000070470000704700007047000061
:10F3D0007047000070470000704700007047000051
:10F3E0007047000070470000704700007047000041
:10F3F000704700002DE9F04F87B05FF44041D74CD3
:10F400005FF0006002F0B6F9FCF7FAFE0B20FCF7A3
:10F41000EBFE48B9D2480023220001B41E2130205F
:10F42000FCF7DCFE01B0FEE7CE48CF4A002301B472
:10F4300032213020FCF7D2FE0720FCF7D5FECB4965
:10F4400008600820FCF7D0FEC94908600920FCF7D5
:10F45000CBFEC84908600A20FCF7C6FEC649086012
:10F4600001F05EFAFFF780FB050001B004D1C3484C
:10F4700000235FF4FC6202E0C1480023220001B4D3
:10F480001E213020FCF7AAFE01B0BE485FF4FA71DD
:10F4900000240180FCF7CEFE01F0C6FABA4880468F
:10F4A000002088F80000B948814609F2501A0CE0A3
:10F4B0005470042010705078022808BF1470002087
:10F4C00088F80000B24801210170B24E09F2BA205A
:10F4D0000490B148008840B900210220FCF780FE6A
:10F4E00001211420FCF77CFE4CE002F065F8059841
:10F4F000401C80B20590A9480699028889B29142C1
:10F500000ED0008800250690A54805990180059435
:10F5100001F056FAE8B200F04FFC6D1C092DF9DB42
:10F5200000F000FC01F01EF89948007840B309F2A1
:10F530006E3701F0CBFA01F01FFB01F051FB01F037
:10F54000BBFBFEF78FFCB7F926100A20491C41438C
:10F550000220FCF745FE3078092818BFFEF796FD1B
:10F560000498017851F0020101700498017D51F076
:10F5700002010175387850F0020038708448047038
:10F5800088480470BAF90000012810D10320FCF764
:10F590002BFE18B90220FCF727FE40B90220AAF87A
:10F5A00000009AF8020050F002008AF8020098F871
:10F5B0000000002889D07848008808B901F034FAA2
:10F5C00075485FF41671018009F20830039098F8CD
:10F5D0000000012825D1BAF90000002814BF00203E
:10F5E0000120AAF800009AF8020050F002008AF800
:10F5F00002003078092805D10398005F022808BF6F
:10F60000FFF7E6F8BAF9500002280AD1664800254B
:10F6100044556D1CB5F5966FFADB01210620FCF709
:10F62000DFFD98F80000022813D1307808B10128D6
:10F630000FD15E4F5FF4FA603880388820B1042023
:10F64000FCF7D2FD8004F8D5388810B93078FCF783
:10F6500069FE98F80000032811D1FFF723FB3078EA
:10F6600009280CD05248534A002301B419465B20A4
:10F67000FDF7CAFE5FF4FA70FFF718FC01B098F8C6
:10F680000000042840F0BC803078092840F0B880A1
:10F6900049484A4F002301B43A001946E620FDF7D5
:10F6A000B3FE3078502100FB0190B0F9101001B08A
:10F6B00000292FD1B0F9381031B101290AD002291F
:10F6C00013D0032917D01CE0B0F92400C0B2FEF714
:10F6D00089FE15E0B0F92400C0B2FEF725FE050052
:10F6E0005FF47A70FFF7E2FB0BE0B0F92400C0B2E0
:10F6F000FEF718FF04E0B0F92400C0B2FFF7BCF831
:10F7000005003078502100FB0190B0F92410491C0D
:10F71000818418E0B0F938100025012905D1B0F92D
:10F720002400C0B2FEF7C2FD05003078502100FB76
:10F730000190B0F93810022905D1B0F92400C0B207
:10F74000FEF782FF05000DB91D4840E0042D01D1F0
:10F750001C483CE0032D39D11B4838E0FF0700006E
:10F760007032010898320108FFFF00000C450020AC
:10F77000503700201045002014450020C0320108F9
:10F78000E8320108DE440020D74400208830002001
:10F79000DC390020E8440020E2440020E04400205E
:10F7A00008450020DB44002018850020DC440020B0
:10F7B0001033010805040000303301080A05000079
:10F7C000383301084033010848330108D848002382
:10F7D0003A0001B41946E620FDF716FE01B05FF4C9
:10F7E0007A70FFF763FB3078502100FB019010F82E
:10F7F000261F51F002010170017D51F002010175D7
:10F8000098F80000092856D1317801F2FF020D293D
:10F810003AD2C8485027BC46405C142700FB0790EA
:10F8200001FB0C00837C53F00203837409B90C22A2
:10F8300003E0D2B2042A08BF0322BE483270801807
:10F840000178032928BF0470007850214A4300FB47
:10F8500007908018817C51F00101817412EB09003E
:10F86000010011F8122F52F002020A700A7D52F0C4
:10F8700002020A7510F83A1F51F002010170017D71
:10F8800051F00201017516E0AB4F0C2001FB007036
:10F8900010F8913D53F0020303700D2908BF1522A3
:10F8A000A5493270D2B20C2002FB001010F8911D55
:10F8B00051F00101017098F800000D210A2804D1CF
:10F8C00030780D282CBF3470317098F8000008286B
:10F8D00058D1307800F2010B02000D283AD2954B36
:10F8E000142750219B5C03FB079302FB01318A7CA8
:10F8F00052F002028A740C2801D1002004E058461C
:10F90000C0B2042808BF05208A49307009180A7857
:10F91000032A28BF0C7009785022504301FB07913D
:10F9200009188A7C484452F001028A74010011F8D7
:10F93000122F52F002020A700A7D52F002020A757A
:10F9400010F83A1F51F002010170017D51F00201DF
:10F95000017517E0784F0C2302FB037212F8913DFA
:10F9600053F002031370152814BF86F800B03170ED
:10F970003078714A0C2100FB012010F8911D51F0E4
:10F9800001010170317850204A4609F2C8134843FA
:10F9900002901018684A0190123083460C2001FB37
:10F9A00000226448983A4018009098F80000052812
:10F9B00040F0A4800D2980F09080604807290678E7
:10F9C0000ED15F480078022829D1B3F97800D24ED1
:10F9D00016EB8000065F122E62DB761E06805FE06B
:10F9E0000B2901D00C2907D1BBF9120001282BDB10
:10F9F000401EABF8120027E0052910D1022E0ED1CF
:10FA0000185F1F2802DB1E38188003E00128A4BFFE
:10FA1000401E1880987D50F00200987540E00098D4
:10FA2000029F0078BC46142700FB07906746C71961
:10FA3000B7F91000012802DB401E388204E0B87AD2
:10FA4000C00644BF3889388205290AD146BB002048
:10FA5000AAF800009AF8020050F002008AF80200AA
:10FA60001EE006290AD1B3F92800032818D0B3F9FB
:10FA70003C000B2814DB0A20988711E009290FD1DC
:10FA80000498B0F9260001280AD10398005F10B944
:10FA900003980226A2E7032802BF039802260680E5
:10FAA0009BF8000050F002008BF800009BF8140057
:10FAB00050F002008BF81400019E01983A36367817
:10FAC00056F0020600F83A6F019E01983A36367DEC
:10FAD0003A3056F00206067510E0D07950F0020078
:10FAE000D071507808B3401E5070C0B2012804BFD6
:10FAF0000420107050780B2800D1147098F8000082
:10FB000007285DD10D294ED20098029E1427007857
:10FB100000FB0797BF19BE7C56F00206BE7403288F
:10FB200010D2009E401C30700EE00B205070E4E7B5
:10FB300050330108EC4400206C360020F1440020D2
:10FB4000F344002000980470009E02981427367831
:10FB500006FB07963018807A000644BF00980470B0
:10FB6000009E0298367806FB07963018807AC00708
:10FB700044BF00980470009E0298367806FB0796F2
:10FB80003018807A800703D509291CBF00980470BB
:10FB9000009E0298367806FB07963018867C56F051
:10FBA000010686740CE0D07950F00200D071107814
:10FBB00004283CBF401C10701078042828BF147023
:10FBC00098F8000006287FF47AAC0D2980F0958023
:10FBD0005248072900780ED1514A1278022A2FD1B3
:10FBE000B3F978004C4911EB8000015FD12966DA46
:10FBF000491C018063E00B2901D00C2909D1BBF914
:10FC00001220BBF90A60B2422EDA521CABF8122065
:10FC10002AE0052914D1022812D1BAF970101A5F0E
:10FC200008001E38824202DA1E321A8003E08A423D
:10FC3000BCBF521C1A80987D50F0020098753EE0BF
:10FC4000009E029A1427367806FB0796B218B2F97E
:10FC50001060B2F90870BE4202DA761C168203E028
:10FC6000967AF60648BF1482052909D138BBAAF84E
:10FC700000009AF8020050F002008AF802001EE02C
:10FC800006290AD1B3F92800032818D0B3F93C009B
:10FC90000B2814DB0A20988711E009290FD104985A
:10FCA000B0F9260001280AD10398005F10B9039823
:10FCB00001219EE7032802BF0398012101809BF8E0
:10FCC000000050F002008BF800009BF8140050F088
:10FCD00002008BF81400019901983A31097851F02B
:10FCE000020100F83A1F019901983A31097D3A3032
:10FCF00051F002010175FFF7E2BBD07950F002002C
:10FD0000D07150780B28BFF4D3AB401C5070000664
:10FD10007FF4D1ABFFF7CDBB20300020F1440020B1
:10FD2000F3440020F0B5204D1E4E0024002738007B
:10FD30000C2100FB0150C17A89070FD5C4724179AB
:10FD40000368052201FB0231002302B4017936F871
:10FD50001120817AC088FDF757FB01B07F1CFFB2EC
:10FD6000092FE4D3114807780D2F1AD3162F18D274
:10FD70000F480178A9B1F337FFB204700C200522B7
:10FD800007FB00504179036801FB023102B40949C5
:10FD90000B78017936F81120817AC088FDF734FBA1
:10FDA00001B0F0BDE03401086C360020E8440020CA
:10FDB000DB440020DA4400202DE9F04FD84DD94E25
:10FDC0008EB0B5F9B47131688DF834001420002478
:10FDD00007FB0010D449097809B9C08901E07230E5
:10FDE00000888346012080460690092F0AD20B2006
:10FDF000C01B0321B0FBF1F1C9B20A20FFF74CF898
:10FE0000804609E0380009380321B0FBF1F1C9B29E
:10FE10000A20FFF741F8069032683800C34F0321EB
:10FE200001F0E4FC142105F2100900FB0120B9F9EE
:10FE300050109C35C43000680795B5F91420B5F909
:10FE400064309DF834500C2605FB067AB84DB94E47
:10FE50002D780995B84D2D780A95B84D2D780B95CC
:10FE6000B74D2D780C95B74D2D88ADF80250B64D95
:10FE70002D88ADF80450B54D2D88ADF80650B44D21
:10FE80002D88ADF808505D460895B24D2D88ADF827
:10FE900000503688B9F90050ADF80C60AE4E368887
:10FEA000ADF81060AD4E3688ADF81460AC4E3688B3
:10FEB000ADF80A60AB4E3688ADF80E60AA4E3688B3
:10FEC000ADF81260A94E3688ADF81660A84EB3465C
:10FED0009AF805600B2E1DD8DFE816F00C002E00F6
:10FEE00037007900B90002018301C1011C026402DC
:10FEF0009E02EC020620FCF777F99E4A002102B42C
:10FF000003235FF47A714843010058461430FEF72A
:10FF1000D5FF01B098495846143001B49AF804004E
:10FF200031F810209AF80A10BAF808000023FDF7FB
:10FF30006BFA0FB0BDE8F08F904A022001B4BBF815
:10FF4000200002234106490EDFE79AF80460CEB98B
:10FF5000012D36D18A49B9F92800099A0B9B31F84D
:10FF60001010D21A514301F200214A1211EB9251A2
:10FF70008C12052CB8BF0024824A1421126800FBA1
:10FF800001201CE0012E1CD101291AD17E49B9F9AA
:10FF900078000C9A31F810000A99891A484300F247
:10FFA0000020411210EB91508412052CB8BF0024A0
:10FFB000744AB9F978001421126800FB0120006925
:10FFC00044436C4A002001B4032321009DE79AF8C2
:10FFD00004607FF00100F6B9012DF2D1684B6B4C43
:10FFE000B9F928106A4A33F8113024685256240BA4
:10FFF000634303F2002312EB9322B9F93C30D41A85
:020000040801F1
:10000000844202DB032CB8BF00245E4A142012682D
:1000100001FB0020D3E7012ED3D10129D1D1B9F9B9
:1000200078205C49584B895633F812205A4B1B688C
:100030001B0B5A4302F2002211EB9221079A125F26
:100040008C1A8442B4DB032CB2DA0024B0E79AF8AD
:100050000400E0B9012D3DD150480068000BFFF7C6
:1000600079F8474BB9F92810494A33F811305256FC
:10007000434303F2002012EB9024032CB8BF00246A
:10008000404A1420126801FB0020006944439AF89A
:10009000040001281ED1B9F9500001281AD14048A6
:1000A0000068000BFFF756F8374BB9F97810394A5A
:1000B00033F811305256434303F2002012EB9024E0
:1000C000032CB8BF00242F4A1420126801FB002023
:1000D00000694443274A012001B40323210014E7A7
:1000E0009AF80460002E5DD1012D7FF46AAF244997
:1000F000B9F92800099A31F810105143244A01F245
:1001000000214B12125611EB935112EBA121B9F9B8
:100110003C208C1A1B4A1421126800FB01204EE778
:100120008830002050370020E03600206C36002058
:10013000DC360020F4360020DD360020DE360020DC
:10014000DF360020E2360020E4360020E6360020CC
:10015000E8360020F2360020F6360020F83600207F
:10016000EA360020EC360020EE360020F036002083
:10017000E84400207033010858330108883301082F
:10018000143700200C450020543700204037002051
:10019000283700203437002044370020483700201B
:1001A0004C370020012E7FF40CAF01297FF409AFFA
:1001B000CD49B9F978000A9A31F810105143CB4A69
:1001C00001F200214B12125611EB935112EBA121B7
:1001D000079A125F8C1AC64A1421126800FB01208C
:1001E000EDE69AF80460DEB9012D7FF4EAAEC1496C
:1001F000B9F928000B9A31F810105143BE4A01F2A8
:1002000000214B12125611EB935112EBA121B9F9B7
:100210003C208C1AB64A1421126800FB0120CEE65D
:10022000012E7FF4CEAE01297FF4CBAEAE49B9F9F1
:1002300078000C9A31F810105143AC4A01F20021B9
:100240004B12125611EB935112EBA121079A125F38
:100250008C1AA74A1421126800FB0120AFE69AF815
:100260000460BB4F5EB9012D33D1BDF80010BDF85D
:100270000220794391FBF2F45FF4FA6128E0012E49
:100280000BD1012925D1BDF80C10BDF8042079430C
:1002900091FBF2F45FF4FA611AE0022E0BD1012A0D
:1002A00017D1BDF81010BDF80620794391FBF2F488
:1002B0005FF4FA610CE0032E0BD1012B09D1BDF8DC
:1002C0001410BDF80820794391FBF2F45FF4FA6151
:1002D0004C433C21B0FBF1F00699B4FBF0F00A2945
:1002E0000BD29C4A012102B40423FA214843B0FBFB
:1002F000F8F00F21B0FBF1F107E6964A012102B4B4
:10030000079C099904234443F020B4FBF0F04143D7
:10031000090AFAE59AF804604EB9012D2AD1BDF810
:1003200002104843BDF80010B0FBF1F422E0012EAA
:1003300009D101291ED1BDF804104843BDF80C10A5
:10034000B0FBF1F416E0022E09D1012A12D1BDF85A
:1003500006104843BDF81010B0FBF1F40AE0032E7C
:1003600008D1012B06D1BDF808104843BDF8141080
:10037000B0FBF1F47FF00040B0FBF8F0A04209D3ED
:10038000089908FB04F0B0FBF1F006998002B0FB7D
:10039000F1F401E05FF000446F4A012001B404234E
:1003A0002100B2E59AF8046056B9012D2ED1BDF8AE
:1003B0000A006A494843BDF8021090FBF1F425E0B9
:1003C000012E0AD1012921D1BDF80E00634948430D
:1003D000BDF8041090FBF1F418E0022E0AD1012AB6
:1003E00014D1BDF812005D494843BDF8061090FBDA
:1003F000F1F40BE0032E09D1012B07D1BDF8160053
:1004000056494843BDF8081090FBF1F4544A0120C6
:1004100001B40423210078E59AF804608EB9012D17
:1004200035D1BDF80210BDF800204143B1FBF2F117
:10043000BDF80A205043BDF80020B0FBF2F00C1AC2
:1004400025E0012E0AD1012921D1BDF80E00434932
:100450004843BDF8041090FBF1F418E0022E0AD1D5
:10046000012A14D1BDF812003C494843BDF80610DA
:1004700090FBF1F40BE0032E09D1012B07D1BDF85D
:10048000160036494843BDF8081090FBF1F47FF0A0
:100490000040B0FBF8F0A04209D3089908FB04F033
:1004A000B0FBF1F006998002B0FBF1F474E75FF065
:1004B000004471E79AF804604EB9012D35D1BDF8BA
:1004C0000A104843BDF80010B0FBF1F42DE0012EF6
:1004D00014D1012929D1BDF80E104843BDF80C10E4
:1004E000B0FBF1F421E000BF543700203437002086
:1004F0000C4500201437002028370020022E09D197
:10050000012A12D1BDF812104843BDF81010B0FBFB
:10051000F1F40AE0032E08D1012B06D1BDF8161024
:100520004843BDF81410B0FBF1F47FF00040B0FB7D
:10053000F8F0A04209D3089908FB04F0B0FBF1F0F1
:1005400006998002B0FBF1F426E75FF0004423E750
:1005500020A107007C33010864330108A086010054
:10056000943301082DE9F04F84B0002401E0641CAD
:10057000A4B20D2C80F0C681002026E0B5F9100051
:100580002A680A2100FB012001B43B786868A97B36
:100590000288A889FCF738FF01B0092C12D1A87A8B
:1005A00080070FD5B6F914107068C9B2FEF73AFD8E
:1005B000706801B43B78B068B17C0288308AFCF77F
:1005C00023FF01B04046401C80B2804640460428CC
:1005D000CDD2CF49CF4F14238946502109F2902A1A
:1005E00004FB019108FB03150E001036A97C890756
:1005F00040F13B810020A874042C01D0072C1ED1AF
:10060000A87A800609D52868002301B46968F05EDD
:1006100031F81020A97BA889D1E7A87A0006D1D4A7
:10062000B5F910002A680A21002300FB012001B45B
:100630006968F05E31F81020A97BA889BFE7A87A25
:10064000800607D52868002301B4A97B6868028862
:10065000A889B4E7AD49BAF928008B46A97A890779
:1006600040F1A080082C2AD1002102B45A46183249
:1006700004B4BAF91410BAF90020531A502100FB3F
:100680000190CD49B0F938200968142002FB001010
:1006900019000323006904BC414338001430FEF7FD
:1006A0000DFC3800143001B46968BAF92800002341
:1006B00031F81020A97BA889FCF7A6FE02B00A2C0D
:1006C0005FD1012001900290B9F9B4010090009827
:1006D00009280BDA00990B20401A032190FBF1F155
:1006E000C9B20A20FEF7D8FB019008E009380321BF
:1006F00090FBF1F1C9B20A20FEF7CEFB0290AF4A9F
:1007000009F23030039000981268032101F074F868
:10071000142100FB01200399039AC430B1F914108D
:100720000068B2F90020891A019A48437FF000411D
:1007300091FBF2F25FF00041012807DB82420DDB02
:1007400001994143029891FBF0F107E043429A423C
:1007500004DA01994143029891FBF0F1002001B4C1
:1007600003235A460C3238001430FEF7A7FB143727
:1007700080B46868A97B00230288A889FCF744FE3E
:1007800002B0092C7FF41EAFB6F914107068C9B21C
:10079000FEF748FC7068002301B4B17CB0680288A1
:1007A000308A0CE7A97A012935D120203875B5F9AE
:1007B00010100B2C11D1092906D1022001B40323FA
:1007C0005A463C32642119E0022001B4491C0A2037
:1007D00002235A463C32414310E00A2906D1022046
:1007E00001B403235A463C32642107E0022001B4DD
:1007F000491C0A2002235A463C3241433800143037
:10080000FEF75CFB01B0143780B46868A97B002355
:100810000288A889D3E680291CD0082C0DD1B5F90F
:1008200010102B680A2201FB0231002302B4696810
:1008300031F81020A97BA889C1E6B5F910002A6813
:100840000A21002300FB012001B4A97B686802880B
:10085000A889B4E60A2C7FF4B5AE2868002301B459
:10086000A97B68680288A889A9E63978A1427FF443
:10087000A9AE3819007940457FF4A4AE2648017826
:1008800000293FF49FAE254F00210170042C01D0B8
:10089000072C1CD1A87A800609D5286801B43B78BA
:1008A000705E696831F81020A97BA88987E6B5F9E0
:1008B00010002A680A2100FB012001B43B78696816
:1008C000B6F9000031F81020A97BA88977E6A87A4C
:1008D000800601D5286857E6A87A02283FF45DAE65
:1008E000082C7FF44BAEB5F910002A680A2100FBF2
:1008F000012001B43B786968BAF9280031F810206A
:10090000A97B46E604B0BDE8F08F00BF583301086C
:1009100088300020E8440020DB440020DA44002036
:10092000F0B5234E234D0024306800278088401CFA
:1009300001280EDA13E0204A14217F1C1268BFB28E
:1009400000FB01210A2200FB025010F5826000F03A
:100950003FFF316838008988491C8842EBDB3068EA
:10096000818829868188A5F880100021A5F8D010FB
:10097000A5F82011C088801D01280EDA13E00F4A67
:100980001421641C1268A4B200FB01210A2200FB9E
:10099000025010F5956000F01BFF31682000C988F7
:1009A000891D8842EBDB3068C088A5F8AC01F0BD3A
:1009B00010450020883000200C45002050370020D2
:1009C00000B50620FBF710FC124B80B200219842C4
:1009D00028BF0121104B984224BF491C89B20F4BFC
:1009E000984224BF491C89B20D4A904224BF491C39
:1009F00089B20C480A22036801FB0232002304B4C6
:100A0000426832F81120817B8089FCF7FDFC01B03F
:100A100000BD00BFB90B0000AD0D00003D0F000090
:100A200005100000DC310020B0B50121514C24201C
:100A3000FBF7D6FB00211420FBF7D2FB0020FBF7CD
:100A4000B3FB1420FEF732FA01210620FBF7C8FBA6
:100A500000210022502700231500142005FB074524
:100A600003FB00505B1C9BB2857C55F0020585742E
:100A7000042BF1D3521C92B20D2AECD30F4D00205F
:100A800002000C23401C02FB035280B2D37A53F0C5
:100A90000203D3720928F3D309480078092805D046
:100AA00004F2E22084F81E130170017505485FF41A
:100AB00016710180044801210170B0BD6C36002020
:100AC000E8440020E2440020DC390020274870B5CB
:100AD000284C274E00212500017001212420FBF71E
:100AE0007FFB00210520FBF77BFB35F9241F092044
:100AF000FBF776FBB5F914100A20FBF771FBB5F98B
:100B00001400B5F92810305610F58060484300F203
:100B10000020411210EB915081120020FBF760FB86
:100B2000B5F950100B20FBF75BFBB5F964100C20F6
:100B3000FBF756FBB5F96400B5F97810301890F959
:100B40000C0010F58060484300F20020411210EBC9
:100B5000915081120120FBF743FBB4F9500118B901
:100B600001210620FBF73CFB70BD00BFE0360020F2
:100B7000C88900208830002070B5164C7A4D0121BC
:100B80002420FBF72DFB287A10B9B4F9646002E049
:100B9000B4F96460761DB6B214204643A86F80197C
:100BA000B0F908100720FBF71BFBA86F80194189DB
:100BB0000820FBF715FB084A0848B4F9641032F81E
:100BC00011100160B4F9000018B901210620FBF7EB
:100BD00007FB70BDD8310020A4370108E444002091
:100BE00070B5314C314D324EB4F9000078B9242142
:100BF0000F20FBF7F5FA300084302860B4F91400B8
:100C00000C2100FB016041890D20FBF7E9FAB4F9E2
:100C1000000002280FD1B4F914000C2100FB016080
:100C200041890D20FBF7DCFA06F21410286024211C
:100C30000F20FBF7D5FAB4F9000001280ED1B4F962
:100C400014000C2100FB0160CC3641890D20FBF71C
:100C5000C7FA2E6024210F20FBF7C2FAB4F9000076
:100C600003281FD1B4F91400124D0E2100FB0150CE
:100C700001891020FBF7B4FAB4F914000E2100FB2F
:100C8000015041891120FBF7ABFAB4F914000E2191
:100C900000FB01504089401C10EBD0704110122025
:100CA000FBF79EFA70BD00BF78320020500402406E
:100CB00080380020683700202DE9F041294C04F2EB
:100CC0003030B0F91410B0F90000814201DA411A55
:100CD00000E0091A2220FBF783FA234E204F04F28A
:100CE0004025B5F90000B5F9141004F2380811EBED
:100CF000C0012020FBF774FAB5F9000088B9B8F9F3
:100D00000000B7F90010321892F9502016EB40009D
:100D1000808F891A890291FBF0F0C1B22120FBF784
:100D20005FFAB5F90000012811D1B8F95000B7F900
:100D30000410321892F95C20891A0C4A890232F8A0
:100D4000100091FBF0F0C1B22120FBF749FAB4F991
:100D5000500118B901210620FBF742FABDE8F081E5
:100D60002030002088300020D83600205437002062
:100D70002DE9F04FE34E94B0002080460546022056
:100D8000049005900690079040467082B082F082F1
:100D900030837083B083F0833084DB480024834643
:100DA0000BF210090BF23C1AB9F93C00BAF9001029
:100DB0005A469C320D92B2F900200B1AB3849F1A46
:100DC0008B1AF3848B183385D04B778493F82B716F
:100DD000CF1B778593F85772CF1BB78593F8837332
:100DE00093F8AF34CF1BCB1A3386B9F92830F78587
:100DF000F71897F9507016EB43039B8FC01B8002C6
:100E000090FBF3F0F086B9F97800331893F95C3071
:100E1000D21ABF4B920233F8100092FBF0F03087E9
:100E2000B6F936003071B6F93820B0715FF4006061
:100E3000B066F066306770670D987271F271B0F944
:100E40005000C72203001433C82BB4BF1430C7208E
:100E5000708608001430C828BCBF14310A46BAF99D
:100E60007800337AB286B26F142100FB0122BBF9FD
:100E7000C801A849002B40F06F81D2899623002732
:100E800002FB13114A1211EB925189120818834682
:100E900086E0012A06D1CDF81C80308B328AC01939
:100EA000801A3083584600B2874273DBB9F92800B4
:100EB0000F9B16EB4002928F301890F950005A4366
:100EC00002F20022531212EB935292128018904AAF
:100ED000ADF82000B9F9780032F81020301890F9F8
:100EE0005C004A4302F200214A1211EB925189122E
:100EF0004018ADF80A00BDF80A00ADF82200012C38
:100F00003DDBBDF92610BDF90A00D4F58062D4F5A9
:100F10008063401A8C4650430E90BDF92400BDF901
:100F20002020121A5A430192039AABB26D1CD2B21E
:100F300004B40F992DB24A1211EB925189126246F4
:100F4000511804BC09B202B484460298411210EB55
:100F5000915080126146081802BC00B200F07CFA81
:100F6000BAF97800B26F142100FB0120C089241A5D
:100F700024B2B5F5967FC2DB5FF400508346BDF81E
:100F8000200014F5806424B2ADF82400BDF80A00F6
:100F9000ADF826007F1C3FB2B7F5805F80F2238258
:100FA0005D4810EB87000190BAF97800112802DB48
:100FB000BAF9140058B10120FBF716F958B9708F2F
:100FC000874208D1BAF9141029B9401C7087FBF781
:100FD000FBF8019908600198026810008DF8000084
:100FE000B06E9DF800104018B0669DF800000F909C
:100FF000B6F93610401A316F00FB00103067100A46
:101000008DF801009DF80110F06E736F4018F066C6
:10101000B6F93800081A00FB0030706730799DF887
:101020000030984238BF33711846B379984238BFC0
:10103000B0717079884238BF7171F079814238BFE0
:10104000F171100CC0B20390022FFFF62BAF3348A2
:101050008742BFF627AF049AB8B2022A03D177813C
:1010600010900022728232789DF800309A4208D2A5
:10107000049A1AB9728B7781521C728301220492EE
:101080000DE01A4673789A4209D2049A012A06D1D1
:10109000CDF81080728A7389D219D21A7282059A99
:1010A000022A03D1B78111900022B282B2788A421B
:1010B00008D2059A1AB9B28BB781521CB2830122A9
:1010C00005920CE0F278914209D2059A012A06D1E4
:1010D000CDF81480B28AB389D219D21AB282069A94
:1010E000022A03D1F78112900022F282039AD207DA
:1010F000069A15D51AB9F28BF781521CF283012298
:10110000069216E0D836002088300020A03F00204C
:1011100054370020005A020018450020FE0F00003E
:10112000012A06D1CDF81880F28AF389D219D21A91
:10113000F282079A022A03D137821390002030836B
:10114000039880077FF5A5AE1AB9308C3782401C12
:10115000308401200790A5E672321288962300277A
:1011600002FB13114A1211EB92518912081883469F
:10117000B74810EB87000190BAF9140018B9FBF7D3
:1011800023F80199086001980268100CC0B203901E
:10119000B9F85030316F100AADF83030BDF9303049
:1011A000C3B98DF800208DF801009DF80020B6F934
:1011B0003630C0B2D31A1A005A43B6F9363012EBA1
:1011C000D272C01A0300434313EBD370401010EBEC
:1011D000620016E08DF801208DF80000B6F93800A5
:1011E0009DF80020131A1A005A439DF8013012EBA3
:1011F000D272181A0300434313EBD370401010EB64
:101200006200081830679DF801008DF808009DF80D
:101210000010B26E081810EBD07012EB6000B066D0
:1012200030799DF8002090423CBF9DF8000030715D
:1012300030799DF80820904238BF32719DF8000047
:10124000B279904238BFB0719DF80800B2799042EF
:1012500038BFB071584600B2874270DBBDF930002C
:1012600008BBB9F9282016EB4200808F414301F2F8
:1012700000210191019BB118019A91F9501052126D
:1012800013EB925292128A18ADF820209DF8082094
:10129000504300F20020421210EB925080120818C6
:1012A000ADF8220020E06B48B9F9782030F8120040
:1012B000414301F200210191019BB118019A91F97A
:1012C0005C10521213EB925292128A18ADF8202041
:1012D0009DF80820504300F20020421210EB92507B
:1012E00080120818ADF82200012C25DBBDF926007C
:1012F000BDF92010D4F58062ABB2091A6D1C5143C0
:101300004A122DB211EB9251039A10EBA12001B2B7
:10131000D2B200B200F0A0F8BAF97800B26F14218E
:1013200000FB012072300088241A24B2B5F5967FA4
:10133000DADB5FF40050834614F5806424B258462B
:1013400000B2874232DBBDF82200012CADF80A0062
:1013500025DBBDF92000BDF90A10D4F58062ABB2DF
:10136000091A6D1C51434A122DB211EB9251039A86
:1013700010EBA12001B2D2B200B200F06DF8BAF9C0
:101380007800B26F142100FB012072300088241A0B
:1013900024B2B5F5967FD6DB5FF400508346BDF8E6
:1013A0000A0014F5806424B2ADF826007F1C3FB219
:1013B000B7F5805FFFF6DCAEB06EF066306F706739
:1013C00030797071B079F071B9F9000018B9B9F9D4
:1013D0003C000003B066BDF9300020B90D98B0F9AB
:1013E00000000003F0663079B1794018F17910EB14
:1013F000D0704010001D3070F83070707079401857
:1014000010EBD0704010001DB070F830F070708993
:101410001099401A7081B0891199401AB081F089F1
:101420001299401AF081308A1399401A30820020B4
:10143000B0490A1812790A54091811F595610A7809
:10144000401C04280A71F3DB14B0BDE8F08F00BF24
:1014500018450020543700202DE9F00FA54C85B029
:1014600088469B469B00A146C82802DBC725E55459
:1014700004E00228AEBFE0540125E5544446C82CE0
:1014800003DB4C46E418C72507E0022C4C4602DA81
:10149000E418012501E0E41845466570914D2C00E3
:1014A000EC340094904CD6074E4602D5678EF61861
:1014B00002E0009FF6183F88B770B4F9226010353B
:1014C00036180396B4F9246030183A4E0490009808
:1014D0001BEB060A009EB0F9500001950290B6F988
:1014E0001460B5F90000257AB61E072E4AD8DFE849
:1014F00006F00415262D33393E441DB9039818EB28
:10150000000144E000B104990198B0F950000028AE
:101510003DD0B4F9260018EB000138E01DB903985E
:10152000B0EB080133E000B104990198B0F9500024
:1015300000282CD0B4F92800B0EB080127E0D043F4
:1015400080070CBF0299B4F9341020E090070CBF5B
:101550000299B4F934101AE0B4F92A009AF800108C
:10156000411814E0B4F92C009AF82C11F8E7B4F9FA
:101570002E009AF85812411809E0B4F930009AF890
:101580008413EDE7900754BF0299B4F93410C829C9
:1015900003DB4846C018C72106E00229484602DAA4
:1015A000C018012100E0C018C17005B0BDE8F00FFF
:1015B00070470000A03F00204A482DE9F0474A4DFF
:1015C0004A4E804608F24020B0F90010B0F91400ED
:1015D00008F25014002710EBC101454881464548E8
:1015E0008246B4F95000042841D8DFE800F0031B1C
:1015F000323A3A002020FAF7F3FD0220FAF7F4FD20
:1016000038B1FFF7B5FBB4F9640039F81000306069
:101610002DE0306800282AD1688F31498842F0D304
:101620006F87EEE72020FAF7DBFD0220FAF7DCFDFA
:101630000028E6D13068D0B951465FF496620F5465
:10164000401C80B29042F7D3B4F9640039F810001E
:10165000DDE72020FAF7C4FD0220FAF7C5FD30B11E
:1016600003E020212020FAF7BBFDFFF781FBFCF708
:1016700045FBE05F002831D10320FAF7B5FD68B3E0
:1016800001210620FAF7ACFDB4F9640039F8100026
:101690003060B4F950006F87022806D10120208005
:1016A000A07850F00200A07018E0042816D10020A5
:1016B000424632F84C3F1AEB800150320B701288D0
:1016C000401C80B24A70424632F8EC3F50328B7078
:1016D0001288CA705FF496729042E9D3BDE8F08731
:1016E000FF0F000088300020D8360020E44400209E
:1016F000A43701081885002030BF704720BF70470D
:1017000040BF7047BFF36F8F7047BFF34F8F704775
:10171000BFF35F8F704701DF7047EFF314807047AE
:1017200080F31488BFF36F8F7047EFF30980704721
:1017300080F309887047EFF30880704780F30888CA
:10174000704762B6704772B67047EFF3108070470B
:1017500061B6704771B67047EFF31380704780F33E
:1017600011887047EFF31280704740BA704700BA93
:1017700070470000034A024B0B400343136070475D
:1017800080FFFF1F08ED00E07047000010B581B03A
:101790000400009469460120FFF7F6FFF9E7000016
:1017A00000F01EB810B50300002A04E011F8014B48
:1017B000521E03F8014BF9D110BD0000C9B203005D
:1017C000002A02E003F8011B521EFBD17047000003
:1017D000020011F8013B02F8013B002BF9D17047E0
:1017E000014CA646204700008D1701088C46B0FB2F
:1017F000F1F10CFB110070478C4690FBF1F10CFBF2
:101800001100704703500000E0390020E03900204B
:10181000DD090000003000201C180108E0FFFF0770
:101820001FF8E007FFFF00001F0500F8E0FFEF7B57
:10183000FFFFE00700F8EF7BFF071F00AF00060087
:10184000740002004B00060023000600FFFFE0FFCB
:10185000E0BDFF07F7051FF817B8E007E005EF7BCD
:101860001F0500F81F00000000000000424DF80BAB
:101870000000000000007600000028000000900139
:101880000000F00000000100040000000000820BD6
:101890000000120B0000120B00000000000000000E
:1018A0000000000008340108E034010801001000C5
:1018B0002300E40001000200B83401085833010895
:1018C000010010002300D80000000200983400201E
:1018D00058330108080000003300D800050002005A
:1018E000D8340108E0340108C800200000000000DE
:1018F000960002001C340108E234010801001000C7
:101900005600E40001000200B83401085A3301080F
:10191000010010005600D800010002009834002099
:101920005A330108080000006600D80001000200D8
:10193000D8340108E2340108C8002000000000008B
:101940006400020030340108E43401080100100092
:101950008900E40001000200B03401085C33010892
:10196000000010008900D80000000200A83401081F
:101970005C330108000000009900D800000002005C
:10198000D8340108E4340108C7002000000000003A
:101990003C00020044340108E6340108090010004C
:1019A000BC00E40001000200B03401085E3301080D
:1019B00000001000BC00D80000000200A83401089C
:1019C0005E33010800000000CC00D80000000200D7
:1019D000D8340108E6340108C700200000000000E8
:1019E00014000200A0330108C03301080200000007
:1019F0000000E40000000200C8330108FC330108C5
:101A0000040000000000D80000000200C8330108F4
:101A1000FC33010804008000000000000000040006
:101A2000C8330108FC3301080400800000000000F6
:101A300000000400EC3401082835010804001000FF
:101A4000EF00E40000000200303500202A350108D4
:101A50001A000000EF00D800110002002035010834
:101A600028350108D30E20006E010000000002009E
:101A70002035010828350108D30E800050000000F1
:101A8000000002002C3501081C360108030010007C
:101A90001A01E40003000200543501081E36010853
:101AA000130000001A01D8000D000200FC440020C1
:101AB0001C360108640080003201E400320004009A
:101AC000FC4400201C3601080000800000000000DB
