:020000040800F2
:10C00000507D002065C100086DE5000871E500085D
:10C0100075E5000879E500087DE5000800000000EE
:10C0200000000000000000000000000085E500089E
:10C0300081E500080000000089E500088DE50008A2
:10C0400091E5000895E5000899E500089DE50008E0
:10C05000A1E50008A5E50008A9E50008ADE5000890
:10C06000B1E50008B5E50008B9E50008BDE5000840
:10C07000C1E50008C5E50008C9E50008CDE50008F0
:10C08000D1E50008D5E50008D9E50008DDE50008A0
:10C09000E1E50008E5E50008E9E50008EDE5000850
:10C0A000F1E50008F5E50008F9E50008FDE5000800
:10C0B00001E6000805E60008D9E60008DDE600080C
:10C0C000E1E60008E5E60008E9E60008EDE600081C
:10C0D000F1E60008F5E60008F9E60008FDE60008CC
:10C0E00001E7000805E7000809E700080DE7000878
:10C0F00011E7000815E7000819E700081DE7000828
:10C1000021E7000825E7000829E700082DE70008D7
:10C1100031E7000835E7000839E700083DE7000887
:10C1200041E7000845E7000849E700084DE7000837
:10C130000120704710B5094C02E004F077F90C3487
:10C140000748844208D26068A16822688142F4D11D
:10C15000002104F077F9F2E710BD00BF8004010868
:10C1600098040108024CA04730B1024CA04703E0FC
:10C1700031C1000835C10008034C4FF00000A04752
:10C18000024C034DAE46204751E700082904010840
:10C1900069040108F8F734B8F8F734B8F8F734B898
:10C1A000F8F734B8F8F734B8F8F734B8F8F734B823
:10C1B000F8F734B8F8F734B8F8F734B8F8F734B813
:10C1C000F8F734B8F8F734B8F8F734B8F8F734B803
:10C1D000F8F734B8F8F734B8F8F734B8F8F734B8F3
:10C1E000F8F734B8F8F734B8F8F734B8F8F734B8E3
:10C1F000F8F734B8F8F734B8F8F734B8F8F734B8D3
:10C20000F8F734B8F8F734B8F8F734B8F8F734B8C2
:10C21000F8F734B830B50021294D1420FFF7E0FFBE
:10C2200001212420FFF7DCFF234800240480286834
:10C23000B0F95C110720FFF7D3FF2968214D5FF4A7
:10C24000AF70095A0820FFF7CBFF00210920FFF744
:10C25000C7FF64212046FFF7C3FF21460B20FFF7ED
:10C26000BFFF64210120FFF7BBFF286881880A20F7
:10C27000FFF7B6FF286881880C20491CFFF7B0FF44
:10C2800001210520FFF7ACFF5FF4FA6002F010F81F
:10C2900001210620FFF7A4FF142002F009F80A4844
:10C2A000048003F0FDFB0949094A04480968126843
:10C2B000891A090B017030BDBC2600200C2C00200F
:10C2C0003C2C0020442C0020E02B0020282C0020B7
:10C2D0002C2C00202DE9F04FE14D8EB000248DF87C
:10C2E0000200E048804641460A680BA802604A689E
:10C2F00042608A682146826000208146DA480170E7
:10C300001420FFF76DFF05F294300590B0F900108E
:10C310000A20491C41430220FFF762FF2046FFF735
:10C3200043FF01F0AFFE49460290D048017005205E
:10C33000FFF756FF20210846FFF752FF0121242076
:10C34000FFF74EFF4846A5F8500105984D46B0F955
:10C3500050100520491E41430320FFF741FFC44808
:10C360005FF4FA7101809DF80200002814BF0326D3
:10C370000026BD48BF4FCB4604703868B0F9F810AE
:10C380000720FFF72DFF386830F8FA1F0820FFF765
:10C3900027FF00210920FFF723FF05212046FFF793
:10C3A0001FFF21460B20FFF71BFF05210120FFF790
:10C3B00017FF002759463800FFF7F2FEAE487F1CF2
:10C3C000BFB28246FFF7EEFEAC498F42F2D3584629
:10C3D000143080B28346DC28EBD30027EF213800ED
:10C3E000FFF7DEFE5046FFF7DDFEA4497F1CBFB21B
:10C3F0008F42F3D300210846FFF7D2FE274650466E
:10C40000FFF7D0FE7F1CBFB2EF2FF8D314212C20F2
:10C41000FFF7C6FE14275046FFF7C4FE7F1CBFB2CD
:10C42000C92FF8D314215820FFF7BAFE142750461D
:10C43000FFF7B8FE7F1CBFB2C92FF8D314218420A8
:10C44000FFF7AEFE14275046FFF7ACFE7F1CBFB2CD
:10C45000C92FF8D31421C820FFF7A2FE1427504695
:10C46000FFF7A0FE7F1CBFB2C92FF8D31421F42020
:10C47000FFF796FE14275046FFF794FE7F1CBFB2CD
:10C48000C92FF8D314215FF49070FFF789FE1427A9
:10C490005046FFF787FE7F1CBFB2C92FF8D3142187
:10C4A0005FF4A670FFF77CFE14275046FFF77AFE74
:10C4B0007F1CBFB2C92FF8D300215FF4C770FFF70C
:10C4C0006FFE27465046FFF76DFE7F1CBFB2EF2F71
:10C4D000F8D340460C3001B400230522B9210620D0
:10C4E00000F0E4FC4046143001B423460522B92193
:10C4F000312000F0DBFC40461C3001B4234605220D
:10C50000B9215D2000F0D2FC4046243001B423461E
:10C510000522B9218D2000F0C9FC59482346B921D4
:10C52000834640462C3001B45A46CE2000F0BEFC73
:10C530004046143001B423465A46B921F92000F090
:10C54000B5FC40461C3001B44E4823465A46B9213A
:10C5500000F0ACFC4046243001B423465A46B921D1
:10C560005FF4AB7000F0A2FC474827460068808863
:10C5700008B0401C012823DA29E014210023484395
:10C5800001900199A6200522401AADF80000084646
:10C590003E497F1CBFB20968081801B4BDF80410F9
:10C5A000062000F083FC39490298234609685A4660
:10C5B000081801B4BDF80810CE2000F077FC02B0D6
:10C5C0003149380009688988491C8842D5DB304ADE
:10C5D00008F2941001B4002306210A2000F066FC42
:10C5E000039801B000042FD0294A4046343001B4EA
:10C5F0000023D821202000F059FC0698B0F95010F3
:10C600000520491E41430320FFF7EAFD18485FF467
:10C61000FA710180880001F04BFE03F091F801B03F
:10C620000EB0BDE8F08F2000194A032103F022FF6D
:10C630001E2100FB0180062100F2941001B43B781A
:10C640000A2000F033FC01B0124F388820BB0021D3
:10C650000220FFF7C5FD01211420FFF7C1FDDFE730
:10C660006C2500205813010883340020CC2B0020B7
:10C670008A3400203C2C0020FFFF00008F010000C6
:10C680000501000025010000442C00209434002006
:10C69000050400008E340020D7480021018003F0FB
:10C6A000FFF9D649280011EB40010391D44911EB61
:10C6B00040010291D34909180491D3490918019105
:10C6C000012E01D0042E18D10299D04A098812688F
:10C6D000CF4B120B1B685143019A890A1B0B92F92D
:10C6E00000208918039AC33912885A43049B920A7E
:10C6F00093F90030D218C33A17E00299C34A098867
:10C700001268C34B120B1B685143019A890A1B0B19
:10C7100092F900208918039A491F12885A43049BF2
:10C72000920A93F90030D218521FBA4B1A80BA4AB3
:10C730001180BA490978002900F0F4815FF416717C
:10C740003980B74909688988A942C0F085801421D9
:10C7500032004843A6210F1AB24909680818AD49AA
:10C760000590AD48B1F90010052AB0F9000073D862
:10C77000DFE802F003121E3A4553010006A801F05B
:10C780009FFD06A8801C01B400230522B9B22D200C
:10C7900000F08CFB01B05FE0010006A801F090FD05
:10C7A00006A8801C01B400230522B9B25920EFE786
:10C7B000059909694843010006A801F081FD06A812
:10C7C000801C01B400230522B9B2862000F06EFB64
:10C7D0009DF81C0003210CAA4B4600FB01200522FA
:10C7E000B9B201B4AE2034E006A801F069FD06A894
:10C7F000801C01B400235A46B9B2F520C8E706A848
:10C8000001F05EFD06A8801C01B4874800235A464B
:10C81000B9B200F04BFB01B01EE00598006941433E
:10C8200006A801F04DFD06A8801C01B400235A465D
:10C83000B9B25FF4A77000F039FB9DF81C0003212A
:10C840000CAA4B4600FB01205A46B9B201B45FF472
:10C85000BB7000F02BFB02B07148704B0068818800
:10C860001B789B1E082B00F22281DFE813F00900E1
:10C87000200120018D00E7005F0083007800520056
:10C88000A94280F01481012C10D1002001F076FC27
:10C89000664A4046603001B44B46D821202000F063
:10C8A00005FB5FF47A7001F003FD01B0022C2DD17D
:10C8B00000270FE05449380000227F1C0A545149D8
:10C8C000BFB20A544E4A5FF4806122F810104B4AFE
:10C8D00022F81010524800688088B842EAD25449C1
:10C8E0005FF48070088053490880002001F046FC06
:10C8F0004E4A40468C3001B44B46D821202000F0EF
:10C90000D5FA5FF47A7001F0D3FC01B002F018FFA1
:10C9100086E69DF8020020B9022E2CBF00260226D2
:10C92000C5E0052E2CBF03260526C0E09DF80200B9
:10C9300050B9300003D1280001D10126B7E0022E02
:10C9400080F0B5800026B2E0042E03D2280001D189
:10C950000426ACE0052E80F0AA800326A7E028007C
:10C960001EBF50462D18ADB2012EEBD0042E40F064
:10C970009E80F2E7A94224BF6D1CADB2012EE1D02A
:10C98000042E40F09480E8E7A9422FD3300004D170
:10C99000019890F90010491E0170012E07D128005E
:10C9A00005D1234922485246098889180180224826
:10C9B000022E03D102990A8812180A80032E04D18C
:10C9C000049991F90020521E0A70042E07D1290003
:10C9D00005D1184A174953461288D2180A80052EE5
:10C9E00065D103990A881018088060E020000EBF06
:10C9F0000224641EE4B25AE0E02B0020F82B002051
:10CA0000E42B00201C2C0020102C0020282C0020BF
:10CA10002C2C0020D82B0020CE2B0020833400208B
:10CA2000442C002094340020210100000504000063
:10CA3000402C0020422C0020FCFF0000621CD2B2DF
:10CA4000A94230D3310004D1019991F900305B1C27
:10CA50000B70012E06D1290004D1EB4BEA491B884B
:10CA60005B1C0B80022E03D102990B881B1D0B80CF
:10CA7000032E04D1049991F900305B1C0B70042E35
:10CA800006D1290004D1E14BE0491B885B1C0B80D7
:10CA9000052E03D103990B881B1D0B8080888542CE
:10CAA00005D3140003E0022C2CBF00241446D84800
:10CAB0000021012E017001D0042E12D1D248C321D1
:10CAC00000884843C11110EB116001120020FFF7EC
:10CAD00087FBCE48C32100884843C11110EB116089
:10CAE00011E0C948052100884843C11110EB1160CD
:10CAF00001120020FFF774FBC44805210088484359
:10CB0000C11110EB116001120120FFF769FB290030
:10CB10000A20FFF765FB29000C20FFF761FBC82006
:10CB200001F0C6FB01210620FFF75AFBB948017846
:10CB300000293FF489ADB84F00210170B7492800A2
:10CB400009688988491C8842BFF66DAD0C214246B0
:10CB500000FB0181E83201F22811049114214843BD
:10CB6000A621091AADF80010AD4909680818AD49A9
:10CB70000590AD48B1F90010B0F9000003924246AB
:10CB8000D43201924246B83202924246F8320992B9
:10CB90004246F0320A923200052A3FF655AD02A312
:10CBA00052009B5E9F4400BF0C008400B6003C0115
:10CBB000B201DC01010006A801F082FB06A8801C7E
:10CBC00001B43B78BDF8041005222D2000F06EF969
:10CBD000964A03980023D82101B4202000F066F97A
:10CBE0004046CC3001B44B465A46D821B82000F01C
:10CBF0005DF98E4A04984B46D82101B4E82000F034
:10CC000055F98A4A8AA001B43B78D8215FF498701C
:10CC100000F04CF9280005B03FF416AD039800234E
:10CC2000052201B4BDF8041059200AE5010006A848
:10CC300001F046FB06A8801C01B43B78BDF8041047
:10CC40000522592000F032F9784A79A001B43B78E6
:10CC5000D8215FF4987000F029F902B0F4E4059946
:10CC600009694843010006A801F02AFB06A8801CB8
:10CC700001B43B78BDF804100522862000F016F9B7
:10CC80009DF81C0003210CAA00FB0120052201B421
:10CC90003B78BDF80810AE2000F008F9634A0C9804
:10CCA0000023D82101B4202000F000F9614A079840
:10CCB000D82101B43B78582000F0F8F85B4A0D9871
:10CCC0004B46D82101B4A02000F0F0F808F2101073
:10CCD00001B44B460522D8215FF4A47000F0E6F8B9
:10CCE00006B0B1E406A801F0EBFA06A8801C01B476
:10CCF0003B78BDF804105A46F52000F0D7F84B4AAF
:10CD000003980023D82101B4202000F0CFF808F2C6
:10CD1000181001B44B460522D821B82000F0C6F8FF
:10CD2000424A04984B46D82101B4E82000F0BEF8EE
:10CD30003E4A3FA001B43B78D8215FF4987000F0E0
:10CD4000B5F8280005B03FF47FAC039800235A469D
:10CD500001B4BDF80410384873E406A801F0B0FA35
:10CD600006A8801C01B43B78BDF8041032485A462E
:10CD700000F09CF82D4A2EA001B43B78D8215FF436
:10CD8000987068E705980069414306A801F098FA91
:10CD900006A8801C01B43B78BDF804105A465FF425
:10CDA000A77000F083F89DF81C0003210CAA00FB7B
:10CDB00001205A4601B43B78BDF808105FF4BB70FF
:10CDC00000F074F8194A0C980023D82101B42020EF
:10CDD00000F06CF8174A0798D82101B43B78582026
:10CDE00000F064F8114A0D984B46D82101B4A020F8
:10CDF00000F05CF808F2201001B44B465A46D821E6
:10CE00005FF4A4706AE700BF402C0020422C002091
:10CE1000833400208734002086340020442C0020F6
:10CE200094340020D82B0020CE2B002005060000D3
:10CE3000474E440005040000210100002DE9F041A7
:10CE4000984614000B000A339BB20A0001000A3115
:10CE500089B2FFF7ADF9002540460B21002700FB02
:10CE60000150114931F81060414832003A41D2076F
:10CE700003D5211230F8110003E02107090F30F823
:10CE80001100FFF78FF97F1CBFB20B2FECD36D1C85
:10CE9000ADB20B2DE0D33549EF2300220020FFF780
:10CEA00087F9BDE8F08100BF7C1501082DE9F04F3E
:10CEB00016002E4A98460B0091460A339BB20A0090
:10CEC0004946FFF775F9002529483107090F10EB8E
:10CED000410B311210EB4104404610B9BBF8000081
:10CEE00000E02088FFF75EF96D1C0B2DECDB099844
:10CEF0000078002832D0002609980078202801D038
:10CF000021280DD10027212801D1042E22D000256F
:10CF10003FB23800A840400540460DD548B90FE063
:10CF20001449F2B212EBC000134A12EB4000475A08
:10CF3000EDE7BBF8000004E010B9BBF8000000E02A
:10CF40002088FFF72FF96D1C0B2DE1DB761C36B224
:10CF5000082ED1DB0998401C0990C8E7EF23002276
:10CF60004946FFF725F9BDE8F08F00008F0100006A
:10CF700000200020E0FDFFFFD41501082DE9F04E50
:10CF800092B006000C2E4BD35FF49C70864247D2C1
:10CF900030000C3880040014824630000B388100C9
:10CFA00009B20020D14D0BAA1218441057463F1960
:10CFB00000231370EF5D06AB1B180C191F702C5D5E
:10CFC0005C70C724C82F01D31C7003E0022F3CBF44
:10CFD00001251D705D78C82D01D35C7003E0022D22
:10CFE0003CBF01245C701C785D78AC420ED1012CF2
:10CFF00001D0C72C02D10124147007E0022C24BFF9
:10D00000641E1C70C72D3CBF6A1C5A705A781C786D
:10D01000A2423CBF5C701A70801CC0B20828C1D309
:10D02000B34CFFF7CDF80D213000FFF7B9F8B14B45
:10D030009DF81E0004F2E01A35008DF805009DF8F9
:10D040001F009DF805108146401A11909DF81C00A4
:10D050008DF804009DF81D008DF802009DF8041065
:10D06000401A10909DF81A008DF803009DF81B00DF
:10D070008DF801009DF80310401A0F909DF81900DB
:10D080008DF800009DF81810401A0E909DF832009F
:10D090008DF807009DF830008DF8060096489DF841
:10D0A0002E7000F23031029100F2C811059101009A
:10D0B000B0310A919DF818100891010010310991C2
:10D0C00000F29020049003F294100D908B48834658
:10D0D000F00740F1DC810D982100FFF773F80C2E6A
:10D0E000C0F0AC818648864280F0AB81BBF800007E
:10D0F000ADF80C009DF82C00002835D10998B0F946
:10D100000000002830D00E980628089817DB9DF8FC
:10D110000010C2B2914227D3BDF80C30C1B2401CFE
:10D1200014EB410101F2E0110A8813F53E43C0B24D
:10D1300013430B809DF80010814215D3ECE79DF856
:10D140000010C2B291420FD3BDF80C30C1B2401CE6
:10D1500014EB410101F2E0110A88C0B213430B80C5
:10D160009DF800108142EFD2BBF80200002FADF80D
:10D170000E0034D10998B0F9500000282FD00F9834
:10D18000062817DB9DF803009DF80110814226D385
:10D19000BDF80E305B4E14EB400101F2E0110A883D
:10D1A0009B19401C13430B809DF80110C0B28142B3
:10D1B00015D3EDE79DF803009DF8011081420ED3D1
:10D1C000BDF80E3014EB400101F2E0110A88401C5A
:10D1D000C0B213430B809DF801108142F0D29DF83C
:10D1E0000600BBF8041000282FD10A98B0F90000FF
:10D1F00058B31098062815DB9DF804009DF802200E
:10D20000824222D3404E14EB400202F2E012138815
:10D210008E19401C1E4316809DF80220C0B2824227
:10D2200013D3EFE79DF804009DF8022082420CD34F
:10D2300014EB400202F2E0121388401CC0B20B4310
:10D2400013809DF802208242F2D2BBF806209DF89E
:10D25000070038BB0A98B0F9500018B31198062897
:10D2600011DB9DF8050081451CD314EB400303F24C
:10D27000E0131E8812F57E47401C37431F80C0B262
:10D2800081450FD3F1E79DF8050081450AD314EBE2
:10D29000400303F2E0131E88401CC0B216431E80F8
:10D2A0008145F4D20598B0F9780040B9BBF9200067
:10D2B000BDF80C2014EB400000F2E0102EE0012835
:10D2C00008D1BBF92400BDF80E2014EB400000F299
:10D2D000E01023E0022819D1BBF9280014EB40002C
:10D2E00000F2E0100288114301801AE09C740020D3
:10D2F000C02E0020A41B01086C2500200020002067
:10D3000037010000F8FD0000F8BF0000032808D135
:10D31000BBF92C0014EB400000F2E01001880A4336
:10D3200002800599A120B1F90010421A12B204F24C
:10D330006E310C2A24DBBBF80C3095420FD10598D6
:10D34000807840070BD4012014EB400606F2E0166B
:10D350003788C01CC0B21F433780C828F4D3501E82
:10D36000854202D0501C854202D14B80AAF8003081
:10D37000954205D14B800B80AAF80230AAF8003004
:10D380000298BBF80830B0F900200B3212B2954277
:10D390000ED1807840070BD4012014EB400606F232
:10D3A000E0163788C01CC0B21F433780C828F4D3AA
:10D3B000501E854202D0501C854207D14888184330
:10D3C0004880BAF800001843AAF8000095420FD12F
:10D3D000488818434880088818430880BAF8020033
:10D3E0001843AAF80200BAF800001843AAF800008F
:10D3F0000298B0F914200B3212B295420ED1807D02
:10D4000040070BD4012014EB400606F2E0163788E3
:10D41000C01CC0B21F433780C828F4D3501E8542B9
:10D4200002D0501C854202D14B80AAF800309542B0
:10D430002AD14B800B80AAF8023025E00B2E23D195
:10D4400000E021D10498BBF80830B0F9000014EBDB
:10D45000400010F5EF70018819430180418819439D
:10D4600041808188194381800498B0F9140014EB3D
:10D47000400010F5EF70018819430180418819437D
:10D48000418081880B438380C92150467DE1C14999
:10D49000681C884202D15146180017E00B2817D0AB
:10D4A0002A000A3A10001E2102F0E4FF18B9514682
:10D4B00003F2BC400AE01000062102F0DBFF002866
:10D4C000514602D103F2283000E00D98FEF77AFEB3
:10D4D00004980499B0F91400B1F9001014EB40005D
:10D4E00014EB4102BBF808100C2E03D05FF49B73C1
:10D4F0009E4205D113880B43138003880B4303809E
:10D50000049B9B785B075EBF13880B431380049AD0
:10D51000927D52075EBF02880A4302800C2EC0F043
:10D5200032819C48864280F02E819DF82C00002894
:10D5300030D10998B0F9000000282BD00E98BBF824
:10D5400000A00628089813DB9DF80020C3B29A4279
:10D5500020D3C2B21AF53E4614EB42021388401C97
:10D56000C0B21E4316809DF80020824212D3F0E71D
:10D570009DF80020C3B29A420CD3C2B2401C14EBF7
:10D5800042021388C0B25AEA030313809DF80020B8
:10D590008242F2D2002F2DD10998B0F9500048B341
:10D5A0000F98BBF80220062813DB9DF803009DF8B6
:10D5B000013083421ED3784F14EB40031E88D719E5
:10D5C000401C37431F809DF80130C0B2834211D305
:10D5D000F1E79DF803009DF8013083420AD314EB74
:10D5E00040031E88401CC0B216431E809DF80130C7
:10D5F0008342F4D29DF8060000282DD10A98B0F994
:10D60000000048B31098BBF80420062813DB9DF8EF
:10D6100004009DF8023083421ED3604F14EB400398
:10D620001E88D719401C37431F809DF80230C0B2B6
:10D63000834211D3F1E79DF804009DF80230834244
:10D640000AD314EB40031E88401CC0B216431E8050
:10D650009DF802308342F4D29DF8070028BB0A9857
:10D66000B0F9500008B31198BBF8062006280FDB6C
:10D670009DF80500814518D314EB40031E8812F570
:10D680007E47401C37431F80C0B281450DD3F3E76E
:10D690009DF80500814508D314EB40031E88401C0B
:10D6A000C0B216431E808145F6D2059AA12014F51A
:10D6B000C773B2F90020821A12B20C2A21DBBBF820
:10D6C0000C6095420FD10598807840070BD401205B
:10D6D00014EB4009B9F80070C01CC0B23743A9F878
:10D6E0000070C828F4D3501E854202D0501C8542D9
:10D6F00001D15E802680954203D15E801E806680C7
:10D7000026800298B0F900200B3212B295420CD15B
:10D710008078400709D4012014EB40063788C01CEC
:10D72000C0B20F433780C828F6D3501E854202D0BE
:10D73000501C854201D159802180954202BF5980F9
:10D74000198061800298B0F914200B3212B2954210
:10D750000CD1807D400709D4012014EB40063788A6
:10D76000C01CC0B20F433780C828F6D3501E854274
:10D7700002D0501C854201D159802180954202BFC0
:10D78000598019806180C9212000FEF715FD12B073
:10D79000BDE8F08E37010000F8FD0000F8BF000082
:10D7A00030B5104C104DFEF70BFD05F2E0112000D6
:10D7B000FEF708FDFEF704FD290004F29410FEF7C1
:10D7C00001FD0B2403E0FFF7D9FB641CA4B2200089
:10D7D0005FF49C718842F6D3FEF7ECFCBDE8304064
:10D7E000FEF7EEBCA41B0108C02E0020CF4A2DE995
:10D7F000F04F82B08046CC48ADF80010814619EB5E
:10D80000810A40465021042800FB012B07D2BBF9B6
:10D810004C00C62873DABAF92000C6286FDA002453
:10D820000DE028887F1CBFB2FEF7BCFC0199B1F95E
:10D8300000101831091B8F42F3DB641CA4B20B2CBF
:10D840005DD2BDF8000019EB4005072C26D22D480B
:10D850004146042906D2072201FB0200BBF94C1005
:10D86000065D03E0BAF920100019067F093189B27C
:10D870002000FEF795FC002705E02888FEF792FCC3
:10D8800076087F1CBFB2082F04D2F007F5D5B9F88F
:10D890000A00F3E72888FEF785FCCEE74046042817
:10D8A00018D2BBF94C1020004118C91C89B2FEF7F0
:10D8B00077FCBBF94C106718FF1CBFB2BBF94C10CA
:10D8C0001831091B8F42B8DA28887F1CBFB2FEF7D7
:10D8D00069FCF3E7BAF9201020004118C91C89B28D
:10D8E000FEF75EFCBAF92010BDF800006718FF1CB7
:10D8F000BFB24946203111EB8000019096E702B09B
:10D90000BDE8F08F581501082DE9F042864CFEF76E
:10D9100057FC00250C270C21A8B2FEF741FC3E461F
:10D9200004E06089761CF6B2FEF73CFCD72EF8D3F3
:10D930006D1C0B2DEFDB7D4D2E0036F9100F18B14D
:10D9400000210020FFF752FFB6F9500018B1012165
:10D950000120FFF74BFF2E0036F9B00F18B102215E
:10D960000220FFF743FFB6F9500018B1032103204E
:10D97000FFF73CFF05F2C816B6F9780018B9002188
:10D980000720FFF733FFB6F97800012802BF012115
:10D990000720FFF72BFFB6F97800022802BF02210B
:10D9A0000720FFF723FFB6F97800032802BF032101
:10D9B0000720FFF71BFF0C215FF49C70FEF7F0FBC4
:10D9C00004E060897F1CFFB2FEF7ECFBD72FF8D391
:10D9D00054480B2781460C21B8B2FEF7E1FB608961
:10D9E000FEF7E0FBD621B8B2FEF7DAFB60897F1CB8
:10D9F0003FB2FEF7D7FB4F45EDDB05F29029B9F9B1
:10DA000000100A2000270B3189B2FEF7C9FB2089DC
:10DA10007F1CFEF7C7FB052FF9DBB9F914100A20AC
:10DA200000270B3189B2FEF7BBFB20897F1CFEF774
:10DA3000B9FB052FF9DBB9F900105FF49C700027E2
:10DA40000B3189B2FEF7ACFB20897F1CFEF7AAFBE5
:10DA5000052FF9DBB9F914105FF49C7000270B3126
:10DA600089B2FEF79DFB20897F1CFEF79BFB052FEB
:10DA7000F9DBB6F90010A120461A36B20C2E16DBDF
:10DA8000B71E3FB2B61CBE4211DB0C21B8B2FEF786
:10DA900087FBA089FEF786FBD621B8B2FEF780FB94
:10DAA000A0897F1C3FB2FEF77DFBBE42EDDA05F296
:10DAB0003035B5F900600B3636B2B71E3FB2B61C32
:10DAC000BE4211DB0C21B8B2FEF76AFB2089FEF7DB
:10DAD00069FBD621B8B2FEF763FB20897F1C3FB2F9
:10DAE000FEF760FBBE42EDDAB5F914500B352DB2EE
:10DAF000AE1E36B2AD1CB54211DB0C21B0B2FEF742
:10DB00004FFB2089FEF74EFBD621B0B2FEF748FB53
:10DB10002089761C36B2FEF745FBB542EDDABDE84A
:10DB2000F08200BF39010000002000206C25002099
:10DB30002DE9F04200214B4C59200025FEF730FB27
:10DB40006D1C2000FEF72EFB0C2DF9DB00215A2066
:10DB5000FEF726FB00252000FEF724FB6D1C0C2D94
:10DB6000F9DB00215FF49A70FEF71AFB0025200014
:10DB7000FEF718FB6D1C0C2DF9DB3B48002100263D
:10DB8000FEF70EFB2000FEF70DFB761C0C2EF9DBDA
:10DB900036485B25814600260021A81980B2FEF791
:10DBA000FFFA002732490120B84031F81610084228
:10DBB00001D0200000E00020FEF7F4FA7F1C0C2FBB
:10DBC000F0DB761C082EE7DB08352DB24D45E2DB95
:10DBD000284C294D294E0021605EC8220027504361
:10DBE00090FBF5F05B3080B2FEF7DAFA7F1C300074
:10DBF000FEF7D8FA092FF9DB0021605EC822002762
:10DC0000504390FBF5F06A3080B2FEF7C9FA30005D
:10DC1000FEF7C8FA7F1C092FF9DB00270021605EA0
:10DC2000C822504390FBF5F0C0195B3080B2FEF77C
:10DC3000B7FA3000FEF7B6FAB4F90000C82209219D
:10DC4000504390FBF5F0C0195B3080B2FEF7A8FAA4
:10DC50003000FEF7A7FA7F1C102FDFDB0020A07535
:10DC6000BDE8F0821F05000035010000330100000F
:10DC70004815010834270020D40E0000FFFF0000E3
:10DC8000574A2DE9704B84B00C0001A90C256D1E7C
:10DC9000535D4B55FBD1C54D0100684600F0D8FBE4
:10DCA0009DF8000000218DF808009DF801008DF816
:10DCB00009009DF802008DF80A0020788DF80C000C
:10DCC00060788DF80D00A078464C8DF80E0000208D
:10DCD0008046C4F82C8020202081C2002800FEF756
:10DCE00087FA287BE97A5FF40072C14611EB0020C5
:10DCF000A97B6080687BE080E87B11EB0020A97D38
:10DD00002080E87D11EB0020A97FA080E87F090436
:10DD100011EB0060697F10EB0120297F40182188FA
:10DD20002063E06A4018A18810EB410160884143FC
:10DD300061632800FEF75CFA07E0401CC0B21028BF
:10DD40000FD34846401C80B281462189894542D282
:10DD5000606B5FF4007210EB49212800FEF748FA6F
:10DD6000002015EB401B9BF80020E52A14BF002281
:10DD7000FF22002313EB4016AE5DB44601AEF65C05
:10DD8000B44518BFFF225B1CDBB20B2BF2D3002A79
:10DD9000D3D19BF81B009BF81A10E38811EB0020ED
:10DDA0002189A063A26B606B921E02FB031110EB32
:10DDB0004120E0639BF81D109BF81C0010EB012034
:10DDC0009BF81E1010EB01409BF81F1010EB016038
:10DDD0002064002000E0FF2004B0BDE8708B00BF8D
:10DDE000F421010830200020F0B52FA1FFF748FFF3
:10DDF000010028D16D4D6E4F0024134E002114EB0D
:10DE00008103F35C6B54114B491C89B29942F6D3E0
:10DE1000D94AF86B5021660204FB0121641CA4B2AC
:10DE20004C31098885F82B1181192800FEF7DEF99D
:10DE3000F86B301800F2001105F20010FEF7D6F969
:10DE4000042CDAD30020F0BD9C7400202B010000CC
:10DE500010B515A1FFF714FF010018BF10BD544CF9
:10DE60005FF49672E16B20004430FEF7C1F9E06B7D
:10DE70005FF4967200F2002104F27010FEF7B8F918
:10DE8000E06B5FF4967210F5806104F29C20FEF75F
:10DE9000AFF9E06B5FF4967210F5C06104F2C83020
:10DEA000FEF7A6F9002010BD444154002DE9F04BC7
:10DEB00081B03CA1FFF7E4FE010070D13B485FF464
:10DEC000807280463A488146D9F83C104046FEF7B9
:10DED0008FF90020834619EB4001898918EB8003F4
:10DEE00082003632424411F47844240A03F8364F53
:10DEF00011F4FC63DB105370C90091700021D170E4
:10DF0000401CC0B21028E6D37620009000240025E3
:10DF100059462800FEF744F9FEF770F90700594604
:10DF2000681C80B2FEF73CF9FEF768F9060038007D
:10DF300000F040F80700300000F03CF8009942463D
:10DF400010EB0710C9B250540098401CC0B2002812
:10DF5000009010D1D9F83C0010EB04214046FEF7A8
:10DF600045F9114AA01083079B0F0021FE20FEF700
:10DF700065FF641CE4B2AD1CADB25FF4C8718D42A4
:10DF8000C6D35846401C80B28346F028BFD3D9F888
:10DF90003C0010EB04214046FEF728F9002001B0B8
:10DFA000BDE8F08B424D50000A0500008032002091
:10DFB000302000202C49884204BF002070471F39C0
:10DFC0000A0002408A4204BF0120704749090A0042
:10DFD00002408A4204BF0320704724490A000240DD
:10DFE0008A4204BF0520704710F4FC61B1F5FC6F54
:10DFF00004BF072070471E490A0002408A4204BF3E
:10E00000022070471B490A0002408A4204BF0420D4
:10E01000704719490A0002408A4204BF062070472F
:10E0200010F4BC61B1F5BC6F04BF08207047134900
:10E030000A0002408A4204BF0920704710490A00C2
:10E0400002408A4204BF0A20704710F47841B1F5BB
:10E05000784F04BF0B207047C006C00E1F2804BFB6
:10E060000C2070470D207047FFFF00001FF80000D4
:10E07000E0BD0000F705000017B80000EF7B0000CE
:10E080001F05000050B57E4C002100262000FEF741
:10E09000B3F82088C0B203281CBF012050BD002067
:10E0A0005FF4807204E0215C401C80B27618F6B206
:10E0B0009042F8D30EB1022050BD724834F8021BD2
:10E0C000090A017000200AE06F4A12EB4001228821
:10E0D000401C80B20A7034F8022B120A4A700728DA
:10E0E000F2D3254B00200EE05022401C01FB0231F0
:10E0F000228880B221F8102F62888A82A2880A853D
:10E10000E28808348A8701000D29EDD3604B002096
:10E110000AE00C22401C01FB0231228880B24A71C5
:10E1200034F8022B120A0A7101000929F1D30020E8
:10E1300011E0594A2388401C80B25354554A238821
:10E140001B0A5354554A638822F81130544AA38855
:10E15000A41D22F8113001000A29EAD35148218870
:10E1600001805148618801805048A188018034F8BD
:10E17000061F8180002050BD6C2500202DE9F04154
:10E180003F4E00245FF48072070003208046214642
:10E19000300002F057F900250FB1FF2080463948C2
:10E1A0000021007818EB00203080B01C0AE0364BCC
:10E1B00013EB410253781278491C89B212EB032207
:10E1C00020F8022B0729F2D3304F00210EE0502314
:10E1D000491C02FB037289B2138A0380938C43802B
:10E1E000138F4C3283801288C28008300A000D2AB7
:10E1F000EDD3274F00210AE00C23491C02FB0372D8
:10E2000089B21379527912EB032220F8022B0A000B
:10E21000092AF1D3002111E01E4B1F4F491C9B56C8
:10E22000BF5689B217EB032303801C4B33F812301F
:10E2300043801B4B33F812208280801D0A000A2A7B
:10E24000EAD318490988018017490988418017498C
:10E250000A888280898820F8061F04E0305D641CEB
:10E26000A4B22D18EDB2FF2CF8D3E843401C86F879
:10E27000FF0000213000FDF7BDFF0020BDE8F08168
:10E280008032002030250020402500206C25002011
:10E29000502B00201C2C0020102C0020E42B0020F0
:10E2A000F82B0020402C0020422C002020200020B1
:10E2B0000249088008880028FCD170478834002073
:10E2C0002DE9F0430300080003249A1C991C88469A
:10E2D0002E2189462B21002560B911703020507005
:10E2E00082F80290D070107102F8055F1D70B2EBD9
:10E2F00008009EE0012802DB02F8011B04E02D214A
:10E3000002F8011B01004842060005210A2E08D32D
:10E310000A27B6FBF7F66D1C042D28BF79430A2E99
:10E32000F6D20326B5FBF6F61E70032D28BF401863
:10E330002900092900F27680DFE801F06D62574775
:10E340003D33251B11053C49002590FBF1F402F0FB
:10E3500091F830341470022482F80190921C3749ED
:10E3600090FBF1F6303602F8016B641E5AD002F0D1
:10E3700081F8334990FBF1F6303602F8016B641EE8
:10E3800050D002F077F82F4990FBF1F6303602F8C2
:10E39000016B641E46D002F06DF815B102F8019BC6
:10E3A0000025294990FBF1F6303602F8016B641E16
:10E3B00038D002F05FF8254990FBF1F6303602F8CC
:10E3C000016B641E2ED002F055F85FF47A7190FB59
:10E3D000F1F1303102F8011B641E23D05FF47A7131
:10E3E00002F048F80DB102F8019B642190FBF1F1B5
:10E3F000303102F8011B641E14D0642102F03AF897
:10E400000A2190FBF1F1303102F8011B641E09D0A2
:10E410000A2102F02FF8303002F8010B02E0202030
:10E4200002F8010BD81D8242F9D300201070B2EB24
:10E4300008005870BDE8F08300CA9A3B00E1F5057A
:10E440008096980040420F00A0860100102700002F
:10E4500000B502000800642190FBF1F13031117029
:10E46000642102F007F8C0B20A2190FBF1F13031CB
:10E4700051700A2101F0FEFF30309070002002F848
:10E48000030F00BD00B502000800642101F0F2FF97
:10E49000C0B20A2190FBF1F1303111700A2101F074
:10E4A000E9FF30305070002002F8020F00BD00007C
:10E4B00010B5040004BF002010BD8008FFF7F8FF6E
:10E4C0004000401C00FB00F18C4238BF401E10BDD4
:10E4D000D0B5234E04200024FDF786FEC143214819
:10E4E00089B20A0003889A430523170020D0192710
:10E4F0003770160748BF0924560648BF0A24D605B8
:10E5000048BF0324960548BF0424560548BF052488
:10E51000130548BF0624D30448BF0724930448BF0B
:10E520000224530448BF0124120416D5082414E021
:10E530000288114211D032787AB90B4A167866B93E
:10E540004E0548BF05240E0548BF06240E0748BFE8
:10E5500009240E0448BF0824137001802000D0BD98
:10E56000813400204C790020823400207047000064
:10E57000FEE70000FEE70000FEE70000FEE7000007
:10E5800070470000704700007047000070470000AF
:10E59000704700007047000070470000704700009F
:10E5A000704700007047000070470000704700008F
:10E5B000704700007047000070470000704700007F
:10E5C000704700007047000070470000704700006F
:10E5D000704700007047000070470000FDF7DABD8B
:10E5E000FDF7DABD7047000070470000704700007B
:10E5F000704700007047000070470000704700003F
:10E600007047000030B5314C00211320FDF7E8FDC4
:10E61000207918B12079401E207130BD142020715E
:10E62000206910B12069401E2061218928480025F9
:10E63000152931BF25812189091821816189142972
:10E6400003D361890818608103E000210320FDF7EE
:10E65000C7FD6079322803D26079401C60710CE0FC
:10E66000657101210420FDF7BBFDA089401CA0813C
:10E67000E08910B1E089401EE0812078401C2070C4
:10E6800020780C2806D32570A179012001B9012535
:10E69000A571E071607810B16078401E6070A0785C
:10E6A00010B1A078401EA070FFF712FF01000BD040
:10E6B000E0700848B0F900100520491E41430320CE
:10E6C000FDF78EFD3C20608130BD00BF803400200E
:10E6D000ECFF000050290020704700007047000048
:10E6E000704700007047000070470000704700004E
:10E6F000704700007047000070470000704700003E
:10E70000704700007047000070470000704700002D
:10E71000704700007047000070470000704700001D
:10E72000704700007047000070470000704700000D
:10E7300070470000704700007047000070470000FD
:10E7400070470000704700007047000070470000ED
:10E750002DE9F04F87B05FF440415FF0006001F0B9
:10E760004DFEFDF74DFD0B20FDF73EFD48B9CD48B0
:10E77000CD4A002301B41E213020FDF72FFD01B04A
:10E78000FEE7CA48CA4A002301B432213020FDF70F
:10E7900025FD0720FDF728FDC64900240860082054
:10E7A000FDF722FDC44908600920FDF71DFDC3499E
:10E7B00008600A20FDF718FDC149086000F03CFF21
:10E7C000FFF760FCBF485FF4FA710180FDF722FD9E
:10E7D00000F0B6FFBC488046002088F8000001B079
:10E7E0000CE05470042010705078022808BF147098
:10E7F000002088F80000B54801210170B44DB54FE4
:10E8000005F2BA200290B448008840B900210220E5
:10E81000FDF7E6FC01211420FDF7E2FC4EE001F0DB
:10E8200049FC0498401C80B20490AC4806990288C8
:10E8300089B291420ED0008800260690A84804991B
:10E840000180049400F048FFF0B200F0F7FB761C62
:10E85000092EF9D300F0AAFB00F048FD9B48007890
:10E8600050B305F26E3900F0BDFF01F027F801F05A
:10E8700055F801F0BFF8FFF747F8B9F926100A205C
:10E88000491C41430220FDF7ABFC3878092818BF2A
:10E89000FFF74EF90298017851F0020101700298D9
:10E8A000017D51F00201017599F8000050F002005D
:10E8B00089F80000854804708A48047098F80000C0
:10E8C00000289BD08448008808B900F039FF8248AE
:10E8D0005FF4167105F25019018098F800000128C4
:10E8E00019D1B9F90010401AA9F8000099F80200EE
:10E8F00050F0020089F80200B9F9500002280AD14C
:10E90000794800268455761CB6F5966FFAD3012116
:10E910000620FDF765FC98F80000022817D138782A
:10E9200008B1012813D1714882465FF4FA60AAF851
:10E930000000BAF8000020B10420FDF755FC800467
:10E94000F7D5BAF8000010B93878FDF7C3FC98F88D
:10E950000000032812D10020FFF710FC38780928A6
:10E960000CD06348634A002301B419465B20FEF7CC
:10E970009DFA5FF4FA70FFF79BFC01B098F8000075
:10E98000042848D13878092845D15B480023194626
:10E9900082465A48524601B4E620FEF787FA387894
:10E9A000502100FB0150B0F9101001B081B9B0F94D
:10E9B000381029B9B0F92400C0B2FFF777FA0EE099
:10E9C00001290DD1B0F92400C0B2FFF70DFA06E01D
:10E9D000012905D1B0F92400C0B2FFF739FA0600C9
:10E9E0000EB1474800E047480023524601B419469B
:10E9F000E620FEF75BFA01B05FF4FA70FFF758FC0F
:10EA00003878502100FB015001003A31097851F06B
:10EA1000020180F83A103C48834698F80000092823
:10EA200040F08C80397801F2FF0A0D2970D2374806
:10EA300050239C46405C142300FB035001FB0C0058
:10EA4000827C52F00202827409B90C2004E0504624
:10EA5000C0B2042808BF03202C49387009180A786E
:10EA6000032A28BF0C7009785022504301FB035140
:10EA700009188A7C281852F001028A74010011F8E2
:10EA8000122F52F002020A700A7D52F002020A7539
:10EA900010F83A1F51F002010170017D51F002019E
:10EAA00001754BE000220108FF0700002822010841
:10EAB000FFFF0000943400203C2C0020442C002058
:10EAC000983400208A34002083340020BC2E00209B
:10EAD0006C250020302500208E3400208C3400204E
:10EAE00050250020873400209C74002088340020AA
:10EAF00050220108050400000A05000070220108E8
:10EB00007822010880220108502B00204025002097
:10EB10000C2001FB00B010F8912D52F0020202709F
:10EB20000D2914BF504615203870C0B20C2100FBCF
:10EB300001B010F8911D51F00101017098F800101A
:10EB40000D200A2904D139780D292CBF3C7038706A
:10EB500098F80010082957D1397801F2010A0A0003
:10EB60000D293BD2DB4850239C46805C142300FBDC
:10EB7000035002FB0C00827C52F0020282740C29CA
:10EB800001D1002004E05046C0B2042808BF05208F
:10EB9000D049387009180A78032A28BF0C70097800
:10EBA0005022504301FB035109188A7C281852F067
:10EBB00001028A74010011F8122F52F002020A7049
:10EBC0000A7D52F002020A7510F83A1F51F0020154
:10EBD0000170017D51F00201017515E00C2302FB6B
:10EBE00003B212F8913D53F002031370152914BFBC
:10EBF00087F800A0387038780C2100FB01B010F8BD
:10EC0000911D51F0010101703978502005F2C813AF
:10EC10004843019028180090123082460C2001FBD6
:10EC200000B2AC48983A4018834605F20830059087
:10EC300098F80000052840F09F800D2980F08B8017
:10EC400007290ED1D648007802282BD1B3F97800D5
:10EC5000D44F17EB8007385F12285FDB401E3880E7
:10EC60005CE00B2901D00C2907D1BAF91200012868
:10EC70002FDB401EAAF812002BE0052912D1CA484A
:10EC8000007802280ED1185F1F2802DB1E3818807A
:10EC900003E00128A4BF401E1880987D50F00200B8
:10ECA00098753BE09BF800008DF80C00019FBC4676
:10ECB000142700FB07506746C019B0F91070012FE8
:10ECC00002DB7F1E078204E0877AFF0644BF0789C4
:10ECD000078205290BD1B4480078F8B9A9F80000DB
:10ECE00099F8020050F0020089F8020016E00629A7
:10ECF0000AD1B3F92800032810D0B3F93C000B283F
:10ED00000CDB0A20988709E0092907D10298B0F99D
:10ED10002600012802BF0598012707809AF8000005
:10ED200050F002008AF800009AF8140050F0020037
:10ED30008AF81400009F00983A373F7857F002078E
:10ED400000F83A7F009F00983A373F7D3A3057F0FD
:10ED50000207077510E0D07950F00200D0715078AA
:10ED600050B3401E5070C0B2012804BF0420107080
:10ED70005078062800D1147098F80000072868D150
:10ED80000D2959D29BF800008DF80C00019FBC465C
:10ED9000142700FB07506746C019877C57F002070D
:10EDA00087749DF80C00032827BF00208BF8000013
:10EDB000401C8BF8000002E006205070DBE7019F4A
:10EDC0009BF80000BC46142700FB07506746C0199B
:10EDD000807A000644BF00208BF80000019F9BF85A
:10EDE0000000BC46142700FB07506746C019807A14
:10EDF000C00744BF00208BF80000019F9BF8000073
:10EE0000BC46142700FB07506746C019807A80076C
:10EE100004D509291CBF00208BF80000019F9BF836
:10EE20000000BC46142700FB07506746C019877CCA
:10EE300057F0010787740CE0D07950F00200D071D0
:10EE4000107803283CBF401C10701078032808BFBE
:10EE5000147098F8000006287FF4CAAC0D2980F0E1
:10EE600091805148072900780ED14D4A1278022A24
:10EE700032D1B3F978004B4911EB8000015FD12901
:10EE800063DA491C018060E00B2901D00C2909D10B
:10EE9000BAF91220BAF90A50AA4233DA521CAAF877
:10EEA00012202FE0052917D1022815D1B9F97010C9
:10EEB0001A5F08001E38824202DA1E321A8003E00E
:10EEC0008A42BCBF521C1A80987D50F0020098758F
:10EED0003BE000BF40250020019A9BF8007094465B
:10EEE000142207FB02556246AA18B2F91050B2F973
:10EEF0000870BD4202DA6D1C158203E0957AED06BA
:10EF000048BF1482052909D1F8B9A9F8000099F879
:10EF1000020050F0020089F8020016E006290AD12A
:10EF2000B3F92800032810D0B3F93C000B280CDB00
:10EF30000A20988709E0092907D10298B0F926002C
:10EF4000012802BF0598012101809AF8000050F0C5
:10EF500002008AF800009AF8140050F002008AF8C3
:10EF60001400009900983A31097851F0020100F834
:10EF70003A1F009900983A31097D3A3051F0020168
:10EF8000017535E4D07950F00200D0715078062830
:10EF9000BFF427AC401C507000067FF425AC21E480
:10EFA000472500202020002045250020F0B5CE4D2B
:10EFB0001E4E0024002738000C2100FB0150C17AAE
:10EFC00089070FD5C47241790368052201FB02311C
:10EFD000002302B4017936F81120817AC088FDF748
:10EFE00065FF01B07F1CFFB2092FE4D310480778FA
:10EFF0000D2F1AD3162F18D20E480178A9B1F33766
:10F00000FFB204700C20052207FB00504179036811
:10F0100001FB023102B408490B78017936F811205E
:10F02000817AC088FDF742FF01B0F0BDCC23010812
:10F030003025002087340020863400202DE9F0415F
:10F040009A4EA74FA74D0100B6F900003B68142265
:10F0500000FB0230A44B0C2201FB02349449884689
:10F060006179062929D8DFE801F0042A4381A9D172
:10F07000F900904E0620FDF7B7F85FF47A71484327
:10F08000010028001030FFF71BF92800123001B4EE
:10F09000A17A208900233200FDF708FF287C032194
:10F0A0000023320000FB0150303001B4A17A2089E6
:10F0B000283080B2FDF7FAFE02B0BDE8F081A98DDC
:10F0C0002800C9B2FFF7DEF920B4207938F8102003
:10F0D000A17A20890023FDF7E9FE40460C3001B4F7
:10F0E000A17A207938F81020208900231030E0E739
:10F0F000217941B970490069B1F9001041432800F4
:10F100001030FFF7DDF8207901280ED16B483B68FD
:10F110001422B0F90010B6F9500000FB023000696B
:10F12000414328001030FFF7CBF82079022804D1A2
:10F13000002128001030FFF7C3F82800123001B476
:10F14000A17A207938F8102020890023FDF7AEFE3F
:10F15000287C0321002300FB0150303001B4A17A48
:10F16000207938F8102020892830A2E7217941B988
:10F1700053490069B1F90010414328001030FFF7EE
:10F180009FF8207901280ED14E483B681422B0F92F
:10F190000010B6F9500000FB02300069414328001E
:10F1A0001030FFF78DF82079022804D100212800C3
:10F1B0001030FFF785F820790328B8E7217941B9A5
:10F1C00041490069B1F90010414328001030FFF7B0
:10F1D00077F8207901280ED13C483B681422B0F919
:10F1E0000010B6F9500000FB0230006941432800CE
:10F1F0001030FFF765F82079022804D1002128009B
:10F200001030FFF75DF82079032890E7217941B9A4
:10F210002F490069B1F90010414328001030FFF771
:10F220004FF8207901280ED12A483B681422B0F902
:10F230000010B6F9500000FB02300069414328007D
:10F240001030FFF73DF82079022804D10021280072
:10F250001030FFF735F82079032868E7217941B9A4
:10F260001D490069B1F90010414328001030FFF733
:10F2700027F8207901280ED118483B681422B0F9EC
:10F280000010B6F9500000FB02300069414328002D
:10F290001030FFF715F82079022804D1002128004A
:10F2A0001030FFF70DF82079032840E7A42500204F
:10F2B00088220108050A0000D02B0020DA2B00204C
:10F2C000CE2B0020D82B0020D62B00204E790020FA
:10F2D000D22B0020DC2B0020D42B0020DE2B0020A2
:10F2E0009434002024250020502B00202DE9F04FDD
:10F2F000002000248046C146CB49CC4F14238A46C7
:10F3000050210AF2902B04FB01A109FB03160D000A
:10F310001035B17C890740F107810020B074042CBE
:10F3200001D0072C1FD1B07A800609D530680023A0
:10F3300001B47168E85E31F81020B17BB0895FE1FB
:10F34000B07A000600F15F81B6F9100032680A2138
:10F35000002300FB012001B47168E85E31F8102041
:10F36000B17BB0894CE1B07A800607D530680023C4
:10F3700001B4B17B70680288B08941E1B17ABBF910
:10F380002800890777D5082C34D1BBF90010BBF9C8
:10F390001420CF4B891A1B68502200FB02A01422B4
:10F3A000B0F9380000FB02300069414338001030EA
:10F3B000FEF786FF3800123001B47168BBF92800EF
:10F3C000434631F81020B17BB089FDF76FFD387CE2
:10F3D0000321434600FB0170303001B47168BBF972
:10F3E000280031F81020B17BB089283080B2FDF7B9
:10F3F0005DFD02B00A2C2DD1B64B0AF23030B0F9C7
:10F400001410B0F900001B681422091ABAF9B401EB
:10F4100000FB02300069414338001030FEF750FF16
:10F420003800123001B4B17B706800230288B089C3
:10F43000FDF73CFD387C0321434600FB01703C3066
:10F4400001B4B17B70680288B089283080B2FDF7C2
:10F450002DFD02B0092C40F0D680B5F91410686873
:10F46000C9B2FEF7F5FF6868002301B4A97CA8685B
:10F470000288288AC4E0B17A01292CD12020387072
:10F48000B6F910100B2C09D1092905D1312038709B
:10F4900030207870B87009E0491C01E00A29F5D0E5
:10F4A0000A204143C9B2781CFEF7ECFF80B47068B3
:10F4B000B17B00230288B089FDF7F8FC59A001B4A4
:10F4C000B17B706843460288B089183080B2FDF77E
:10F4D000EDFC02B097E080291CD0082C0DD1B6F9C4
:10F4E000101033680A2201FB0231002302B4716854
:10F4F00031F81020B17BB08982E0B6F91000326893
:10F500000A21002300FB012001B4B17B706802884E
:10F51000B08975E00A2C76D13068002301B4B17B44
:10F5200070680288B0896BE0397BA1426BD13819D1
:10F53000007F484567D13E480178002963D03D4FA0
:10F5400000210170042C01D0072C1CD1B07A800658
:10F5500009D5306801B43B78685E716831F81020D5
:10F56000B17BB0894CE0B6F9100032680A2100FB8B
:10F57000012001B43B787168B5F9000031F8102022
:10F58000B17BB0893CE0B07A800607D5306801B421
:10F590003B787068B17B0288B08931E0082C0ED1CD
:10F5A000B6F9100032680A2100FB012001B43B7853
:10F5B0007168BBF9280031F81020B17B0AE0B6F978
:10F5C000100032680A2100FB012001B43B7870680A
:10F5D000B17B0288B089FDF769FC01B0092C12D11A
:10F5E000B07A80070FD5B5F914106868C9B2FEF774
:10F5F0002FFF686801B43B78A868A97C0288288A34
:10F60000FDF754FC01B04846401CC0B281460428B6
:10F61000FFF472AE641CE4B20D2CFFF46CAEBDE8D6
:10F62000F08F00BF250000006C250020242500205D
:10F630008734002086340020F0B5234E234D00246B
:10F64000306800278088401C01280EDA13E0204A29
:10F6500014217F1C1268BFB200FB01210A2200FBAB
:10F66000025010F5826000F0F7FE3168380089889A
:10F67000491C8842EBDB3068818829868188A5F89F
:10F6800080100021A5F8D010A5F82011C088401CDA
:10F6900001280EDA13E00F4A1421641C1268A4B288
:10F6A00000FB01210A2200FB025010F5956000F0DA
:10F6B000D3FE31682000C988491C8842EBDB3068E2
:10F6C000C088A5F8AC01F0BD442C00206C250020BA
:10F6D000943400203C2C002000B50620FCF784FD6B
:10F6E000124B80B20021984228BF0121104B984252
:10F6F00024BF491C89B20F4B984224BF491C89B2D0
:10F700000D4A904224BF491C89B20C480A22036862
:10F7100001FB0232002304B4426832F81120817BDD
:10F720008089FDF7C3FB01B000BD00BFB90B00002D
:10F73000AD0D00003D0F000005100000C0260020A8
:10F74000B0B501215C4C2420FCF74AFD00211420B7
:10F75000FCF746FD0020FCF727FD1420FEF7A8FD6E
:10F7600001210620FCF73CFD002100225027002348
:10F770001500142005FB074503FB00505B1C9BB2E2
:10F78000857C55F002058574042BF1D3521C92B28E
:10F790000D2AECD30F4D002002000C23401C02FB6D
:10F7A000035280B2D37A53F00203D3720928F3D301
:10F7B00009480078092805D004F2E22084F81E13D5
:10F7C0000170017505485FF416710180044801213C
:10F7D0000170B0BD502B0020302500208E34002059
:10F7E000BC2E00202DE9F041AC4C334D314F0020B0
:10F7F0002E001036207400210520FCF7F1FCB6F92C
:10F800001410092005F25018FCF7EAFCB6F928108C
:10F810000A20FCF7E5FC3888B6F93C104843C111D2
:10F8200010EB116001120020FCF7DAFCB6F90000C1
:10F8300078B9B8F9640011280BDB786881880A2050
:10F84000491CFCF7CDFC01210520FCF7C9FC012077
:10F850002074B6F964100B20FCF7C2FCB6F97810DE
:10F860000C20FCF7BDFC7888B5F99C104843C11109
:10F8700010EB116001120120FCF7B2FCB6F9500048
:10F8800078B9B8F9640011280BDB786881880C20FE
:10F89000491CFCF7A5FC01210520FCF7A1FC012077
:10F8A0002074B8F9000018B901210620FCF798FC73
:10F8B000BDE8F081402C00206C25002070B5134C71
:10F8C0000121134E2420FCF78BFCB4F96450142062
:10F8D000ADB2454330684019B0F908100720FCF775
:10F8E0007FFC3068401941890820FCF779FC094AFF
:10F8F0000948B4F9641032F811100160B4F900003D
:10F9000018B901210620FCF76BFC70BDBC26002055
:10F910003C2C0020842601089034002070B5314C26
:10F92000314D324EB4F9000078B924210F20FCF794
:10F9300057FC300084302860B4F914000C2100FB1F
:10F94000016041890D20FCF74BFCB4F9000002284E
:10F950000FD1B4F914000C2100FB016041890D2086
:10F96000FCF73EFC06F21410286024210F20FCF75F
:10F9700037FCB4F9000001280ED1B4F914000C21B1
:10F9800000FB0160CC3641890D20FCF729FC2E607C
:10F9900024210F20FCF724FCB4F9000003281FD118
:10F9A000B4F91400124D0E2100FB01500189102002
:10F9B000FCF716FCB4F914000E2100FB015041893C
:10F9C0001120FCF70DFCB4F914000E2100FB0150CE
:10F9D0004089401C10EBD07041101220FCF700FC55
:10F9E00070BD00BF5C27002050040240602D002045
:10F9F000482C00202DE9F041274C284E254F04F2D9
:10FA00003030B0F91410B0F9000004F2402504F2CF
:10FA10003808091A2220FCF7E3FBB5F90000B5F914
:10FA2000141011EBC0012020FCF7DAFBB5F900003F
:10FA300088B9B8F90000B7F90010321892F95420CB
:10FA400016EB4000008D891A890291FBF0F0C1B2DB
:10FA50002120FCF7C5FBB5F90000012811D1B8F948
:10FA60005000B7F90410321892F9602016EB4000EC
:10FA7000808F891A890291FBF0F0C1B22120FCF736
:10FA8000AFFBB4F9500118B901210620FCF7A8FB1F
:10FA9000BDE8F081202000206C250020BC2B002038
:10FAA0002DE9F04FC34C87B000208046E084C24867
:10FAB000142200F2B41102912100803104910299C4
:10FAC000049B00F2380AB1F900101B68EC30834641
:10FAD000BBF9000001FB023196220300C9891433EF
:10FAE000D1F5806151434A1211EB9251029A891269
:10FAF000B2F91420C4F86C80C4F870808918BAF97F
:10FB0000642009B28946BAF91410C4F87480C4F8A4
:10FB1000788021736273A173E273C82B01DBC72065
:10FB200001E0143000B20390207C002840F0D58022
:10FB3000002514E000F03AFA00997F1CC870207884
:10FB4000E784BFB2A0706078E0709C48874240F0C4
:10FB500086806D1C2DB2B5F5805F80F208829848D2
:10FB600010EB85060298B0F90000112802DBBBF902
:10FB7000640058B10120FCF737FB50B9A08C8542D6
:10FB800007D1BBF9641021B9401CA084FCF71CFB11
:10FB900030603268E06EBAF91430666F2272217AF2
:10FBA0004018E0660800C31AE36703FB036363675A
:10FBB000237B8B4238BF2173A37B994238BFA1734B
:10FBC000BAF96460A76F110A6172637A216FC9186C
:10FBD000216719008E1BE66706FB0676A667667B23
:10FBE0009E4238BF6373E67BB34238BFE373130CA6
:10FBF00001261E40A672520C01231340E372A94550
:10FC0000A7DAE28C6D4B9A42A3D24B46EE1ABAF9B0
:10FC1000003036B214EB4302128D4243E01890F9E3
:10FC20005400531212EB935292128018BAF95020DA
:10FC3000207014EB4200808F4843A11891F96010A6
:10FC4000421210EB92508012081860700298049AC9
:10FC50001421B0F90000126800FB01200190019A04
:10FC6000E78CB102D289380000FB12110129FFF69E
:10FC700070AF711E89020691A1782278531A019AF9
:10FC80009C46D389069A43439A1A634653435A12B1
:10FC900013EB925292128918C34A217112EB80021F
:10FCA00000921170019BE1786278DB89521A584307
:10FCB000069BC01A4243501212EB90508012081853
:10FCC000607100994870A07A0028009807BFBBF8BF
:10FCD00000108170039981702CE7BAF92800002880
:10FCE00019BF0803E066100320670025344915EBAF
:10FCF000D570401011EB8006BBF9640010B9FCF719
:10FD000063FA3060306801222072010A6172010CCE
:10FD10000A40400C0121014094F95000E172BAF907
:10FD20002810A27200294DD1627A217AE66E10184D
:10FD300060720A00C0B2131813EBD37316EB63039F
:10FD4000E366BAF91430D71A3E00E7677E43676F5F
:10FD500016EBD676C31A17EB66061F00E3675F4300
:10FD600017EBD773666716EB63036367237B8B42DE
:10FD700038BF2173237B834238BF2073A37B994212
:10FD800038BFA173A17B884238BFA073BAF9003095
:10FD900014EB4301098DE31893F954304A4356128A
:10FDA0004143481212EB965292129A18227011EBAC
:10FDB00090504AE0BC2B00206C2500202B01000055
:10FDC0009C340020217A627A236F081A2072C0B214
:10FDD000010056088E199B192367BAF96430CF1AAF
:10FDE0003E00E7677E43A76F16EBD676D31A17EB74
:10FDF00066061F00E3675F4317EBD773A66716EB32
:10FE00006303A367637B834238BF6073637B934262
:10FE100038BF6273E37B984238BFE073E07B824275
:10FE200038BFE273BAF9503014EB4300808FE31807
:10FE300093F9603041434E12504311EB96518912B1
:10FE400059182170411210EB9150801218186070EF
:10FE50000298049A1421B0F900001268A94500FB29
:10FE600001200190BBF80000ADF814003ADAE08CF4
:10FE70004C49884236D249466E1A761E36B2019AED
:10FE8000E78CB002D289390001FB1202012A29DB7A
:10FE9000E27823789B1A9C46019BDB894B43181A16
:10FEA00063464343581213EB9050801210183E4A99
:10FEB000207112EB81010091087000994870A07ABE
:10FEC0000028009807BFBDF8141081700399817055
:10FED00000F06CF800997F1CC8703248E784BFB20C
:10FEE0008742CCD16D1C2DB200950098814537DA40
:10FEF000E08C2C49884233D200984946461A761E37
:10FF000036B2019AE58CB102D289280000FB1212A8
:10FF1000012A25DB019F22786378FF899B1A4743DA
:10FF2000791A4B43591213EB9151891251181E4AF9
:10FF3000617112EB800739707970A07A002807BFD1
:10FF4000BDF81400B8700398B87000F02FF8F8707E
:10FF500060786D1CE584E0701248ADB28542D0D166
:10FF6000009D6D1C2DB2B5F5005FFFF6BFAE002001
:10FF700000260D4A16EB800151180A790A700A4AC8
:10FF8000414216EB8101511811F595610A78761CF2
:10FF9000042E0A71EDDB401C0428E9DB07B0BDE844
:10FFA000F08F00BF2B0100009C7400203F49404BA4
:10FFB0002DE9F00F83B0B1F93C010A0031F99C9FA3
:10FFC000B1F96410984698F8003098F8055098F800
:10FFD00010601032B2F93C404519B5EB09050295A5
:10FFE00098F80450C3181B1B45192C1B98F80B508C
:10FFF00001942D4C891EA246B8F8264014EB0A0B3A
:020000040801F1
:1000000098F8014007290094B2F95040B2F9002055
:100010003AD8DFE801F004101A1A21282D3426B945
:1000200000981818B0EB090031E002B10198002CDB
:100030002DD002982BE026B90098181A19EB000071
:1000400025E002B1019814B3F3E798F80A100D40C7
:10005000142105FB01001AE09BF800109AF82B21EF
:10006000891A081813E09BF82C119AF85722F7E721
:100070009BF858129AF88323891A081807E09BF80E
:1000800084139AF8AF24EBE7142105FB0100C8287C
:1000900001DBC72002E00228B8BF0120C0B203B0D4
:1000A000BDE8F00F704700BF742000206C250020D1
:1000B000BC2B0020AD482DE9F04FAD4C804608F236
:1000C0004020B0F90010B0F9140008F250170025D4
:1000D00010EBC101A7488146A7488346A74882463E
:1000E000B7F95000042847D8DFE800F0031D384076
:1000F00040002020FCF774F80220FCF775F840B1AE
:10010000FFF7CEFCB7F9640039F81000CAF8000018
:1001100032E0DAF8000000282ED1A08C9149884204
:10012000EED3A584ECE72020FCF75AF80220FCF778
:100130005BF80028E4D1DAF80000E8B900235A4659
:100140001554401C80B25FF496629042F7D3B7F921
:10015000640039F81000CAF800000DE02020FCF718
:100160003FF80220FCF740F830B103E020212020C6
:10017000FCF736F8FFF794FCFDF712FB785F464674
:100180003836002830D10320FCF72EF860B3012167
:100190000620FCF725F8B7F9640039F81000CAF812
:1001A0000000B7F95000A584022806D1012038804C
:1001B000B87850F00200B87016E0042814D100207E
:1001C000B28A1BEB8001401C0A70B6F8642080B232
:1001D0004A70424632F8EC3F50328B701288CA7037
:1001E0005FF496729042EBD3715FE26E601890F903
:1001F000540014EB4101098D120B5143226F890AFF
:100200004018B6F91410120B401AB6F9501060825B
:10021000601890F9600014EB4101898F5143890AFD
:100220004018B6F96410401AA083606F000BFEF707
:100230003FF9715F621892F9542014EB4101098D66
:10024000414312EB91206083A06F000BFEF730F961
:10025000B6F95010735FB6F914A014EB4102928FF7
:100260006118914691F960203F49CB46884649463E
:100270009146414312EB9120217BB6F96420A8F806
:10028000000014EB4300008DE31893F954704143D0
:100290004B1211EB9351637B89127918B1EB0A0170
:1002A0000BFB03F3E1825E1213EB96539B124E4657
:1002B000F318A67B9B1A23847043461210EB9650CA
:1002C00080123818B0EB0A06E07B26830BFB00F0A7
:1002D000471210EB975080124F463818801AB4F925
:1002E0001A206084032AB8BF6583B8F90020032A66
:1002F000BCBF0022A8F80020B4F912707FF0010200
:10030000032F02DA9742A8BF6582B4F91C70032F4D
:1003100002DA9742A8BFA58309B2032902DA914203
:10032000A8BFE5821BB2032B02DA9342A8BF258443
:1003300036B2032E02DA9642A8BF258300B2032804
:1003400002DA9042A8BF6584B4F91600B4F9181017
:10035000401AB4F92210A082B4F92000401AE083B8
:10036000BDE8F08FFF0F00004E7900206C250020C3
:10037000BC2B0020842601089C74002090340020AF
:1003800030BF704720BF704740BF7047BFF36F8FCB
:100390007047BFF34F8F7047BFF35F8F704701DF28
:1003A0007047EFF31480704780F31488BFF36F8FAA
:1003B0007047EFF30980704780F309887047EFF3C7
:1003C0000880704780F30888704762B6704772B63D
:1003D0007047EFF31080704761B6704771B6704791
:1003E000EFF31380704780F311887047EFF31280AA
:1003F000704740BA704700BA70470000034A024B8A
:100400000B4003431360704780FFFF1F08ED00E0BF
:100410007047000010B581B00400009469460120C7
:10042000FFF7F6FFF9E7000000F01EB810B5030073
:10043000002A04E011F8014B521E03F8014BF9D1D8
:1004400010BD0000C9B20300002A02E003F8011B3E
:10045000521EFBD170470000020011F8013B02F868
:10046000013B002BF9D17047014CA6462047000004
:10047000150401088C4690FBF1F10CFB110070474C
:10048000904A0000C02E0020C02E0020BD0E0000AB
:100490000020002098040108E0FFFF071FF8E00794
:1004A000FFFF00001F0500F8E0FFEF7BFFFFE00704
:1004B00000F8EF7BFF071F00AF000600740002008A
:1004C0004B000600230006000000000000000000B2
:1004D00000000000FFFFE0FFE0BDFF07F7051FF889
:1004E00017B8E007E005EF7B1F0500F81F000000CC
:1004F00000000000000000000000000000000000FC
:1005000000000000000000000000000000000000EB
:1005100000000000000000000000000000000000DB
:1005200000000000000000000000000000000000CB
:1009E0000000000000000000000000007556006DCF
:1009F00056005620006B56006E53007553006D5321
:100A000000532000F4220108CC230108010010004B
:100A10002300E40001000200A42301088822010849
:100A2000010010002300D800000002007C290020F3
:100A300088220108080000003300D80005000200E9
:100A4000C4230108CC230108C800200000000000D6
:100A50009600020008230108CE23010801001000BF
:100A60005600E40001000200A42301088A220108C4
:100A7000010010005600D800010002007C2900206F
:100A80008A220108080000006600D8000100020068
:100A9000C4230108CE230108C80020000000000084
:100AA000640002001C230108D0230108010010008B
:100AB0008900E400010002009C2301088C22010847
:100AC000000010008900D8000000020094230108F3
:100AD0008C220108000000009900D80000000200EC
:100AE000C4230108D0230108C70020000000000033
:100AF0003C00020030230108D22301080900100045
:100B0000BC00E400010002009C2301088E220108C1
:100B100000001000BC00D80000000200942301086F
:100B20008E22010800000000CC00D8000000020066
:100B3000C4230108D2230108C700200000000000E0
:100B4000140002009C220108B022010801000000EC
:100B50000000E40000000200B4220108E8220108BD
:100B6000040000000000D80000000200B4220108C8
:100B7000E8220108040080000000000000000400DA
:100B8000B4220108E82201080400800000000000EF
:100B900000000400D82301081424010804001000F8
:100BA000EF00E40000000200142A002016240108CF
:100BB0001A000000EF00D800110002000C24010808
:100BC00014240108D30E20006E0100000000020072
:100BD0000C24010814240108D30E800050000000EA
:100BE0000000020018240108082501080300100075
:100BF0001A01E40003000200402401080A2501084C
:100C0000130000001A01D8000D0002002425002066
:100C100008250108640080003201E400320004006D
:100C200024250020082501080000800000000000A5
:100C3000000004000C250108CC230108030010006B
:100C40004D01E400010002005C250108CC230108ED
:100C5000070010007501E40000000200AC25010847
:100C600088220108C80020004D01D80000000200C1
:100C7000AC25010888220108000080006501D80029
:100C800000000400B8250108BC260108C7002000A8
:100C900023000000B4000200C0250108BC260108A2
:100CA000C70020003E000000280002003426010892
:100CB000CC230108010010003A01C5000000020029
:100CC0002425002088220108F00002005601C500FA
:100CD00046000200D8250108C426010801001000C2
:100CE000860000000000000024250020C426010822
:100CF000FF000200CE00000000000100EC2501080A
:100D0000C426010801001000E600000000000000F9
:100D1000EC250108C4260108000080000000000046
:100D200000000400C8250108C02601082C0120008D
:100D30003801000050000200D0250108C02601083B
:100D40002C01200053010000180102004826010870
:100D5000C0260108000080003A01B6000000020031
:100D600024250020C22601082C0102005601B600ED
:100D700050000200402B0020BC260108000020008B
:100D80003A01A7000000020024250020BE26010829
:100D9000090001005601A7000500020024250020DB
:100DA000BC260108000080000000000000000400D4
:100DB00024250020BC26010800008000000000005F
:100DC00000000400482B0020BC2601080000200081
:100DD0003A0198000000020024250020BE260108E8
:100DE0000A00010056019800050002002425002099
:100DF000BC26010800008000000000000000040084
:100E000024250020BC26010800008000000000000E
:100E100000000400000000000000000000000000CE
:100E200000000000000000000000000000000000C2
:100E300000000000000000000000000000000000B2
:100E400000000000000000000000000000000000A2
:100E50000000000000000000000000000000000092
:100E60000000000000000000000000000000000082
:100E70000000000000000000000000000000000072
:100E80000000000000000000000000000000000062
:100E90000000000000000000000000000000000052
:100EA0000000000000000000000000000000000042
:100EB0000000000000000000000000000000000032
:100EC0000000000000000000000000000000000022
:100ED0000000000000000000000000000000000012
:100EE0000000000000000000000000000000000002
:100EF00000000000000000000000000000000000F2
:100F000000000000000000000000000000000000E1
:100F100000000000000000000000000000000000D1
:100F200000000000000000000000000000000000C1
:100F300000000000000000000000000000000000B1
:100F400000000000000000000000000000000000A1
:100F50000000000000000000000000000000000091
:100F60000000000000000000000000000000000081
:100F70000000000000000000000000000000000071
:100F80000000000000000000000000000000000061
:100F90000000000000000000000000000000000051
:100FA0000000000000000000000000000000000041
:100FB0000000000000000000000000000000000031
:100FC0000000000000000000000000000000000021
:100FD0000000000000000000422E4C000000000055
:100FE000566F6C00000000004C26010804003A0116
:100FF000560189024C26010804013A0156017A0281
:101000004C26010800023A0156016B024C260108E9
:1010100000033A0156015C024C26010800043A0123
:1010200056014D024C26010801053A0156013E02C7
:101030004C26010801063A0156012F024C260108F0
:1010400001023A01560120024C26010802033A012E
:101050005601110200000000000000000000000026
:101060000000000000000000000000000000000080
:101070000000000000000000000000000004000468
:101080000004000400040004000400040004000440
:101090000004000400040004000400040004000430
:1010A0000004000400000000000000000000000038
:1010B0000000000000000000000000000000000030
:1010C0000000000000000000000000000000000020
:1010D000000000000000000000010001000000000E
:1010E000203130487A200000B3003F9C320020328B
:1010F00030487A200000B3001F4E320020353048BF
:101100007A200000B3003F1F320021313030487A8E
:101110002100B3009F0F320021323030487A210085
:10112000B300CF07320021353030487A2100B300B8
:101130001F03320020314B487A200000B3008F019A
:10114000320020324B487A200000B300C700320042
:1011500020354B487A20000011001F033200213156
:10116000304B487A210011008F0132002132304B80
:10117000487A21001100C70032002135304B487AEF
:10118000210000009F0532003130304B487A0000CA
:101190000000CF0232003230304B487A00000000AD
:1011A000670132003530304B487A000000008F0074
:1011B000320020314D487A20000000004700320004
:1011C00020324D487A2000000000230032002034F5
:1011D0004D487A20000000001100320020364D48B2
:1011E0007A20000000000B00320020384D487A20A1
:1011F0000000000008003200203130487A20000052
:1012000013000F27203230487A2000001300871384
:10121000203530487A2000001300CF0721313030CC
:10122000487A21001300E70321323030487A210048
:101230001300F30121353030487A21001300C70034
:1012400020314B487A2000001300630020324B48C5
:101250007A2000001300310020354B487A2000002E
:10126000130013002131304B487A2100130009008C
:101270002132304B487A210013000400000027007F
:101280008E0030010902110341048F05F0065A084F
:10129000C009190B590C760D680E260FAB0FF30F12
:1012A000FF0FD70F700FCE0EF50DED0CBD0B6F0AB3
:1012B0000E09A4073E06E504A50388029601D8009E
:1012C00053000B000000E300C601AA028D03710465
:1012D000540538061B07FF07E208C609A90A8D0B4B
:1012E000700C540D370E1B0FFE0F1B0F370E540DD5
:1012F000700C8D0BA90AC609E208FF071B07380608
:10130000540571048D03AA02C601E30000007500B4
:10131000EA005F01D4014902BE023303A8031D04A1
:10132000920407057C05F1056606DB065007C50734
:101330003A08AF08240999090E0A830AF80A6D0BC6
:10134000E20B570CCC0C410DB60D2B0EA00E150F59
:051350008A0FFF0F01F0
:101358007556006D56005620006B560043485F4195
:10136800000000005A45524F00000000444946461C
:1013780000000000564F54414745000043485F4273
:101388000000000020202020202020202050617212
:10139800616D65746572732076657273696F6E200E
:1013A8006572726F722020202020202020202000CB
:1013B800202020202020202020536176652074687A
:1013C800652063616C6962726174696F6E20646123
:1013D8007461202020202020202020002020202090
:1013E80020202020202020526573746F72652064AD
:1013F800656661756C7473206461746120202020B7
:1014080020202020202020002020202020506C6533
:1014180061736520636F6E6E656374002043485F77
:1014280041200000696E70757420746F20474E4427
:101438002020202020202000202D2D20000000002A
:1014480020496E7075742000207374616E64617237
:101458006420766F6C7461676520746F20000000EB
:1014680043485F41202000002043485F422000009D
:1014780043485F42202000003235302D3330306D34
:1014880056000000302E352D302E36562000000034
:10149800312E302D312E325620000000322E352DBF
:1014A800332E305620000000352E302D362E305683
:1014B800200000002031302D31325620200000005D
:1014C8002032352D33305620200000002035302DB5
:1014D80036305620200000007375697461626C65AF
:1014E80020000000204578697420776974686F755A
:1014F800742043616C6962726174696F6E200000C8
:1015080000004578697420776974682053617665AE
:101518002043616C6962726174696F6E000000003B
:1015280045786974207769746820526573746F729E
:10153800652044656661756C7473000000000000E6
:10154800200040008000400020001000080010002B
:10155800000042FE02000000468A929262000044A7
:101568008292926C000018284AFE0A000040407ED1
:101578004040000000000000000000007000FF0371
:1015880070000000000000000000000002000400DD
:101598000800700070007000800000010002000068
:1015A8002000200020002000700070007000200043
:1015B80020002000200000000002000180007000D0
:1015C8007000700008000400020000000000000025
:1015D800000080074000200020002000200020009C
:1015E800400080070000000000000000000000002C
:1015F80000000F0010002000200020000C038C01C8
:10160800C0006000300018030C03000000008001D7
:1016180060021C026A028402400100000202020207
:101628000202020202020202FE03000000000000A1
:10163800F800FC01060302020000000000000000A0
:1016480002020603FC01F8000000000000008C0103
:10165800D80070007000D8008C0100000000200045
:101668002000F800F80020002000000020002000E2
:1016780010000F0000000000000000000000200023
:1016880020002000200020002000000000000000B2
:101698000003000300000000000000008001C000FB
:1016A8006000300018000C0006000000FC01FE037A
:1016B800420222021202FE03FC010000000008029E
:1016C8000C02FE03FE03000200020000040386036E
:1016D800C202620232021E030C0300000401060368
:1016E800220222022202FE03DC01000060007000D8
:1016F80058004C02FE03FE03400200001E011E02B9
:10170800120212021202F203E2010000F801FC03C5
:10171800260222022202E003C001000006000600A1
:10172800C203E20332001E000E000000DC01FE03CB
:10173800220222022202FE03DC0100001C003E02FB
:10174800220222022203FE01FC0000000000000029
:10175800000098019801000000000000FA02FA0257
:10176800FA02FA02FA02FA02FA02FA020000200069
:101778007000D8008C01060302020000900090005F
:10178800900090009000900000000000000002020D
:1017980006038C01D80070002000000018001C000F
:1017A8000400440364033C0018000000F80104012D
:1017B80072027202F202840278000000F003F80359
:1017C8004C0046004C00F803F00300000202FE0340
:1017D800FE0322022202FE03DC010000F800FC01E5
:1017E80006030202020206038C0100000202FE0345
:1017F800FE0302020603FC01F80000000202FE03D9
:10180800FE032202720206038E0300000202FE0398
:10181800FE032202720006000E000000F800FC0120
:10182800060322022202E601EC030000FE03FE0387
:10183800200020002000FE03FE030000000000003E
:101848000202FE03FE03020200000000C001C00302
:1018580000020202FE03FE01020000000202FE0373
:10186800FE033000F800CE03060300000202FE0368
:10187800FE0302020002000200030000FE03FE0352
:101888001C0038001C00FE03FE030000FE03FE03DC
:101898001C0038007000FE03FE030000F800FC0185
:1018A800060302020603FC01F80000000202FE0320
:1018B800FE03220222003E001C000000FC01FE0381
:1018C800020282020203FE03FC0100000202FE0380
:1018D800FE0322006200FE039C0300000C011E03AD
:1018E800320222026202CE038C01000000000E00C8
:1018F8000602FE03FE0306020E000000FE01FE03C0
:10190800000200020002FE03FE0100007E00FE004D
:10191800800100038001FE007E000000FE00FE033F
:101928008003E0018003FE03FE0000000603DE03DF
:10193800F8002000F800DE030603000000001E0087
:101948003E02E003E0033E021E0000008E03C603D1
:10195800620232021E038E03000000000002000330
:10196800C002200218020402FE0300000000220048
:101978004200FE01FE034002200200002000100089
:1019880008000600080010002000200000002002C7
:101998001002FC03FE0312002200000000000002F7
:1019A800000200020002000200020000020202021D
:1019B800020202020202020202020202C001E8035B
:1019C80028022802F801F003000200000202FE03C8
:1019D800FE0120022002E003C0010000E001F00344
:1019E8001002100210023003200100000000C001A4
:1019F800E00320022202FE03FE030000E001F003E0
:101A080050025002500270036001000000002002E2
:101A1800FC03FE03220202000400000030017803E8
:101A280048024802F803F801000000000202FE0321
:101A3800FE0320001000F003E00300000000000097
:101A48000002F603F6030002000000000000000197
:101A580000031002F603F601000000000202FE0374
:101A6800FE036200F0009803080300000000000075
:101A78000202FE03FE03000200000000F803F80360
:101A88001800F0031800F803F00300000800F8033A
:101A9800F00308000800F803F00300000000F0015C
:101AA800F80308020802F803F00100000802F8032E
:101AB800F003480248007800300000003000780049
:101AC80048004802F803F803000200000802F8037F
:101AD800F003180208001800300000000000100190
:101AE800380368024802D803900100001000100073
:101AF800F801FC031002100300010000F801F803CC
:101B080000020002F801F803000200000000F800DB
:101B1800F80100030003F801F8000000F800F803DA
:101B2800000380010003F803F8000000080218030E
:101B3800B001E000B0011803080200003800780284
:101B4800400240024002F801F80000001803880330
:101B5800C80268023802180300000000F800880074
:101B68008E032200FA02FA02FA02FA0200000000CA
:101B78000000FE03FE03000000000000FA02FA0263
:101B8800FA02FA02FA020202FE030000F8008800D4
:101B98008E0302020202020202020202EF7BEF7BC4
:101BA800EF7BEF7BEF7BEF7BEF7BEF7BEF7BEF7BDD
:101BB800EF7BEF7BEF7BEF7BEF7BEF7BEF7BEF7BCD
:101BC800EF7BEF7BEF7BEF7BEF7BEF7BEF7BEF7BBD
:101BD800EF7BEF7BEF7BEF7BEF7BEF7BEF7BEF7BAD
:101BE800EF7BEF7BEF7BEF7BEF7BEF7BEF7BEF7B9D
:101BF800EF7BEF7BEF7BEF7BEF7BEF7BEF7BEF7B8D
:101C0800EF7BEF7BEF7BEF7BEF7BEF7BEF7BEF7B7C
:101C1800EF7BEF7BEF7BEF7BEF7BEF7BEF7BEF7B6C
:101C2800EF7BEF7BEF7BEF7BEF7BEF7BEF7BEF7B5C
:101C3800EF7BEF7BEF7BEF7BEF7BEF7BEF7BEF7B4C
:101C4800EF7BEF7BEF7BEF7BEF7BEF7BEF7BEF7B3C
:101C5800EF7BEF7BEF7BEF7BEF7BEF7BEF7BEF7B2C
:101C6800EF7BEF7BEF7BEF7BEF7BEF7BEF7BEF7B1C
:101C7800EF7BEF7BEF7BEF7BEF7BEF7BEF7BEF7B0C
:101C8800EF7BEF7BEF7BEF7BEF7BEF7BEF7BEF7BFC
:101C9800EF7BEF7BEF7BEF7BEF7BEF7BEF7BEF7BEC
:101CA800EF7BEF7BEF7BEF7BEF7BEF7BEF7BEF7BDC
:101CB800EF7BEF7BEF7BEF7BEF7BEF7BEF7BEF7BCC
:101CC800EF7BEF7BEF7BEF7BEF7BEF7BEF7BEF7BBC
:101CD800EF7BEF7BEF7BEF7BEF7BEF7BEF7BEF7BAC
:101CE800EF7BEF7BEF7BEF7BEF7BEF7BEF7BEF7B9C
:101CF800EF7BEF7BEF7BEF7BEF7BEF7BEF7BEF7B8C
:101D0800EF7BEF7BEF7BEF7BEF7BEF7BEF7BEF7B7B
:101D1800EF7BEF7BEF7BEF7BEF7BEF7BEF7BEF7B6B
:101D2800EF7BEF7BEF7BEF7BEF7BEF7BEF7B0000C5
:101D3800EF7B000000000000000000000000000031
:101D4800000000000000000000000000000000008B
:101D5800000000000000000000000000000000007B
:101D6800000000000000000000000000000000006B
:101D7800000000000000000000000000000000005B
:101D8800000000000000000000000000000000004B
:101D9800000000000000000000000000000000003B
:101DA800000000000000000000000000000000002B
:101DB800000000000000000000000000000000001B
:101DC800000000000000000000000000000000000B
:101DD80000000000000000000000000000000000FB
:101DE80000000000000000000000000000000000EB
:101DF80000000000000000000000000000000000DB
:101E080000000000000000000000000000000000CA
:101E180000000000000000000000000000000000BA
:101E280000000000000000000000000000000000AA
:101E3800000000000000000000000000000000009A
:101E4800000000000000000000000000000000008A
:101E5800000000000000000000000000000000007A
:101E6800000000000000000000000000000000006A
:101E7800000000000000000000000000000000005A
:101E8800000000000000000000000000000000004A
:101E9800000000000000000000000000000000003A
:101EA800000000000000000000000000000000002A
:101EB800000000000000000000000000000000001A
:101EC800EF7B0000EF7B0000000000000000000036
:101ED80000000000000000000000000000000000FA
:101EE80000000000000000000000000000000000EA
:101EF800000000000000EF7B000000000000000070
:101F080000000000000000000000000000000000C9
:101F180000000000000000000000000000000000B9
:101F28000000000000000000EF7B0000000000003F
:101F38000000000000000000000000000000000099
:101F48000000000000000000000000000000000089
:101F580000000000000000000000EF7B000000000F
:101F68000000000000000000000000000000000069
:101F78000000000000000000000000000000000059
