:020000040800F2
:104000005C0900206541000895580008995800088F
:104010009D580008A1580008A5580008000000009D
:10402000000000000000000000000000AD58000883
:10403000A958000800000000B1580008B558000851
:10404000B9580008BD580008C1580008C5580008F4
:10405000C9580008CD580008D1580008D5580008A4
:10406000D9580008DD580008E1580008E558000854
:10407000E9580008ED580008F1580008F558000804
:10408000F9580008FD5800080159000805590008B2
:10409000095900080D590008115900081559000860
:1040A000195900081D590008215900082559000810
:1040B000295900082D590008E5590008E959000858
:1040C000ED590008F1590008F5590008F9590008A0
:1040D000FD590008015A0008055A0008095A00084D
:1040E0000D5A0008115A0008155A0008195A0008FC
:1040F0001D5A0008215A0008255A0008295A0008AC
:104100002D5A0008315A0008355A0008395A00085B
:104110003D5A0008415A0008455A0008495A00080B
:104120004D5A0008515A0008555A0008595A0008BB
:104130000120704710B5094C02E003F019FE0C3461
:104140000748844208D26068A16822688142F4D19D
:10415000002103F019FEF2E710BD00BFC07D00088A
:10416000D87D0008024CA04730B1024CA04703E0C4
:104170003141000835410008034C4FF00000A047D2
:10418000024C034DAE4620476D6100086D7D00086E
:044190009D7D000809
:1042000003F064BC02F0FABA01F028BC01F026BE4B
:104210006AE069E001F05EBE01F074BE01F046BFE5
:104220006FE06EE08AE089E092E091E05FE05EE0BE
:1042300071E070E09CE06EE001F076BA51E050E091
:1042400049E048E04AE049E001F068BE00F0B0B85B
:1042500000F0E0BA00F0F0BA00F070BE00F0C0BEAE
:1042600000F05EBF00F078BF01F0D4BD03F030BBBA
:1042700001F0F6BA01F0DEBA02F0A6BD02F0ACBD64
:1042800000F021B800F023B801F0E0B801F0A0B8C8
:1042900000F0A2BF00F0C0BF01F008B900E0FFE7E6
:1042A000394B47F28152DA611A6A002AFCD147F28F
:1042B0008052DA6140F2C9021A625862996247F28A
:1042C0008152DA617047314B00201B681847304B30
:1042D00000201B6818472F4B1B6818472E4B1B6884
:1042E00018472E4B1B6818472D49088070472649F0
:1042F000C869012240EA0200C861086A0028FCD1AE
:10430000704728498868012240EA02008860C8682E
:104310000028FCD170471C4B47F2C152DA611A6A7F
:10432000002AFCD147F2C052DA6140F2C9021A6297
:104330005862996247F2C152DA617047194B45F2EF
:1043400090529A605861D96045F291529A607047D4
:10435000144B45F211529A60DA68002AFCD145F2FA
:1043600010529A605861D96045F211529A607047B4
:104370000D4940F220020D4B4A6118884FEA004077
:104380000A61198808447047000002402C000008A8
:104390003800000828000008240000082000000859
:1043A00000000060000402400010014000000064B2
:1043B000C74AC84B2DE9F04F81B08DF800000820A6
:1043C000804610208146C4485FF48046B3469DF87D
:1043D00000600C00C149450CAA46C14D272E00F2D1
:1043E000BB81DFE816F0280039004A004D0052007A
:1043F000590060006F007100890096009000E9008C
:104400003001410143014601530155016401670137
:10441000B901B901B901B901B901B901B901B901CC
:10442000B901B9017F01A801A801AC01B901A80136
:10443000A801A801A801CA48B4F5803F07D2C9491C
:104440005FF4EB720A60D4F5E171016084E1C54963
:10445000220C0A60A1B2F8E7C348B4F5803F07D246
:10446000C0495FF4EB720A60D4F5E171016073E159
:10447000BC49220C0A60A1B2E7E7BC4804606BE1CA
:10448000BB486421B1EB5401DFE7BA480122224066
:10449000016851EA8251E9E7002C14BFC3F800809B
:1044A000C2F8008058E1012C04D1B3490220086011
:1044B000286051E1002C40F04F81C3F80090C2F811
:1044C000009049E1AD48D9E7AD48AE4924B9002292
:1044D0000260AD4808603FE1012C03D10022026078
:1044E000AA48F7E7AA4A0A60032140F80C1B40F8E3
:1044F000084B641C6108A8E7012C19BF0121016069
:104500000120086028E12022012C14BF02600A600B
:1045100022E10422430D082C00F21E81DFE814F092
:1045200009001100190021002900300037003E0069
:1045300045009149C0F800900B600260C0F800800F
:104540000AE18D4CC0F8009023600A60C0F800803A
:1045500002E1894CC0F8009023600260C1F800803D
:10456000FAE0C0F80090844803600A60C1F8008057
:10457000F2E0C1F800902B600260C0F80080EBE030
:10458000C1F800902B600A60C0F80080E4E0C1F838
:1045900000902B600260C1F80080DDE0C1F800905F
:1045A0002B600A60C1F80080D6E0C0F800902B6054
:1045B0000A60C1F80080CFE05FF400454026082C77
:1045C00000F2CA80DFE804F0050C12191F252C3216
:1045D0003900C3F800A00660C3F800B01D60BBE05E
:1045E000C3F800A00660C2F800B0F7E7C3F800A067
:1045F0000660C3F800B01560AEE0C3F800A0066026
:10460000C2F800B0F7E7C2F800A00E60C3F800B02F
:10461000E4E7C2F800A00E60C2F800B01D609BE0A5
:10462000C2F800A00E60C3F800B0E4E7C2F800A032
:104630000E60C2F800B015608EE0C3F800A00E60F6
:10464000C2F800B0D7E7534853490160534880216E
:1046500001605348534901605348012101605348A8
:10466000852140F82C49F0E6514807E7514804609D
:1046700072E0514804604A48016851F480210160A9
:104680004E488421016048480021DEE64C48F5E6AA
:1046900040487FF0706201680A400260016851F092
:1046A000306101604748812140F83449CDE64648F1
:1046B0000021DBE64548012C04D14549C1F800A0A2
:1046C0008421C2E64349C1F800A08521016043E08E
:1046D000141001401010014010180140141801403E
:1046E000140C01403C4C7FF070612068260D0140A5
:1046F0002160206850F080702060C5F800B0012073
:1047000001F0A4FB1C480660012001F09FFB2E6015
:10471000012001F09BFB1848C0F800B0022001F016
:1047200095FB20687FF0706101402160206850F0A7
:104730000060206010E09DF80000E1B20AE09DF802
:104740000000E1B200F066F89DF80000210AC9B24D
:10475000401CC0B200F05EF8002001B0BDE8F08F50
:10476000340C00402C0C0040380C00403434014024
:1047700038340140083C0140100C0140282C014015
:10478000202C01400410024002841D0402841D07F5
:1047900002841D00000C014038B4BB340008004006
:1047A00000080140BB111011007400402C1400409F
:1047B0005004024048040240280800400014004011
:1047C0002C0800403408004010040040002C014038
:1047D0001414014010140140040C01400B490C4B0F
:1047E00070B440220A60002580240600AE403606E0
:1047F00054BF1C600C601A600A606D1CEDB2082D7D
:10480000F3D31C601A600C6070BC70471008014044
:104810001408014030B5C0060C0006492025C00E22
:104820000D60FFF7DBFF754805602000BDE83040F4
:10483000D4E7000010100140674A684B2DE9F041B1
:10484000674D0C00674998466C4B2026102800F2F3
:10485000C080DFE800F009160E1E26575C6365680D
:104860006A6D708A779AA5005FF0C8401E60008864
:10487000B0E05FF0C8401E6000880421014088104D
:10488000A8E05FF0C8401E600088102101400811B8
:10489000A0E05FF0C8401E60008808210140C810F9
:1048A00098E0514873020268050D13404F4A14689E
:1048B0002540146853EAC503450D2540146853EAA2
:1048C0005503850D2540046853EA4503450C2540F2
:1048D0001468126853EAD503850C2540C40C1440B3
:1048E00053EA550353EA44020368B00240251840D6
:1048F0000B68104308221A4002430868054015431C
:10490000280067E0086804210140880862E0384810
:104910005FF4AF6100684843800A5BE03835EFE739
:10492000EC35280056E01C35EAE705F2083051E086
:104930001068C00B4EE010680121000A014091F0A0
:10494000010047E0FFF79CFC08B914352800002C53
:1049500040D0017883786422C0780A24634301FB45
:10496000023108184146401834E0FFF78BFC08B9C3
:104970000D352800002C2DD0017883786422C07872
:104980000A24634301FB0231EBE71A4814B30178B0
:1049900083786422C0780A24634301FB0231E0E794
:1049A0001E60154E5FF0C840008885092900300060
:1049B00000F0BEFDB07830702E207070F078B070CE
:1049C0003079F07000203071002C14BF284630463A
:1049D00000E00020BDE8F081080C014030EBFFFF53
:1049E0000C7F00080814014008080140081001402D
:1049F0004C3C0140308A0008340100201410014072
:104A000010B5184C02F0C4FA5FF4803002F0E0FAFE
:104A100002F0FCFA2070012817D1102002F0C8F92A
:104A2000022002F0BBF9104810490160012002F099
:104A300005FB392002F01EFB0028FAD0022002F00C
:104A400003FB02F009FB0828FBD10948094940F89B
:104A5000041B09490160002002F004FB07480849D3
:104A6000016010BD570500200410024002841D00A3
:104A700014100240170100007DAE00001C1002401F
:104A80002F80802030B581B05FF48041480302F070
:104A900073FA5FF4C06002F025FA14208DF800006C
:104AA00001208DF801008DF802008DF803006846A2
:104AB00002F020FA012413208DF8000020468DF822
:104AC000010000258DF802508DF80300684602F0C1
:104AD00011FA1D208DF8000020008DF801008DF8DE
:104AE00002508DF80340684602F004FA01B030BD70
:104AF00018481949194A40F8041B194940F8081B7D
:104B0000184901601848194940F8041B23490160FD
:104B1000174918480860184941F8042B174A41F80A
:104B2000082B174A0A601749174A41F8042B174AFD
:104B300041F8082B164A0860164941F8042B5FF02B
:104B4000BB3241F8082B086013485FF080610160B8
:104B5000704700BF00080140BB888011001011BBE6
:104B6000BB3B8388FFE70000000C014018B8BB3B4B
:104B70000C0C0140FFFF0000001001408888383312
:104B8000EFFF000000140140BB84BBB8BB1B13BB8C
:104B9000833333B300180140040001403833888860
:104BA00008480949094B5FF020420160084909485B
:104BB000086009491160094A1360094A10600948F0
:104BC00001607047040000A0020F101002071010CF
:104BD000040100A001041010115000000C0000A0FE
:104BE0000C0100A0080000A010B5114C85B00020F9
:104BF000ADF800005FF48271ADF80210ADF804006A
:104C00000221ADF806100121ADF808104902ADF8F7
:104C10000A1003900720ADF810006946200002F04A
:104C200047FA0121200002F05BFA05B010BD00BF79
:104C3000003C00401448154940F808195FF4D5516C
:104C400001601349820C0A60016851F0010140F8CB
:104C5000141B104901601048002140F8041B5FF04C
:104C6000C04140F80819016851F0010101600B4989
:104C700040F8401B242140F8041B094940F808195A
:104C800008490160704700BF100002404C240140F9
:104C90000C000240C07500000C0402409175000039
:104CA00008740040B13500000348012140F8081B9A
:104CB000C10C0160704700BF00740040304930B43F
:104CC000304C0020086030495FF4BC025FF4801370
:104CD0000C2508602D4908602D490A602D4A136093
:104CE0002D4B1C602D4C20602D4C20602D4C2060E5
:104CF0002D4C25602D4C0B2525602D4C0A2525605B
:104D00002C4C802525602C4C20602C4C20600868A1
:104D100050F001000860106850F001001060186841
:104D200050F001001860086850F00800086008683A
:104D30000007FCD4106850F00800106010680007ED
:104D4000FCD4186850F00800186018680007FCD4FC
:104D5000086850F00400086010684007FCD4106830
:104D600050F00400106010684007FCD4186850F040
:104D70000400186018684007FCD430BC704700BFBE
:104D8000043C0140000110000428014004240140BB
:104D9000083C014008280140082401402C3C014007
:104DA0002C2801402C240140343C0140342801408F
:104DB000342401400C3C01400C2801400C240140EB
:104DC000354870B4354D092140F8041B232140F8C3
:104DD000081B122140F814193149032240F8082910
:104DE000782303605FF4004041F8380900240C6028
:104DF000852129602B4D472645F8046B2A4E2E60ED
:104E00002A4E012546F80C593160294E3260294A54
:104E1000294E42F8086B294E42F81469C60942F837
:104E20000859274D1360274B81221A60264B43F8FF
:104E3000044B264C1C60264C5FF4967344F8043BEC
:104E40002360244B33241C60234C244B44F8183932
:104E50002260234C13222260632445F8204945F840
:104E60000869082645F8046929601E49C72541F8E4
:104E7000045B41F8084B322441F8044B642441F8A8
:104E8000184941F8082941F82C3B0860164891213F
:104E9000016070BC704700BF282C0140002C01400D
:104EA000442C014028040040E70300000C040040AB
:104EB000280800402C0800404F460000282300002E
:104EC0002C14004000080040280C0040F3010000B2
:104ED000340C0040200C0040180C00407878000092
:104EE0002814004028340140003401400F48104984
:104EF000104A10B4006809681268A8B10E4B040A81
:104F000098701C71040C9C71000E18729972080A3A
:104F10001873080C9873080E18749A74100A187590
:104F2000100C9875100E187610BC7047E8F7FF1F2C
:104F3000ECF7FF1FF0F7FF1F000000202DE9F047FE
:104F400081B0002405005FF4807080466B480F003C
:104F500000268146802101F0C1FF00F0B3F8FF2058
:104F60008743BA46270004221AEB8701684600F0FF
:104F700037F855F827100098884318BF0126641C9D
:104F8000A4B2402CEED300F08DF88021484601F009
:104F9000A7FF0EB10A2000E0022000F053F8284CD1
:104FA00050460002000E00F04DF850460004000E7E
:104FB00000F048F8002003E015F8011BC843C0B218
:104FC00000F040F84046011988460004F4D18021E1
:104FD000484601F083FF00F075F801B0BDE8F087A6
:104FE000F0B5464E040015000F008021300001F09E
:104FF00075FF00F067F88021300001F071FF032099
:1050000000F020F8380CC0B200F01CF8380AC0B22A
:1050100000F018F8F8B20A4F00F014F805E0A520E7
:1050200000F010F8C14304F8011B2800C519000462
:10503000F5D180213000BDE8F04001F04FBF000005
:10504000FFFF00002DE9F0412D4D154E2D4F0400BE
:1050500000208046C5F800800221300002F052F89E
:1050600030B92968481C2860B942F5D3FF2015E003
:105070002100300002F042F8C5F8008004E0296801
:10508000481C2860B942F1D20121300002F03AF800
:105090000028F4D0300002F033F8C0B2BDE8F0814F
:1050A000003C004010B5154C8021200001F018FF95
:1050B0000620FFF7C7FF80212000BDE8104001F067
:1050C0000DBF000070B50D4C0D4D0E4E802120001F
:1050D00001F006FF0520FFF7B5FF00202860A5209E
:1050E000FFF7B0FF2A68511C2960B24205D2C00701
:1050F000F5D48021200001F0F1FE70BD000C0140CC
:1051000048010020A186010004485FF480518160BD
:10511000C908416009030160704700BF3C010020DD
:105120002DE9F043194E14000025804689460027DA
:105130002200494635704046FFF790F8380000F2EB
:105140000107C0B2072801D3012002E0307800280F
:10515000EED1BDE8F08300002DE9F0410B4E0C00CC
:10516000002580460027210040463570FFF774F87F
:10517000380000F20107C0B2072801D3012002E085
:1051800030780028EFD1BDE8F081000056050020FE
:1051900030B5594D040081B020884108401810F501
:1051A000805120886080A84213D2022800D210E0EB
:1051B00002226846FFF7B4FF08B101200AE0208808
:1051C000C00759BFBDF800000540BDF80000050943
:1051D0002580002001B030BD70B55FF480720400FE
:1051E0000D002888400210F5F84631002000FFF736
:1051F00097FF08B1012070BD5FF4807206F20011C4
:1052000004F20010FFF78CFF0028F3D12800FFF70D
:10521000BFFF00B1022070BD70B50D0004002888EA
:10522000400210F5F84631002000FFF795FF08B165
:10523000012070BD04F2001406F200112000FFF7F7
:105240008BFF08B1012070BD2E88012E0FD82900D8
:10525000200000F013F808B1032070BD29002000E1
:1052600000F04CF808B1012070BD6E8070BD2800C0
:10527000FFF78EFF00B1022070BD00002DE9F04362
:10528000804600240025894615EB5506B6B230004D
:10529000070AB0EB07210BD15FF48172FF2188432D
:1052A00010F580514046FFF73BFF08B1012020E098
:1052B000B6EB0726B6B216EB08000178407808185E
:1052C00001020D4889B2EA0754BF0140090941B9FA
:1052D0002900A9F8001009F20209641CA4B2022CEA
:1052E00006D26D1CADB2421C9542CDD3A9F8020086
:1052F0000020BDE8F0830000FF0F00002DE9F0471B
:105300000C88FF22804648888146088014EB5400B0
:1053100080B20100914311F58055C6B2521C29009C
:105320004046FFF7FDFE08B101204EE016EB0800F5
:10533000E10705D501780907090F11EB091100E014
:10534000494601703000761CB6B2494609050F0F78
:10535000494609118A465FF48071884212D216EBE1
:105360000800E10702D580F800A004E0017811F000
:10537000F0017918017029004046FFF7EDFE002882
:10538000D2D121E029004046FFF7E6FE0028CBD12C
:1053900005F200155FF4807229004046FFF7C0FE59
:1053A0000028C1D1E00702D588F800A006E098F8EF
:1053B000000010F0F000381888F80000290040467E
:1053C000FFF7CAFE0028AFD10020BDE8F08700003B
:1053D0002DE9F043914604001D0088460020A9F8FD
:1053E00000005FF48040286029685FF4807220002C
:1053F000FFF796FE08B101200EE0002112E02968B7
:10540000203080B2203129605FF480739842F4D359
:10541000B1F5004FE8D30320BDE8F083491C89B201
:105420000B29ECD24618A619377867B13E46474695
:105430007B5C9E42E3D10A29F0D12018408BA9F869
:1054400000000020E8E70420E6E700002DE97043B3
:10545000884604001D009146FFF7BAFF042823D1B7
:1054600049462000FFF70AFF08B103201CE0286826
:105470005FF48072C6B2811B2000FFF751FE90B925
:10548000434604E0195C3218401CA15480B20B283A
:10549000F8D3B9F80010A01941832868811B2000B7
:1054A000FFF75AFE00B10120BDE87083F0B50D0092
:1054B0001100040048881E007FF0FF0708801B4889
:1054C00048802000FFF71AFF31687A4220003940F7
:1054D000FFF726FE08B10120F0BD30682021C0B2E0
:1054E0002018C1723068C0B22018C561306807400A
:1054F00039002000FFF730FE0028ECD1002512E033
:105500002E025FF4807216F580512000FFF708FE2E
:105510000028E0D116F520512000FFF71DFE0028DD
:10552000D9D16D1CADB20C2DEAD3F0BDFF0F000038
:1055300002000800154900B590FBF1F330331370F9
:1055400002F038FC80B25FF47A7190FBF1F13031F7
:1055500051705FF47A7102F02DFC80B2642190FBEF
:10556000F1F130319170642102F024FC80B20A2103
:1055700090FBF1F13031D1700A2102F01BFC303088
:105580001071002002F8050F00BD00BF10270000B9
:105590000A0F0A2A39BF303200F8012B373200F8DF
:1055A000012B090109090A0E0A2A39BF303200F815
:1055B000012B373200F8012B0902090A0A0D0A2AC9
:1055C00039BF303200F8012B373200F8012B0903C4
:1055D000090B0A0C0A2A39BF303200F8012B373286
:1055E00000F8012B89B20A0B0A2A39BF303200F8C1
:1055F000012B373200F8012B0905090D0A0A0A2A86
:1056000039BF303200F8012B373200F8012BC9B214
:105610000A090A2A39BF303200F8012B373200F864
:10562000012B0907090F0A2939BF303100F8011B86
:10563000373100F8011B002101707047F0B50021DF
:10564000234E04200024FFF7F7F8C143214889B214
:105650000A00038805259A43170020D019273770C0
:10566000D60548BF0324960548BF0424560548BF05
:105670000524150548BF0624D30448BF0724930416
:1056800048BF0224530448BF0124130448BF082420
:10569000130748BF0924520616D50A2414E00288CD
:1056A000114211D032787AB90B4A167866B94E0594
:1056B00048BF05240E0548BF06240B0748BF092430
:1056C0000B0448BF0824157001802000F0BD00BF06
:1056D00039050020480500203A050020024A1180C3
:1056E00001000320FEF764BE460500200D49405826
:1056F0007047000070B506000D0001F065FB094819
:10570000B1B2281800F096F804000548310C2818AA
:1057100000F090F80500254001F05EFB280070BD08
:1057200006380008043800082DE9704D87B00024C1
:105730000E003C49804668460A780025B246027051
:105740004A782146427004A8FFF722FF36482346D4
:105750005146834604A801B45A46404600F0DEFB99
:1057600001B0290004A8FFF713FF3048019902781F
:10577000C9B291421CD000780026019004A9895D2D
:1057800018EBC600B4428DF80010694602B404D18B
:10579000029B5A465146DBB202E000235A4651466C
:1057A00080B200F0BBFB01B0761CF6B2082EE5D348
:1057B0001F48017800292FD006780721091B8B008C
:1057C000012199400F229A4035FA03F3022E20D08E
:1057D000052E06D0062E09D0082E0ED0092E12D086
:1057E00018E01B070CBFAD186D1A13E01B071B0F49
:1057F0000F2B2CBFAD1A6D180CE0072C2EBF002408
:10580000641CE4B206E021000EBF0724641EE4B26B
:1058100000E0082400210170082CA2D3280007B062
:10582000BDE8708DD08A0008FFFF00003E05002013
:105830003B05002030B5040015480D0001F02EFB9B
:1058400005281CBF342001F011FB2900200001F0C5
:10585000EBFA042804BF012030BD002030BD000059
:1058600010B50400600510D1094801F017FB0528A8
:105870001CBF342001F0FAFA200001F0B3FA04282A
:1058800004BF012010BD002010BD012010BD00008C
:10589000A086010070470000FEE70000FEE7000060
:1058A000FEE70000FEE700007047000070470000C0
:1058B000704700007047000070470000704700000C
:1058C00070470000704700007047000070470000FC
:1058D00070470000704700007047000070470000EC
:1058E00070470000704700007047000070470000DC
:1058F00070470000704700007047000070470000CC
:105900007047000002F0E2B800F078BF7047000076
:1059100070470000704700007047000070470000AB
:105920007047000070470000704700002A4830B5FB
:105930002A4D00240460287918B12879401E287166
:1059400030BD1420287129892548152931BF2C81A3
:10595000298909182981E989152908D3E9890818AD
:10596000E881E889152811D2002103200CE068792C
:10597000322803D26879401C687107E06C7168892D
:105980000121401C68810420FEF712FD2878401C8C
:10599000287028780C2809D32C70A87900B9012424
:1059A000AC71A88910B1A889401EA881687810B18F
:1059B0006878401E6870A87810B1A878401EA8705A
:1059C000FFF73CFE010006D0E87014210320FEF72B
:1059D000EFFC3C20E88130BD100400403805002079
:1059E000ECFF0000704700007047000070470000A7
:1059F00070470000704700007047000070470000CB
:105A000070470000704700007047000070470000BA
:105A100070470000704700007047000070470000AA
:105A2000704700007047000070470000704700009A
:105A3000704700007047000070470000704700008A
:105A4000704700007047000070470000704700007A
:105A50007047000070470000704700002DE9F041DA
:105A6000D94DD84F0120AE0C2E60EC0C2C6000F00C
:105A7000EDF93C600A2000F0E9F92C60322000F0DA
:105A8000E5F900F0A3F9E248BF495FF0C0440068BF
:105A900088426AD1E92000F08BF920202080112073
:105AA00000F086F9642000F0D1F9D12000F080F9EF
:105AB000002525805E20208017202080D02000F047
:105AC00077F90720208020800C202080362000F0ED
:105AD0006FF940208046A4F800800C2000F068F99F
:105AE000552626803A2000F063F92680C12000F078
:105AF0005FF9102020802080022626802680C0208A
:105B000000F056F92580352020802580258001274A
:105B100027802680C52000F04BF92780D22000F096
:105B200047F9278022202080C82000F041F92780F3
:105B3000732020803720208025800F202080268021
:105B400004212180A4F800806721218025802680FF
:105B5000208008202080802020802580292000F0BF
:105B600027F92C2000F024F9DCE00021002000F0CF
:105B700013F90021084600F00FF90021084600F053
:105B80000BF90021084600F007F90A2000F05EF941
:105B90000121200D00F000F90A2000F057F9402102
:105BA0005FF4DE6000F0F8F80A2000F04FF95FF4CF
:105BB000C441280D00F0F0F85B49082000F0ECF833
:105BC000A90D012000F0E8F8A90D022000F0E4F88A
:105BD0003021032000F0E0F80121092000F0DCF87A
:105BE00000210C2000F0D8F8F100902000F0D4F84B
:105BF00000210F2000F0D0F81621102000F0CCF882
:105C00004A4880464146112000F0C6F80021122083
:105C100000F0C2F80121132000F0BEF85FF44C71CF
:105C2000A80D00F0B9F84249404600F0B5F84148E7
:105C30005FF4706100F0B0F85FF4D6415FF420705B
:105C400000F0AAF83C495FF4817000F0A5F86420E8
:105C500000F0FCF8E10C880800F09EF8374938485D
:105C600000F09AF83749384800F096F83749384834
:105C700000F092F85FF40C515FF4417000F08CF882
:105C800034485FF4B85100F087F83349334800F0E6
:105C900083F83349334800F07FF833495FF44270AA
:105CA00000F07AF83149324800F076F800215FF4CC
:105CB000047000F071F83548EF2100F06DF83448B9
:105CC000002100F069F82B49324800F065F8002106
:105CD0005FF4A06000F060F80021274800F05CF855
:105CE0002648052100F058F82548012100F054F815
:105CF0002448002100F050F8642000F0A7F8A90D16
:105D0000072000F049F8642000F0A0F80021680D99
:105D100000F042F86D48002100F03EF86C483E600B
:105D200020802E60BDE8F08108080000010100001D
:105D30003702000003010000B0C100000B5A000050
:105D40000103000006090000020300001710000014
:105D500003030000050300000963000006030000C0
:105D6000090C0000070300000C10000032220000A4
:105D7000090300008F01000001050000020500007A
:105D80000104000004040000279304021102000033
:105D900012020000130200000A4B5FF480521A60E6
:105DA0005FF0C04318800848026019807047000007
:105DB000044A5FF4805111605FF0C04210800248D5
:105DC00001607047141401401014014000B5EF2029
:105DD000FFF7EEFF5FF0C04000880D485FF0C04164
:105DE00009885FF0C042090601601288D2B251EA08
:105DF00002415FF0C04201601288D2B251EA022132
:105E00005FF0C04201601288D2B20A43026000BD56
:105E10004C010020CC48CD4910B5006888420CD117
:105E20002E20FFF7C5FF5FF0C04000885FF0C04044
:105E300004882C20FFF7BCFF05E05FF0C04000881D
:105E40005FF0C0400488200010BD000002490880B7
:105E500008880028FCD170474005002070B5050077
:105E60005FF0C0440E00FEF7DBF9B748B7490068A1
:105E7000884218D12A20FFF79BFF00202080F1B232
:105E800021802080EF2020802B20FFF791FF280A1F
:105E90002080E8B22080012020808F2020802C20CC
:105EA000FFF786FF70BD31005FF40070FFF774FFED
:105EB00006482900FFF770FFA9495FF48050086089
:105EC00003492180A849086070BD0000010200005C
:105ED0000202000030B5094C094D0021208000204D
:105EE000FFF7BCFF29002000FEF79EF9FEF798F9A6
:105EF00029002000BDE83040FEF796B94A05002091
:105F000080BB0000034A11EBC000034911EB4000C5
:105F1000805A7047E0FDFFFF548300082DE9F04FE1
:105F200088461C00060000259146FFF797FF1CB924
:105F30000020FEF76DF904E0012C04BF4846FEF78F
:105F400067F96D1C0E2DF2DB0998761CB3460078BC
:105F5000002844D0002641465846801980B2FFF7F9
:105F60007DFF09980078202801D021280CD1002736
:105F7000212801D1042E27D0002578070DD544B95A
:105F80004846FEF745F912E0B1B2FFF7BBFF070044
:105F9000F2E7012C0BD10020F3E71CB90020FEF73B
:105FA00037F904E0012C04BF4846FEF731F93F04FD
:105FB0007F146D1C0E2DE0DB761C36B2082ECADB7A
:105FC00009980078212802D10BF2040B01E00BF2B2
:105FD000080B0998401C099000780028BAD1BDE848
:105FE000F08F00002DE9F04F88B00C0000258046AE
:105FF00081464F46002115E0284B294E0A0013F830
:10600000223016F822606846DB08B608760116EBE7
:10601000C323244E491C89B216F82260F6089B1946
:1060200020F812301029E7D330E021003800FFF7C4
:1060300015FF1D497F1CBFB2481982465FF0C04062
:1060400083469AF8000069464646001131F8100070
:10605000FF36BE42ABF80000BEBF4F46641CA4B280
:1060600021003800FFF7FAFE9AF8000069467F1C0D
:106070000007000F31F81000BFB2BE42ABF80000BD
:10608000BEBF4F46641CA4B26D1CADB25FF400519C
:106090008D42CAD308B0BDE8F08F00BF36D80308E0
:1060A00037D8030838D8030876D803082DE9F0411B
:1060B0000500254888462549006816001F005FF046
:1060C000C04488421BD12A20FFF772FE300A20808C
:1060D000F0B22080380A2080F8B220802B20FFF711
:1060E00067FE280A2080E8B220804046000A20800F
:1060F0004046C0B220802C20FFF75AFE21E0144811
:106100003900FFF749FE13484146FFF745FE3100CD
:106110005FF40470FFF740FE0F482900FFF73CFED4
:1061200031005FF40070FFF737FE0C482900FFF7DD
:1061300033FE0B495FF4805008600A4921800A4908
:106140000860BDE8F08100004C01002027930402A4
:106150001102000013020000120200000102000000
:106160001414014002020000101401402DE9F04116
:10617000754C764D83B0FEF743FCFEF783FCFEF7CB
:10618000B7FCFEF71DFEFEF70BFDFEF72DFDFEF73B
:1061900051FDFEF793FDFEF787FD5FF4FA711420C1
:1061A000FFF79CFAFFF75AFC0020FFF793FE9621B9
:1061B0004620FFF717FF10B400235FF4FC625A215A
:1061C0002820FFF7ABFE00210D20FEF735FB01B4C0
:1061D00000235FF4FC625A219020FFF79FFE20000D
:1061E000103001B400235FF4FC625A21C820FFF78D
:1061F00095FEFEF723F8010003A8FFF7C9F95448FC
:1062000000235A21804603A801B442465FF49070EF
:10621000FFF784FE20001C3001B400235FF4FC6211
:1062200046213020FFF77AFE00210F20FEF704FB05
:1062300001B400235FF4FC6246215FF48870FFF72D
:106240006DFE4448016806B0490554D501688905CA
:1062500051D50168C9054ED53F4E00203070FFF77B
:1062600045FAFDF7EDFF01283FD02000443001B48E
:1062700000235FF4FC6232213020FFF74FFE322111
:106280005FF48C70FFF750FA0700FDF7D9FF01B0FB
:10629000012805D020006C3001B40023424612E0F2
:1062A00000213800FFF726FA012806D1200094309B
:1062B00001B400235FF4FC6205E02000BC3001B4AF
:1062C00000235FF4FC6232213020FFF727FE01B08B
:1062D000E43410B400235FF4FC621E213020FFF789
:1062E0001DFE01B030780028FCD01C4800686860B2
:1062F00028601B4819E00168490505D41948006861
:1063000068602860184810E00168890505D41748BE
:10631000006868602860164807E00068C00507D478
:1063200014480068686028601348006800F01AFD8F
:1063300012481349016001F0CBFA28688047002019
:1063400003B0BDE8F08100BF24890008500100209F
:10635000FF070000081001403B05002004C00008B2
:1063600000C00008044001080040010804C0010802
:1063700000C001080440020800400208040801406F
:10638000BBBB8B8870B5524C524D012322682E78CE
:106390002EB92B70504368615143A96101E0012E71
:1063A00031D14D4E686880B94C48696992B203702A
:1063B0003000FDF753FF40229821300001F0C6FB6A
:1063C00020684038686040200AE0A8684022982190
:1063D000301801F0BBFB686840386860A86840303E
:1063E000A8604021012001F071FC3021012001F062
:1063F000E5FB686940306861A8694038A8613848A1
:10640000816840398160A86930B9364903226860E3
:10641000A86068610A70287070BD00002C4AF0B551
:106420002C4D0026EB6812682C78403334B9504369
:10643000E861514329620120287001E0012C35D127
:10644000254C2E6109E028691F4FE9683F5C401C1C
:1064500067542861E868401CE860E8689842F2D315
:106460001A4FE96938880B18296AEB61081A286203
:10647000110001F099FC78B91848EE600121017013
:10648000991A2000FDF7E8FEE8697FF0FF01411846
:1064900004F20010FDF7E0FE11483A888168891A7D
:1064A00081605FF44051022001F09AFB286A18B124
:1064B0000C480078042805D1EE600121002000F08E
:1064C0005BF92E70F0BD00BFA80400209E040020E0
:1064D00040010020580100207C01002056050020CA
:1064E000E80400209C040020944800B590F8201097
:1064F000891E0ED0491E15D0491E01291BD8002126
:1065000000F8201F5FF4405102205DF804EB01F019
:1065100067BBC17B28290ED1816A406A5DF804EB14
:1065200000F034BB0121002000F026F95FF4405157
:10653000022001F055FB00BD30B5804C0220E57B08
:1065400001F0ECFB608402467D48D82101F012FB8B
:1065500094F8200010B1012803D00AE0BDE83040D3
:1065600014E02A2D06D1A16A606ABDE8304000F02F
:1065700039BB022000F022F92421052000F0FCFAAA
:1065800000210220BDE83040F6E0000030B56B4C41
:1065900000210025608C30B103E0694B5B5C6354E3
:1065A000491C8142F9D3844962681F284A60A26865
:1065B0008A6005D0022000F001F925601A2126E04A
:1065C000E27B282A01D02A2A0FD1607CA17C090411
:1065D00051EA0060E17C50EA0120217D0143A07D69
:1065E0006162E17D51EA0020A06220685149884241
:1065F00040F09B805048617B0068884203D3A07BB9
:1066000008B111280BD3022000F0D8F8242105206E
:1066100000F0B2FA0021012000F0AEF830BD606A4F
:10662000A16AAF2A00F28180DFE802F06D7F7F5817
:10663000797F7F7F7C7F7C7F7F7F7F7F7F7F5B7F9A
:106640007F7C7F7F7F7F615E7F7C5E7F7F7F7F67D8
:106650007F6A7F7F707F737F7F7F7F767F7F7F7F83
:106660007F7F7F7F7F7F7F7F7F7F7F7F7F7F7F7F3A
:106670007F7F7F7F7F7F7F7F7F7F7F7F7F7F7F7F2A
:106680007F7C7F7F7F7F647F7F7F7F7F7F7F7F7F38
:106690007F7F7F7F7F7F7F7F7F7F7F7F7F7F7F7F0A
:1066A0007F7F7F7F7F7F7F7F7F7F7F7F7F7F7F7FFA
:1066B0007F7F7F7F7C7F7C7F7F7F7F7C7F7F7F7FF3
:1066C0007F7F7F7F7F7F7F7F7F7F7C7F7F7F7F7FDD
:1066D0007F7F7F7F7C7F7C7F7F7F7F7C00F042FAA3
:1066E00030BD00F0E5F930BD00F04CFA30BD00F0EF
:1066F0002DFA30BD00F030FA30BD00F0EBF930BDBE
:1067000000F004FA30BD00F0B5FA30BD00F03EFAFA
:1067100030BD00F067FA30BD00F092FA30BD00F0F5
:10672000B3FA30BD00F0B2FA30BD022000F046F8F6
:1067300020216CE755534243F80400207C040020DC
:10674000A804002010B50C002200982101F0FEF9E9
:106750002100012001F0BAFA3021012001F02EFAC7
:1067600004480321017014488168091B81600021DD
:10677000017310BD9C04002010B502000E480C00EF
:106780000B4902730D220160982101F0DFF90D2100
:10679000012001F09BFA0748052180F8201034B150
:1067A000042100F8201F3021012001F007FA10BD5C
:1067B000555342537C040020E804002000B520B16A
:1067C000012808D0022809D000BD102101205DF861
:1067D00004EB01F0F3B95FF4805105E010210120D2
:1067E00001F0ECF95FF4805102205DF804EB01F058
:1067F000F7B90000FFF778BEFFF79EBE0B4830B533
:106800000B4C0C4D0168218021882A880A405105D3
:1068100004D5094901600948006880472088298813
:106820000140080448BF01F063F830BD445C0040FB
:106830004C05002050050020FFFB00005800002000
:1068400010B5FEF753FB8F4800240068847200F0F7
:106850001BF90548054904605FF4044008800449B9
:1068600008604948046010BD445C004050050020A9
:10687000405C00403148324930B5324D097800243F
:106880000470804800684172002001F083F95FF4D1
:106890000071204601F086F92021204601F08EF992
:1068A0001821204601F0F2F995F82C10204601F04D
:1068B00019FA5821204601F0DDF9204601F0B0F91F
:1068C000204601F0A1F92146012001F06BF9982141
:1068D000012001F0CFF92021012001F06FF92146BC
:1068E000012001F07DF92146022001F05BF9D82159
:1068F000022001F0CBF995F82C10022001F0F2F9FA
:106900005FF44051022001F06BF92146022001F0B2
:1069100055F915F82C1F204601F0E4F9204601F046
:1069200073F9204600F0B2FF1748012101603A4890
:106930003A4901603A48047030BD00BF1A05002092
:10694000538A0008540000204E4800B50068807A41
:1069500058B10D4805210160012001F079F90220AC
:1069600001F068F92E480021017000BD2A482B492A
:1069700000B5006888421CBF0220FFF71FFF00BD62
:106980000148042101607047FC04002070470000AA
:10699000704700003B4900B509680A785206520E5C
:1069A000212A0DD1FE280BD1488848B9888838B9EA
:1069B000C888012804D10748020003D1022000BD85
:1069C000022000BD88610020488200F04FF80020BE
:1069D00000BD00BF6D6A00082A4900B509680A7841
:1069E0005206520E212A15D1FF2813D1488888B9A2
:1069F000888878B9C88868B9012001F029F902208F
:106A000001F018F9044805490160054800210170AA
:106A1000002000BD022000BD7C04002055534243ED
:106A20009C04002009B10220704700B10220704789
:106A3000014900F0C7BC00BFA8000020014900F0D8
:106A4000C1BC00BFB00000200E4900B50968C9787C
:106A5000062924BF002000BD034A12EBC1015DF8E6
:106A600004EB00F0AFBC00BFB800002028B9054817
:106A7000012100680182002070470148704700BF73
:106A8000F80400202C0500200848074A0121016075
:106A9000002101601160034A5FF4E0511180016040
:106AA0000020704750050020445C0040405C0040DE
:106AB0008249087CC00702D50448052104E0C97C4E
:106AC0000348252928BF2421FFF73CBE00050020EC
:106AD000E000002000B5FEF717FB8E4801680A4869
:106AE0000A0E02710A0C42710A0AC1718A49827146
:106AF00009680A0C42720A0A8272C1720C215DF89E
:106B000004EBFFF71FBE00BF2401002000B5FEF715
:106B1000FBFA804801680C484A1E491EC1707E4934
:106B2000130E03700968130C4370120A82700A0E68
:106B300002710A0C42710A0A8271C17108215DF862
:106B400004EBFFF7FFBD00BF08050020014804214A
:106B5000FFF7F8BD0401002001480821FFF7F2BD4E
:106B60000801002003480178132928BF1221044896
:106B7000FFF7E8BD8F040020014A90701173704741
:106B80001001002001210020FFF7F6BD70B52A4E4C
:106B900004000D003078F0B92A002100282000F010
:106BA0008FF8E8B125480078000607D5022030703C
:106BB00029002000BDE87040FFF7E4BB0220FFF78A
:106BC000FDFD24210520FFF7D7FF01210120BDE8AD
:106BD0007040FFF7D1BD022804BF2046FFF7D2FB6B
:106BE00070BD000010B5144C2278FAB90A000100FB
:106BF0002A2000F065F8E8B110480078000608D4B3
:106C0000012020705FF440510220BDE8104000F0E8
:106C1000E7BF0020FFF7D2FD24210520FFF7ACFFDE
:106C200000210120BDE81040FFF7A6BD012A08BFE2
:106C3000FFF7F4FB10BD00009C0400208804002036
:106C40001E4800B5816841B9007C400705D4012188
:106C500000205DF804EBFFF78FBD0220FFF7AEFDCB
:106C600024210520FFF788FF002101205DF804EBB7
:106C7000FFF782BD00B5FEF747FA012100205DF85D
:106C800004EBFFF779BD0000FEF73EBA0B4800B5F4
:106C9000816809B9002005E0007B000601D50020CD
:106CA00000E00220FFF78AFD20210520FFF764FFA6
:106CB000002101205DF804EBFFF75EBD7C0400209D
:106CC000144B00B589181B688B4209D22A2804BFCF
:106CD0000220FFF773FD0020FFF770FD21210EE079
:106CE0000D4B0E491B6809685A43914210D02A285F
:106CF00001D1022000E00020FFF760FD24210520E3
:106D0000FFF73AFF00210120FFF736FD002000BD0C
:106D1000012000BD44010020400100208404002027
:106D200030BF704720BF704740BF7047BFF36F8FC1
:106D30007047BFF34F8F7047BFF35F8F704701DF1E
:106D40007047EFF31480704780F31488BFF36F8FA0
:106D50007047EFF30980704780F309887047EFF3BD
:106D60000880704780F30888704762B6704772B633
:106D70007047EFF31080704761B6704771B6704787
:106D8000EFF31380704780F311887047EFF31280A0
:106D9000704740BA704700BA7047000009490A6856
:106DA00012F038020A600A68104308607047000059
:106DB000044910230A689A430A600A68104308606D
:106DC0007047000000200240024825490160254923
:106DD00001607047042002402348016851F080019F
:106DE0000160704770B51D4D0400280000F056F892
:106DF000042813D11C4E306850F00200306008485F
:106E00000460306850F040003060280000F046F820
:106E1000012803D03168034A0A40326070BD00BFC8
:106E200014200240FD1F000070B504000F200D006B
:106E300000F034F804280ED10B4E306850F00100F9
:106E4000306025800F2000F029F8012803D0316838
:106E5000014A0A40326070BDFE1F0000FF0F0000B3
:106E600023016745AB89EFCD102002400A49086035
:106E70007047000008480168C90744BF01207047F7
:106E80000168490744BF022070470068C00644BF3C
:106E900003207047042070470C20024010B5040006
:106EA000FFF7E8FF04E000F00BF8FFF7E3FF641ED4
:106EB000012801D1002CF6D104B9052010BD000035
:106EC00081B000200090FF2001E00098401E00905B
:106ED00000980028F9D101B07047000001617047A7
:106EE000416170472949024A02430A607047000025
:106EF0000000FA050100F0B40A78C87858B32348B6
:106F00001B4C9310006814EB8305AC462C684F783B
:106F100010F4E060D0F5E060000A0426351A8E789F
:106F20009207D20EFF239340AF403D000F27C7408A
:106F300037402F43380190400C4A65469C4303403C
:106F400023432B60087801234111C006C00E834003
:106F500042F8213007E0074950110123D206D20E32
:106F6000934041F82030F0BC704700BF00E100E0E2
:106F700000E400E080E100E0034A024B0B400343E1
:106F80001360704780FFFF1F08ED00E00CED00E08C
:106F900043480D4B016851F00101016034490A6812
:106FA00013400B600268094B1340036002687FF4D2
:106FB00080231340036008687FF4FE0202403B48D0
:106FC0000A600021016070470000FFF8FFFFF6FE35
:106FD00033497FF480330A6813400B600A687FF4FA
:106FE000802313400B605FF48032904203D0920004
:106FF000904205D07047086850F4803008607047B0
:10700000086850F4A02008607047000010B581B0F7
:1070100000240094312000F02DF80099491C0091C3
:1070200018B90098B0F5A06FF4D1312000F022F823
:1070300000B10124200001B010BD0000014908602A
:10704000704700BF60004242094903230A689A431F
:1070500010430860704700000548006810F00C00FD
:107060007047000001490860704700BFD8004242E5
:10707000041002404109012902D10949096805E0CB
:10708000022919BF08490968064909680122C00692
:10709000C00E82400A401CBF01207047002070478C
:1070A000001002402010024024100240081002404C
:1070B00002880B8812F4415213434A881A438B8882
:1070C0001343CA881A430B8913434A891A438B898D
:1070D0001343CA891A430280098A0182704700005B
:1070E0000029018803D051F0400101807047024A15
:1070F0000A400280704700BFBFFF000081817047D7
:107100008089704700B5008908421CBF012000BD7E
:10711000002000BD10B5B14C20B9012120680182CA
:10712000002010BDA64800680068804720680A302B
:1071300010BD0000A9480A4A00B500681278C1785D
:107140008A420AD3827842B9828832B981729C48D5
:10715000006840688047002000BD022000BD00BFDD
:107160003101002010B59D4C20B901212068018219
:10717000002010BD924800688068804720680C306D
:1071800010BD00000F4A10B5944C12682068926937
:10719000C1784079904721688A7A22B118B9087974
:1071A00008B9887808B1022010BD85480068C06819
:1071B000804720684179C1722068C178017300203E
:1071C00010BD000030050020844910B5096818B9C9
:1071D00002200882002010BD204C0020208008786A
:1071E000420615D1487A810603D5217851F0020173
:1071F00021704006207808D510F0FE0020707048FD
:10720000006800698047200010BD50F00100F5E7DC
:107210004206520E012A04BF204610BD4006400E11
:10722000022818D1497920780A07120F50F001007E
:10723000090607D5594951F8221011F030011029DB
:10724000DDD1DBE7554951F8221011F44051B1F579
:10725000805FD4D1D2E7002010BD00BF4E050020D2
:107260005E4870B5006801784906490E05D1417A3B
:1072700011F0DF014172002070BD022903D1418865
:1072800009B9017909B1022070BD417980220C0051
:1072900094430A0605D5414A52F8242012F03002E0
:1072A00004E03E4A52F8242012F440523A4B1B7834
:1072B0009C42E8D2002AE6D0807A0028E3D0374802
:1072C00010EB8405080628680BD510F03000102854
:1072D00022D1200000F0BCFC3021200000F06EFC28
:1072E0001AE010F44050B0F5805F15D12C4E5CB917
:1072F0000C480178002000F0F5FC284801680E4099
:1073000096F44051016007E0200000F093FC2868EB
:10731000064096F44050286029480068406980473C
:10732000002070BD800000202C4810B5802301682B
:10733000487902009A43030605D5184B53F82230CA
:1073400013F0300304E0154B53F8223013F440538C
:10735000114C2478A24204D24C8814B90BB1897A1A
:1073600009B9022010BD0D4911EB82010A6800061F
:1073700004D50848104090F0100003E00848104081
:1073800090F4805008600E480068806980470020B3
:1073900010BD00BFBF8F000030010020005C004026
:1073A0008FBF00000D4800B50068417A51F0200100
:1073B000417203480068C0698047002000BD00009A
:1073C00034050020054A1268538A20B98888C01AFB
:1073D0001082002070470868C01870472C050020F4
:1073E000F0B5734C256835F8100FA9680A0015D060
:1073F000A0B1AE88B04238BF0646300088470700CB
:107400002888801B2880688880196880002000F008
:1074100053FC32000100380000F0ACFB674E2888B6
:10742000302738B13348390201800021002000F0B4
:107430004DFC37802988AA882068914222BF032109
:107440000172F0BD11B105210172F0BD062101727A
:10745000584859490022006880B241F8102037800E
:10746000F0BD000052482DE9F04104248046D8F8D0
:107470000000050035F8101F99B9007A042810D1D2
:10748000B1480178012909D14A4A4B4B00211268C1
:1074900092B243F812103022017022E00724102229
:1074A0001FE0AE888E4223D3B14238BF0E46A96892
:1074B000300088470700002000F0F4FB3200010094
:1074C000380000F043FB3100002000F0FFFB28886B
:1074D00030221102801B2880688880196880054846
:1074E000018036480280D8F800000472BDE8F081BF
:1074F0000224DCE75205002070B52D4D08242868D1
:10750000017846784A0628D1092E02D1FFF712FEEB
:1075100034E08188C278052E0AD1802A44D282784C
:10752000002A41D100293FD1807A002831D03BE0A8
:10753000407A032E07D1012A21D101BB80061ED536
:10754000FFF730FF1AE0012E19D1012A17D1B1B986
:10755000800614D5FFF784FE10E04806400E01288F
:1075600004D10B2E0BD1FFF70DFE07E0022806D148
:10757000012EEFD0032E02D1FFF7D6FE40B1BE4957
:107580003000096849698847032801D109240BE0C4
:1075900050B90848084900220068062480B241F822
:1075A00010200648302101802868047270BD000058
:1075B0002C050020505C0040046000405405002071
:1075C000AD4A2DE9F043AE4D81B0092628684478D4
:1075D00003789046D8F800205906490EB146062C8B
:1075E0000ED100296AD18078012801D1D46954E0F4
:1075F000022801D1146A50E003285FD1546A4CE09C
:107600009269C6884788002C33D1002F56D1022EAC
:1076100054D10479002C51D1474C11B981880029EB
:107620003BD040795906490E012908D100219047E5
:10763000002843D12868807A00283FD02DE0022915
:107640003CD10107090F10F07002000605D59E48D5
:1076500050F8210010F0300004E09B4850F8210061
:1076600010F44050974B1B78994227D232BB28B375
:1076700013E0082C02D109BB304C0EE00A2C1DD1BE
:1076800001291BD1817AC9B1C7B90179B1B9012EDC
:1076900014D14079904788B9294C20000ED0286831
:1076A0000021418284610020A04700212A68254BE7
:1076B000108A98420FD182F8089039E02868D8F8EB
:1076C000001040780969884701000328EED1286836
:1076D00080F808902CE0022900D010B90820107220
:1076E00026E0117809061DD5D1880091D8F8003020
:1076F000009C844202D2009810820DE088420BD296
:1077000093F82C10104C884201D2002003E000F0C6
:1077100051FB08B90120207013F82C0F9082FFF75D
:10772000A1FE05E00320107256485FF4405101802D
:1077300001B0BDE8F08300BFC971000815710008F1
:1077400065710008FFFF0000580500201C491A4A17
:107750001A4830B509684A4C89B252F8111089B2FA
:1077600010EB41052068017A092917D029780170AA
:1077700020686978AD1CAD1C417028000088AD1CE4
:10778000AD1C00F0E1FA2168488028000088AD1C9B
:1077900000F0DAFA216888806888C88020680121B2
:1077A00001722068C08810B9FFF7A6FE01E0FFF75C
:1077B00007FF00F047F830BD08600040006000405F
:1077C000505C004030B52E4C2068017A022901D06F
:1077D000042904D1FFF746FE2068057A13E0082546
:1077E000062910D14178052909D10178490606D129
:1077F000C07800F04BF806480068006A80471E48D1
:1078000000688068804720680572BDE8304019E054
:107810003405002030B51A4C2068007A032801D0C6
:10782000052804D1FFF7DCFD2068057A06E008256D
:10783000072803D110480068C06880472068057297
:10784000BDE830400D4800B50178002000F04AFA4C
:107850000B480068017A082906D10A495FF4805272
:107860000A80094910220A80007A092804BF0120F1
:1078700000BD002000BD0000300500208000002079
:107880002C05002052050020540500200D4970B43D
:107890000022097851B90BE00B4C084ED3B2521CB0
:1078A00014EB830425682E40334323608A42F3D3CC
:1078B000034950F08000086070BC70478F8F000053
:1078C0004C5C004030010020005C0040704700002C
:1078D0000448054A022101720449C0614262016202
:1078E0000868004710050020840000205400002094
:1078F0008D482DE9F04F924D714E80468B48814660
:107900001DE015EB81021768BFB23B0408D5136870
:1079100018401060874810EB8100001F0068804706
:1079200038060CD5207815EB80010A681AEA0202A5
:107930000A60854911EB8000001F00688047D9F874
:107940000000A8F80000000440F1B8807A487B4CA1
:10795000C9F80000B8F8000001077A48090F217043
:10796000824673480029CCD15649574C8B4629682A
:1079700011F44051ABF80010296811F03001ABF858
:1079800002102968214091F4005129602968314092
:1079900091F020012960B8F80010C90621D42868A8
:1079A0001AEA00002860FFF70DFF28680440BBF8C2
:1079B0000000C10448BF94F48054800402D594F4BC
:1079C0000054A4B22C6028680640BBF80200C1062F
:1079D00048BF96F0100680066FD596F02006B6B226
:1079E0006BE02F68BFB2390621D528681AEA00007B
:1079F0002860FFF7E7FE28680440BBF80000C104D8
:107A000048BF94F48054800402D594F40054A4B286
:107A10002C6028680640BBF80200C10648BF96F0FB
:107A20001006800649D596F02006B6B245E0390525
:107A300020D5296808402860FFF788FE28680440A0
:107A4000BBF80000C10448BF94F48054800402D500
:107A500094F40054A4B22C6028680640BBF80200DD
:107A6000C10648BF96F01006800626D596F020067F
:107A7000B6B222E039047FF562AF29680840286079
:107A8000FFF7C8FE28680440BBF80000C10448BFE7
:107A900094F48054800402D594F40054A4B22C6071
:107AA00028680640BBF80200C10648BF96F01006E1
:107AB000800602D596F02006B6B22E60BDE8F08FA3
:107AC000BF8F0000520500208FBF000030B5164C5C
:107AD000164D09E00A68164B13400B60154911EB6F
:107AE0008000001F006880472868208000041AD5A5
:107AF00011481249286020880007000F08701049BB
:107B000011EB80010A6892B21304E3D41206EBD59C
:107B10000A680C4B13400B600B4911EB8000001FEF
:107B200000688047E0E730BD4C050020445C004021
:107B30008F0F000038000020FF7F00005905002053
:107B4000005C00400F8F00001C000020104B10B4A0
:107B5000521C13EB4101521009D044780378801C69
:107B600053EA042321F8023B891C521EF5D110BCB4
:107B700070470000064B521C13EB4101521005D018
:107B800051F8043B521E20F8023BF9D17047000027
:107B9000006000405249024A02400A60704700BF3C
:107BA000F8FF0000324A044B12EB800002681340D9
:107BB00019430160704700BF8F8900002C4A12EB07
:107BC0008000104A03681A40CB0648BF92F01002AA
:107BD000890602D592F0200292B20260704700003E
:107BE000234A12EB80000D4A03681A40CB0448BFB9
:107BF00092F48052890402D592F4005292B202604B
:107C000070470000BF8F0000194911EB8000034945
:107C10000268114091F44051016070478FBF00002D
:107C20001349034A11EB800001680A400260704763
:107C30008F8E00000E4911EB80000168490405D5C4
:107C400001680A4A0A4052F480410160704700000E
:107C5000074911EB80000168490605D50168034A10
:107C60000A4052F040010160704700008F8F000011
:107C7000005C00401A4A49084900126892B212EBAF
:107C8000C0002C4A42F8101070470000144A4908FE
:107C90004900126892B212EBC000274A42F8101055
:107CA000704700000E49096889B211EBC0002149F4
:107CB00051F8100080B270470949096889B211EB88
:107CC000C0001D4951F8100080B27047044A126884
:107CD00092B212EBC0001B4A42F81010704700002D
:107CE000505C0040154A126892B212EBC000144A70
:107CF00012EB40003F2908D34A09C90604BF521EAF
:107D000092B2910251F4004105E04A08C90744BF0C
:107D1000521C92B291020160704700000749096845
:107D200089B211EBC000064951F810008005800DA2
:107D3000704700000060004008600040505C004058
:107D40000C600040046000400106090C51EA10205C
:107D5000704700007047000010B581B00400009427
:107D600069460120FFF7F6FFF9E7000000F016B8BA
:107D700010B50300002A04E011F8014B521E03F86D
:107D8000014BF9D110BD0000C9B20300002A02E086
:107D900003F8011B521EFBD170470000014CA646A0
:107DA00020470000597D00088C46B0FBF1F10CFB28
:107DB000110070478C4690FBF1F10CFB11007047ED
:107DC00026040000340100203401002032010000AC
:107DD00000000020D87D00081A03530054004D0015
:107DE00033003200310030000000000000000000CD
:107DF00000000000F5670008CD780008CD78000885
:107E0000CD780008CD780008CD780008CD7800083E
:107E1000CD780008F9670008CD780008CD78000813
:107E2000CD780008CD780008CD78000841680008BA
:107E3000756800088D690008916900089569000857
:107E4000D9690008256A0008316A00083D6A0008FF
:107E5000496A00080000000040000000CD780008DA
:107E600049690008CD780008CD780008CD78000871
:107E70006D690008CD780008CD7800088169000898
:107E8000388A0008120000004C8A00082000000018
:107E90006C8A000804000000708A000826000000B8
:107EA000988A000826000000000000201A00000048
:107EB000C08A0008100000000080020220000000BC
:107EC0004D696E695F44534F466C61736820446925
:107ED000736B2020202020202000000003000000E1
:107EE0000006000000000000700000000000000A12
:107EF000000000000000000000000000000000087A
:0A7F00000000000002000000030171
:107F0C0048617264776172652056657220322E3634
:107F1C0030200000332E3130000000009001F000C2
:107F2C00070015000F00C80000100100010111002E
:107F3C00000000040000000435306D560000000005
:107F4C000000000400000004D0070000302E315661
:107F5C00000000000000000400000004A00F00005E
:107F6C00302E325600000000FEFF0004FAFF000421
:107F7C00401F0000302E355600000000FFFF0004AB
:107F8C00FAFF0004204E00002031562000000000B3
:107F9C0000000004FAFF0004409C00002032562030
:107FAC0000000000FEFF0004FAFF0004803801000E
:107FBC002035562000000000FFFF0004FAFF0004EB
:107FCC00400D030021313056210000000000000458
:107FDC00FAFF0004801A06000000000000000000F8
:107FEC0000000000000000000000000021203153C0
:107FFC0020210000E7035F09B004000455A0FC0138
:10800C003530306D53000000E703AF045802000414
:10801C002B50FE003230306D53000000E703DF01BF
:10802C00F0000004ABB965003130306D5300000036
:10803C00E703EF0078000004D5DC32002135306D09
:10804C0053210000E70377003C0000046B6E19001D
:10805C002132306D532100006300DF01F000000479
:10806C002B2C0A002131306D532100006300EF00EE
:10807C00780000041516050020356D532000000013
:10808C00630077003C0000040B8B020020326D5320
:10809C00200000000900DF01F00000046B04010067
:1080AC0020316D53200000000900EF00780000041F
:1080BC003582000035303075530000000900770020
:1080CC003C0000041B4100003230307553000000AE
:1080DC000000DF01F00000040B1A00003130307595
:1080EC00530000000000EF0078000004050D0000B4
:1080FC002135307553210000000077003C0000044E
:10810C0083060000213230755321000000002F003F
:10811C00180000049B02000021313075532100002F
:10812C00000017000C0000044D01000020357553B1
:10813C002000000000000B0006000004A700000057
:10814C002032755320000000000004000300D70308
:10815C004300000020317553200000000000020095
:10816C000200330321000000302E3575530000004F
:10817C00000001000100660211000000302E327573
:10818C0053000000000000000100EC01070000009B
:10819C00302E317553000000000000000100F60085
:1081AC0003000000203275532B0000000000090072
:1081BC000300D70343000000203175532B0000004F
:1081CC00000004000200D703210000002E35755377
:1081DC002B0000000000020001003303110000001E
:1081EC002E3275532B000000000001000100D70354
:1081FC00070000002E3175532B000000000000001A
:10820C000100EB01030000003C567400000000006C
:10821C0000003C5674000000000001023C56740043
:10822C000000000002043C5674000000000003062D
:10823C003E5674000000000000013E567400000021
:10824C00000001033E5674000000000002053E567B
:10825C0074000000000003073A215C2100000000BC
:10826C0000083A215C2100000000010A3A215C213F
:10827C0000000000020C3A215C2100000000030EFB
:10828C003A215E210000000000093A215E21000025
:10829C000000010B3A215E2100000000020D3A2182
:1082AC005E2100000000030F3C544C000000000055
:1082BC0000103C544C000000000001123C544C00D7
:1082CC000000000002143C544C0000000000031697
:1082DC003E544C000000000000113E544C000000C5
:1082EC00000001133E544C000000000002153E54E7
:1082FC004C000000000003173C5448000000000034
:10830C0000183C54480000000000011A3C5448007E
:10831C0000000000021C3C54480000000000031E3A
:10832C003E5448000000000000193E544800000074
:10833C000000011B3E54480000000000021D3E548A
:10834C00480000000000031F0000000000001C009B
:10835C0020004000400040004000400020001C0075
:10836C00000000000000000000000000000000E021
:10837C000010000800080008300C600CC0008001E0
:10838C0000033006300C000000080008001000E06C
:10839C000000000000000000102010201020102011
:1083AC0010201020F03F000000000000C00FE01F64
:1083BC003030102000000000000000001020303091
:1083CC00E01FC00F000000000000C018800D000767
:1083DC000007800DC0180000000000010001C0075C
:1083EC00C007000100010000000000000000FCFFBD
:1083FC00000000000000000000000001000100016E
:10840C00000100010001000000000000000030002D
:10841C00300000000000000030006000C00080014F
:10842C0000030006000C0000E01FF03F902010231A
:10843C001024F03FE01F0000000010081018F03F5F
:10844C00F03F1000100000007010F030902110234D
:10845C001026303830180000201030301022102236
:10846C001022F03FE01D000000030007000D101962
:10847C00F03FF03F10010000203E303E1022102251
:10848C001023F023E0210000E00FF01F1032102227
:10849C001022F003E001000000300030F020F02149
:1084AC000023003E003C0000E01DF03F1022102293
:1084BC001022F03FE01D0000001C103E1022102284
:1084CC003022E03FC01F0000000000000000600CE4
:1084DC00600C000000000000400040004000400024
:1084EC004000400040004000000000018003C00636
:1084FC00600C3018101000000000900090009000EC
:10850C0090009000900000004002400240024002A7
:10851C004002400240020000000010103018600CB5
:10852C00C006800300010000C00F2010902790248B
:10853C00D0275010800F0000F007F00F0019003109
:10854C000019F00FF00700001020F03FF03F102250
:10855C001022F03FE01D0000C00FE01F3030102053
:10856C0010203030601800001020F03FF03F102039
:10857C003030E01FC00F00001020F03FF03F102201
:10858C0010273030703800001020F03FF03F1022E0
:10859C000027003000380000C00FE01F30301021E1
:1085AC001021E031F0190000F03FF03F0002000212
:1085BC000002F03FF03F0000000000001020F03FF0
:1085CC00F03F102000000000E000F0001000102030
:1085DC00F03FE03F002000001020F03FF03F000390
:1085EC00000FF03C703000001020F03FF03F1020E6
:1085FC001000300030000000F03FF03F001C000E77
:10860C00001CF03FF03F0000F03FF03F001C000E5C
:10861C000007F03FF03F0000C00FE01F303010208B
:10862C003030E01FC00F00001020F03FF03F102250
:10863C000022003E001C0000E01FF03F10207020C4
:10864C003020F83FE81F00001020F03FF03F0022E0
:10865C000023F03FF01C00006018703C1026102224
:10866C001023F039E0180000000000381030F03F03
:10867C00F03F103000380000E03FF03F10001000D9
:10868C001000F03FE03F0000803FC03F6000300032
:10869C006000C03F803F0000C03FF03F7000C00151
:1086AC007000F03FC03F00003030F03CC00F0003C2
:1086BC00C00FF03C303000000000003C103EF003D6
:1086CC00F003103E003C00007038F0309021102375
:1086DC001026303C70380000100030005000900123
:1086EC001003100CF03F0000000800080008000800
:1086FC0000080008000800080000000000007CFCD6
:10870C00800280020001000100020004000CF01F36
:10871C00F03F000C0004000200018000C000E03FAC
:10872C00F03FC0008000000110201020102010200D
:10873C001020102010201020E000F005100510056E
:10874C00E007F003100000001020F03FE03F1002A3
:10875C001002F003E0010000E003F0071004100425
:10876C001004300620020000E001F0031006102473
:10877C00F03FF03F10000000E003F007100510057B
:10878C00100530072003000000001002F01FF03F1E
:10879C001022003000180000C803EC072404240445
:1087AC00FC03F807000400001020F03FF03F20020B
:1087BC000004F007F0030000000000001004F03784
:1087CC00F037100000000000000018001C0004042A
:1087DC00FC37F837000400001020F03FF03F8021F8
:1087EC00C003700630040000000000001020F03FB1
:1087FC00F03F100000000000F007F0070006F00347
:10880C000006F007F00700000004F007F003000476
:10881C000004F007F0030000E003F007100410045C
:10882C001004F007E00300000404FC07FC034404FC
:10883C004004C007800300008003C00740044404C8
:10884C00FC07FC03040400001004F007F0031006FE
:10885C000004000600030000000020023007900511
:10886C009004F0066002000000040004E01FF03FDA
:10887C001004300420000000E007F0071000100086
:10888C00E007F007100000000000C007E007300010
:10889C003000E007C0070000E007F0073000E00000
:1088AC003000F007E007000010043006E003C001C0
:1088BC00E0033006100400008007C40744004400A5
:1088CC004400F807F007000030067006D00490054D
:1088DC00100730063004000080078004F03C1020A4
:1088EC00D02FD02FD02FD02FD02FD02FD02FD02F84
:1088FC00D02FD02FD02FD02FD02FD02FD02FD02F74
:10890C00D02F1020F03F000080078004F03C102096
:10891C00102010201020102048617264776172655D
:10892C00205665722000000053657269616C204E00
:10893C006F3A200020202020204453323033204D29
:10894C00696E692044534F20535953205665722049
:10895C00202020202020202020202000506C656129
:10896C00736520696E707574206D61737465722007
:10897C006C6963656E63653A20303030303030306E
:10898C003000000020202020202020204C6963652E
:10899C006E636520696E707574206572726F7220DB
:1089AC00202020202020202020000000202020201B
:1089BC0020202020204C6963656E636520777269E6
:1089CC0074656E206F6B202020202020202020201A
:1089DC002000000020202020202020204C696365EE
:1089EC006E63652077726974656E206572726F7242
:1089FC0020202020202020202000000020202020CB
:108A0C0020205075736820616E79206B6579207415
:108A1C006F206E6578742073746570202020202080
:108A2C0020000000312E3530000000001201000241
:108A3C0000000040830420570002010203010000E3
:108A4C0009022000010100C03209040000020806DE
:108A5C005004070581024000000705020240000097
:108A6C00040309042603530054004D0069006300FD
:108A7C0072006F0065006C0065006300740072008A
:108A8C006F006E0069006300730000002603530042
:108A9C0054004D003300320020004D006100730083
:108AAC0073002000530074006F00720061006700B7
:108ABC006500000010035300540020004D006100BD
:068ACC007300730030008E
:040000050800416549
:00000001FF
