:020000040800F2
:10C00000507D002065C1000805E5000809E500082D
:10C010000DE5000811E5000815E500080000000026
:10C020000000000000000000000000001DE5000806
:10C0300019E500080000000021E5000825E50008DA
:10C0400029E500082DE5000831E5000835E5000880
:10C0500039E500083DE5000841E5000845E5000830
:10C0600049E500084DE5000851E5000855E50008E0
:10C0700059E500085DE5000861E5000865E5000890
:10C0800069E500086DE5000871E5000875E5000840
:10C0900079E500087DE5000881E5000885E50008F0
:10C0A00089E500088DE5000891E5000895E50008A0
:10C0B00099E500089DE5000871E6000875E60008AE
:10C0C00079E600087DE6000881E6000885E60008BC
:10C0D00089E600088DE6000891E6000895E600086C
:10C0E00099E600089DE60008A1E60008A5E600081C
:10C0F000A9E60008ADE60008B1E60008B5E60008CC
:10C10000B9E60008BDE60008C1E60008C5E600087B
:10C11000C9E60008CDE60008D1E60008D5E600082B
:10C12000D9E60008DDE60008E1E60008E5E60008DB
:10C130000120704710B5094C02E004F0A3F80C345C
:10C140000748844208D26068A16822688142F4D11D
:10C15000002104F0A3F8F2E710BD00BFFC020108C3
:10C1600014030108024CA04730B1024CA04703E081
:10C1700031C1000835C10008034C4FF00000A04752
:10C18000024C034DAE462047E9E600088102010853
:10C19000E5020108F8F734B8F8F734B8F8F734B81E
:10C1A000F8F734B8F8F734B8F8F734B8F8F734B823
:10C1B000F8F734B8F8F734B8F8F734B8F8F734B813
:10C1C000F8F734B8F8F734B8F8F734B8F8F734B803
:10C1D000F8F734B8F8F734B8F8F734B8F8F734B8F3
:10C1E000F8F734B8F8F734B8F8F734B8F8F734B8E3
:10C1F000F8F734B8F8F734B8F8F734B8F8F734B8D3
:10C20000F8F734B8F8F734B8F8F734B8F8F734B8C2
:10C21000F8F734B82DE9F04FE04CE14D8CB02168CF
:10C220008DF8180009A8016061684160A16881600B
:10C2300000208046DB48002101701420FFF7D0FF6A
:10C2400005F294300590B0F900100A20491C4143D2
:10C250000220FFF7C5FF4046FFF7A6FF01F0DEFE14
:10C26000202104900846FFF7BBFF01212420FFF79F
:10C27000B7FF4046A5F8500105984546B0F9501063
:10C280000520491E41430320FFF7AAFFC6485FF47B
:10C29000FA710180C548414601709DF818000028D8
:10C2A00014BF03260026BF48C14FC246017038683C
:10C2B000B0F90C110720FFF793FF39685FF487701E
:10C2C000095A0820FFF78CFF00210920FFF788FF9B
:10C2D00019212846FFF784FF29460B20FFF780FF2E
:10C2E00019210120FFF77CFFB24800278346514601
:10C2F0003800FFF755FFB0487F1CBFB28146FFF7FB
:10C3000051FF5F45F3D35046143080B28246DC289B
:10C31000EAD30027EF213800FFF742FF4846FFF736
:10C3200041FF7F1CBFB25F45F4D300210846FFF7F1
:10C3300037FF2F464846FFF735FF7F1CBFB2EF2F70
:10C34000F8D314212C20FFF72BFF14274846FFF7C2
:10C3500029FF7F1CBFB2C92FF8D314215820FFF743
:10C360001FFF14274846FFF71DFF7F1CBFB2C92FD0
:10C37000F8D314218420FFF713FF14274846FFF752
:10C3800011FF7F1CBFB2C92FF8D31421C820FFF7BB
:10C3900007FF14274846FFF705FF7F1CBFB2C92FD0
:10C3A000F8D31421F420FFF7FBFE14274846FFF7CB
:10C3B000F9FE7F1CBFB2C92FF8D314215FF490702F
:10C3C000FFF7EEFE14274846FFF7ECFE7F1CBFB2D6
:10C3D000C92FF8D314215FF4A670FFF7E1FE1427EC
:10C3E0004846FFF7DFFE7F1CBFB2C92FF8D30021FC
:10C3F0005FF4C770FFF7D4FE2F464846FFF7D2FE22
:10C400007F1CBFB2EF2FF8D320000C3001B4002303
:10C410000522B921062000F015FD2000143001B4DA
:10C420002B460522B921312000F00CFD20001C30E4
:10C4300001B42B460522B9215D2000F003FD200048
:10C44000243001B42B460522B9218D2000F0FAFCDE
:10C450005A482B46B921824620002C3001B452465E
:10C46000CE2000F0EFFC2000143001B42B465246E1
:10C47000B921F92000F0E6FC20001C3001B450483E
:10C480002B465246B92100F0DDFC2000243001B4D7
:10C490002B465246B9215FF4AB7000F0D3FC4948FB
:10C4A0002F46834648480068808808B0401C012811
:10C4B00022DA29E014210023484300900099A620A5
:10C4C0000522401AADF81A000846DBF800107F1C60
:10C4D000081801B4BDF81E10062000F0B3FCDBF80C
:10C4E000001001982B465246081801B4BDF82210DE
:10C4F000CE2000F0A7FC02B03349BFB23800096873
:10C500008988491C8842D5DB2848304A03210078B5
:10C51000002303F0EDFE1E2100FB0140062100F286
:10C52000102001B40A2000F08DFC059801B0000431
:10C5300028D0264A343410B40023D821202000F01B
:10C5400081FC0698B0F950100520491E4143032094
:10C55000FFF746FE14485FF4FA710180880001F08D
:10C5600073FE03F0BDF801B00CB0BDE8F08F04F22B
:10C57000201001B400230522D8215FF4A47000F03C
:10C5800061FC01B01248008820BB00210220FFF7A7
:10C5900027FE01211420FFF723FEE5E7D011010853
:10C5A0006C2500207F340020863400204C79002048
:10C5B000382C00208F010000FFFF00000501000063
:10C5C0002501000090340020402C002005040000CC
:10C5D0008A340020C84800212F00018003F02EFA81
:10C5E000C64810EB47000890C54810EB4700049080
:10C5F000C448C0190790C448C0190090012E01D04A
:10C60000042E21D104980A210A2200880A234843D3
:10C61000BE490968890A48430099000B91F9001046
:10C6200001FB0200BA494018089909885143B94AE8
:10C630001268920A5143079A090B92F9002002FBF3
:10C640000311B34A89181BE00498B04900880968AF
:10C65000B04A01F200211268890A48430099000B90
:10C6600002F2002291F90010920A40180899193834
:10C6700009885143079A090B92F900208918193942
:10C68000A54A1180A54908800320FFF7ADFD18B128
:10C6900001210620FFF7A4FDA1480078002800F042
:10C6A000E581A0485FF4167101809F48006880888A
:10C6B000401C874280F29A80142047430597A620A9
:10C6C000C71B30000FD19548B0F9001001A801F048
:10C6D000C3FD01A8801C01B400230522B9B22D209E
:10C6E00000F0B0FB01B0012E0FD18C48B0F9001062
:10C6F00001A801F0B1FD01A8801C01B400230522AE
:10C70000B9B2592000F09EFB01B0022E22D183481D
:10C71000DBF80020B0F900100598101800694143BB
:10C7200001A801F099FD01A8801C01B40023052295
:10C73000B9B2862000F086FB9DF8080003210AAA02
:10C74000434600FB01200522B9B201B4AE2000F03F
:10C7500079FB02B0032E0FD16F48B0F9001001A889
:10C7600001F07AFD01A8801C01B400235246B9B241
:10C77000F52000F067FB01B0042E0FD16648B0F938
:10C78000001001A801F068FD01A8801C01B46748F1
:10C7900000235246B9B200F055FB01B0052E37D147
:10C7A0005D48DBF80020B0F900100598101800690A
:10C7B000414301A801F050FD01A8801C01B40023F1
:10C7C0005246B9B25FF4A77000F03CFB9DF8080038
:10C7D00003210AAA434600FB01205246B9B201B424
:10C7E0005FF4BB7000F02EFB02B011E05048514ADC
:10C7F00003210078002303F07BFD1E2100FB014094
:10C80000062100F2102001B40A2000F01BFB01B049
:10C810004548434A484F016848481278921E082A02
:10C8200000F2F080DFE802F005EEEE8EC246625BB9
:10C8300039003F480078012810D1002001F06AFC3F
:10C840003C4A2000603001B44346D821202000F04B
:10C85000F9FA5FF47A7001F0F7FC01B0344800781F
:10C86000022817D1364D5FF480720021280003F0B2
:10C8700015FD41462800FFF7BDFC2E4A8C3410B44C
:10C880004346D821202000F0DDFA5FF47A7001F0F1
:10C89000DBFC01B002F024FF66E69DF8181021B918
:10C8A000022E2CBF00260226ACE0052E2CBF03264C
:10C8B0000526A7E09DF8181041B9310001D10126E5
:10C8C000A0E0022E80F09E8000269BE0042E01D284
:10C8D000042697E0052E80F09580032692E029003B
:10C8E00000F0908049466D18ADB28BE08988A9426E
:10C8F000C0F088806D1CF7E7E02B0020F82B0020AB
:10C90000E42B0020182C00200C2C0020242C0020CC
:10C910002AF9FFFF282C0020D82B0020CE2B002046
:10C920007F3400208A340020402C002021010000A8
:10C930004C790020050400003E2C00203C2C0020F7
:10C940007C320020320004D1009A92F900305B1E44
:10C950001370012E06D1049B4A469C461B889A18E8
:10C9600063461A80022E03D102884B46D2180280F9
:10C97000032E04D1079A92F900305B1E1370042E27
:10C9800006D1089B4A469C461B889A1863461A8023
:10C99000052E03D13A884B46D2183A8089888D42B9
:10C9A00030D3D44AD3491278521E2AE0320004D13F
:10C9B000009A92F900305B1C1370012E03D1049A87
:10C9C00013885B1C1380022E02BF0288521C028057
:10C9D000032E04D1079A92F900305B1C1370042EC9
:10C9E00003D1089A13885B1C1380032E02BF3A8878
:10C9F000521C3A8089888D4204D3BE4ABD491278C0
:10CA0000521C0A70BC490022012E0A7001D0042E6B
:10CA100010D10088AF214843C11110EB1160011201
:10CA20000020FFF7DDFB3888AF214843C11110EB30
:10CA300011600FE0008819214843C11110EB11600B
:10CA400001120020FFF7CCFB388819214843C1119F
:10CA500010EB116001120120FFF7C2FB29000A2030
:10CA6000FFF7BEFB29000C20FFF7BAFBD048017886
:10CA700000293FF487AD00210170CE482F000068E7
:10CA80008088401C874280F25E811420474330003A
:10CA900011D1C948415E01A801F0DEFB01A8801C4C
:10CAA00001B4C64805220378A620C11B89B22D20F7
:10CAB00000F0C8F901B0012E12D1BF48B0F9001042
:10CAC00001A801F0C9FB01A8801C01B4BB480522E4
:10CAD0000378A620C11B89B2592000F0B3F901B038
:10CAE000022E27D1B448B0F90010DBF80000C019BD
:10CAF0000069414301A801F0AFFB01A8801C01B40B
:10CB0000AE4805220378A620C11B89B2862000F01A
:10CB100099F99DF8080003210AAA00FB01200522CB
:10CB200001B4A6480378A620C11B89B2AE2000F04C
:10CB300089F902B0032E12D1A148B0F9001001A862
:10CB400001F08AFB01A8801C01B49C48524603787E
:10CB5000A620C11B89B2F52000F074F901B0042EA3
:10CB600012D19748B0F9001001A801F075FB01A897
:10CB7000801C01B4914852460378A620C11B89B29B
:10CB80007B3000F05FF901B0052E27D18C48B0F959
:10CB90000010DBF80000C0190069414301A801F052
:10CBA0005BFB01A8801C01B4844852460378A62090
:10CBB000C11B89B2A83000F045F99DF80800032197
:10CBC0000AAA00FB0120524601B47C480378A62043
:10CBD000C11B89B2D03000F035F902B0022E02D06C
:10CBE000052E40F08B80DBF800002100F831C019E1
:10CBF00003F05EFB08B9002750E0DBF800002100DD
:10CC0000F031C01903F054FB08B9012746E0DBF806
:10CC100000002100E831C01903F04AFB08B90227DF
:10CC20003CE0DBF800002100E031C01903F040FBDC
:10CC300008B9032732E0DBF800002100D831C01921
:10CC400003F036FB08B9042728E0DBF800002100D8
:10CC5000D031C01903F02CFB08B905271EE0DBF822
:10CC600000002100C831C01903F022FB08B90627D3
:10CC700014E0DBF800002100C031C01903F018FBFC
:10CC800008B907270AE0DBF800002100B831C01915
:10CC900003F00EFB002814BF09270827494A04F2B5
:10CCA000001001B40023D821202000F0CBF8464A20
:10CCB0000C20434607FB0040D82100F2981001B435
:10CCC000582000F0BFF83F4A04F2081001B4434670
:10CCD000D821A02000F0B6F803B0032EFFF447AC33
:10CCE00004F2281001B400235246D8215FF4A47046
:10CCF00045E400BF4C7900207F340020314A04F223
:10CD0000301001B40023D821202000F09BF82D4AD8
:10CD100004F2441001B44346D821E82000F092F810
:10CD200002B0032E07D204F2581001B40023524679
:10CD3000D821B82023E404F2601001B400230522B6
:10CD4000D821B8201BE421481F4A03210078474618
:10CD500003F0CEFA1E2100FB0140062100F2102054
:10CD600001B4164803780A2000F06CF8154A04F262
:10CD7000681001B40023D821202000F063F8114A84
:10CD800004F2781001B44346D821902000F05AF8FC
:10CD9000E023D92290218820FFF70AFA03B00C483B
:10CDA0007F1CBFB2FFF7FEF9402FBFF4EBABF6E7F5
:10CDB00083340020402C0020CE2B00208234002021
:10CDC000D82B002005060000050400004C79002047
:10CDD0001F0500002DE9F041984614000B000A33AE
:10CDE0009BB20A0001000A3189B2FFF7E1F9002580
:10CDF00040460B21002700FB0150114931F810601B
:10CE0000414832003A41D20703D5211230F81100CF
:10CE100003E02107090F30F81100FFF7C3F97F1C69
:10CE2000BFB20B2FECD36D1CADB20B2DE0D3354947
:10CE3000EF2300220020FFF7BBF9BDE8F08100BF1F
:10CE4000701401082DE9F04F16002E4A98460B0089
:10CE500091460A339BB20A004946FFF7A9F900251B
:10CE600029483107090F10EB410B311210EB410437
:10CE7000404610B9BBF8000000E02088FFF792F9A7
:10CE80006D1C0B2DECDB09980078002832D00026B1
:10CE900009980078202801D021280DD100272128C9
:10CEA00001D1042E22D000253FB23800A840400511
:10CEB00040460DD548B90FE01449F2B212EBC0005C
:10CEC000134A12EB4000475AEDE7BBF8000004E0BC
:10CED00010B9BBF8000000E02088FFF763F96D1C73
:10CEE0000B2DE1DB761C36B2082ED1DB0998401CF5
:10CEF0000990C8E7EF2300224946FFF759F9BDE83A
:10CF0000F08F00008F01000000200020E0FDFFFFF7
:10CF1000C81401082DE9F04E92B006000C2E4BD338
:10CF20005FF49C70864247D230000C3880040014B5
:10CF3000824630000B38810009B20020D14D0BAA87
:10CF40001218441057463F1900231370EF5D06ABCB
:10CF50001B180C191F702C5D5C70C724C82F01D3DF
:10CF60001C7003E0022F3CBF01251D705D78C82DA9
:10CF700001D35C7003E0022D3CBF01245C701C787F
:10CF80005D78AC420ED1012C01D0C72C02D1012416
:10CF9000147007E0022C24BF641E1C70C72D3CBF18
:10CFA0006A1C5A705A781C78A2423CBF5C701A7096
:10CFB000801CC0B20828C1D3B34CFFF701F90D2182
:10CFC0003000FFF7EDF8B14B9DF81E0004F2E01AB7
:10CFD00035008DF805009DF81F009DF8051081466D
:10CFE000401A11909DF81C008DF804009DF81D005A
:10CFF0008DF802009DF80410401A10909DF81A0058
:10D000008DF803009DF81B008DF801009DF80310BA
:10D01000401A0F909DF819008DF800009DF8181027
:10D02000401A0E909DF832008DF807009DF83000F0
:10D030008DF8060096489DF82E7000F2303102916E
:10D0400000F2C81105910100B0310A919DF8181045
:10D05000089101001031099100F29020049003F230
:10D0600094100D908B488346F00740F1DC810D98B9
:10D070002100FFF7A7F80C2EC0F0AC81864886424D
:10D0800080F0AB81BBF80000ADF80C009DF82C00DF
:10D09000002835D10998B0F90000002830D00E984A
:10D0A0000628089817DB9DF80010C2B2914227D3DA
:10D0B000BDF80C30C1B2401C14EB410101F2E0118B
:10D0C0000A8813F53E43C0B213430B809DF800104D
:10D0D000814215D3ECE79DF80010C2B291420FD304
:10D0E000BDF80C30C1B2401C14EB410101F2E0115B
:10D0F0000A88C0B213430B809DF800108142EFD222
:10D10000BBF80200002FADF80E0034D10998B0F939
:10D11000500000282FD00F98062817DB9DF8030039
:10D120009DF80110814226D3BDF80E305B4E14EB02
:10D13000400101F2E0110A889B19401C13430B8047
:10D140009DF80110C0B2814215D3EDE79DF80300B0
:10D150009DF8011081420ED3BDF80E3014EB400152
:10D1600001F2E0110A88401CC0B213430B809DF805
:10D1700001108142F0D29DF80600BBF8041000288F
:10D180002FD10A98B0F9000058B31098062815DB83
:10D190009DF804009DF80220824222D3404E14EBF9
:10D1A000400202F2E01213888E19401C1E431680C2
:10D1B0009DF80220C0B2824213D3EFE79DF804002D
:10D1C0009DF8022082420CD314EB400202F2E012DE
:10D1D0001388401CC0B20B4313809DF8022082428A
:10D1E000F2D2BBF806209DF8070038BB0A98B0F9C8
:10D1F000500018B31198062811DB9DF805008145F1
:10D200001CD314EB400303F2E0131E8812F57E4793
:10D21000401C37431F80C0B281450FD3F1E79DF812
:10D22000050081450AD314EB400303F2E0131E8886
:10D23000401CC0B216431E808145F4D20598B0F957
:10D24000780040B9BBF92000BDF80C2014EB400079
:10D2500000F2E0102EE0012808D1BBF92400BDF84F
:10D260000E2014EB400000F2E01023E0022819D158
:10D27000BBF9280014EB400000F2E01002881143D3
:10D2800001801AE098740020BC2E0020981A010832
:10D290006C2500200020002037010000F8FD000070
:10D2A000F8BF0000032808D1BBF92C0014EB4000A4
:10D2B00000F2E01001880A4302800599A120B1F92B
:10D2C0000010421A12B204F26E310C2A24DBBBF8B1
:10D2D0000C3095420FD10598807840070BD401207F
:10D2E00014EB400606F2E0163788C01CC0B21F439C
:10D2F0003780C828F4D3501E854202D0501C854286
:10D3000002D14B80AAF80030954205D14B800B80AA
:10D31000AAF80230AAF800300298BBF80830B0F939
:10D3200000200B3212B295420ED1807840070BD408
:10D33000012014EB400606F2E0163788C01CC0B28C
:10D340001F433780C828F4D3501E854202D0501C9A
:10D35000854207D1488818434880BAF8000018432E
:10D36000AAF8000095420FD14888184348800888E1
:10D3700018430880BAF802001843AAF80200BAF865
:10D3800000001843AAF800000298B0F914200B32EC
:10D3900012B295420ED1807D40070BD4012014EBD0
:10D3A000400606F2E0163788C01CC0B21F43378023
:10D3B000C828F4D3501E854202D0501C854202D1A9
:10D3C0004B80AAF8003095422AD14B800B80AAF8F6
:10D3D000023025E00B2E23D100E021D10498BBF8C8
:10D3E0000830B0F9000014EB400010F5EF70018830
:10D3F0001943018041881943418081881943818004
:10D400000498B0F9140014EB400010F5EF70018897
:10D410001943018041881943418081880B438380EF
:10D42000C92150467DE1C149681C884202D151465C
:10D43000180017E00B2817D02A000A3A10001E2106
:10D4400002F056FF18B9514603F2BC400AE0100042
:10D45000062102F04DFF0028514602D103F2283088
:10D4600000E00D98FEF7AEFE04980499B0F91400A0
:10D47000B1F9001014EB400014EB4102BBF80810A6
:10D480000C2E03D05FF49B739E4205D113880B438F
:10D49000138003880B430380049B9B785B075EBF6C
:10D4A00013880B431380049A927D52075EBF028853
:10D4B0000A4302800C2EC0F032819C48864280F0E4
:10D4C0002E819DF82C00002830D10998B0F9000079
:10D4D00000282BD00E98BBF800A00628089813DB74
:10D4E0009DF80020C3B29A4220D3C2B21AF53E463C
:10D4F00014EB42021388401CC0B21E4316809DF8F4
:10D500000020824212D3F0E79DF80020C3B29A4275
:10D510000CD3C2B2401C14EB42021388C0B25AEAC8
:10D52000030313809DF800208242F2D2002F2DD1F8
:10D530000998B0F9500048B30F98BBF802200628AC
:10D5400013DB9DF803009DF8013083421ED3784F12
:10D5500014EB40031E88D719401C37431F809DF8E9
:10D560000130C0B2834211D3F1E79DF803009DF86A
:10D57000013083420AD314EB40031E88401CC0B222
:10D5800016431E809DF801308342F4D29DF80600B8
:10D5900000282DD10A98B0F9000048B31098BBF8C4
:10D5A0000420062813DB9DF804009DF80230834216
:10D5B0001ED3604F14EB40031E88D719401C37431D
:10D5C0001F809DF80230C0B2834211D3F1E79DF86D
:10D5D00004009DF8023083420AD314EB40031E88F6
:10D5E000401CC0B216431E809DF802308342F4D224
:10D5F0009DF8070028BB0A98B0F9500008B31198AD
:10D60000BBF8062006280FDB9DF80500814518D3DE
:10D6100014EB40031E8812F57E47401C37431F80E1
:10D62000C0B281450DD3F3E79DF80500814508D3CD
:10D6300014EB40031E88401CC0B216431E80814577
:10D64000F6D2059AA12014F5C773B2F90020821A08
:10D6500012B20C2A21DBBBF80C6095420FD1059861
:10D66000807840070BD4012014EB4009B9F8007012
:10D67000C01CC0B23743A9F80070C828F4D3501EAC
:10D68000854202D0501C854201D15E8026809542A1
:10D6900003D15E801E80668026800298B0F900204B
:10D6A0000B3212B295420CD18078400709D4012088
:10D6B00014EB40063788C01CC0B20F433780C8281F
:10D6C000F6D3501E854202D0501C854201D15980AC
:10D6D0002180954202BF5980198061800298B0F97B
:10D6E00014200B3212B295420CD1807D400709D430
:10D6F000012014EB40063788C01CC0B20F433780AE
:10D70000C828F6D3501E854202D0501C854201D154
:10D7100059802180954202BF598019806180C921BA
:10D720002000FEF749FD12B0BDE8F08E3701000081
:10D73000F8FD0000F8BF000030B5104C104DFEF7AA
:10D740003FFD05F2E0112000FEF73CFDFEF738FD3D
:10D75000290004F29410FEF735FD0B2403E0FFF7D7
:10D76000D9FB641CA4B220005FF49C718842F6D3FC
:10D77000FEF720FDBDE83040FEF722BD981A0108F3
:10D78000BC2E0020CF4A2DE9F04F82B08046CC4815
:10D79000ADF80010814619EB810A4046502104285B
:10D7A00000FB012B07D2BBF94C00C62873DABAF98B
:10D7B0002000C6286FDA00240DE028887F1CBFB245
:10D7C000FEF7F0FC0199B1F900101831091B8F42E6
:10D7D000F3DB641CA4B20B2C5DD2BDF8000019EB86
:10D7E0004005072C26D22D484146042906D207229F
:10D7F00001FB0200BBF94C10065D03E0BAF92010F2
:10D800000019067F093189B22000FEF7C9FC002704
:10D8100005E02888FEF7C6FC76087F1CBFB2082FFB
:10D8200004D2F007F5D5B9F80A00F3E72888FEF727
:10D83000B9FCCEE74046042818D2BBF94C102000B2
:10D840004118C91C89B2FEF7ABFCBBF94C10671834
:10D85000FF1CBFB2BBF94C101831091B8F42B8DA5C
:10D8600028887F1CBFB2FEF79DFCF3E7BAF92010B1
:10D8700020004118C91C89B2FEF792FCBAF92010A9
:10D88000BDF800006718FF1CBFB24946203111EBFC
:10D890008000019096E702B0BDE8F08F4C140108BB
:10D8A0002DE9F042864CFEF78BFC00250C270C215D
:10D8B000A8B2FEF775FC3E4604E06089761CF6B21D
:10D8C000FEF770FCD72EF8D36D1C0B2DEFDB7D4DD2
:10D8D0002E0036F9100F18B100210020FFF752FF7B
:10D8E000B6F9500018B101210120FFF74BFF2E00BF
:10D8F00036F9B00F18B102210220FFF743FFB6F945
:10D90000500018B103210320FFF73CFF05F2C816B1
:10D91000B6F9780018B900210720FFF733FFB6F9F0
:10D920007800012802BF01210720FFF72BFFB6F97D
:10D930007800022802BF02210720FFF723FFB6F973
:10D940007800032802BF03210720FFF71BFF0C21EB
:10D950005FF49C70FEF724FC04E060897F1CFFB23A
:10D96000FEF720FCD72FF8D354480B2781460C2113
:10D97000B8B2FEF715FC6089FEF714FCD621B8B2E8
:10D98000FEF70EFC60897F1C3FB2FEF70BFC4F4593
:10D99000EDDB05F29029B9F900100A2000270B31C0
:10D9A00089B2FEF7FDFB20897F1CFEF7FBFB052FEC
:10D9B000F9DBB9F914100A2000270B3189B2FEF700
:10D9C000EFFB20897F1CFEF7EDFB052FF9DBB9F992
:10D9D00000105FF49C7000270B3189B2FEF7E0FB6A
:10D9E00020897F1CFEF7DEFB052FF9DBB9F9141047
:10D9F0005FF49C7000270B3189B2FEF7D1FB2089C0
:10DA00007F1CFEF7CFFB052FF9DBB6F90010A12034
:10DA1000461A36B20C2E16DBB71E3FB2B61CBE42FB
:10DA200011DB0C21B8B2FEF7BBFBA089FEF7BAFBF5
:10DA3000D621B8B2FEF7B4FBA0897F1C3FB2FEF737
:10DA4000B1FBBE42EDDA05F23035B5F900600B36B8
:10DA500036B2B71E3FB2B61CBE4211DB0C21B8B2C3
:10DA6000FEF79EFB2089FEF79DFBD621B8B2FEF79C
:10DA700097FB20897F1C3FB2FEF794FBBE42EDDA94
:10DA8000B5F914500B352DB2AE1E36B2AD1CB542F1
:10DA900011DB0C21B0B2FEF783FB2089FEF782FB7D
:10DAA000D621B0B2FEF77CFB2089761C36B2FEF799
:10DAB00079FBB542EDDABDE8F08200BF3901000024
:10DAC000002000206C2500202DE9F04200214B4C65
:10DAD00059200025FEF764FB6D1C2000FEF762FB59
:10DAE0000C2DF9DB00215A20FEF75AFB00252000FF
:10DAF000FEF758FB6D1C0C2DF9DB00215FF49A70CA
:10DB0000FEF74EFB00252000FEF74CFB6D1C0C2D94
:10DB1000F9DB3B4800210026FEF742FB2000FEF720
:10DB200041FB761C0C2EF9DB36485B25814600262E
:10DB30000021A81980B2FEF733FB002732490120EB
:10DB4000B84031F81610084201D0200000E0002053
:10DB5000FEF728FB7F1C0C2FF0DB761C082EE7DB82
:10DB600008352DB24D45E2DB284C294D294E0021C8
:10DB7000605EC8220027504390FBF5F05B3080B216
:10DB8000FEF70EFB7F1C3000FEF70CFB092FF9DBC4
:10DB90000021605EC8220027504390FBF5F06A30F8
:10DBA00080B2FEF7FDFA3000FEF7FCFA7F1C092F69
:10DBB000F9DB00270021605EC822504390FBF5F09E
:10DBC000C0195B3080B2FEF7EBFA3000FEF7EAFADC
:10DBD000B4F90000C8220921504390FBF5F0C019A8
:10DBE0005B3080B2FEF7DCFA3000FEF7DBFA7F1C18
:10DBF000102FDFDB0020A075BDE8F0821F050000BC
:10DC000035010000330100003C14010834270020D6
:10DC1000D40E0000FFFF0000574A2DE9704B84B07E
:10DC20000C0001A90C256D1E535D4B55FBD1C54D54
:10DC30000100684600F0D8FB9DF8000000218DF837
:10DC400008009DF801008DF809009DF802008DF88C
:10DC50000A0020788DF80C0060788DF80D00A0780F
:10DC6000464C8DF80E0000208046C4F82C80202001
:10DC70002081C2002800FEF7BBFA287BE97A5FF416
:10DC80000072C14611EB0020A97B6080687BE080B8
:10DC9000E87B11EB0020A97D2080E87D11EB0020BE
:10DCA000A97FA080E87F090411EB0060697F10EB79
:10DCB0000120297F401821882063E06A4018A1884C
:10DCC00010EB41016088414361632800FEF790FA40
:10DCD00007E0401CC0B210280FD34846401C80B259
:10DCE00081462189894542D2606B5FF4007210EB56
:10DCF00049212800FEF77CFA002015EB401B9BF819
:10DD00000020E52A14BF0022FF22002313EB401657
:10DD1000AE5DB44601AEF65CB44518BFFF225B1C95
:10DD2000DBB20B2BF2D3002AD3D19BF81B009BF85C
:10DD30001A10E38811EB00202189A063A26B606BAD
:10DD4000921E02FB031110EB4120E0639BF81D10B3
:10DD50009BF81C0010EB01209BF81E1010EB0140FB
:10DD60009BF81F1010EB01602064002000E0FF20F2
:10DD700004B0BDE8708B00BFE8200108302000200F
:10DD8000F0B52FA1FFF748FF010028D16D4D6E4F70
:10DD90000024134E002114EB8103F35C6B54114BF0
:10DDA000491C89B29942F6D3D94AF86B50216602D0
:10DDB00004FB0121641CA4B24C31098885F82B11A5
:10DDC00081192800FEF712FAF86B301800F20011E2
:10DDD00005F20010FEF70AFA042CDAD30020F0BD99
:10DDE000987400202B01000010B515A1FFF714FF57
:10DDF000010018BF10BD544C5FF49672E16B200017
:10DE00004430FEF7F5F9E06B5FF4967200F2002102
:10DE100004F27010FEF7ECF9E06B5FF4967210F507
:10DE2000806104F29C20FEF7E3F9E06B5FF49672E8
:10DE300010F5C06104F2C830FEF7DAF9002010BD19
:10DE4000444154002DE9F04B81B03CA1FFF7E4FEC2
:10DE5000010070D13B485FF4807280463A488146A9
:10DE6000D9F83C104046FEF7C3F90020834619EB71
:10DE70004001898918EB800382003632424411F454
:10DE80007844240A03F8364F11F4FC63DB10537016
:10DE9000C90091700021D170401CC0B21028E6D397
:10DEA000762000900024002559462800FEF778F9D6
:10DEB000FEF7A4F907005946681C80B2FEF770F916
:10DEC000FEF79CF90600380000F040F8070030002B
:10DED00000F03CF80099424610EB0710C9B25054CC
:10DEE0000098401CC0B20028009010D1D9F83C0026
:10DEF00010EB04214046FEF779F9114AA010830780
:10DF00009B0F0021FE20FEF765FF641CE4B2AD1CF0
:10DF1000ADB25FF4C8718D42C6D35846401C80B282
:10DF20008346F028BFD3D9F83C0010EB04214046CB
:10DF3000FEF75CF9002001B0BDE8F08B424D5000C7
:10DF40000A0500007C320020302000202C49884245
:10DF500004BF002070471F390A0002408A4204BFF4
:10DF60000120704749090A0002408A4204BF032089
:10DF7000704724490A0002408A4204BF05207047C6
:10DF800010F4FC61B1F5FC6F04BF072070471E4917
:10DF90000A0002408A4204BF022070471B490A005F
:10DFA00002408A4204BF0420704719490A00024017
:10DFB0008A4204BF0620704710F4BC61B1F5BC6F03
:10DFC00004BF0820704713490A0002408A4204BF78
:10DFD0000920704710490A0002408A4204BF0A2003
:10DFE000704710F47841B1F5784F04BF0B207047AB
:10DFF000C006C00E1F2804BF0C2070470D207047BC
:10E00000FFFF00001FF80000E0BD0000F705000062
:10E0100017B80000EF7B00001F05000050B57E4CD4
:10E02000002100262000FEF7E7F82088C0B2032870
:10E030001CBF012050BD00205FF4807204E0215C11
:10E04000401C80B27618F6B29042F8D30EB102208E
:10E0500050BD724834F8021B090A017000200AE022
:10E060006F4A12EB40012288401C80B20A7034F8DB
:10E07000022B120A4A700728F2D3254B00200EE02B
:10E080005022401C01FB0231228880B221F8102F5F
:10E0900062888A82A2880A85E28808348A87010019
:10E0A0000D29EDD3604B00200AE00C22401C01FB3F
:10E0B0000231228880B24A7134F8022B120A0A71A6
:10E0C00001000929F1D3002011E0594A2388401C9E
:10E0D00080B25354554A23881B0A5354554A6388C7
:10E0E00022F81130544AA388A41D22F811300100EF
:10E0F0000A29EAD35148218801805148618801806A
:10E100005048A188018034F8061F8180002050BD4E
:10E110006C2500202DE9F0413F4E00245FF4807211
:10E120000700032080462146300002F0B7F80025A2
:10E130000FB1FF20804639480021007818EB0020FD
:10E140003080B01C0AE0364B13EB41025378127852
:10E15000491C89B212EB032220F8022B0729F2D3C3
:10E16000304F00210EE05023491C02FB037289B29C
:10E17000138A0380938C4380138F4C3283801288E0
:10E18000C28008300A000D2AEDD3274F00210AE093
:10E190000C23491C02FB037289B21379527912EBEA
:10E1A000032220F8022B0A00092AF1D3002111E0F2
:10E1B0001E4B1F4F491C9B56BF5689B217EB0323BA
:10E1C00003801C4B33F8123043801B4B33F8122072
:10E1D0008280801D0A000A2AEAD318490988018032
:10E1E00017490988418017490A888280898820F860
:10E1F000061F04E0305D641CA4B22D18EDB2FF2CA4
:10E20000F8D3E843401C86F8FF0000213000FDF7FA
:10E21000F1FF0020BDE8F0817C3200203025002095
:10E22000402500206C250020502B0020182C0020B9
:10E230000C2C0020E42B0020F82B00203C2C00208C
:10E240003E2C002020200020024908800888002859
:10E25000FCD17047843400202DE9F043030008000E
:10E2600003249A1C991C88462E2189462B210025BF
:10E2700060B911703020507082F80290D070107127
:10E2800002F8055F1D70B2EB08009EE0012802DB7A
:10E2900002F8011B04E02D2102F8011B0100484295
:10E2A000060005210A2E08D30A27B6FBF7F66D1CD7
:10E2B000042D28BF79430A2EF6D20326B5FBF6F6C5
:10E2C0001E70032D28BF40182900092900F276800E
:10E2D000DFE801F06D6257473D33251B11053C49CE
:10E2E000002590FBF1F402F003F83034147002249E
:10E2F00082F80190921C374990FBF1F6303602F813
:10E30000016B641E5AD001F0F3FF334990FBF1F624
:10E31000303602F8016B641E50D001F0E9FF2F493E
:10E3200090FBF1F6303602F8016B641E46D001F026
:10E33000DFFF15B102F8019B0025294990FBF1F69A
:10E34000303602F8016B641E38D001F0D1FF254948
:10E3500090FBF1F6303602F8016B641E2ED001F00E
:10E36000C7FF5FF47A7190FBF1F1303102F8011BC5
:10E37000641E23D05FF47A7101F0BAFF0DB102F888
:10E38000019B642190FBF1F1303102F8011B641E06
:10E3900014D0642101F0ACFF0A2190FBF1F130317F
:10E3A00002F8011B641E09D00A2101F0A1FF3030E0
:10E3B00002F8010B02E0202002F8010BD81D824276
:10E3C000F9D300201070B2EB08005870BDE8F0835C
:10E3D00000CA9A3B00E1F5058096980040420F0084
:10E3E000A08601001027000000B50200080064218B
:10E3F00090FBF1F130311170642101F079FFC0B26E
:10E400000A2190FBF1F1303151700A2101F070FFC7
:10E4100030309070002002F8030F00BD00B50200FC
:10E420000800642101F064FFC0B20A2190FBF1F101
:10E43000303111700A2101F05BFF30305070002044
:10E4400002F8020F00BD000010B5040004BF002058
:10E4500010BD8008FFF7F8FF4000401C00FB00F1F2
:10E460008C4238BF401E10BDD0B5234E042000247E
:10E47000FDF7BAFEC143214889B20A0003889A43D6
:10E480000523170020D019273770160748BF092425
:10E49000560648BF0A24D60548BF0324960548BF40
:10E4A0000424560548BF0524130548BF0624D30499
:10E4B00048BF0724930448BF0224530448BF0124E3
:10E4C000120416D5082414E00288114211D03278C3
:10E4D0007AB90B4A167866B94E0548BF05240E0571
:10E4E00048BF06240E0748BF09240E0448BF08246D
:10E4F000137001802000D0BD7D34002048790020B9
:10E500007E34002070470000FEE70000FEE70000B8
:10E51000FEE70000FEE700007047000070470000C3
:10E52000704700007047000070470000704700000F
:10E5300070470000704700007047000070470000FF
:10E5400070470000704700007047000070470000EF
:10E5500070470000704700007047000070470000DF
:10E5600070470000704700007047000070470000CF
:10E5700070470000FDF70EBEFDF70EBE70470000AD
:10E5800070470000704700007047000070470000AF
:10E5900070470000704700007047000030B5314CF4
:10E5A00000211320FDF71CFE207918B12079401EB0
:10E5B000207130BD14202071206910B12069401EE7
:10E5C0002061218928480025152931BF258121890D
:10E5D000091821816189142903D361890818608190
:10E5E00003E000210320FDF7FBFD6079322803D210
:10E5F0006079401C60710CE0657101210420FDF719
:10E60000EFFDA089401CA081E08910B1E089401E87
:10E61000E0812078401C207020780C2806D32570DB
:10E62000A179012001B90125A571E071607810B1CF
:10E630006078401E6070A07810B1A078401EA07075
:10E64000FFF712FF01000BD0E0700848B0F900108E
:10E650000520491E41430320FDF7C2FD3C20608197
:10E6600030BD00BF7C340020ECFF000050290020AA
:10E6700070470000704700007047000070470000BE
:10E6800070470000704700007047000070470000AE
:10E69000704700007047000070470000704700009E
:10E6A000704700007047000070470000704700008E
:10E6B000704700007047000070470000704700007E
:10E6C000704700007047000070470000704700006E
:10E6D000704700007047000070470000704700005E
:10E6E00070470000704700002DE9F04F87B05FF4DD
:10E6F00040415FF0006001F0ADFDFDF781FD0B20B2
:10E70000FDF772FD48B9CF48CF4A002301B41E215E
:10E710003020FDF763FD01B0FEE7CC48CC4A002372
:10E7200001B432213020FDF759FD0720FDF75CFDD3
:10E73000C849002408600820FDF756FDC649086056
:10E740000920FDF751FDC54908600A20FDF74CFD81
:10E75000C349086000F040FFFFF760FCC1485FF468
:10E76000FA7101808800FFF76FFD00F0B9FFBE4825
:10E770008046002088F8000001B00CE054700420AE
:10E7800010705078022808BF1470002088F800002C
:10E79000B64801210170B64DB64F05F2BA2002907D
:10E7A000B548008840B900210220FDF719FD01217C
:10E7B0001420FDF715FD4EE001F0EAFB0498401C23
:10E7C00080B20490AD480699028889B291420ED079
:10E7D000008800260690AA4804990180049400F05D
:10E7E0004BFFF0B200F0FAFB761C092EF9D300F0D3
:10E7F000ADFB00F04BFD9D48007850B305F26E393B
:10E8000000F0C0FF01F02AF801F056F801F0C0F85E
:10E81000FFF746F8B9F926100A20491C41430220A7
:10E82000FDF7DEFC3878092818BFFFF74DF902988C
:10E83000017851F0020101700298017D51F002014E
:10E84000017599F8000050F0020089F8000087482F
:10E8500004708C48047098F8000000289BD086480B
:10E86000008808B900F03CFF83485FF4167105F298
:10E870005019018098F80000012819D1B9F9001049
:10E88000401AA9F8000099F8020050F0020089F837
:10E890000200B9F9500002280AD17B4800268455AD
:10E8A000761CB6F5966FFAD301210620FDF798FC89
:10E8B00098F80000022819D1387808B1012815D13C
:10E8C000724882465FF4FA60AAF80000BAF80000C5
:10E8D00038B10420FDF788FC8004F7D50220387099
:10E8E00004E03878022818BFFDF794FC98F800007F
:10E8F000032812D10020FFF70DFC387809280CD02E
:10E900006348644A002301B419465B20FEF79AFA73
:10E910005FF4FA70FFF798FC01B098F80000042843
:10E9200048D13878092845D15B48002319468246EA
:10E930005A48524601B4E620FEF784FA387850214E
:10E9400000FB0150B0F9101001B081B9B0F93810D6
:10E9500029B9B0F92400C0B2FFF774FA0EE001291A
:10E960000DD1B0F92400C0B2FFF70AFA06E0012980
:10E9700005D1B0F92400C0B2FFF736FA06000EB197
:10E98000474800E047480023524601B41946E620B4
:10E99000FEF758FA01B05FF4FA70FFF755FC3878CB
:10E9A000502100FB015001003A31097851F0020179
:10E9B00080F83A103C48834698F80000092840F057
:10E9C0008D80397801F2FF0A0D2971D23748502322
:10E9D0009C46405C142300FB035001FB0C00827C2E
:10E9E00052F00202827409B90C2004E05046C0B211
:10E9F000042808BF03202D49387009180A78032A13
:10EA000028BF0C7009785022504301FB03510918AC
:10EA10008A7C281852F001028A74010011F8122F22
:10EA200052F002020A700A7D52F002020A7510F8D2
:10EA30003A1F51F002010170017D51F00201017590
:10EA40004CE000BFF4200108FF0700001C21010872
:10EA5000FFFF000090340020382C0020402C0020C4
:10EA600094340020863400207F340020B82E00200B
:10EA70006C250020302500208A34002088340020B6
:10EA80005025002083340020987400208434002016
:10EA900044210108050400000A0500006421010862
:10EAA0006C21010874210108502B00204025002012
:10EAB0000C2001FB00B010F8912D52F00202027000
:10EAC0000D2914BF504615203870C0B20C2100FB30
:10EAD00001B010F8911D51F00101017098F800107B
:10EAE0000D200A2904D139780D292CBF3C703870CB
:10EAF00098F80010082957D1397801F2010A0A0064
:10EB00000D293BD2DB4850239C46805C142300FB3C
:10EB1000035002FB0C00827C52F0020282740C292A
:10EB200001D1002004E05046C0B2042808BF0520EF
:10EB3000D049387009180A78032A28BF0C70097860
:10EB40005022504301FB035109188A7C281852F0C7
:10EB500001028A74010011F8122F52F002020A70A9
:10EB60000A7D52F002020A7510F83A1F51F00201B4
:10EB70000170017D51F00201017515E00C2302FBCB
:10EB800003B212F8913D53F002031370152914BF1C
:10EB900087F800A0387038780C2100FB01B010F81D
:10EBA000911D51F0010101703978502005F2C81310
:10EBB0004843019028180090123082460C2001FB37
:10EBC00000B2AC48983A4018834605F208300590E8
:10EBD00098F80000052840F09F800D2980F08B8078
:10EBE00007290ED1D648007802282BD1B3F9780036
:10EBF000D44F17EB8007385F12285FDB401E388048
:10EC00005CE00B2901D00C2907D1BAF912000128C8
:10EC10002FDB401EAAF812002BE0052912D1CA48AA
:10EC2000007802280ED1185F1F2802DB1E381880DA
:10EC300003E00128A4BF401E1880987D50F0020018
:10EC400098753BE09BF800008DF80C00019FBC46D6
:10EC5000142700FB07506746C019B0F91070012F48
:10EC600002DB7F1E078204E0877AFF0644BF078924
:10EC7000078205290BD1B4480078F8B9A9F800003B
:10EC800099F8020050F0020089F8020016E0062907
:10EC90000AD1B3F92800032810D0B3F93C000B289F
:10ECA0000CDB0A20988709E0092907D10298B0F9FE
:10ECB0002600012802BF0598012707809AF8000066
:10ECC00050F002008AF800009AF8140050F0020098
:10ECD0008AF81400009F00983A373F7857F00207EF
:10ECE00000F83A7F009F00983A373F7D3A3057F05E
:10ECF0000207077510E0D07950F00200D07150780B
:10ED000050B3401E5070C0B2012804BF04201070E0
:10ED10005078062800D1147098F80000072868D1B0
:10ED20000D2959D29BF800008DF80C00019FBC46BC
:10ED3000142700FB07506746C019877C57F002076D
:10ED400087749DF80C00032827BF00208BF8000073
:10ED5000401C8BF8000002E006205070DBE7019FAA
:10ED60009BF80000BC46142700FB07506746C019FB
:10ED7000807A000644BF00208BF80000019F9BF8BA
:10ED80000000BC46142700FB07506746C019807A74
:10ED9000C00744BF00208BF80000019F9BF80000D3
:10EDA000BC46142700FB07506746C019807A8007CD
:10EDB00004D509291CBF00208BF80000019F9BF897
:10EDC0000000BC46142700FB07506746C019877C2B
:10EDD00057F0010787740CE0D07950F00200D07131
:10EDE000107803283CBF401C10701078032808BF1F
:10EDF000147098F8000006287FF4C7AC0D2980F045
:10EE000091805148072900780ED14D4A1278022A84
:10EE100032D1B3F978004B4911EB8000015FD12961
:10EE200063DA491C018060E00B2901D00C2909D16B
:10EE3000BAF91220BAF90A50AA4233DA521CAAF8D7
:10EE400012202FE0052917D1022815D1B9F9701029
:10EE50001A5F08001E38824202DA1E321A8003E06E
:10EE60008A42BCBF521C1A80987D50F002009875EF
:10EE70003BE000BF40250020019A9BF800709446BB
:10EE8000142207FB02556246AA18B2F91050B2F9D3
:10EE90000870BD4202DA6D1C158203E0957AED061A
:10EEA00048BF1482052909D1F8B9A9F8000099F8DA
:10EEB000020050F0020089F8020016E006290AD18B
:10EEC000B3F92800032810D0B3F93C000B280CDB61
:10EED0000A20988709E0092907D10298B0F926008D
:10EEE000012802BF0598012101809AF8000050F026
:10EEF00002008AF800009AF8140050F002008AF824
:10EF00001400009900983A31097851F0020100F894
:10EF10003A1F009900983A31097D3A3051F00201C8
:10EF2000017532E4D07950F00200D0715078062893
:10EF3000BFF424AC401C507000067FF422AC1EE4E9
:10EF4000472500202020002045250020F0B5CE4D8B
:10EF50001E4E0024002738000C2100FB0150C17A0E
:10EF600089070FD5C47241790368052201FB02317C
:10EF7000002302B4017936F81120817AC088FDF7A8
:10EF800061FF01B07F1CFFB2092FE4D3104807785E
:10EF90000D2F1AD3162F18D20E480178A9B1F337C6
:10EFA000FFB204700C20052207FB00504179036872
:10EFB00001FB023102B408490B78017936F81120BF
:10EFC000817AC088FDF73EFF01B0F0BDC022010884
:10EFD0003025002083340020823400202DE9F041C8
:10EFE0009A4EA74FA74D0100B6F900003B681422C6
:10EFF00000FB0230A44B0C2201FB023494498846EA
:10F000006179062929D8DFE801F0042A4381A9D1D2
:10F01000F900904E0620FDF7E7F85FF47A71484357
:10F02000010028001030FFF717F92800123001B452
:10F03000A17A208900233200FDF704FF287C0321F8
:10F040000023320000FB0150303001B4A17A208946
:10F05000283080B2FDF7F6FE02B0BDE8F081A98D40
:10F060002800C9B2FFF7DAF920B4207938F8102067
:10F07000A17A20890023FDF7E5FE40460C3001B45B
:10F08000A17A207938F81020208900231030E0E799
:10F09000217941B970490069B1F900104143280054
:10F0A0001030FFF7D9F8207901280ED16B483B6862
:10F0B0001422B0F90010B6F9500000FB02300069CC
:10F0C000414328001030FFF7C7F82079022804D107
:10F0D000002128001030FFF7BFF82800123001B4DB
:10F0E000A17A207938F8102020890023FDF7AAFEA4
:10F0F000287C0321002300FB0150303001B4A17AA9
:10F10000207938F8102020892830A2E7217941B9E8
:10F1100053490069B1F90010414328001030FFF74E
:10F120009BF8207901280ED14E483B681422B0F993
:10F130000010B6F9500000FB02300069414328007E
:10F140001030FFF789F82079022804D10021280027
:10F150001030FFF781F820790328B8E7217941B909
:10F1600041490069B1F90010414328001030FFF710
:10F1700073F8207901280ED13C483B681422B0F97D
:10F180000010B6F9500000FB02300069414328002E
:10F190001030FFF761F82079022804D100212800FF
:10F1A0001030FFF759F82079032890E7217941B909
:10F1B0002F490069B1F90010414328001030FFF7D2
:10F1C0004BF8207901280ED12A483B681422B0F967
:10F1D0000010B6F9500000FB0230006941432800DE
:10F1E0001030FFF739F82079022804D100212800D7
:10F1F0001030FFF731F82079032868E7217941B909
:10F200001D490069B1F90010414328001030FFF793
:10F2100023F8207901280ED118483B681422B0F950
:10F220000010B6F9500000FB02300069414328008D
:10F230001030FFF711F82079022804D100212800AE
:10F240001030FFF709F82079032840E7A4250020B3
:10F250007C210108050A0000D02B0020DA2B0020B9
:10F26000CE2B0020D82B0020D62B00204A7900205E
:10F27000D22B0020DC2B0020D42B0020DE2B002002
:10F280009034002024250020502B00202DE9F04F41
:10F29000002000248046C146CB49CC4F14238A4627
:10F2A00050210AF2902B04FB01A109FB03160D006B
:10F2B0001035B17C890740F107810020B074042C1F
:10F2C00001D0072C1FD1B07A800609D53068002301
:10F2D00001B47168E85E31F81020B17BB0895FE15C
:10F2E000B07A000600F15F81B6F9100032680A2199
:10F2F000002300FB012001B47168E85E31F81020A2
:10F30000B17BB0894CE1B07A800607D53068002324
:10F3100001B4B17B70680288B08941E1B17ABBF970
:10F320002800890777D5082C34D1BBF90010BBF928
:10F330001420CF4B891A1B68502200FB02A0142214
:10F34000B0F9380000FB023000694143380010304A
:10F35000FEF782FF3800123001B47168BBF9280053
:10F36000434631F81020B17BB089FDF76BFD387C46
:10F370000321434600FB0170303001B47168BBF9D2
:10F38000280031F81020B17BB089283080B2FDF719
:10F3900059FD02B00A2C2DD1B64B0AF23030B0F92B
:10F3A0001410B0F900001B681422091ABAF9B4014C
:10F3B00000FB02300069414338001030FEF74CFF7B
:10F3C0003800123001B4B17B706800230288B08924
:10F3D000FDF738FD387C0321434600FB01703C30CB
:10F3E00001B4B17B70680288B089283080B2FDF723
:10F3F00029FD02B0092C40F0D680B5F914106868D8
:10F40000C9B2FEF7F1FF6868002301B4A97CA868BF
:10F410000288288AC4E0B17A01292CD120203870D2
:10F42000B6F910100B2C09D1092905D131203870FB
:10F4300030207870B87009E0491C01E00A29F5D045
:10F440000A204143C9B2781CFEF7E8FF80B4706817
:10F45000B17B00230288B089FDF7F4FC59A001B408
:10F46000B17B706843460288B089183080B2FDF7DE
:10F47000E9FC02B097E080291CD0082C0DD1B6F928
:10F48000101033680A2201FB0231002302B47168B4
:10F4900031F81020B17BB08982E0B6F910003268F3
:10F4A0000A21002300FB012001B4B17B70680288AF
:10F4B000B08975E00A2C76D13068002301B4B17BA5
:10F4C00070680288B0896BE0397BA1426BD1381932
:10F4D000007F484567D13E480178002963D03D4F01
:10F4E00000210170042C01D0072C1CD1B07A8006B9
:10F4F00009D5306801B43B78685E716831F8102036
:10F50000B17BB0894CE0B6F9100032680A2100FBEB
:10F51000012001B43B787168B5F9000031F8102082
:10F52000B17BB0893CE0B07A800607D5306801B481
:10F530003B787068B17B0288B08931E0082C0ED12D
:10F54000B6F9100032680A2100FB012001B43B78B3
:10F550007168BBF9280031F81020B17B0AE0B6F9D8
:10F56000100032680A2100FB012001B43B7870686A
:10F57000B17B0288B089FDF765FC01B0092C12D17E
:10F58000B07A80070FD5B5F914106868C9B2FEF7D4
:10F590002BFF686801B43B78A868A97C0288288A98
:10F5A000FDF750FC01B04846401CC0B2814604281B
:10F5B000FFF472AE641CE4B20D2CFFF46CAEBDE837
:10F5C000F08F00BF250000006C25002024250020BE
:10F5D0008334002082340020F0B5234E234D0024D4
:10F5E000306800278088401C01280EDA13E0204A8A
:10F5F00014217F1C1268BFB200FB01210A2200FB0C
:10F60000025010F5826000F065FE3168380089888C
:10F61000491C8842EBDB3068818829868188A5F8FF
:10F6200080100021A5F8D010A5F82011C088401C3A
:10F6300001280EDA13E00F4A1421641C1268A4B2E8
:10F6400000FB01210A2200FB025010F5956000F03A
:10F6500041FE31682000C988491C8842EBDB3068D4
:10F66000C088A5F8AC01F0BD402C00206C2500201E
:10F6700090340020382C002000B50620FCF7B4FDA3
:10F68000124B80B20021984228BF0121104B9842B2
:10F6900024BF491C89B20F4B984224BF491C89B230
:10F6A0000D4A904224BF491C89B20C480A220368C3
:10F6B00001FB0232002304B4426832F81120817B3E
:10F6C0008089FDF7BFFB01B000BD00BFB90B000092
:10F6D000AD0D00003D0F000005100000C026002009
:10F6E000B0B501215C4C2420FCF77AFD00211420E8
:10F6F000FCF776FD0020FCF757FD1420FEF7A4FD73
:10F7000001210620FCF76CFD002100225027002378
:10F710001500142005FB074503FB00505B1C9BB242
:10F72000857C55F002058574042BF1D3521C92B2EE
:10F730000D2AECD30F4D002002000C23401C02FBCD
:10F74000035280B2D37A53F00203D3720928F3D361
:10F7500009480078092805D004F2E22084F81E1335
:10F760000170017505485FF416710180044801219C
:10F770000170B0BD502B0020302500208A340020BD
:10F78000B82E00202DE9F041AB4C334D314F002015
:10F790002E001036207400210520FCF721FDB6F95B
:10F7A0001410092005F25018FCF71AFDB6F92810BC
:10F7B0000A20FCF715FD3888B6F93C104843C11102
:10F7C00010EB116001120020FCF70AFDB6F90000F1
:10F7D00078B9B8F9640011280BDB786881880A20B1
:10F7E000491CFCF7FDFC01210520FCF7F9FC012078
:10F7F0002074B6F964100B20FCF7F2FCB6F978100F
:10F800000C20FCF7EDFC7888B5F99C104843C11139
:10F8100010EB116001120120FCF7E2FCB6F9500078
:10F8200078B9B8F9640011280BDB786881880C205E
:10F83000491CFCF7D5FC01210520FCF7D1FC022076
:10F840002074B8F9000018B901210620FCF7C8FCA3
:10F85000BDE8F0813C2C00206C25002070B5134CD5
:10F860000121754E2420FCF7BBFCB4F96450142030
:10F87000ADB24543F06F4019B0F908100720FCF70E
:10F88000AFFCF06F401941890820FCF7A9FC084A39
:10F890000848B4F9641032F811100160B4F900009E
:10F8A00018B901210620FCF79BFC70BDBC26002086
:10F8B000782501088C34002070B5314C314D324E22
:10F8C000B4F9000078B924210F20FCF789FC30003E
:10F8D00084302860B4F914000C2100FB01604189D8
:10F8E0000D20FCF77DFCB4F9000002280FD1B4F91B
:10F8F00014000C2100FB016041890D20FCF770FC15
:10F9000006F21410286024210F20FCF769FCB4F9DA
:10F91000000001280ED1B4F914000C2100FB016095
:10F92000CC3641890D20FCF75BFC2E6024210F2092
:10F93000FCF756FCB4F9000003281FD1B4F91400F9
:10F94000124D0E2100FB015001891020FCF748FCEC
:10F95000B4F914000E2100FB015041891120FCF77D
:10F960003FFCB4F914000E2100FB01504089401CFB
:10F9700010EBD07041101220FCF732FC70BD00BFBC
:10F980005C270020500402405C2D0020442C002005
:10F990002DE9F041274C284E254F04F23030B0F9C4
:10F9A0001410B0F9000004F2402504F23808091AD6
:10F9B0002220FCF715FCB5F90000B5F9141011EB85
:10F9C000C0012020FCF70CFCB5F9000088B9B8F99B
:10F9D0000000B7F90010321892F9502016EB4000E1
:10F9E000008D891A890291FBF0F0C1B22120FCF749
:10F9F000F7FBB5F90000012811D1B8F95000B7F9AB
:10FA00000410321892F95C2016EB4000808F891A9E
:10FA1000890291FBF0F0C1B22120FCF7E1FBB4F9BF
:10FA2000500118B901210620FCF7DAFBBDE8F0818E
:10FA3000202000206C250020BC2B00202DE9F04F59
:10FA4000E54C86B00020E36F8046E084E348142252
:10FA500000F2B419B9F9001001FB02319622C989EC
:10FA6000C4F86880C4F86C80D1F58061C4F87080F7
:10FA700051434A12C4F8748011EB9251B9F9142021
:10FA80008912891809B203910021A181FF21A17374
:10FA9000E173010038308246D148EC31049183464D
:10FAA000207C002840F0D380002505E06D1C2DB29D
:10FAB000B5F5805F80F2CF81CA4810EB8506B9F9B1
:10FAC000000011280CDA0120FCF78EFB58B9A08C3D
:10FAD000854208D10499B1F9641021B9401CA08471
:10FAE000FCF772FB30603268A06EBAF91430266FF2
:10FAF0002272217A4018A0660800C31AA36703FB8C
:10FB000003632367237B8B4238BF2173A37B994216
:10FB100038BFA173BAF96460676F110A6172637AC2
:10FB2000E16EC918E16619008E1BA66706FB067612
:10FB30006667667B9E4238BF6373E67BB34238BF1D
:10FB4000E373130C01261E40A672520C01231340CE
:10FB5000E372039AAA42A9DAE28CCB4B9A42A5D26D
:10FB6000039BEE1ABAF9003036B214EB4302128D41
:10FB70004243E01890F95000531212EB9352921244
:10FB80008018BAF95020207014EB4200808F48434F
:10FB9000A11891F95C10421210EB9250E26F8012A2
:10FBA00008186070B9F90000142100FB01200190D1
:10FBB0000FE00228B8BF0120A06700997F1C887061
:10FBC00000F064F90099C8702078E784A07060782C
:10FBD000E070019AE78CB102D289380000FB121163
:10FBE0000129FFF663AF711E89020291A178227884
:10FBF000531A019A9C46D389029A43439A1A634640
:10FC000053435A1213EB9252921289181BEB800243
:10FC1000217100921170019BE1786278DB89521AA0
:10FC20005843029BC01A4243501212EB905080126C
:10FC3000081860710099142248700498A17AB0F9EC
:10FC4000000001FB0200C828B3DBC720B4E7002591
:10FC5000644810EB85060120FCF7C6FA58B9A08C61
:10FC6000854208D10499B1F9641021B9401CA084DF
:10FC7000FCF7AAFA30603268A36E2272276F100A6E
:10FC80006072207A617A46189B19A366E366BAF916
:10FC90001430C61AA66706FB0676CB1AA36703FBC9
:10FCA0000363266723676367237B834238BF207320
:10FCB000237B8B4238BF2173237B6373A37B9842E2
:10FCC00038BFA073A37B994238BFA173A37B0126E1
:10FCD000E373130C1E40A672520C01231340BAF9B1
:10FCE0002820E3729AB9BAF9003014EB4302128D5E
:10FCF000E31893F95030504346124A4310EB9650A4
:10FD0000801218182070501212EB905012E0BAF9BD
:10FD1000503014EB4302928FE31893F95C30504358
:10FD200046124A4310EB9650801218182070501259
:10FD300012EB90508012181860700398A84280F25D
:10FD40008480E08C5049884280F07F800399B9F923
:10FD50000000E26F6E1A142136B200FB0120019000
:10FD60000BE00228B8BF0120A06700997F1C8870B3
:10FD700000F08CF80099C870E7840498A17A1422E6
:10FD8000B0F9000001FB0200711E89020290E78CAD
:10FD9000059101993800C9894143B1EB862F2FDACB
:10FDA000A1786278531A019A9C46D389059A4343F5
:10FDB0009A1A63461BEB800053435A1213EB92527C
:10FDC0009212891861710090017000984170029838
:10FDD000C828C6DBC720C7E7BC2B00206C25002045
:10FDE00098740020983400200228B8BF0120A06732
:10FDF00000997F1C887000F049F80099C870E7846A
:10FE00000199E78C2278C98938004143B1EB862FEC
:10FE10001ADA6178531A019A9C46D389059A4343AA
:10FE20009A1A63461BEB800053435A1213EB92520B
:10FE30009212891821710090017000984170029807
:10FE4000C828D1DBC720D2E7A2706D1C2DB2B5F552
:10FE5000805FFFF6FDAE0020002616EB80015944BE
:10FE60000A790A7041425A4616EB8101511811F580
:10FE700095610A78761C042E0A71EEDB401C04287A
:10FE8000EADB06B0BDE8F08F2B010000CD493F4B07
:10FE90002DE9F00F83B0B1F93C010A0031F99C9FC4
:10FEA000B1F96410984698F8003098F8055098F821
:10FEB00010601032B2F93C404519B5EB09050295C6
:10FEC00098F80450C3181B1B45192C1B98F80B50AD
:10FED00001942D4C891EA246B8F8264014EB0A0B5B
:10FEE00098F8014007290094B2F95040B2F9002077
:10FEF0003AD8DFE801F004101A1A21282D3426B967
:10FF000000981818B0EB090031E002B10198002CFC
:10FF10002DD002982BE026B90098181A19EB000092
:10FF200025E002B1019814B3F3E798F80A100D40E8
:10FF3000142105FB01001AE09BF800109AF82B2110
:10FF4000891A081813E09BF82C119AF85722F7E742
:10FF50009BF858129AF88323891A081807E09BF82F
:10FF600084139AF8AF24EBE7142105FB0100C8289D
:10FF700001DBC72002E00228B8BF0120C0B203B0F5
:10FF8000BDE8F00F704700BF74200020BC2B00209C
:10FF90008C482DE9F04F8C4C804608F24020B0F997
:10FFA0000010B0F9140008F25016002710EBC10140
:10FFB000864881468648824686488346B6F9500080
:10FFC000042847D8DFE800F0031D38404000202017
:10FFD000FCF706F90220FCF707F940B1FFF72EFD08
:10FFE000B6F9640039F81000CBF8000032E0DBF815
:10FFF000000000282ED1A08C70498842EED3A7843F
:020000040801F1
:10000000ECE72020FCF7ECF80220FCF7EDF80028E4
:10001000E4D1DBF80000E8B9002352461754401C35
:1000200080B25FF496629042F7D3B6F9640039F873
:100030001000CBF800000DE02020FCF7D1F80220E2
:10004000FCF7D2F830B103E020212020FCF7C8F8FB
:10005000FFF7F4FCFDF770FBF05F454638350028EC
:1000600030D10320FCF7C0F860B301210620FCF773
:10007000B7F8B6F9640039F81000CBF80000B6F90B
:100080005000A784022806D101203080B07850F0BB
:100090000200B07016E0042814D10020AA8A1AEBDE
:1000A0008001401C0A70B5F8642080B24A70424654
:1000B00032F8EC3F50328B701288CA705FF496723F
:1000C0009042EBD3E95FA26E601890F9500014EBF8
:1000D0004101098D920A5143E26E090B4018B5F9AE
:1000E0001410920A401AB5F950106082601890F905
:1000F0005C0014EB4101898F5143090B4018B5F99D
:100100006410401AA083206F000BFEF79DF9E95F91
:10011000621892F9502014EB4101098D414312EB12
:1001200091206083606F000BFEF78EF9B5F95010D7
:10013000237BB5F9148014EB4102968F204A611895
:1001400091F95C10704311EB90201080EA5FB5F9D3
:100150006450B146667B14EB4200008DA21892F900
:10016000502009FB06F643435F1213EB97537712B7
:100170009B1216EB9756A77BD318B3EB0803E382C9
:1001800078434712B61210EB975080121018E27B9A
:100190008E19761B268409FB02F2B0EB080020833F
:1001A0005712181A12EB975292128918491B618440
:1001B000A082701AE083BDE8F08F00BFFF0F00003F
:1001C0004A7900206C250020BC2B002078250108EE
:1001D000987400208C34002030BF704720BF7047D7
:1001E00040BF7047BFF36F8F7047BFF34F8F7047AB
:1001F000BFF35F8F704701DF7047EFF314807047E4
:1002000080F31488BFF36F8F7047EFF30980704756
:1002100080F309887047EFF30880704780F30888FF
:10022000704762B6704772B67047EFF31080704740
:1002300061B6704771B67047EFF31380704780F373
:1002400011887047EFF31280704740BA704700BAC8
:1002500070470000034A024B0B4003431360704792
:1002600080FFFF1F08ED00E07047000010B581B06F
:100270000400009469460120FFF7F6FFF9E700004B
:1002800000F030B810B50300002A04E011F8014B6B
:10029000521E03F8014BF9D110BD0000C9B2030092
:1002A000002A02E003F8011B521EFBD17047000038
:1002B00001E0401C491C02780B789A4203D1002AC5
:1002C000F7D10020704702D25FF0FF307047012065
:1002D00070470000020011F8013B02F8013B002BBF
:1002E000F9D17047014CA646204700006D02010875
:1002F0008C4690FBF1F10CFB11007047914A000015
:10030000BC2E0020BC2E0020B90E000000200020D2
:1003100014030108E0FFFF071FF8E007FFFF0000DC
:100320001F0500F8E0FFEF7BFFFFE00700F8EF7B21
:10033000FF071F00AF000600740002004B0006001C
:100340002300060000000000000000000000000084
:10035000FFFFE0FFE0BDFF07F7051FF817B8E00754
:10036000E005EF7B1F0500F81F0000000000000003
:10037000000000000000000000000000000000007D
:10038000000000000000000000000000000000006D
:10039000000000000000000000000000000000005D
:1003A000000000000000000000000000000000004D
:1008600000000000000000007556006D5600562084
:10087000006B56006E53007553006D5300532000FB
:10088000E8210108C0220108010010002300E40053
:1008900001000200982201087C21010801001000DB
:1008A0002300D800000002007C2900207C210108E0
:1008B000080000003300D80005000200B82201083B
:1008C000C0220108C80020000000000096000200BD
:1008D000FC210108C2220108010010005600E400BA
:1008E00001000200982201087E2101080100100089
:1008F0005600D800010002007C2900207E2101085A
:10090000080000006600D80001000200B8220108BB
:10091000C2220108C800200000000000640002009C
:1009200010220108C4220108010010008900E4001F
:10093000010002009022010880210108000010003F
:100940008900D800000002008822010880210108E7
:10095000000000009900D80000000200B822010841
:10096000C4220108C7002000000000003C00020073
:1009700024220108C622010809001000BC00E4007E
:1009800001000200902201088221010800001000ED
:10099000BC00D80000000200882201088221010862
:1009A00000000000CC00D80000000200B8220108BE
:1009B000C6220108C7002000000000001400020049
:1009C00090210108A4210108010000000000E400BA
:1009D00000000200A8210108DC2101080400000039
:1009E0000000D80000000200A8210108DC21010855
:1009F000040080000000000000000400A82101089D
:100A0000DC21010804008000000000000000040058
:100A1000CC2201080823010804001000EF00E400C4
:100A200000000200142A00200A2301081A00000016
:100A3000EF00D8001100020000230108082301087C
:100A4000D30E20006E010000000002000023010808
:100A500008230108D30E80005000000000000200AF
:100A60000C230108FC230108030010001A01E40014
:100A70000300020034230108FE23010813000000D4
:100A80001A01D8000D00020024250020FC230108D3
:100A9000640080003201E4003200040024250020BC
:100AA000FC2301080000800000000000000004009A
:100AB00000240108C0220108030010004D01E400D9
:100AC0000100020050240108C022010807001000A4
:100AD0007501E40000000200A02401087C21010847
:100AE000C80020004D01D80000000200A024010829
:100AF0007C210108000080006501D800000004008E
:100B0000AC240108B0250108C70020002300000024
:100B1000B4000200B4240108B0250108C700200079
:100B20003E0000002800020028250108C02201081C
:100B3000010010003A01C500000002002425002039
:100B40007C210108F00002005601C50046000200A9
:100B5000CC240108B825010801001000860000001F
:100B60000000000024250020B8250108FF00020035
:100B7000CE00000000000100E0240108B8250108B3
:100B800001001000E600000000000000E024010861
:100B9000B8250108000080000000000000000400EB
:100BA000BC240108B42501082C01200038010000F4
:100BB00050000200C4240108B42501082C012000C3
:100BC00053010000180102003C250108B42501086A
:100BD000000080003A01B600000002002425002039
:100BE000B62501082C0102005601B6005000020093
:100BF000402B0020B0250108000020003A01A7008A
:100C00000000020024250020B2250108090001008F
:100C10005601A7000500020024250020B025010888
:100C200000008000000000000000040024250020D7
:100C3000B025010800008000000000000000040052
:100C4000482B0020B0250108000020003A01980040
:100C50000000020024250020B22501080A0001003E
:100C6000560198000500020024250020B025010847
:100C70000000800000000000000004002425002087
:100C8000B025010800008000000000000000040002
:100C90000000000000000000000000000000000054
:100CA0000000000000000000000000000000000044
:100CB0000000000000000000000000000000000034
:100CC0000000000000000000000000000000000024
:100CD0000000000000000000000000000000000014
:100CE0000000000000000000000000000000000004
:100CF00000000000000000000000000000000000F4
:100D000000000000000000000000000000000000E3
:100D100000000000000000000000000000000000D3
:100D200000000000000000000000000000000000C3
:100D300000000000000000000000000000000000B3
:100D400000000000000000000000000000000000A3
:100D50000000000000000000000000000000000093
:100D60000000000000000000000000000000000083
:100D70000000000000000000000000000000000073
:100D80000000000000000000000000000000000063
:100D90000000000000000000000000000000000053
:100DA0000000000000000000000000000000000043
:100DB0000000000000000000000000000000000033
:100DC0000000000000000000000000000000000023
:100DD0000000000000000000000000000000000013
:100DE0000000000000000000000000000000000003
:100DF00000000000000000000000000000000000F3
:100E000000000000000000000000000000000000E2
:100E100000000000000000000000000000000000D2
:100E200000000000000000000000000000000000C2
:100E300000000000000000000000000000000000B2
:100E400000000000000000000000000000000000A2
:100E500000000000422E4C0000000000566F6C00A5
:100E6000000000004025010804003A0156018902F3
:100E70004025010804013A0156017A024025010883
:100E800000023A0156016B024025010800033A01B5
:100E900056015C024025010800043A0156014D024A
:100EA0004025010801053A0156013E02402501088E
:100EB00001063A0156012F024025010801023A01BC
:100EC000560120024025010802033A015601110291
:100ED0000000000000000000000000000000000012
:100EE0000000000000000000000000000000000002
:100EF00000000000000000000004000400040004E2
:100F000000040004000400040004000400040004C1
:100F100000040004000400040004000400040004B1
:100F200000000000000000000000000000000000C1
:100F300000000000000000000000000000000000B1
:100F400000000000000000000000000000000000A1
:100F50000001000100000000203130487A2000002C
:100F6000B3003F9C3200203230487A200000B300AA
:100F70001F4E3200203530487A200000B3003F1F5A
:100F8000320021313030487A2100B3009F0F320007
:100F900021323030487A2100B300CF0732002135AA
:100FA0003030487A2100B3001F03320020314B4813
:100FB0007A200000B3008F01320020324B487A20A3
:100FC0000000B300C700320020354B487A200000F3
:100FD00011001F0332002131304B487A21001100EB
:100FE0008F0132002132304B487A21001100C700B6
:100FF00032002135304B487A210000009F05320035
:101000003130304B487A00000000CF0232003230DD
:10101000304B487A00000000670132003530304B19
:10102000487A000000008F00320020314D487A20BD
:10103000000000004700320020324D487A200000B6
:1010400000002300320020344D487A2000000000C8
:101050001100320020364D487A20000000000B00BD
:10106000320020384D487A2000000000080032008D
:10107000203130487A20000013000F2720323048FA
:101080007A20000013008713203530487A200000B2
:101090001300CF0721313030487A21001300E703D5
:1010A00021323030487A21001300F30121353030ED
:1010B000487A21001300C70020314B487A200000F5
:1010C0001300630020324B487A20000013003100E7
:1010D00020354B487A200000130013002131304B9B
:1010E000487A2100130009002132304B487A210050
:1010F00013000400000027008E00300109021103D4
:1011000041048F05F0065A08C009190B590C760DD9
:10111000680E260FAB0FF30FFF0FD70F700FCE0E19
:10112000F50DED0CBD0B6F0A0E09A4073E06E50494
:10113000A50388029601D80053000B000000E300CD
:10114000C601AA028D037104540538061B07FF0768
:10115000E208C609A90A8D0B700C540D370E1B0F3F
:10116000FE0F1B0F370E540D700C8D0BA90AC6090C
:10117000E208FF071B073806540571048D03AA0215
:10118000C601E30000007500EA005F01D4014902D6
:10119000BE023303A8031D04920407057C05F10574
:1011A0006606DB065007C5073A08AF082409990907
:1011B0000E0A830AF80A6D0BE20B570CCC0C410D9A
:0D11C000B60D2B0EA00E150F8A0FFF0F01AC
:1011D0007556006D56005620006B560043485F411F
:1011E000000000005A45524F0000000044494646A6
:1011F00000000000564F54414745000043485F42FD
:10120000000000002020202020202020205061729B
:10121000616D65746572732076657273696F6E2097
:101220006572726F72202020202020202020200054
:101230002020202020202020205361766520746803
:10124000652063616C6962726174696F6E206461AC
:101250007461202020202020202020002020202019
:1012600020202020202020526573746F7265206436
:10127000656661756C747320646174612020202040
:101280002020202020202000213130562100000085
:1012900020355620000000002032562000000000BB
:1012A0002031562000000000302E3556000000008E
:1012B000302E325600000000302E31560000000063
:1012C00035306D560000000032306D5600000000D1
:1012D00020496E7075742000207374616E646172B1
:1012E0006420766F6C7461676520746F2000000065
:1012F00043485F412020000043485F422020000017
:101300002020202020506C6561736520636F6E6E15
:1013100065637400696E70757420746F20474E4465
:1013200020202020202020002043485F4120000072
:101330002043485F42200000202020205075736821
:101340002074686520000000206B657920746F2090
:10135000636F6E6669726D20657869742020202045
:1013600020202020000000003130302D3132306D3F
:10137000560000003235302D3330306D56000000FD
:10138000302E352D302E365620000000312E302DD7
:10139000312E325620000000322E352D332E30569D
:1013A00020000000352E302D362E30562000000053
:1013B0002031302D31325620200000002032352DD2
:1013C00033305620200000002035302D3630562096
:1013D000200000007375697461626C652000000074
:1013E000204578697420776974686F75742063612B
:1013F0006C6962726174696F6E200000000045784C
:101400006974207769746820736176652063616C04
:101410006962726174696F6E0000000045786974DA
:10142000207769746820526573746F7265206465F3
:101430006661756C747300000000000020004000BD
:10144000800040002000100008001000000042FE54
:1014500002000000468A9292620000448292926CDE
:10146000000018284AFE0A000040407E404000006C
:1014700000000000000000007000FF03700000008A
:1014800000000000000000000200040008007000DE
:1014900070007000800000010002000020002000A9
:1014A000200020007000700070002000200020004C
:1014B0002000000000020001800070007000700039
:1014C0000800040002000000000000000000800787
:1014D0004000200020002000200020004000800765
:1014E00000000000000000000000000000000F00ED
:1014F00010002000200020000C038C01C0006000C0
:10150000300018030C0300000000800160021C0280
:101510006A02840240010000020202020202020288
:1015200002020202FE03000000000000F800FC01BD
:101530000603020200000000000000000202060391
:10154000FC01F8000000000000008C01D8007000D1
:101550007000D8008C010000000020002000F8007E
:10156000F8002000200000002000200010000F00E4
:10157000000000000000000000002000200020000B
:1015800020002000200000000000000000030003F5
:1015900000000000000000008001C000600030007A
:1015A00018000C0006000000FC01FE0342022202AB
:1015B0001202FE03FC010000000008020C02FE0300
:1015C000FE0300020002000004038603C20262025E
:1015D00032021E030C030000040106032202220251
:1015E0002202FE03DC0100006000700058004C0283
:1015F000FE03FE03400200001E011E021202120240
:101600001202F203E2010000F801FC0326022202AA
:101610002202E003C001000006000600C203E2034C
:1016200032001E000E000000DC01FE032202220236
:101630002202FE03DC0100001C003E022202220204
:101640002203FE01FC0000000000000000009801E1
:101650009801000000000000FA02FA02FA02FA0201
:10166000FA02FA02FA02FA02000020007000D80022
:101670008C01060302020000900090009000900090
:1016800090009000000000000000020206038C01A0
:10169000D80070002000000018001C000400440363
:1016A00064033C0018000000F80104017202720299
:1016B000F202840278000000F003F8034C004600B8
:1016C0004C00F803F00300000202FE03FE032202B6
:1016D0002202FE03DC010000F800FC010603020206
:1016E000020206038C0100000202FE03FE03020256
:1016F0000603FC01F80000000202FE03FE032202C2
:10170000720206038E0300000202FE03FE032202A1
:10171000720006000E000000F800FC010603220221
:101720002202E601EC030000FE03FE03200020007D
:101730002000FE03FE030000000000000202FE0382
:10174000FE03020200000000C001C003000202020A
:10175000FE03FE01020000000202FE03FE03300051
:10176000F800CE03060300000202FE03FE0302029D
:101770000002000200030000FE03FE031C0038000C
:101780001C00FE03FE030000FE03FE031C003800E5
:101790007000FE03FE030000F800FC0106030202D5
:1017A0000603FC01F80000000202FE03FE03220211
:1017B00022003E001C000000FC01FE030202820227
:1017C0000203FE03FC0100000202FE03FE032200EE
:1017D0006200FE039C0300000C011E033202220281
:1017E0006202CE038C01000000000E000602FE0320
:1017F000FE0306020E000000FE01FE0300020002CE
:101800000002FE03FE0100007E00FE0080010003D6
:101810008001FE007E000000FE00FE038003E00168
:101820008003FE03FE0000000603DE03F800200034
:10183000F800DE030603000000001E003E02E00385
:10184000E0033E021E0000008E03C6036202320265
:101850001E038E030000000000020003C0022002ED
:1018600018020402FE030000000022004200FE01F4
:10187000FE034002200200002000100008000600C5
:101880000800100020002000000020021002FC03CD
:10189000FE0312002200000000000002000200020D
:1018A0000002000200020000020202020202020222
:1018B0000202020202020202C001E8032802280218
:1018C000F801F003000200000202FE03FE01200204
:1018D0002002E003C0010000E001F003100210024A
:1018E00010023003200100000000C001E0032002CC
:1018F0002202FE03FE030000E001F003500250024A
:10190000500270036001000000002002FC03FE038F
:10191000220202000400000030017803480248025D
:10192000F803F801000000000202FE03FE0320009D
:101930001000F003E0030000000000000002F603C6
:10194000F603000200000000000000010003100286
:10195000F603F601000000000202FE03FE0362002F
:10196000F000980308030000000000000202FE03DC
:10197000FE03000200000000F803F8031800F00363
:101980001800F803F00300000800F803F003080053
:101990000800F803F00300000000F001F80308025B
:1019A0000802F803F00100000802F803F0034802FF
:1019B00048007800300000003000780048004802FD
:1019C000F803F803000200000802F803F00318020D
:1019D0000800180030000000000010013803680201
:1019E0004802D8039001000010001000F801FC0329
:1019F0001002100300010000F801F80300020002C9
:101A0000F801F803000200000000F800F8010003EC
:101A10000003F801F8000000F800F803000380015B
:101A20000003F803F800000008021803B001E0000A
:101A3000B00118030802000038007802400240029A
:101A40004002F801F800000018038803C802680289
:101A50003802180300000000F80088008E032200FE
:101A6000FA02FA02FA02FA02000000000000FE0385
:101A7000FE03000000000000FA02FA02FA02FA0275
:101A8000FA020202FE030000F80088008E03020240
:101A90000202020202020202EF7BEF7BEF7BEF7B8E
:101AA000EF7BEF7BEF7BEF7BEF7BEF7BEF7BEF7BE6
:101AB000EF7BEF7BEF7BEF7BEF7BEF7BEF7BEF7BD6
:101AC000EF7BEF7BEF7BEF7BEF7BEF7BEF7BEF7BC6
:101AD000EF7BEF7BEF7BEF7BEF7BEF7BEF7BEF7BB6
:101AE000EF7BEF7BEF7BEF7BEF7BEF7BEF7BEF7BA6
:101AF000EF7BEF7BEF7BEF7BEF7BEF7BEF7BEF7B96
:101B0000EF7BEF7BEF7BEF7BEF7BEF7BEF7BEF7B85
:101B1000EF7BEF7BEF7BEF7BEF7BEF7BEF7BEF7B75
:101B2000EF7BEF7BEF7BEF7BEF7BEF7BEF7BEF7B65
:101B3000EF7BEF7BEF7BEF7BEF7BEF7BEF7BEF7B55
:101B4000EF7BEF7BEF7BEF7BEF7BEF7BEF7BEF7B45
:101B5000EF7BEF7BEF7BEF7BEF7BEF7BEF7BEF7B35
:101B6000EF7BEF7BEF7BEF7BEF7BEF7BEF7BEF7B25
:101B7000EF7BEF7BEF7BEF7BEF7BEF7BEF7BEF7B15
:101B8000EF7BEF7BEF7BEF7BEF7BEF7BEF7BEF7B05
:101B9000EF7BEF7BEF7BEF7BEF7BEF7BEF7BEF7BF5
:101BA000EF7BEF7BEF7BEF7BEF7BEF7BEF7BEF7BE5
:101BB000EF7BEF7BEF7BEF7BEF7BEF7BEF7BEF7BD5
:101BC000EF7BEF7BEF7BEF7BEF7BEF7BEF7BEF7BC5
:101BD000EF7BEF7BEF7BEF7BEF7BEF7BEF7BEF7BB5
:101BE000EF7BEF7BEF7BEF7BEF7BEF7BEF7BEF7BA5
:101BF000EF7BEF7BEF7BEF7BEF7BEF7BEF7BEF7B95
:101C0000EF7BEF7BEF7BEF7BEF7BEF7BEF7BEF7B84
:101C1000EF7BEF7BEF7BEF7BEF7BEF7BEF7BEF7B74
:101C2000EF7BEF7BEF7BEF7BEF7B0000EF7B000038
:101C300000000000000000000000000000000000A4
:101C40000000000000000000000000000000000094
:101C50000000000000000000000000000000000084
:101C60000000000000000000000000000000000074
:101C70000000000000000000000000000000000064
:101C80000000000000000000000000000000000054
:101C90000000000000000000000000000000000044
:101CA0000000000000000000000000000000000034
:101CB0000000000000000000000000000000000024
:101CC0000000000000000000000000000000000014
:101CD0000000000000000000000000000000000004
:101CE00000000000000000000000000000000000F4
:101CF00000000000000000000000000000000000E4
:101D000000000000000000000000000000000000D3
:101D100000000000000000000000000000000000C3
:101D200000000000000000000000000000000000B3
:101D300000000000000000000000000000000000A3
:101D40000000000000000000000000000000000093
:101D50000000000000000000000000000000000083
:101D60000000000000000000000000000000000073
:101D70000000000000000000000000000000000063
:101D80000000000000000000000000000000000053
:101D90000000000000000000000000000000000043
:101DA0000000000000000000000000000000000033
:101DB000000000000000000000000000EF7B0000B9
:101DC000EF7B0000000000000000000000000000A9
:101DD0000000000000000000000000000000000003
:101DE00000000000000000000000000000000000F3
:101DF0000000EF7B00000000000000000000000079
:101E000000000000000000000000000000000000D2
:101E100000000000000000000000000000000000C2
:101E200000000000EF7B0000000000000000000048
:101E300000000000000000000000000000000000A2
:101E40000000000000000000000000000000000092
:101E5000000000000000EF7B000000000000000018
:101E60000000000000000000000000000000000072
:101E70000000000000000000000000000000000062
:101E80000000000000000000EF7B000000000000E8
:101E90000000000000000000000000000000000042
:101EA0000000000000000000000000000000000032
:101EB00000000000000000000000EF7B00000000B8
:101EC0000000000000000000000000000000000012
:101ED0000000000000000000000000000000000002
:101EE000000000000000000000000000EF7B000088
:101EF00000000000000000000000000000000000E2
:101F000000000000000000000000000000000000D1
:101F10000000000000000000000000000000EF7B57
:101F200000000000000000000000000000000000B1
:101F300000000000000000000000000000000000A1
:101F40000000000000000000000000000000000091
:101F5000EF7B0000EF7B0000000000000000EF7B43
:101F60000000000000000000EF7B00000000000007
:101F70000000EF7B0000000000000000EF7B00008D
